{
  "contractName": "BancorNetworkPathFinder",
  "abi": [
    {
      "constant": false,
      "inputs": [
        {
          "name": "_onlyOwnerCanUpdateRegistry",
          "type": "bool"
        }
      ],
      "name": "restrictRegistryUpdate",
      "outputs": [],
      "payable": false,
      "stateMutability": "nonpayable",
      "type": "function"
    },
    {
      "constant": true,
      "inputs": [],
      "name": "onlyOwnerCanUpdateRegistry",
      "outputs": [
        {
          "name": "",
          "type": "bool"
        }
      ],
      "payable": false,
      "stateMutability": "view",
      "type": "function"
    },
    {
      "constant": false,
      "inputs": [],
      "name": "updateRegistry",
      "outputs": [],
      "payable": false,
      "stateMutability": "nonpayable",
      "type": "function"
    },
    {
      "constant": true,
      "inputs": [],
      "name": "prevRegistry",
      "outputs": [
        {
          "name": "",
          "type": "address"
        }
      ],
      "payable": false,
      "stateMutability": "view",
      "type": "function"
    },
    {
      "constant": false,
      "inputs": [],
      "name": "acceptOwnership",
      "outputs": [],
      "payable": false,
      "stateMutability": "nonpayable",
      "type": "function"
    },
    {
      "constant": true,
      "inputs": [],
      "name": "registry",
      "outputs": [
        {
          "name": "",
          "type": "address"
        }
      ],
      "payable": false,
      "stateMutability": "view",
      "type": "function"
    },
    {
      "constant": true,
      "inputs": [],
      "name": "owner",
      "outputs": [
        {
          "name": "",
          "type": "address"
        }
      ],
      "payable": false,
      "stateMutability": "view",
      "type": "function"
    },
    {
      "constant": false,
      "inputs": [],
      "name": "restoreRegistry",
      "outputs": [],
      "payable": false,
      "stateMutability": "nonpayable",
      "type": "function"
    },
    {
      "constant": true,
      "inputs": [],
      "name": "newOwner",
      "outputs": [
        {
          "name": "",
          "type": "address"
        }
      ],
      "payable": false,
      "stateMutability": "view",
      "type": "function"
    },
    {
      "constant": true,
      "inputs": [],
      "name": "anchorToken",
      "outputs": [
        {
          "name": "",
          "type": "address"
        }
      ],
      "payable": false,
      "stateMutability": "view",
      "type": "function"
    },
    {
      "constant": false,
      "inputs": [
        {
          "name": "_newOwner",
          "type": "address"
        }
      ],
      "name": "transferOwnership",
      "outputs": [],
      "payable": false,
      "stateMutability": "nonpayable",
      "type": "function"
    },
    {
      "inputs": [
        {
          "name": "_registry",
          "type": "address"
        }
      ],
      "payable": false,
      "stateMutability": "nonpayable",
      "type": "constructor"
    },
    {
      "anonymous": false,
      "inputs": [
        {
          "indexed": true,
          "name": "_prevOwner",
          "type": "address"
        },
        {
          "indexed": true,
          "name": "_newOwner",
          "type": "address"
        }
      ],
      "name": "OwnerUpdate",
      "type": "event"
    },
    {
      "constant": false,
      "inputs": [
        {
          "name": "_anchorToken",
          "type": "address"
        }
      ],
      "name": "setAnchorToken",
      "outputs": [],
      "payable": false,
      "stateMutability": "nonpayable",
      "type": "function"
    },
    {
      "constant": true,
      "inputs": [
        {
          "name": "_sourceToken",
          "type": "address"
        },
        {
          "name": "_targetToken",
          "type": "address"
        }
      ],
      "name": "generatePath",
      "outputs": [
        {
          "name": "",
          "type": "address[]"
        }
      ],
      "payable": false,
      "stateMutability": "view",
      "type": "function"
    }
  ],
  "bytecode": "0x608060405234801561001057600080fd5b50604051602080611370833981016040525160008054600160a060020a031916331790558080600160a060020a038116151561004b57600080fd5b5060028054600160a060020a03909216600160a060020a0319928316811790915560038054909216179055506112ea806100866000396000f3006080604052600436106100c45763ffffffff7c0100000000000000000000000000000000000000000000000000000000600035041663024c7ec781146100c95780632f167f05146100e55780632fe8a6ad1461011357806349d10b641461013c57806361cd756e1461015157806375e1cc821461018f57806379ba5097146102135780637b103999146102285780638da5cb5b1461023d578063b4a176d314610252578063d4ee1d9014610267578063e1c4c9661461027c578063f2fde38b14610291575b600080fd5b3480156100d557600080fd5b506100e360043515156102bf565b005b3480156100f157600080fd5b506100e373ffffffffffffffffffffffffffffffffffffffff6004351661032d565b34801561011f57600080fd5b5061012861038d565b604080519115158252519081900360200190f35b34801561014857600080fd5b506100e36103ae565b34801561015d57600080fd5b5061016661059a565b6040805173ffffffffffffffffffffffffffffffffffffffff9092168252519081900360200190f35b34801561019b57600080fd5b506101c373ffffffffffffffffffffffffffffffffffffffff600435811690602435166105b6565b60408051602080825283518183015283519192839290830191858101910280838360005b838110156101ff5781810151838201526020016101e7565b505050509050019250505060405180910390f35b34801561021f57600080fd5b506100e3610614565b34801561023457600080fd5b506101666106c3565b34801561024957600080fd5b506101666106df565b34801561025e57600080fd5b506100e36106fb565b34801561027357600080fd5b5061016661075d565b34801561028857600080fd5b50610166610779565b34801561029d57600080fd5b506100e373ffffffffffffffffffffffffffffffffffffffff60043516610795565b60005473ffffffffffffffffffffffffffffffffffffffff1633146102e357600080fd5b6003805491151574010000000000000000000000000000000000000000027fffffffffffffffffffffff00ffffffffffffffffffffffffffffffffffffffff909216919091179055565b60005473ffffffffffffffffffffffffffffffffffffffff16331461035157600080fd5b6004805473ffffffffffffffffffffffffffffffffffffffff191673ffffffffffffffffffffffffffffffffffffffff92909216919091179055565b60035474010000000000000000000000000000000000000000900460ff1681565b6000805473ffffffffffffffffffffffffffffffffffffffff163314806103f0575060035474010000000000000000000000000000000000000000900460ff16155b15156103fb57600080fd5b6104247f436f6e747261637452656769737472790000000000000000000000000000000061081d565b60025490915073ffffffffffffffffffffffffffffffffffffffff808316911614801590610467575073ffffffffffffffffffffffffffffffffffffffff811615155b151561047257600080fd5b604080517fbb34534c0000000000000000000000000000000000000000000000000000000081527f436f6e74726163745265676973747279000000000000000000000000000000006004820152905160009173ffffffffffffffffffffffffffffffffffffffff84169163bb34534c9160248082019260209290919082900301818787803b15801561050357600080fd5b505af1158015610517573d6000803e3d6000fd5b505050506040513d602081101561052d57600080fd5b505173ffffffffffffffffffffffffffffffffffffffff16141561055057600080fd5b600280546003805473ffffffffffffffffffffffffffffffffffffffff80841673ffffffffffffffffffffffffffffffffffffffff19928316179092559091169216919091179055565b60035473ffffffffffffffffffffffffffffffffffffffff1681565b606060006060806105e67f42616e636f72436f6e766572746572526567697374727900000000000000000061081d565b92506105f286846108c2565b91506105fe85846108c2565b905061060a8282610de2565b9695505050505050565b60015473ffffffffffffffffffffffffffffffffffffffff16331461063857600080fd5b6001546000805460405173ffffffffffffffffffffffffffffffffffffffff93841693909116917f343765429aea5a34b3ff6a3785a98a5abb2597aca87bfbb58632c173d585373a91a3600180546000805473ffffffffffffffffffffffffffffffffffffffff1990811673ffffffffffffffffffffffffffffffffffffffff841617909155169055565b60025473ffffffffffffffffffffffffffffffffffffffff1681565b60005473ffffffffffffffffffffffffffffffffffffffff1681565b60005473ffffffffffffffffffffffffffffffffffffffff16331461071f57600080fd5b6003546002805473ffffffffffffffffffffffffffffffffffffffff191673ffffffffffffffffffffffffffffffffffffffff909216919091179055565b60015473ffffffffffffffffffffffffffffffffffffffff1681565b60045473ffffffffffffffffffffffffffffffffffffffff1681565b60005473ffffffffffffffffffffffffffffffffffffffff1633146107b957600080fd5b60005473ffffffffffffffffffffffffffffffffffffffff828116911614156107e157600080fd5b6001805473ffffffffffffffffffffffffffffffffffffffff191673ffffffffffffffffffffffffffffffffffffffff92909216919091179055565b600254604080517fbb34534c00000000000000000000000000000000000000000000000000000000815260048101849052905160009273ffffffffffffffffffffffffffffffffffffffff169163bb34534c91602480830192602092919082900301818787803b15801561089057600080fd5b505af11580156108a4573d6000803e3d6000fd5b505050506040513d60208110156108ba57600080fd5b505192915050565b60608060008060008060006060600460009054906101000a900473ffffffffffffffffffffffffffffffffffffffff1673ffffffffffffffffffffffffffffffffffffffff168a73ffffffffffffffffffffffffffffffffffffffff1614156109355761092e8a6110bb565b9750610dd5565b8873ffffffffffffffffffffffffffffffffffffffff16634123ef608b6040518263ffffffff167c0100000000000000000000000000000000000000000000000000000000028152600401808273ffffffffffffffffffffffffffffffffffffffff1673ffffffffffffffffffffffffffffffffffffffff168152602001915050602060405180830381600087803b1580156109d057600080fd5b505af11580156109e4573d6000803e3d6000fd5b505050506040513d60208110156109fa57600080fd5b505115610a1157610a0a8a6110bb565b9650610b58565b8873ffffffffffffffffffffffffffffffffffffffff1663f4fb86c08b6040518263ffffffff167c0100000000000000000000000000000000000000000000000000000000028152600401808273ffffffffffffffffffffffffffffffffffffffff1673ffffffffffffffffffffffffffffffffffffffff168152602001915050600060405180830381600087803b158015610aac57600080fd5b505af1158015610ac0573d6000803e3d6000fd5b505050506040513d6000823e601f3d9081017fffffffffffffffffffffffffffffffffffffffffffffffffffffffffffffffe01682016040526020811015610b0757600080fd5b810190808051640100000000811115610b1f57600080fd5b82016020810184811115610b3257600080fd5b8151856020820283011164010000000082111715610b4f57600080fd5b50909a50505050505b600095505b8651861015610dc3578686815181101515610b7457fe5b9060200190602002015173ffffffffffffffffffffffffffffffffffffffff16638da5cb5b6040518163ffffffff167c0100000000000000000000000000000000000000000000000000000000028152600401602060405180830381600087803b158015610be157600080fd5b505af1158015610bf5573d6000803e3d6000fd5b505050506040513d6020811015610c0b57600080fd5b5051604080517f71f52bf3000000000000000000000000000000000000000000000000000000008152905191965073ffffffffffffffffffffffffffffffffffffffff8716916371f52bf3916004808201926020929091908290030181600087803b158015610c7957600080fd5b505af1158015610c8d573d6000803e3d6000fd5b505050506040513d6020811015610ca357600080fd5b505161ffff169350600092505b83831015610db8578473ffffffffffffffffffffffffffffffffffffffff166319b64015846040518263ffffffff167c010000000000000000000000000000000000000000000000000000000002815260040180828152602001915050602060405180830381600087803b158015610d2757600080fd5b505af1158015610d3b573d6000803e3d6000fd5b505050506040513d6020811015610d5157600080fd5b5051915073ffffffffffffffffffffffffffffffffffffffff808316908b1614610dad57610d7f828a6108c2565b9050600081511115610dad5761092e8a8888815181101515610d9d57fe5b906020019060200201518361111b565b600190920191610cb0565b600190950194610b5d565b60408051600081526020810190915297505b5050505050505092915050565b606060008060606000806000806000808b51118015610e02575060008a51115b1561109b578a519750895196505b600088118015610e205750600087115b8015610e8b57508960018803815181101515610e3857fe5b9060200190602002015173ffffffffffffffffffffffffffffffffffffffff168b60018a03815181101515610e6957fe5b9060200190602002015173ffffffffffffffffffffffffffffffffffffffff16145b15610ea157600019978801979690960195610e10565b868801600101604051908082528060200260200182016040528015610ed0578160200160208202803883390190505b509550600094505b878511610f34578a85815181101515610eed57fe5b906020019060200201518686815181101515610f0557fe5b73ffffffffffffffffffffffffffffffffffffffff909216602092830290910190910152600190940193610ed8565b8693505b6000841115610f9d578960018503815181101515610f5257fe5b906020019060200201518685885103815181101515610f6d57fe5b73ffffffffffffffffffffffffffffffffffffffff90921660209283029091019091015260001990930192610f38565b60009250600091505b855182101561108a5750600281015b60028206865103811015611031578581815181101515610fd157fe5b9060200190602002015173ffffffffffffffffffffffffffffffffffffffff168683815181101515610fff57fe5b9060200190602002015173ffffffffffffffffffffffffffffffffffffffff161415611029578091505b600201610fb5565b858281518110151561103f57fe5b60209081029091010151865160018501948891811061105a57fe5b73ffffffffffffffffffffffffffffffffffffffff90921660209283029091019091015260019190910190610fa6565b6110948684611225565b98506110ad565b60408051600081526020810190915298505b505050505050505092915050565b60408051600180825281830190925260609182919060208083019080388339019050509050828160008151811015156110f057fe5b73ffffffffffffffffffffffffffffffffffffffff9092166020928302909101909101529050919050565b6060806000835160020160405190808252806020026020018201604052801561114e578160200160208202803883390190505b5091508582600081518110151561116157fe5b73ffffffffffffffffffffffffffffffffffffffff909216602092830290910190910152815185908390600190811061119657fe5b73ffffffffffffffffffffffffffffffffffffffff9092166020928302909101909101525060005b835181101561121c5783818151811015156111d557fe5b9060200190602002015182826002018151811015156111f057fe5b73ffffffffffffffffffffffffffffffffffffffff9092166020928302909101909101526001016111be565b50949350505050565b606080600083604051908082528060200260200182016040528015611254578160200160208202803883390190505b509150600090505b838110156112b657848181518110151561127257fe5b90602001906020020151828281518110151561128a57fe5b73ffffffffffffffffffffffffffffffffffffffff90921660209283029091019091015260010161125c565b5093925050505600a165627a7a72305820a067d0c023367eddad8694b69bc8362f1a598b6a5b1be200d7c69117d2a35e570029",
  "source": "pragma solidity 0.4.26;\r\nimport './utility/ContractRegistryClient.sol';\r\nimport './converter/interfaces/IBancorConverterRegistry.sol';\r\nimport './converter/interfaces/IBancorConverter.sol';\r\nimport './token/interfaces/ISmartToken.sol';\r\n\r\n/**\r\n  * @dev The BancorNetworkPathFinder contract allows generating a conversion path between any token pair in the Bancor Network.\r\n  * The path can then be used in various functions in the BancorNetwork contract.\r\n  *\r\n  * See the BancorNetwork contract for conversion path format.\r\n*/\r\ncontract BancorNetworkPathFinder is ContractRegistryClient {\r\n    address public anchorToken;\r\n\r\n    /**\r\n      * @dev initializes a new BancorNetworkPathFinder instance\r\n      * \r\n      * @param _registry address of a contract registry contract\r\n    */\r\n    constructor(IContractRegistry _registry) ContractRegistryClient(_registry) public {\r\n    }\r\n\r\n    /**\r\n      * @dev updates the anchor token\r\n      * \r\n      * @param _anchorToken address of the anchor token\r\n    */\r\n    function setAnchorToken(address _anchorToken) public ownerOnly {\r\n        anchorToken = _anchorToken;\r\n    }\r\n\r\n    /**\r\n      * @dev generates and returns the conversion path between a given token pair in the Bancor Network\r\n      * \r\n      * @param _sourceToken address of the source token\r\n      * @param _targetToken address of the target token\r\n      * \r\n      * @return path from the source token to the target token\r\n    */\r\n    function generatePath(address _sourceToken, address _targetToken) public view returns (address[] memory) {\r\n        IBancorConverterRegistry converterRegistry = IBancorConverterRegistry(addressOf(BANCOR_CONVERTER_REGISTRY));\r\n        address[] memory sourcePath = getPath(_sourceToken, converterRegistry);\r\n        address[] memory targetPath = getPath(_targetToken, converterRegistry);\r\n        return getShortestPath(sourcePath, targetPath);\r\n    }\r\n\r\n    /**\r\n      * @dev generates and returns the conversion path between a given token and the anchor token\r\n      * \r\n      * @param _token               address of the token\r\n      * @param _converterRegistry   address of the converter registry\r\n      * \r\n      * @return path from the input token to the anchor token\r\n    */\r\n    function getPath(address _token, IBancorConverterRegistry _converterRegistry) private view returns (address[] memory) {\r\n        if (_token == anchorToken)\r\n            return getInitialArray(_token);\r\n\r\n        address[] memory smartTokens;\r\n        if (_converterRegistry.isSmartToken(_token))\r\n            smartTokens = getInitialArray(_token);\r\n        else\r\n            smartTokens = _converterRegistry.getConvertibleTokenSmartTokens(_token);\r\n\r\n        for (uint256 n = 0; n < smartTokens.length; n++) {\r\n            IBancorConverter converter = IBancorConverter(ISmartToken(smartTokens[n]).owner());\r\n            uint256 connectorTokenCount = converter.connectorTokenCount();\r\n            for (uint256 i = 0; i < connectorTokenCount; i++) {\r\n                address connectorToken = converter.connectorTokens(i);\r\n                if (connectorToken != _token) {\r\n                    address[] memory path = getPath(connectorToken, _converterRegistry);\r\n                    if (path.length > 0)\r\n                        return getExtendedArray(_token, smartTokens[n], path);\r\n                }\r\n            }\r\n        }\r\n\r\n        return new address[](0);\r\n    }\r\n\r\n    /**\r\n      * @dev merges two paths with a common suffix into one\r\n      * \r\n      * @param _sourcePath address of the source path\r\n      * @param _targetPath address of the target path\r\n      * \r\n      * @return merged path\r\n    */\r\n    function getShortestPath(address[] memory _sourcePath, address[] memory _targetPath) private pure returns (address[] memory) {\r\n        if (_sourcePath.length > 0 && _targetPath.length > 0) {\r\n            uint256 i = _sourcePath.length;\r\n            uint256 j = _targetPath.length;\r\n            while (i > 0 && j > 0 && _sourcePath[i - 1] == _targetPath[j - 1]) {\r\n                i--;\r\n                j--;\r\n            }\r\n\r\n            address[] memory path = new address[](i + j + 1);\r\n            for (uint256 m = 0; m <= i; m++)\r\n                path[m] = _sourcePath[m];\r\n            for (uint256 n = j; n > 0; n--)\r\n                path[path.length - n] = _targetPath[n - 1];\r\n\r\n            uint256 length = 0;\r\n            for (uint256 p = 0; p < path.length; p += 1) {\r\n                for (uint256 q = p + 2; q < path.length - p % 2; q += 2) {\r\n                    if (path[p] == path[q])\r\n                        p = q;\r\n                }\r\n                path[length++] = path[p];\r\n            }\r\n\r\n            return getPartialArray(path, length);\r\n        }\r\n\r\n        return new address[](0);\r\n    }\r\n\r\n    /**\r\n      * @dev creates a new array containing a single item\r\n      * \r\n      * @param _item item\r\n      * \r\n      * @return initial array\r\n    */\r\n    function getInitialArray(address _item) private pure returns (address[] memory) {\r\n        address[] memory array = new address[](1);\r\n        array[0] = _item;\r\n        return array;\r\n    }\r\n\r\n    /**\r\n      * @dev prepends two items to the beginning of an array\r\n      * \r\n      * @param _item0 first item\r\n      * @param _item1 second item\r\n      * @param _array initial array\r\n      * \r\n      * @return extended array\r\n    */\r\n    function getExtendedArray(address _item0, address _item1, address[] memory _array) private pure returns (address[] memory) {\r\n        address[] memory array = new address[](2 + _array.length);\r\n        array[0] = _item0;\r\n        array[1] = _item1;\r\n        for (uint256 i = 0; i < _array.length; i++)\r\n            array[2 + i] = _array[i];\r\n        return array;\r\n    }\r\n\r\n    /**\r\n      * @dev extracts the prefix of a given array\r\n      * \r\n      * @param _array given array\r\n      * @param _length prefix length\r\n      * \r\n      * @return partial array\r\n    */\r\n    function getPartialArray(address[] memory _array, uint256 _length) private pure returns (address[] memory) {\r\n        address[] memory array = new address[](_length);\r\n        for (uint256 i = 0; i < _length; i++)\r\n            array[i] = _array[i];\r\n        return array;\r\n    }\r\n}\r\n",
  "sourcePath": "/home/faycal/Desktop/projects/BancorCompoundPool/contracts/contracts/BancorNetworkPathFinder.sol",
  "compiler": {
    "name": "solc",
    "version": "0.4.26+commit.4563c3fc.Emscripten.clang"
  },
  "schemaVersion": "3.1.0",
  "updatedAt": "2020-04-17T21:34:25.144Z",
  "devdoc": {
    "methods": {
      "acceptOwnership()": {
        "details": "used by a new owner to accept an ownership transfer\r"
      },
      "generatePath(address,address)": {
        "details": "generates and returns the conversion path between a given token pair in the Bancor Network\r \r",
        "params": {
          "_sourceToken": "address of the source token\r",
          "_targetToken": "address of the target token\r \r"
        },
        "return": "path from the source token to the target token\r"
      },
      "restoreRegistry()": {
        "details": "restores the previous contract-registry\r"
      },
      "restrictRegistryUpdate(bool)": {
        "details": "restricts the permission to update the contract-registry\r \r",
        "params": {
          "_onlyOwnerCanUpdateRegistry": "indicates whether or not permission is restricted to owner only\r"
        }
      },
      "setAnchorToken(address)": {
        "details": "updates the anchor token\r \r",
        "params": {
          "_anchorToken": "address of the anchor token\r"
        }
      },
      "transferOwnership(address)": {
        "details": "allows transferring the contract ownership\r the new owner still needs to accept the transfer\r can only be called by the contract owner\r \r",
        "params": {
          "_newOwner": "new contract owner\r"
        }
      },
      "updateRegistry()": {
        "details": "updates to the new contract-registry\r"
      }
    }
  },
  "userdoc": {
    "methods": {}
  }
}