{
  "contractName": "BancorConverterUpgrader",
  "abi": [
    {
      "constant": false,
      "inputs": [
        {
          "name": "_onlyOwnerCanUpdateRegistry",
          "type": "bool"
        }
      ],
      "name": "restrictRegistryUpdate",
      "outputs": [],
      "payable": false,
      "stateMutability": "nonpayable",
      "type": "function"
    },
    {
      "constant": true,
      "inputs": [],
      "name": "onlyOwnerCanUpdateRegistry",
      "outputs": [
        {
          "name": "",
          "type": "bool"
        }
      ],
      "payable": false,
      "stateMutability": "view",
      "type": "function"
    },
    {
      "constant": false,
      "inputs": [],
      "name": "updateRegistry",
      "outputs": [],
      "payable": false,
      "stateMutability": "nonpayable",
      "type": "function"
    },
    {
      "constant": true,
      "inputs": [],
      "name": "version",
      "outputs": [
        {
          "name": "",
          "type": "string"
        }
      ],
      "payable": false,
      "stateMutability": "view",
      "type": "function"
    },
    {
      "constant": true,
      "inputs": [],
      "name": "prevRegistry",
      "outputs": [
        {
          "name": "",
          "type": "address"
        }
      ],
      "payable": false,
      "stateMutability": "view",
      "type": "function"
    },
    {
      "constant": false,
      "inputs": [],
      "name": "acceptOwnership",
      "outputs": [],
      "payable": false,
      "stateMutability": "nonpayable",
      "type": "function"
    },
    {
      "constant": true,
      "inputs": [],
      "name": "registry",
      "outputs": [
        {
          "name": "",
          "type": "address"
        }
      ],
      "payable": false,
      "stateMutability": "view",
      "type": "function"
    },
    {
      "constant": true,
      "inputs": [],
      "name": "owner",
      "outputs": [
        {
          "name": "",
          "type": "address"
        }
      ],
      "payable": false,
      "stateMutability": "view",
      "type": "function"
    },
    {
      "constant": true,
      "inputs": [],
      "name": "CONVERTER_CONVERSION_WHITELIST",
      "outputs": [
        {
          "name": "",
          "type": "uint256"
        }
      ],
      "payable": false,
      "stateMutability": "view",
      "type": "function"
    },
    {
      "constant": false,
      "inputs": [],
      "name": "restoreRegistry",
      "outputs": [],
      "payable": false,
      "stateMutability": "nonpayable",
      "type": "function"
    },
    {
      "constant": true,
      "inputs": [],
      "name": "newOwner",
      "outputs": [
        {
          "name": "",
          "type": "address"
        }
      ],
      "payable": false,
      "stateMutability": "view",
      "type": "function"
    },
    {
      "constant": false,
      "inputs": [
        {
          "name": "_newOwner",
          "type": "address"
        }
      ],
      "name": "transferOwnership",
      "outputs": [],
      "payable": false,
      "stateMutability": "nonpayable",
      "type": "function"
    },
    {
      "inputs": [
        {
          "name": "_registry",
          "type": "address"
        }
      ],
      "payable": false,
      "stateMutability": "nonpayable",
      "type": "constructor"
    },
    {
      "anonymous": false,
      "inputs": [
        {
          "indexed": true,
          "name": "_converter",
          "type": "address"
        },
        {
          "indexed": true,
          "name": "_owner",
          "type": "address"
        }
      ],
      "name": "ConverterOwned",
      "type": "event"
    },
    {
      "anonymous": false,
      "inputs": [
        {
          "indexed": true,
          "name": "_oldConverter",
          "type": "address"
        },
        {
          "indexed": true,
          "name": "_newConverter",
          "type": "address"
        }
      ],
      "name": "ConverterUpgrade",
      "type": "event"
    },
    {
      "anonymous": false,
      "inputs": [
        {
          "indexed": true,
          "name": "_prevOwner",
          "type": "address"
        },
        {
          "indexed": true,
          "name": "_newOwner",
          "type": "address"
        }
      ],
      "name": "OwnerUpdate",
      "type": "event"
    },
    {
      "constant": false,
      "inputs": [
        {
          "name": "_version",
          "type": "uint16"
        }
      ],
      "name": "upgrade",
      "outputs": [],
      "payable": false,
      "stateMutability": "nonpayable",
      "type": "function"
    },
    {
      "constant": false,
      "inputs": [
        {
          "name": "_version",
          "type": "bytes32"
        }
      ],
      "name": "upgrade",
      "outputs": [],
      "payable": false,
      "stateMutability": "nonpayable",
      "type": "function"
    },
    {
      "constant": false,
      "inputs": [
        {
          "name": "_converter",
          "type": "address"
        },
        {
          "name": "_version",
          "type": "bytes32"
        }
      ],
      "name": "upgradeOld",
      "outputs": [],
      "payable": false,
      "stateMutability": "nonpayable",
      "type": "function"
    }
  ],
  "bytecode": "0x60c0604052600360808190527f302e33000000000000000000000000000000000000000000000000000000000060a0908152620000409160049190620000bd565b503480156200004e57600080fd5b506040516020806200197c833981016040525160008054600160a060020a031916331790558080600160a060020a03811615156200008b57600080fd5b5060028054600160a060020a03909216600160a060020a03199283168117909155600380549092161790555062000162565b828054600181600116156101000203166002900490600052602060002090601f016020900481019282601f106200010057805160ff191683800117855562000130565b8280016001018555821562000130579182015b828111156200013057825182559160200191906001019062000113565b506200013e92915062000142565b5090565b6200015f91905b808211156200013e576000815560010162000149565b90565b61180a80620001726000396000f3006080604052600436106100da5763ffffffff7c0100000000000000000000000000000000000000000000000000000000600035041663024c7ec781146100df5780632fe8a6ad146100fb57806349d10b641461012457806354fd4d501461013957806361cd756e146101c357806379ba5097146101f45780637b103999146102095780638da5cb5b1461021e57806390f58c961461023357806392d1abb71461024f578063b4a176d314610276578063bc444e131461028b578063d4ee1d90146102a3578063f2cfed87146102b8578063f2fde38b146102dc575b600080fd5b3480156100eb57600080fd5b506100f960043515156102fd565b005b34801561010757600080fd5b5061011061035e565b604080519115158252519081900360200190f35b34801561013057600080fd5b506100f961037f565b34801561014557600080fd5b5061014e61051d565b6040805160208082528351818301528351919283929083019185019080838360005b83811015610188578181015183820152602001610170565b50505050905090810190601f1680156101b55780820380516001836020036101000a031916815260200191505b509250505060405180910390f35b3480156101cf57600080fd5b506101d86105c9565b60408051600160a060020a039092168252519081900360200190f35b34801561020057600080fd5b506100f96105d8565b34801561021557600080fd5b506101d8610660565b34801561022a57600080fd5b506101d861066f565b34801561023f57600080fd5b506100f961ffff6004351661067e565b34801561025b57600080fd5b5061026461068f565b60408051918252519081900360200190f35b34801561028257600080fd5b506100f9610694565b34801561029757600080fd5b506100f96004356106dc565b3480156102af57600080fd5b506101d86106e6565b3480156102c457600080fd5b506100f9600160a060020a03600435166024356106f5565b3480156102e857600080fd5b506100f9600160a060020a0360043516610b2a565b600054600160a060020a0316331461031457600080fd5b6003805491151574010000000000000000000000000000000000000000027fffffffffffffffffffffff00ffffffffffffffffffffffffffffffffffffffff909216919091179055565b60035474010000000000000000000000000000000000000000900460ff1681565b60008054600160a060020a03163314806103b4575060035474010000000000000000000000000000000000000000900460ff16155b15156103bf57600080fd5b6103e87f436f6e7472616374526567697374727900000000000000000000000000000000610b8b565b600254909150600160a060020a038083169116148015906104115750600160a060020a03811615155b151561041c57600080fd5b604080517fbb34534c0000000000000000000000000000000000000000000000000000000081527f436f6e747261637452656769737472790000000000000000000000000000000060048201529051600091600160a060020a0384169163bb34534c9160248082019260209290919082900301818787803b1580156104a057600080fd5b505af11580156104b4573d6000803e3d6000fd5b505050506040513d60208110156104ca57600080fd5b5051600160a060020a031614156104e057600080fd5b6002805460038054600160a060020a0380841673ffffffffffffffffffffffffffffffffffffffff19928316179092559091169216919091179055565b6004805460408051602060026001851615610100027fffffffffffffffffffffffffffffffffffffffffffffffffffffffffffffffff0190941693909304601f810184900484028201840190925281815292918301828280156105c15780601f10610596576101008083540402835291602001916105c1565b820191906000526020600020905b8154815290600101906020018083116105a457829003601f168201915b505050505081565b600354600160a060020a031681565b600154600160a060020a031633146105ef57600080fd5b60015460008054604051600160a060020a0393841693909116917f343765429aea5a34b3ff6a3785a98a5abb2597aca87bfbb58632c173d585373a91a3600180546000805473ffffffffffffffffffffffffffffffffffffffff19908116600160a060020a03841617909155169055565b600254600160a060020a031681565b600054600160a060020a031681565b61068c3361ffff83166106f5565b50565b600181565b600054600160a060020a031633146106ab57600080fd5b6003546002805473ffffffffffffffffffffffffffffffffffffffff1916600160a060020a03909216919091179055565b61068c33826106f5565b600154600160a060020a031681565b60008060008085935083600160a060020a0316638da5cb5b6040518163ffffffff167c0100000000000000000000000000000000000000000000000000000000028152600401602060405180830381600087803b15801561075557600080fd5b505af1158015610769573d6000803e3d6000fd5b505050506040513d602081101561077f57600080fd5b5051925061078c84610c23565b61079584610ccb565b91506107a1848361114a565b6107ab848361146d565b6107b58483611579565b83600160a060020a031663fc0c546a6040518163ffffffff167c0100000000000000000000000000000000000000000000000000000000028152600401602060405180830381600087803b15801561080c57600080fd5b505af1158015610820573d6000803e3d6000fd5b505050506040513d602081101561083657600080fd5b5051604080517f8da5cb5b0000000000000000000000000000000000000000000000000000000081529051919250600160a060020a038087169290841691638da5cb5b9160048083019260209291908290030181600087803b15801561089b57600080fd5b505af11580156108af573d6000803e3d6000fd5b505050506040513d60208110156108c557600080fd5b5051600160a060020a031614156109d25783600160a060020a03166321e6b53d836040518263ffffffff167c01000000000000000000000000000000000000000000000000000000000281526004018082600160a060020a0316600160a060020a03168152602001915050600060405180830381600087803b15801561094a57600080fd5b505af115801561095e573d6000803e3d6000fd5b5050505081600160a060020a03166338a5e0166040518163ffffffff167c0100000000000000000000000000000000000000000000000000000000028152600401600060405180830381600087803b1580156109b957600080fd5b505af11580156109cd573d6000803e3d6000fd5b505050505b83600160a060020a031663f2fde38b846040518263ffffffff167c01000000000000000000000000000000000000000000000000000000000281526004018082600160a060020a0316600160a060020a03168152602001915050600060405180830381600087803b158015610a4657600080fd5b505af1158015610a5a573d6000803e3d6000fd5b5050505081600160a060020a031663f2fde38b846040518263ffffffff167c01000000000000000000000000000000000000000000000000000000000281526004018082600160a060020a0316600160a060020a03168152602001915050600060405180830381600087803b158015610ad257600080fd5b505af1158015610ae6573d6000803e3d6000fd5b5050604051600160a060020a038086169350871691507f522b846327aea07106ec4d64ae4b6d6dea47689884dab650fd3a1f2e1d6a270190600090a3505050505050565b600054600160a060020a03163314610b4157600080fd5b600054600160a060020a0382811691161415610b5c57600080fd5b6001805473ffffffffffffffffffffffffffffffffffffffff1916600160a060020a0392909216919091179055565b600254604080517fbb34534c000000000000000000000000000000000000000000000000000000008152600481018490529051600092600160a060020a03169163bb34534c91602480830192602092919082900301818787803b158015610bf157600080fd5b505af1158015610c05573d6000803e3d6000fd5b505050506040513d6020811015610c1b57600080fd5b505192915050565b80600160a060020a03166379ba50976040518163ffffffff167c0100000000000000000000000000000000000000000000000000000000028152600401600060405180830381600087803b158015610c7a57600080fd5b505af1158015610c8e573d6000803e3d6000fd5b5050604051309250600160a060020a03841691507ff764604894fa993d4370a9cb28b81c11deb1aafdb2909156173ae3833dad807590600090a350565b60008060008060008060008088600160a060020a031663fc0c546a6040518163ffffffff167c0100000000000000000000000000000000000000000000000000000000028152600401602060405180830381600087803b158015610d2e57600080fd5b505af1158015610d42573d6000803e3d6000fd5b505050506040513d6020811015610d5857600080fd5b5051604080517f94c275ad0000000000000000000000000000000000000000000000000000000081529051919750600160a060020a038b16916394c275ad916004808201926020929091908290030181600087803b158015610db957600080fd5b505af1158015610dcd573d6000803e3d6000fd5b505050506040513d6020811015610de357600080fd5b50519450610e107f42616e636f72436f6e766572746572466163746f727900000000000000000000610b8b565b600254604080517f034efaeb000000000000000000000000000000000000000000000000000000008152600160a060020a038a81166004830152928316602482015263ffffffff891660448201526000606482018190526084820181905291519397509187169263034efaeb9260a4808201936020939283900390910190829087803b158015610e9f57600080fd5b505af1158015610eb3573d6000803e3d6000fd5b505050506040513d6020811015610ec957600080fd5b5051604080517f79ba50970000000000000000000000000000000000000000000000000000000081529051919450849350600160a060020a038416916379ba50979160048082019260009290919082900301818387803b158015610f2c57600080fd5b505af1158015610f40573d6000803e3d6000fd5b50505050610f6d7f436f6e7472616374466561747572657300000000000000000000000000000000610b8b565b905080600160a060020a031663a5fbf2878a60016040518363ffffffff167c01000000000000000000000000000000000000000000000000000000000281526004018083600160a060020a0316600160a060020a0316815260200182815260200192505050602060405180830381600087803b158015610fec57600080fd5b505af1158015611000573d6000803e3d6000fd5b505050506040513d602081101561101657600080fd5b50511561113e5788600160a060020a031663c45d3d926040518163ffffffff167c0100000000000000000000000000000000000000000000000000000000028152600401602060405180830381600087803b15801561107457600080fd5b505af1158015611088573d6000803e3d6000fd5b505050506040513d602081101561109e57600080fd5b50519650600160a060020a0387161561113e5781600160a060020a0316634af80f0e886040518263ffffffff167c01000000000000000000000000000000000000000000000000000000000281526004018082600160a060020a0316600160a060020a03168152602001915050600060405180830381600087803b15801561112557600080fd5b505af1158015611139573d6000803e3d6000fd5b505050505b50979650505050505050565b600080600080600080600088600160a060020a03166371f52bf36040518163ffffffff167c0100000000000000000000000000000000000000000000000000000000028152600401602060405180830381600087803b1580156111ac57600080fd5b505af11580156111c0573d6000803e3d6000fd5b505050506040513d60208110156111d657600080fd5b50519350600092505b8361ffff168361ffff1610156114625788600160a060020a03166319b64015846040518263ffffffff167c0100000000000000000000000000000000000000000000000000000000028152600401808261ffff168152602001915050602060405180830381600087803b15801561125557600080fd5b505af1158015611269573d6000803e3d6000fd5b505050506040513d602081101561127f57600080fd5b5051604080517f0e53aae9000000000000000000000000000000000000000000000000000000008152600160a060020a0380841660048301529151929450908b1691630e53aae99160248082019260a0929091908290030181600087803b1580156112e957600080fd5b505af11580156112fd573d6000803e3d6000fd5b505050506040513d60a081101561131357600080fd5b508051602082015160409283015183517f3f4d2fc2000000000000000000000000000000000000000000000000000000008152600160a060020a03808816600483015263ffffffff8416602483015282151560448301529451939b509199509750849350918a1691633f4d2fc291606480830192600092919082900301818387803b1580156113a157600080fd5b505af11580156113b5573d6000803e3d6000fd5b50505050841561145757604080517f0ca78923000000000000000000000000000000000000000000000000000000008152600160a060020a03838116600483015263ffffffff891660248301528715156044830152606482018a90529151918a1691630ca789239160848082019260009290919082900301818387803b15801561143e57600080fd5b505af1158015611452573d6000803e3d6000fd5b505050505b6001909201916111df565b505050505050505050565b600082600160a060020a031663579cd3ca6040518163ffffffff167c0100000000000000000000000000000000000000000000000000000000028152600401602060405180830381600087803b1580156114c657600080fd5b505af11580156114da573d6000803e3d6000fd5b505050506040513d60208110156114f057600080fd5b5051604080517fecbca55d00000000000000000000000000000000000000000000000000000000815263ffffffff831660048201529051919250600160a060020a0384169163ecbca55d9160248082019260009290919082900301818387803b15801561155c57600080fd5b505af1158015611570573d6000803e3d6000fd5b50505050505050565b600080600080600086600160a060020a03166371f52bf36040518163ffffffff167c0100000000000000000000000000000000000000000000000000000000028152600401602060405180830381600087803b1580156115d857600080fd5b505af11580156115ec573d6000803e3d6000fd5b505050506040513d602081101561160257600080fd5b50519350600092505b8361ffff168361ffff1610156115705786600160a060020a03166319b64015846040518263ffffffff167c0100000000000000000000000000000000000000000000000000000000028152600401808261ffff168152602001915050602060405180830381600087803b15801561168157600080fd5b505af1158015611695573d6000803e3d6000fd5b505050506040513d60208110156116ab57600080fd5b5051604080517f70a08231000000000000000000000000000000000000000000000000000000008152600160a060020a038a811660048301529151929450849350908316916370a08231916024808201926020929091908290030181600087803b15801561171857600080fd5b505af115801561172c573d6000803e3d6000fd5b505050506040513d602081101561174257600080fd5b5051604080517f5e35359e000000000000000000000000000000000000000000000000000000008152600160a060020a038481166004830152898116602483015260448201849052915192975090891691635e35359e9160648082019260009290919082900301818387803b1580156117ba57600080fd5b505af11580156117ce573d6000803e3d6000fd5b50506001909401935061160b90505600a165627a7a7230582011961db58763901c0c61890a40bb2d8d5629ee4d188a75e5676235ee73ed4b740029",
  "source": "pragma solidity 0.4.26;\r\nimport './interfaces/IBancorConverter.sol';\r\nimport './interfaces/IBancorConverterUpgrader.sol';\r\nimport './interfaces/IBancorConverterFactory.sol';\r\nimport '../utility/ContractRegistryClient.sol';\r\nimport '../utility/interfaces/IContractFeatures.sol';\r\nimport '../utility/interfaces/IWhitelist.sol';\r\nimport '../FeatureIds.sol';\r\n\r\n/*\r\n    Bancor converter dedicated interface\r\n*/\r\ncontract IBancorConverterExtended is IBancorConverter, IOwned {\r\n    function token() public view returns (ISmartToken) {this;}\r\n    function maxConversionFee() public view returns (uint32) {this;}\r\n    function conversionFee() public view returns (uint32) {this;}\r\n    function connectorTokenCount() public view returns (uint16);\r\n    function reserveTokenCount() public view returns (uint16);\r\n    function connectorTokens(uint256 _index) public view returns (IERC20Token) {_index; this;}\r\n    function reserveTokens(uint256 _index) public view returns (IERC20Token) {_index; this;}\r\n    function setConversionWhitelist(IWhitelist _whitelist) public;\r\n    function transferTokenOwnership(address _newOwner) public;\r\n    function withdrawTokens(IERC20Token _token, address _to, uint256 _amount) public;\r\n    function acceptTokenOwnership() public;\r\n    function setConversionFee(uint32 _conversionFee) public;\r\n    function addConnector(IERC20Token _token, uint32 _weight, bool _enableVirtualBalance) public;\r\n    function updateConnector(IERC20Token _connectorToken, uint32 _weight, bool _enableVirtualBalance, uint256 _virtualBalance) public;\r\n}\r\n\r\n/**\r\n  * @dev Bancor Converter Upgrader\r\n  * \r\n  * The Bancor converter upgrader contract allows upgrading an older Bancor converter contract (0.4 and up)\r\n  * to the latest version.\r\n  * To begin the upgrade process, simply execute the 'upgrade' function.\r\n  * At the end of the process, the ownership of the newly upgraded converter will be transferred\r\n  * back to the original owner and the original owner will need to execute the 'acceptOwnership' function.\r\n  * \r\n  * The address of the new converter is available in the ConverterUpgrade event.\r\n  * \r\n  * Note that for older converters that don't yet have the 'upgrade' function, ownership should first\r\n  * be transferred manually to the ConverterUpgrader contract using the 'transferOwnership' function\r\n  * and then the upgrader 'upgrade' function should be executed directly.\r\n*/\r\ncontract BancorConverterUpgrader is IBancorConverterUpgrader, ContractRegistryClient, FeatureIds {\r\n    string public version = '0.3';\r\n\r\n    /**\r\n      * @dev triggered when the contract accept a converter ownership\r\n      * \r\n      * @param _converter   converter address\r\n      * @param _owner       new owner - local upgrader address\r\n    */\r\n    event ConverterOwned(address indexed _converter, address indexed _owner);\r\n\r\n    /**\r\n      * @dev triggered when the upgrading process is done\r\n      * \r\n      * @param _oldConverter    old converter address\r\n      * @param _newConverter    new converter address\r\n    */\r\n    event ConverterUpgrade(address indexed _oldConverter, address indexed _newConverter);\r\n\r\n    /**\r\n      * @dev initializes a new BancorConverterUpgrader instance\r\n      * \r\n      * @param _registry    address of a contract registry contract\r\n    */\r\n    constructor(IContractRegistry _registry) ContractRegistryClient(_registry) public {\r\n    }\r\n\r\n    /**\r\n      * @dev upgrades an old converter to the latest version\r\n      * will throw if ownership wasn't transferred to the upgrader before calling this function.\r\n      * ownership of the new converter will be transferred back to the original owner.\r\n      * fires the ConverterUpgrade event upon success.\r\n      * can only be called by a converter\r\n      * \r\n      * @param _version old converter version\r\n    */\r\n    function upgrade(bytes32 _version) public {\r\n        upgradeOld(IBancorConverter(msg.sender), _version);\r\n    }\r\n\r\n    /**\r\n      * @dev upgrades an old converter to the latest version\r\n      * will throw if ownership wasn't transferred to the upgrader before calling this function.\r\n      * ownership of the new converter will be transferred back to the original owner.\r\n      * fires the ConverterUpgrade event upon success.\r\n      * can only be called by a converter\r\n      * \r\n      * @param _version old converter version\r\n    */\r\n    function upgrade(uint16 _version) public {\r\n        upgradeOld(IBancorConverter(msg.sender), bytes32(_version));\r\n    }\r\n\r\n    /**\r\n      * @dev upgrades an old converter to the latest version\r\n      * will throw if ownership wasn't transferred to the upgrader before calling this function.\r\n      * ownership of the new converter will be transferred back to the original owner.\r\n      * fires the ConverterUpgrade event upon success.\r\n      * \r\n      * @param _converter   old converter contract address\r\n      * @param _version     old converter version\r\n    */\r\n    function upgradeOld(IBancorConverter _converter, bytes32 _version) public {\r\n        _version;\r\n        IBancorConverterExtended converter = IBancorConverterExtended(_converter);\r\n        address prevOwner = converter.owner();\r\n        acceptConverterOwnership(converter);\r\n        IBancorConverterExtended newConverter = createConverter(converter);\r\n        copyConnectors(converter, newConverter);\r\n        copyConversionFee(converter, newConverter);\r\n        transferConnectorsBalances(converter, newConverter);                \r\n        ISmartToken token = converter.token();\r\n\r\n        if (token.owner() == address(converter)) {\r\n            converter.transferTokenOwnership(newConverter);\r\n            newConverter.acceptTokenOwnership();\r\n        }\r\n\r\n        converter.transferOwnership(prevOwner);\r\n        newConverter.transferOwnership(prevOwner);\r\n\r\n        emit ConverterUpgrade(address(converter), address(newConverter));\r\n    }\r\n\r\n    /**\r\n      * @dev the first step when upgrading a converter is to transfer the ownership to the local contract.\r\n      * the upgrader contract then needs to accept the ownership transfer before initiating\r\n      * the upgrade process.\r\n      * fires the ConverterOwned event upon success\r\n      * \r\n      * @param _oldConverter       converter to accept ownership of\r\n    */\r\n    function acceptConverterOwnership(IBancorConverterExtended _oldConverter) private {\r\n        _oldConverter.acceptOwnership();\r\n        emit ConverterOwned(_oldConverter, this);\r\n    }\r\n\r\n    /**\r\n      * @dev creates a new converter with same basic data as the original old converter\r\n      * the newly created converter will have no connectors at this step.\r\n      * \r\n      * @param _oldConverter    old converter contract address\r\n      * \r\n      * @return the new converter  new converter contract address\r\n    */\r\n    function createConverter(IBancorConverterExtended _oldConverter) private returns(IBancorConverterExtended) {\r\n        IWhitelist whitelist;\r\n        ISmartToken token = _oldConverter.token();\r\n        uint32 maxConversionFee = _oldConverter.maxConversionFee();\r\n\r\n        IBancorConverterFactory converterFactory = IBancorConverterFactory(addressOf(BANCOR_CONVERTER_FACTORY));\r\n        address converterAddress = converterFactory.createConverter(\r\n            token,\r\n            registry,\r\n            maxConversionFee,\r\n            IERC20Token(address(0)),\r\n            0\r\n        );\r\n\r\n        IBancorConverterExtended converter = IBancorConverterExtended(converterAddress);\r\n        converter.acceptOwnership();\r\n\r\n        // get the contract features address from the registry\r\n        IContractFeatures features = IContractFeatures(addressOf(CONTRACT_FEATURES));\r\n\r\n        if (features.isSupported(_oldConverter, FeatureIds.CONVERTER_CONVERSION_WHITELIST)) {\r\n            whitelist = _oldConverter.conversionWhitelist();\r\n            if (whitelist != address(0))\r\n                converter.setConversionWhitelist(whitelist);\r\n        }\r\n\r\n        return converter;\r\n    }\r\n\r\n    /**\r\n      * @dev copies the connectors from the old converter to the new one.\r\n      * note that this will not work for an unlimited number of connectors due to block gas limit constraints.\r\n      * \r\n      * @param _oldConverter    old converter contract address\r\n      * @param _newConverter    new converter contract address\r\n    */\r\n    function copyConnectors(IBancorConverterExtended _oldConverter, IBancorConverterExtended _newConverter)\r\n        private\r\n    {\r\n        uint256 virtualBalance;\r\n        uint32 weight;\r\n        bool isVirtualBalanceEnabled;\r\n        uint16 connectorTokenCount = _oldConverter.connectorTokenCount();\r\n\r\n        for (uint16 i = 0; i < connectorTokenCount; i++) {\r\n            address connectorAddress = _oldConverter.connectorTokens(i);\r\n            (virtualBalance, weight, isVirtualBalanceEnabled, , ) = _oldConverter.connectors(connectorAddress);\r\n\r\n            IERC20Token connectorToken = IERC20Token(connectorAddress);\r\n            _newConverter.addConnector(connectorToken, weight, isVirtualBalanceEnabled);\r\n\r\n            if (isVirtualBalanceEnabled)\r\n                _newConverter.updateConnector(connectorToken, weight, isVirtualBalanceEnabled, virtualBalance);\r\n        }\r\n    }\r\n\r\n    /**\r\n      * @dev copies the conversion fee from the old converter to the new one\r\n      * \r\n      * @param _oldConverter    old converter contract address\r\n      * @param _newConverter    new converter contract address\r\n    */\r\n    function copyConversionFee(IBancorConverterExtended _oldConverter, IBancorConverterExtended _newConverter) private {\r\n        uint32 conversionFee = _oldConverter.conversionFee();\r\n        _newConverter.setConversionFee(conversionFee);\r\n    }\r\n\r\n    /**\r\n      * @dev transfers the balance of each connector in the old converter to the new one.\r\n      * note that the function assumes that the new converter already has the exact same number of\r\n      * also, this will not work for an unlimited number of connectors due to block gas limit constraints.\r\n      * \r\n      * @param _oldConverter    old converter contract address\r\n      * @param _newConverter    new converter contract address\r\n    */\r\n    function transferConnectorsBalances(IBancorConverterExtended _oldConverter, IBancorConverterExtended _newConverter)\r\n        private\r\n    {\r\n        uint256 connectorBalance;\r\n        uint16 connectorTokenCount = _oldConverter.connectorTokenCount();\r\n\r\n        for (uint16 i = 0; i < connectorTokenCount; i++) {\r\n            address connectorAddress = _oldConverter.connectorTokens(i);\r\n            IERC20Token connector = IERC20Token(connectorAddress);\r\n            connectorBalance = connector.balanceOf(_oldConverter);\r\n            _oldConverter.withdrawTokens(connector, address(_newConverter), connectorBalance);\r\n        }\r\n    }\r\n}\r\n",
  "sourcePath": "/home/faycal/Desktop/projects/BancorCompoundPool/contracts/contracts/converter/BancorConverterUpgrader.sol",
  "compiler": {
    "name": "solc",
    "version": "0.4.26+commit.4563c3fc.Emscripten.clang"
  },
  "schemaVersion": "3.1.0",
  "updatedAt": "2020-04-17T21:34:25.235Z",
  "devdoc": {
    "methods": {
      "acceptOwnership()": {
        "details": "used by a new owner to accept an ownership transfer\r"
      },
      "restoreRegistry()": {
        "details": "restores the previous contract-registry\r"
      },
      "restrictRegistryUpdate(bool)": {
        "details": "restricts the permission to update the contract-registry\r \r",
        "params": {
          "_onlyOwnerCanUpdateRegistry": "indicates whether or not permission is restricted to owner only\r"
        }
      },
      "transferOwnership(address)": {
        "details": "allows transferring the contract ownership\r the new owner still needs to accept the transfer\r can only be called by the contract owner\r \r",
        "params": {
          "_newOwner": "new contract owner\r"
        }
      },
      "updateRegistry()": {
        "details": "updates to the new contract-registry\r"
      },
      "upgrade(bytes32)": {
        "details": "upgrades an old converter to the latest version\r will throw if ownership wasn't transferred to the upgrader before calling this function.\r ownership of the new converter will be transferred back to the original owner.\r fires the ConverterUpgrade event upon success.\r can only be called by a converter\r \r",
        "params": {
          "_version": "old converter version\r"
        }
      },
      "upgrade(uint16)": {
        "details": "upgrades an old converter to the latest version\r will throw if ownership wasn't transferred to the upgrader before calling this function.\r ownership of the new converter will be transferred back to the original owner.\r fires the ConverterUpgrade event upon success.\r can only be called by a converter\r \r",
        "params": {
          "_version": "old converter version\r"
        }
      },
      "upgradeOld(address,bytes32)": {
        "details": "upgrades an old converter to the latest version\r will throw if ownership wasn't transferred to the upgrader before calling this function.\r ownership of the new converter will be transferred back to the original owner.\r fires the ConverterUpgrade event upon success.\r \r",
        "params": {
          "_converter": "old converter contract address\r",
          "_version": "old converter version\r"
        }
      }
    }
  },
  "userdoc": {
    "methods": {}
  }
}