{
  "contractName": "BancorFormula",
  "abi": [
    {
      "constant": true,
      "inputs": [],
      "name": "version",
      "outputs": [
        {
          "name": "",
          "type": "uint16"
        }
      ],
      "payable": false,
      "stateMutability": "view",
      "type": "function"
    },
    {
      "inputs": [],
      "payable": false,
      "stateMutability": "nonpayable",
      "type": "constructor"
    },
    {
      "constant": true,
      "inputs": [
        {
          "name": "_supply",
          "type": "uint256"
        },
        {
          "name": "_reserveBalance",
          "type": "uint256"
        },
        {
          "name": "_reserveRatio",
          "type": "uint32"
        },
        {
          "name": "_depositAmount",
          "type": "uint256"
        }
      ],
      "name": "calculatePurchaseReturn",
      "outputs": [
        {
          "name": "",
          "type": "uint256"
        }
      ],
      "payable": false,
      "stateMutability": "view",
      "type": "function"
    },
    {
      "constant": true,
      "inputs": [
        {
          "name": "_supply",
          "type": "uint256"
        },
        {
          "name": "_reserveBalance",
          "type": "uint256"
        },
        {
          "name": "_reserveRatio",
          "type": "uint32"
        },
        {
          "name": "_sellAmount",
          "type": "uint256"
        }
      ],
      "name": "calculateSaleReturn",
      "outputs": [
        {
          "name": "",
          "type": "uint256"
        }
      ],
      "payable": false,
      "stateMutability": "view",
      "type": "function"
    },
    {
      "constant": true,
      "inputs": [
        {
          "name": "_fromReserveBalance",
          "type": "uint256"
        },
        {
          "name": "_fromReserveRatio",
          "type": "uint32"
        },
        {
          "name": "_toReserveBalance",
          "type": "uint256"
        },
        {
          "name": "_toReserveRatio",
          "type": "uint32"
        },
        {
          "name": "_amount",
          "type": "uint256"
        }
      ],
      "name": "calculateCrossReserveReturn",
      "outputs": [
        {
          "name": "",
          "type": "uint256"
        }
      ],
      "payable": false,
      "stateMutability": "view",
      "type": "function"
    },
    {
      "constant": true,
      "inputs": [
        {
          "name": "_supply",
          "type": "uint256"
        },
        {
          "name": "_reserveBalance",
          "type": "uint256"
        },
        {
          "name": "_totalRatio",
          "type": "uint32"
        },
        {
          "name": "_amount",
          "type": "uint256"
        }
      ],
      "name": "calculateFundCost",
      "outputs": [
        {
          "name": "",
          "type": "uint256"
        }
      ],
      "payable": false,
      "stateMutability": "view",
      "type": "function"
    },
    {
      "constant": true,
      "inputs": [
        {
          "name": "_supply",
          "type": "uint256"
        },
        {
          "name": "_reserveBalance",
          "type": "uint256"
        },
        {
          "name": "_totalRatio",
          "type": "uint32"
        },
        {
          "name": "_amount",
          "type": "uint256"
        }
      ],
      "name": "calculateLiquidateReturn",
      "outputs": [
        {
          "name": "",
          "type": "uint256"
        }
      ],
      "payable": false,
      "stateMutability": "view",
      "type": "function"
    },
    {
      "constant": true,
      "inputs": [
        {
          "name": "_fromConnectorBalance",
          "type": "uint256"
        },
        {
          "name": "_fromConnectorWeight",
          "type": "uint32"
        },
        {
          "name": "_toConnectorBalance",
          "type": "uint256"
        },
        {
          "name": "_toConnectorWeight",
          "type": "uint32"
        },
        {
          "name": "_amount",
          "type": "uint256"
        }
      ],
      "name": "calculateCrossConnectorReturn",
      "outputs": [
        {
          "name": "",
          "type": "uint256"
        }
      ],
      "payable": false,
      "stateMutability": "view",
      "type": "function"
    }
  ],
  "bytecode": "0x60806040526000805461ffff1916600617905534801561001e57600080fd5b506001606060020a641c35fedd1502036021556001605e60020a646c3390ecc902036022556001606160020a640cf801476102036023556001605f60020a6431bdb23e1d02036024556001605b60020a6502fb1d8fe08302036025556001605a60020a6505b771955b3702036026556001605960020a650af67a93bb5102036027556001605860020a6515060c256cb302036028556001605860020a651428a2f98d7302036029556001605660020a654d51566397090203602a556001605560020a65944620b0e70f0203602b557011c592761c666fffffffffffffffffffff602c5570110a688680a757ffffffffffffffffffff602d55701056f1b5bedf77ffffffffffffffffffff602e55700faadceceeff8bffffffffffffffffffff602f55700f05dc6b27edadffffffffffffffffffff603055700e67a5a25da4107fffffffffffffffffff603155700dcff115b14eedffffffffffffffffffff603255700d3e7a392431239fffffffffffffffffff603355700cb2ff529eb71e4fffffffffffffffffff603455700c2d415c3db974afffffffffffffffffff603555700bad03e7d883f69bffffffffffffffffff603655700b320d03b2c343d5ffffffffffffffffff603755700abc25204e02828dffffffffffffffffff603855700a4b16f74ee4bb207fffffffffffffffff6039557009deaf736ac1f569ffffffffffffffffff603a55700976bd9952c7aa957fffffffffffffffff603b557009131271922eaa606fffffffffffffffff603c557008b380f3558668c46fffffffffffffffff603d55700857ddf0117efa215bffffffffffffffff603e556001608360020a03603f557007abbf6f6abb9d087fffffffffffffffff60405570075af62cbac95f7dfa7fffffffffffffff60415570070d7fb7452e187ac13fffffffffffffff6042557006c3390ecc8af379295fffffffffffffff60435570067c00a3b07ffc01fd6fffffffffffffff604455700637b647c39cbb9d3d27ffffffffffffff6045557005f63b1fc104dbd39587ffffffffffffff6046557005b771955b36e12f7235ffffffffffffff60475570057b3d49dda84556d6f6ffffffffffffff60485570054183095b2c8ececf30ffffffffffffff60495570050a28be635ca2b888f77fffffffffffff604a557004d5156639708c9db33c3fffffffffffff604b557004a23105873875bd52dfdfffffffffffff604c55700471649d87199aa990756fffffffffffff604d557004429a21a029d4c1457cfbffffffffffff604e55700415bc6d6fb7dd71af2cb3ffffffffffff604f557003eab73b3bbfe282243ce1ffffffffffff6050557003c1771ac9fb6b4c18e229ffffffffffff605155700399e96897690418f785257fffffffffff605255700373fc456c53bb779bf0ea9fffffffffff60535570034f9e8e490c48e67e6ab8bfffffffffff60545570032cbfd4a7adc790560b3337ffffffffff60555570030b50570f6e5d2acca94613ffffffffff6056557002eb40f9f620fda6b56c2861ffffffffff6057557002cc8340ecb0d0f520a6af58ffffffffff6058557002af09481380a0a35cf1ba02ffffffffff605955700292c5bdd3b92ec810287b1b3fffffffff605a55700277abdcdab07d5a77ac6d6b9fffffffff605b5570025daf6654b1eaa55fd64df5efffffffff605c55700244c49c648baa98192dce88b7ffffffff605d5570022ce03cd5619a311b2471268bffffffff605e55700215f77c045fbe885654a44a0fffffffff605f556001608160020a036060557001eaefdbdaaee7421fc4d3ede5ffffffff6061557001d6bd8b2eb257df7e8ca57b09bfffffff6062557001c35fedd14b861eb0443f7f133fffffff6063557001b0ce43b322bcde4a56e8ada5afffffff60645570019f0028ec1fff007f5a195a39dfffffff60655570018ded91f0e72ee74f49b15ba527ffffff60665570017d8ec7f04136f4e5615fd41a63ffffff60675570016ddc6556cdb84bdc8d12d22e6fffffff60685570015ecf52776a1155b5bd8395814f7fffff60695570015060c256cb23b3b3cc3754cf40ffffff606a557001428a2f98d728ae223ddab715be3fffff606b5570013545598e5c23276ccf0ede68034fffff606c557001288c4161ce1d6f54b7f61081194fffff606d5570011c592761c666aa641d5a01a40f17ffff606e55700110a688680a7530515f3e6e6cfdcdffff606f557001056f1b5bedf75c6bcb2ce8aed428ffff6070556ffaadceceeff8a0890f3875f008277fff6071556ff05dc6b27edad306388a600f6ba0bfff6072556fe67a5a25da41063de1495d5b18cdbfff6073556fdcff115b14eedde6fc3aa5353f2e4fff6074556fd3e7a3924312399f9aae2e0f868f8fff6075556fcb2ff529eb71e41582cccd5a1ee26fff6076556fc2d415c3db974ab32a51840c0b67edff6077556fbad03e7d883f69ad5b0a186184e06bff6078556fb320d03b2c343d4829abd6075f0cc5ff6079556fabc25204e02828d73c6e80bcdb1a95bf607a556fa4b16f74ee4bb2040a1ec6c15fbbf2df607b556f9deaf736ac1f569deb1b5ae3f36c130f607c556f976bd9952c7aa957f5937d790ef65037607d556f9131271922eaa6064b73a22d0bd4f2bf607e556f8b380f3558668c46c91c49a2f8e967b9607f556f857ddf0117efa215952912839f6473e66080556117b7806107d06000396000f3006080604052600436106100825763ffffffff7c01000000000000000000000000000000000000000000000000000000006000350416631da6bbfb811461008757806329a00e7c146100c057806349f9b0f7146100e757806354fd4d501461010e57806365098bb31461013a57806379c1b45014610168578063abfd231d14610196575b600080fd5b34801561009357600080fd5b506100ae60043560243563ffffffff604435166064356101bd565b60408051918252519081900360200190f35b3480156100cc57600080fd5b506100ae60043560243563ffffffff604435166064356102a9565b3480156100f357600080fd5b506100ae60043560243563ffffffff60443516606435610387565b34801561011a57600080fd5b50610123610484565b6040805161ffff9092168252519081900360200190f35b34801561014657600080fd5b506100ae60043563ffffffff602435811690604435906064351660843561048e565b34801561017457600080fd5b506100ae60043563ffffffff60243581169060443590606435166084356104a7565b3480156101a257600080fd5b506100ae60043560243563ffffffff604435166064356105bc565b600080600080600080891180156101d45750600088115b80156101e6575060018763ffffffff16115b80156101fb5750621e848063ffffffff881611155b151561020657600080fd5b851515610216576000945061029d565b63ffffffff8716620f4240141561024f5788600161023a888b63ffffffff61065516565b0381151561024457fe5b04600101945061029d565b61025f898763ffffffff61068e16565b9150610270828a620f42408a6106a0565b909450925060ff8316600161028b8a8763ffffffff61065516565b039060020a9004600101905087810394505b50505050949350505050565b600080600080600080891180156102c05750600088115b80156102d2575060008763ffffffff16115b80156102e75750620f424063ffffffff881611155b15156102f257600080fd5b851515610302576000945061029d565b63ffffffff8716620f4240141561033557876103248a8863ffffffff61065516565b81151561032d57fe5b04945061029d565b610345868963ffffffff61068e16565b9150610356828989620f42406106a0565b909450925060ff831661036f8a8663ffffffff61065516565b60029190910a90049890980398975050505050505050565b60008060008060008060008a1180156103a05750600089115b80156103b2575060008863ffffffff16115b80156103c75750620f424063ffffffff891611155b80156103d35750898711155b15156103de57600080fd5b8615156103ee5760009550610477565b898714156103fe57889550610477565b63ffffffff8816620f4240141561043157896104208a8963ffffffff61065516565b81151561042957fe5b049550610477565b868a0392506104458a84620f42408b6106a0565b909550935061045a898663ffffffff61065516565b91505060ff831660020a88028481830381151561047357fe5b0495505b5050505050949350505050565b60005461ffff1681565b600061049d86868686866104a7565b9695505050505050565b60008060008060008060008b1180156104c6575060008a63ffffffff16115b80156104db5750620f424063ffffffff8b1611155b80156104e75750600089115b80156104f9575060008863ffffffff16115b801561050e5750620f424063ffffffff891611155b151561051957600080fd5b8763ffffffff168a63ffffffff16141561055e5761053d8b8863ffffffff61068e16565b61054d8a8963ffffffff61065516565b81151561055657fe5b0495506105ae565b61056e8b8863ffffffff61068e16565b925061057c838c8c8b6106a0565b9095509350610591898663ffffffff61065516565b91505060ff831660020a8802848183038115156105aa57fe5b0495505b505050505095945050505050565b60008060008060008060008a1180156105d55750600089115b80156105e7575060018863ffffffff16115b80156105fc5750621e848063ffffffff891611155b80156106085750898711155b151561061357600080fd5b8615156106235760009550610477565b8987141561063357889550610477565b63ffffffff8816620f424014156104315789610420888b63ffffffff61065516565b6000808315156106685760009150610687565b5082820282848281151561067857fe5b041461068357600080fd5b8091505b5092915050565b60008282018381101561068357600080fd5b600080808080807002000000000000000000000000000000008a106106c457600080fd5b886f800000000000000000000000000000008b028115156106e157fe5b04925070015bf0a8b1457695355fb8ac404e7a79e383101561070d5761070683610796565b9350610719565b61071683610c8a565b93505b8663ffffffff168863ffffffff16850281151561073257fe5b0491507008000000000000000000000000000000008210156107625761075782610d8d565b607f95509550610789565b61076b82611272565b905061078360ff607f8390031660020a8304826112ff565b81955095505b5050505094509492505050565b6000808080806fd3094c70f034de4b96ff7d5b6f99fcd886106107f1576f4000000000000000000000000000000093909301926fd3094c70f034de4b96ff7d5b6f99fcd86f8000000000000000000000000000000087020495505b6fa45af1e1f40c333b3de1db4dd55f29a78610610846576f2000000000000000000000000000000093909301926fa45af1e1f40c333b3de1db4dd55f29a76f8000000000000000000000000000000087020495505b6f910b022db7ae67ce76b441c27035c6a1861061089b576f1000000000000000000000000000000093909301926f910b022db7ae67ce76b441c27035c6a16f8000000000000000000000000000000087020495505b6f88415abbe9a76bead8d00cf112e4d4a886106108f0576f0800000000000000000000000000000093909301926f88415abbe9a76bead8d00cf112e4d4a86f8000000000000000000000000000000087020495505b6f84102b00893f64c705e841d5d4064bd38610610945576f0400000000000000000000000000000093909301926f84102b00893f64c705e841d5d4064bd36f8000000000000000000000000000000087020495505b6f8204055aaef1c8bd5c3259f4822735a2861061099a576f0200000000000000000000000000000093909301926f8204055aaef1c8bd5c3259f4822735a26f8000000000000000000000000000000087020495505b6f810100ab00222d861931c15e39b44e9986106109ef576f0100000000000000000000000000000093909301926f810100ab00222d861931c15e39b44e996f8000000000000000000000000000000087020495505b6f808040155aabbbe9451521693554f7338610610a43576e80000000000000000000000000000093909301926f808040155aabbbe9451521693554f7336f8000000000000000000000000000000087020495505b7fffffffffffffffffffffffffffffffff80000000000000000000000000000000860192508291506f8000000000000000000000000000000082800204905070010000000000000000000000000000000083810383020493909301926f800000000000000000000000000000008282020491507002000000000000000000000000000000006faaaaaaaaaaaaaaaaaaaaaaaaaaaaaaaa84900383020493909301926f800000000000000000000000000000008282020491507003000000000000000000000000000000006f9999999999999999999999999999999984900383020493909301926f800000000000000000000000000000008282020491507004000000000000000000000000000000006f9249249249249249249249249249249284900383020493909301926f800000000000000000000000000000008282020491507005000000000000000000000000000000006f8e38e38e38e38e38e38e38e38e38e38e84900383020493909301926f800000000000000000000000000000008282020491507006000000000000000000000000000000006f8ba2e8ba2e8ba2e8ba2e8ba2e8ba2e8b84900383020493909301926f800000000000000000000000000000008282020491507007000000000000000000000000000000006f89d89d89d89d89d89d89d89d89d89d8984900383020493909301926f800000000000000000000000000000008282020491507008000000000000000000000000000000006f888888888888888888888888888888888490038302049390930195945050505050565b60008080807001000000000000000000000000000000008510610ce657610cc26f800000000000000000000000000000008604611722565b60ff8116600281900a909604956f8000000000000000000000000000000002935091505b6f80000000000000000000000000000000851115610d5d5750607f5b60008160ff161115610d5d576f800000000000000000000000000000008580020494507001000000000000000000000000000000008510610d54576002948590049460ff600019830116900a92909201915b60001901610d02565b6f05b9de1d10bf4103d647b0955897ba806f03f80fe03f80fe03f80fe03f80fe03f884020493505b505050919050565b6000670168244fdac780006f800000000000000000000000000000006f0fffffffffffffffffffffffffffffff84168080028290048082028390048083028490049485026710e1b3be415a00009092026705a0913f6b1e000091909102010192909181830204905080664807432bc1800002830192506f80000000000000000000000000000000828202811515610e2057fe5b04905080660c0135dca0400002830192506f80000000000000000000000000000000828202811515610e4e57fe5b049050806601b707b1cdc00002830192506f80000000000000000000000000000000828202811515610e7c57fe5b049050806536e0f639b80002830192506f80000000000000000000000000000000828202811515610ea957fe5b04905080650618fee9f80002830192506f80000000000000000000000000000000828202811515610ed657fe5b04905080649c197dcc0002830192506f80000000000000000000000000000000828202811515610f0257fe5b04905080640e30dce40002830192506f80000000000000000000000000000000828202811515610f2e57fe5b0490508064012ebd130002830192506f80000000000000000000000000000000828202811515610f5a57fe5b049050806317499f0002830192506f80000000000000000000000000000000828202811515610f8557fe5b049050806301a9d48002830192506f80000000000000000000000000000000828202811515610fb057fe5b04905080621c638002830192506f80000000000000000000000000000000828202811515610fda57fe5b049050806201c63802830192506f8000000000000000000000000000000082820281151561100457fe5b04905080611ab802830192506f8000000000000000000000000000000082820281151561102d57fe5b0490508061017c02830192506f8000000000000000000000000000000082820281151561105657fe5b04905080601402830192506f8000000000000000000000000000000082820281151561107e57fe5b6721c3677c82b400009190049384010482016f80000000000000000000000000000000019290506f100000000000000000000000000000008516156110e75770018ebef9eac820ae8682b9793ac6d1e7767001c3d6a24ed82218787d624d3e5eba95f984020492505b6f20000000000000000000000000000000851615611129577001368b2fc6f9609fe7aceb46aa619baed470018ebef9eac820ae8682b9793ac6d1e77884020492505b6f4000000000000000000000000000000085161561116a576fbc5ab1b16779be3575bd8f0520a9f21f7001368b2fc6f9609fe7aceb46aa619baed584020492505b6f800000000000000000000000000000008516156111aa576f454aaa8efe072e7f6ddbab84b40a55c96fbc5ab1b16779be3575bd8f0520a9f21e84020492505b7001000000000000000000000000000000008516156111eb576f0960aadc109e7a3bf4578099615711ea6f454aaa8efe072e7f6ddbab84b40a55c584020492505b70020000000000000000000000000000000085161561122b576e2bf84208204f5977f9a8cf01fdce3d6f0960aadc109e7a3bf4578099615711d784020492505b700400000000000000000000000000000000851615611269576d03c6ab775dd0b95b4cbee7e65d116e2bf84208204f5977f9a8cf01fdc30784020492505b50909392505050565b60006020607f825b8160ff168360010160ff1610156112bf57600260ff8484011604905084600160ff8316608081106112a757fe5b0154106112b6578092506112ba565b8091505b61127a565b84600160ff8416608081106112d057fe5b0154106112df57819350610d85565b84600160ff8516608081106112f057fe5b01541061008257829350610d85565b6000806000849150600090508360ff168583029060020a90049150816f03442c4e6074a82f1797f72ac000000002810190508360ff168583029060020a90049150816f0116b96f757c380fb287fd0e4000000002810190508360ff168583029060020a90049150816e45ae5bdd5f0e03eca1ff439000000002810190508360ff168583029060020a90049150816e0defabf91302cd95b9ffda5000000002810190508360ff168583029060020a90049150816e02529ca9832b22439efff9b800000002810190508360ff168583029060020a90049150816d54f1cf12bd04e516b6da8800000002810190508360ff168583029060020a90049150816d0a9e39e257a09ca2d6db5100000002810190508360ff168583029060020a90049150816d012e066e7b839fa050c30900000002810190508360ff168583029060020a90049150816c1e33d7d926c329a1ad1a80000002810190508360ff168583029060020a90049150816c02bee513bdb4a6b19b5f80000002810190508360ff168583029060020a90049150816b3a9316fa79b88eccf2a0000002810190508360ff168583029060020a90049150816b048177ebe1fa81237520000002810190508360ff168583029060020a90049150816a5263fe90242dcbacf0000002810190508360ff168583029060020a90049150816a057e22099c030d9410000002810190508360ff168583029060020a90049150816957e22099c030d941000002810190508360ff168583029060020a900491508169052b6b5456997631000002810190508360ff168583029060020a9004915081684985f67696bf74800002810190508360ff168583029060020a90049150816803dea12ea99e49800002810190508360ff168583029060020a90049150816731880f2214b6e00002810190508360ff168583029060020a900491508167025bcff56eb3600002810190508360ff168583029060020a9004915081661b722e10ab100002810190508360ff168583029060020a90049150816601317c7007700002810190508360ff168583029060020a9004915081650cba84aafa0002810190508360ff168583029060020a90049150816482573a0a0002810190508360ff168583029060020a90049150816405035ad90002810190508360ff168583029060020a9004915081632f881b0002810190508360ff168583029060020a90049150816301b2934002810190508360ff168583029060020a9004915081620efc4002810190508360ff168583029060020a9004915081617fe002810190508360ff168583029060020a900491508161042002810190508360ff168583029060020a9004915081602102810190508360ff168583029060020a9004915081600102810190508360ff1660019060020a02856f0688589cc0e9505e2f2fee55800000008381151561171657fe5b04010195945050505050565b60008080610100841015611751575b600184111561174c5760029093049260019190910190611731565b610687565b5060805b60008160ff1611156106875760ff811660020a841061177e5760ff811660020a90930492908117905b600260ff909116046117555600a165627a7a7230582028a0c008c9e6b929b3113fcb1c76f42406455722ce431da215ff2e31bb3b9c3e0029",
  "source": "pragma solidity 0.4.26;\r\nimport './interfaces/IBancorFormula.sol';\r\nimport '../utility/SafeMath.sol';\r\nimport '../utility/Utils.sol';\r\n\r\ncontract BancorFormula is IBancorFormula, Utils {\r\n    using SafeMath for uint256;\r\n\r\n    uint16 public version = 6;\r\n\r\n    uint256 private constant ONE = 1;\r\n    uint32 private constant MAX_RATIO = 1000000;\r\n    uint8 private constant MIN_PRECISION = 32;\r\n    uint8 private constant MAX_PRECISION = 127;\r\n\r\n    /**\r\n      * Auto-generated via 'PrintIntScalingFactors.py'\r\n    */\r\n    uint256 private constant FIXED_1 = 0x080000000000000000000000000000000;\r\n    uint256 private constant FIXED_2 = 0x100000000000000000000000000000000;\r\n    uint256 private constant MAX_NUM = 0x200000000000000000000000000000000;\r\n\r\n    /**\r\n      * Auto-generated via 'PrintLn2ScalingFactors.py'\r\n    */\r\n    uint256 private constant LN2_NUMERATOR   = 0x3f80fe03f80fe03f80fe03f80fe03f8;\r\n    uint256 private constant LN2_DENOMINATOR = 0x5b9de1d10bf4103d647b0955897ba80;\r\n\r\n    /**\r\n      * Auto-generated via 'PrintFunctionOptimalLog.py' and 'PrintFunctionOptimalExp.py'\r\n    */\r\n    uint256 private constant OPT_LOG_MAX_VAL = 0x15bf0a8b1457695355fb8ac404e7a79e3;\r\n    uint256 private constant OPT_EXP_MAX_VAL = 0x800000000000000000000000000000000;\r\n\r\n    /**\r\n      * Auto-generated via 'PrintFunctionConstructor.py'\r\n    */\r\n    uint256[128] private maxExpArray;\r\n    constructor() public {\r\n    //  maxExpArray[  0] = 0x6bffffffffffffffffffffffffffffffff;\r\n    //  maxExpArray[  1] = 0x67ffffffffffffffffffffffffffffffff;\r\n    //  maxExpArray[  2] = 0x637fffffffffffffffffffffffffffffff;\r\n    //  maxExpArray[  3] = 0x5f6fffffffffffffffffffffffffffffff;\r\n    //  maxExpArray[  4] = 0x5b77ffffffffffffffffffffffffffffff;\r\n    //  maxExpArray[  5] = 0x57b3ffffffffffffffffffffffffffffff;\r\n    //  maxExpArray[  6] = 0x5419ffffffffffffffffffffffffffffff;\r\n    //  maxExpArray[  7] = 0x50a2ffffffffffffffffffffffffffffff;\r\n    //  maxExpArray[  8] = 0x4d517fffffffffffffffffffffffffffff;\r\n    //  maxExpArray[  9] = 0x4a233fffffffffffffffffffffffffffff;\r\n    //  maxExpArray[ 10] = 0x47165fffffffffffffffffffffffffffff;\r\n    //  maxExpArray[ 11] = 0x4429afffffffffffffffffffffffffffff;\r\n    //  maxExpArray[ 12] = 0x415bc7ffffffffffffffffffffffffffff;\r\n    //  maxExpArray[ 13] = 0x3eab73ffffffffffffffffffffffffffff;\r\n    //  maxExpArray[ 14] = 0x3c1771ffffffffffffffffffffffffffff;\r\n    //  maxExpArray[ 15] = 0x399e96ffffffffffffffffffffffffffff;\r\n    //  maxExpArray[ 16] = 0x373fc47fffffffffffffffffffffffffff;\r\n    //  maxExpArray[ 17] = 0x34f9e8ffffffffffffffffffffffffffff;\r\n    //  maxExpArray[ 18] = 0x32cbfd5fffffffffffffffffffffffffff;\r\n    //  maxExpArray[ 19] = 0x30b5057fffffffffffffffffffffffffff;\r\n    //  maxExpArray[ 20] = 0x2eb40f9fffffffffffffffffffffffffff;\r\n    //  maxExpArray[ 21] = 0x2cc8340fffffffffffffffffffffffffff;\r\n    //  maxExpArray[ 22] = 0x2af09481ffffffffffffffffffffffffff;\r\n    //  maxExpArray[ 23] = 0x292c5bddffffffffffffffffffffffffff;\r\n    //  maxExpArray[ 24] = 0x277abdcdffffffffffffffffffffffffff;\r\n    //  maxExpArray[ 25] = 0x25daf6657fffffffffffffffffffffffff;\r\n    //  maxExpArray[ 26] = 0x244c49c65fffffffffffffffffffffffff;\r\n    //  maxExpArray[ 27] = 0x22ce03cd5fffffffffffffffffffffffff;\r\n    //  maxExpArray[ 28] = 0x215f77c047ffffffffffffffffffffffff;\r\n    //  maxExpArray[ 29] = 0x1fffffffffffffffffffffffffffffffff;\r\n    //  maxExpArray[ 30] = 0x1eaefdbdabffffffffffffffffffffffff;\r\n    //  maxExpArray[ 31] = 0x1d6bd8b2ebffffffffffffffffffffffff;\r\n        maxExpArray[ 32] = 0x1c35fedd14ffffffffffffffffffffffff;\r\n        maxExpArray[ 33] = 0x1b0ce43b323fffffffffffffffffffffff;\r\n        maxExpArray[ 34] = 0x19f0028ec1ffffffffffffffffffffffff;\r\n        maxExpArray[ 35] = 0x18ded91f0e7fffffffffffffffffffffff;\r\n        maxExpArray[ 36] = 0x17d8ec7f0417ffffffffffffffffffffff;\r\n        maxExpArray[ 37] = 0x16ddc6556cdbffffffffffffffffffffff;\r\n        maxExpArray[ 38] = 0x15ecf52776a1ffffffffffffffffffffff;\r\n        maxExpArray[ 39] = 0x15060c256cb2ffffffffffffffffffffff;\r\n        maxExpArray[ 40] = 0x1428a2f98d72ffffffffffffffffffffff;\r\n        maxExpArray[ 41] = 0x13545598e5c23fffffffffffffffffffff;\r\n        maxExpArray[ 42] = 0x1288c4161ce1dfffffffffffffffffffff;\r\n        maxExpArray[ 43] = 0x11c592761c666fffffffffffffffffffff;\r\n        maxExpArray[ 44] = 0x110a688680a757ffffffffffffffffffff;\r\n        maxExpArray[ 45] = 0x1056f1b5bedf77ffffffffffffffffffff;\r\n        maxExpArray[ 46] = 0x0faadceceeff8bffffffffffffffffffff;\r\n        maxExpArray[ 47] = 0x0f05dc6b27edadffffffffffffffffffff;\r\n        maxExpArray[ 48] = 0x0e67a5a25da4107fffffffffffffffffff;\r\n        maxExpArray[ 49] = 0x0dcff115b14eedffffffffffffffffffff;\r\n        maxExpArray[ 50] = 0x0d3e7a392431239fffffffffffffffffff;\r\n        maxExpArray[ 51] = 0x0cb2ff529eb71e4fffffffffffffffffff;\r\n        maxExpArray[ 52] = 0x0c2d415c3db974afffffffffffffffffff;\r\n        maxExpArray[ 53] = 0x0bad03e7d883f69bffffffffffffffffff;\r\n        maxExpArray[ 54] = 0x0b320d03b2c343d5ffffffffffffffffff;\r\n        maxExpArray[ 55] = 0x0abc25204e02828dffffffffffffffffff;\r\n        maxExpArray[ 56] = 0x0a4b16f74ee4bb207fffffffffffffffff;\r\n        maxExpArray[ 57] = 0x09deaf736ac1f569ffffffffffffffffff;\r\n        maxExpArray[ 58] = 0x0976bd9952c7aa957fffffffffffffffff;\r\n        maxExpArray[ 59] = 0x09131271922eaa606fffffffffffffffff;\r\n        maxExpArray[ 60] = 0x08b380f3558668c46fffffffffffffffff;\r\n        maxExpArray[ 61] = 0x0857ddf0117efa215bffffffffffffffff;\r\n        maxExpArray[ 62] = 0x07ffffffffffffffffffffffffffffffff;\r\n        maxExpArray[ 63] = 0x07abbf6f6abb9d087fffffffffffffffff;\r\n        maxExpArray[ 64] = 0x075af62cbac95f7dfa7fffffffffffffff;\r\n        maxExpArray[ 65] = 0x070d7fb7452e187ac13fffffffffffffff;\r\n        maxExpArray[ 66] = 0x06c3390ecc8af379295fffffffffffffff;\r\n        maxExpArray[ 67] = 0x067c00a3b07ffc01fd6fffffffffffffff;\r\n        maxExpArray[ 68] = 0x0637b647c39cbb9d3d27ffffffffffffff;\r\n        maxExpArray[ 69] = 0x05f63b1fc104dbd39587ffffffffffffff;\r\n        maxExpArray[ 70] = 0x05b771955b36e12f7235ffffffffffffff;\r\n        maxExpArray[ 71] = 0x057b3d49dda84556d6f6ffffffffffffff;\r\n        maxExpArray[ 72] = 0x054183095b2c8ececf30ffffffffffffff;\r\n        maxExpArray[ 73] = 0x050a28be635ca2b888f77fffffffffffff;\r\n        maxExpArray[ 74] = 0x04d5156639708c9db33c3fffffffffffff;\r\n        maxExpArray[ 75] = 0x04a23105873875bd52dfdfffffffffffff;\r\n        maxExpArray[ 76] = 0x0471649d87199aa990756fffffffffffff;\r\n        maxExpArray[ 77] = 0x04429a21a029d4c1457cfbffffffffffff;\r\n        maxExpArray[ 78] = 0x0415bc6d6fb7dd71af2cb3ffffffffffff;\r\n        maxExpArray[ 79] = 0x03eab73b3bbfe282243ce1ffffffffffff;\r\n        maxExpArray[ 80] = 0x03c1771ac9fb6b4c18e229ffffffffffff;\r\n        maxExpArray[ 81] = 0x0399e96897690418f785257fffffffffff;\r\n        maxExpArray[ 82] = 0x0373fc456c53bb779bf0ea9fffffffffff;\r\n        maxExpArray[ 83] = 0x034f9e8e490c48e67e6ab8bfffffffffff;\r\n        maxExpArray[ 84] = 0x032cbfd4a7adc790560b3337ffffffffff;\r\n        maxExpArray[ 85] = 0x030b50570f6e5d2acca94613ffffffffff;\r\n        maxExpArray[ 86] = 0x02eb40f9f620fda6b56c2861ffffffffff;\r\n        maxExpArray[ 87] = 0x02cc8340ecb0d0f520a6af58ffffffffff;\r\n        maxExpArray[ 88] = 0x02af09481380a0a35cf1ba02ffffffffff;\r\n        maxExpArray[ 89] = 0x0292c5bdd3b92ec810287b1b3fffffffff;\r\n        maxExpArray[ 90] = 0x0277abdcdab07d5a77ac6d6b9fffffffff;\r\n        maxExpArray[ 91] = 0x025daf6654b1eaa55fd64df5efffffffff;\r\n        maxExpArray[ 92] = 0x0244c49c648baa98192dce88b7ffffffff;\r\n        maxExpArray[ 93] = 0x022ce03cd5619a311b2471268bffffffff;\r\n        maxExpArray[ 94] = 0x0215f77c045fbe885654a44a0fffffffff;\r\n        maxExpArray[ 95] = 0x01ffffffffffffffffffffffffffffffff;\r\n        maxExpArray[ 96] = 0x01eaefdbdaaee7421fc4d3ede5ffffffff;\r\n        maxExpArray[ 97] = 0x01d6bd8b2eb257df7e8ca57b09bfffffff;\r\n        maxExpArray[ 98] = 0x01c35fedd14b861eb0443f7f133fffffff;\r\n        maxExpArray[ 99] = 0x01b0ce43b322bcde4a56e8ada5afffffff;\r\n        maxExpArray[100] = 0x019f0028ec1fff007f5a195a39dfffffff;\r\n        maxExpArray[101] = 0x018ded91f0e72ee74f49b15ba527ffffff;\r\n        maxExpArray[102] = 0x017d8ec7f04136f4e5615fd41a63ffffff;\r\n        maxExpArray[103] = 0x016ddc6556cdb84bdc8d12d22e6fffffff;\r\n        maxExpArray[104] = 0x015ecf52776a1155b5bd8395814f7fffff;\r\n        maxExpArray[105] = 0x015060c256cb23b3b3cc3754cf40ffffff;\r\n        maxExpArray[106] = 0x01428a2f98d728ae223ddab715be3fffff;\r\n        maxExpArray[107] = 0x013545598e5c23276ccf0ede68034fffff;\r\n        maxExpArray[108] = 0x01288c4161ce1d6f54b7f61081194fffff;\r\n        maxExpArray[109] = 0x011c592761c666aa641d5a01a40f17ffff;\r\n        maxExpArray[110] = 0x0110a688680a7530515f3e6e6cfdcdffff;\r\n        maxExpArray[111] = 0x01056f1b5bedf75c6bcb2ce8aed428ffff;\r\n        maxExpArray[112] = 0x00faadceceeff8a0890f3875f008277fff;\r\n        maxExpArray[113] = 0x00f05dc6b27edad306388a600f6ba0bfff;\r\n        maxExpArray[114] = 0x00e67a5a25da41063de1495d5b18cdbfff;\r\n        maxExpArray[115] = 0x00dcff115b14eedde6fc3aa5353f2e4fff;\r\n        maxExpArray[116] = 0x00d3e7a3924312399f9aae2e0f868f8fff;\r\n        maxExpArray[117] = 0x00cb2ff529eb71e41582cccd5a1ee26fff;\r\n        maxExpArray[118] = 0x00c2d415c3db974ab32a51840c0b67edff;\r\n        maxExpArray[119] = 0x00bad03e7d883f69ad5b0a186184e06bff;\r\n        maxExpArray[120] = 0x00b320d03b2c343d4829abd6075f0cc5ff;\r\n        maxExpArray[121] = 0x00abc25204e02828d73c6e80bcdb1a95bf;\r\n        maxExpArray[122] = 0x00a4b16f74ee4bb2040a1ec6c15fbbf2df;\r\n        maxExpArray[123] = 0x009deaf736ac1f569deb1b5ae3f36c130f;\r\n        maxExpArray[124] = 0x00976bd9952c7aa957f5937d790ef65037;\r\n        maxExpArray[125] = 0x009131271922eaa6064b73a22d0bd4f2bf;\r\n        maxExpArray[126] = 0x008b380f3558668c46c91c49a2f8e967b9;\r\n        maxExpArray[127] = 0x00857ddf0117efa215952912839f6473e6;\r\n    }\r\n\r\n    /**\r\n      * @dev given a token supply, reserve balance, ratio and a deposit amount (in the reserve token),\r\n      * calculates the return for a given conversion (in the main token)\r\n      * \r\n      * Formula:\r\n      * Return = _supply * ((1 + _depositAmount / _reserveBalance) ^ (_reserveRatio / 1000000) - 1)\r\n      * \r\n      * @param _supply              token total supply\r\n      * @param _reserveBalance      total reserve balance\r\n      * @param _reserveRatio        reserve ratio, represented in ppm, 1-1000000\r\n      * @param _depositAmount       deposit amount, in reserve token\r\n      * \r\n      * @return purchase return amount\r\n    */\r\n    function calculatePurchaseReturn(uint256 _supply, uint256 _reserveBalance, uint32 _reserveRatio, uint256 _depositAmount) public view returns (uint256) {\r\n        // validate input\r\n        require(_supply > 0 && _reserveBalance > 0 && _reserveRatio > 0 && _reserveRatio <= MAX_RATIO);\r\n\r\n        // special case for 0 deposit amount\r\n        if (_depositAmount == 0)\r\n            return 0;\r\n\r\n        // special case if the ratio = 100%\r\n        if (_reserveRatio == MAX_RATIO)\r\n            return _supply.mul(_depositAmount) / _reserveBalance;\r\n\r\n        uint256 result;\r\n        uint8 precision;\r\n        uint256 baseN = _depositAmount.add(_reserveBalance);\r\n        (result, precision) = power(baseN, _reserveBalance, _reserveRatio, MAX_RATIO);\r\n        uint256 temp = _supply.mul(result) >> precision;\r\n        return temp - _supply;\r\n    }\r\n\r\n    /**\r\n      * @dev given a token supply, reserve balance, ratio and a sell amount (in the main token),\r\n      * calculates the return for a given conversion (in the reserve token)\r\n      * \r\n      * Formula:\r\n      * Return = _reserveBalance * (1 - (1 - _sellAmount / _supply) ^ (1000000 / _reserveRatio))\r\n      * \r\n      * @param _supply              token total supply\r\n      * @param _reserveBalance      total reserve\r\n      * @param _reserveRatio        constant reserve Ratio, represented in ppm, 1-1000000\r\n      * @param _sellAmount          sell amount, in the token itself\r\n      * \r\n      * @return sale return amount\r\n    */\r\n    function calculateSaleReturn(uint256 _supply, uint256 _reserveBalance, uint32 _reserveRatio, uint256 _sellAmount) public view returns (uint256) {\r\n        // validate input\r\n        require(_supply > 0 && _reserveBalance > 0 && _reserveRatio > 0 && _reserveRatio <= MAX_RATIO && _sellAmount <= _supply);\r\n\r\n        // special case for 0 sell amount\r\n        if (_sellAmount == 0)\r\n            return 0;\r\n\r\n        // special case for selling the entire supply\r\n        if (_sellAmount == _supply)\r\n            return _reserveBalance;\r\n\r\n        // special case if the ratio = 100%\r\n        if (_reserveRatio == MAX_RATIO)\r\n            return _reserveBalance.mul(_sellAmount) / _supply;\r\n\r\n        uint256 result;\r\n        uint8 precision;\r\n        uint256 baseD = _supply - _sellAmount;\r\n        (result, precision) = power(_supply, baseD, MAX_RATIO, _reserveRatio);\r\n        uint256 temp1 = _reserveBalance.mul(result);\r\n        uint256 temp2 = _reserveBalance << precision;\r\n        return (temp1 - temp2) / result;\r\n    }\r\n\r\n    /**\r\n      * @dev given two reserve balances/ratios and a sell amount (in the first reserve token),\r\n      * calculates the return for a conversion from the first reserve token to the second reserve token (in the second reserve token)\r\n      * note that prior to version 4, you should use 'calculateCrossConnectorReturn' instead\r\n      * \r\n      * Formula:\r\n      * Return = _toReserveBalance * (1 - (_fromReserveBalance / (_fromReserveBalance + _amount)) ^ (_fromReserveRatio / _toReserveRatio))\r\n      * \r\n      * @param _fromReserveBalance      input reserve balance\r\n      * @param _fromReserveRatio        input reserve ratio, represented in ppm, 1-1000000\r\n      * @param _toReserveBalance        output reserve balance\r\n      * @param _toReserveRatio          output reserve ratio, represented in ppm, 1-1000000\r\n      * @param _amount                  input reserve amount\r\n      * \r\n      * @return second reserve amount\r\n    */\r\n    function calculateCrossReserveReturn(uint256 _fromReserveBalance, uint32 _fromReserveRatio, uint256 _toReserveBalance, uint32 _toReserveRatio, uint256 _amount) public view returns (uint256) {\r\n        // validate input\r\n        require(_fromReserveBalance > 0 && _fromReserveRatio > 0 && _fromReserveRatio <= MAX_RATIO && _toReserveBalance > 0 && _toReserveRatio > 0 && _toReserveRatio <= MAX_RATIO);\r\n\r\n        // special case for equal ratios\r\n        if (_fromReserveRatio == _toReserveRatio)\r\n            return _toReserveBalance.mul(_amount) / _fromReserveBalance.add(_amount);\r\n\r\n        uint256 result;\r\n        uint8 precision;\r\n        uint256 baseN = _fromReserveBalance.add(_amount);\r\n        (result, precision) = power(baseN, _fromReserveBalance, _fromReserveRatio, _toReserveRatio);\r\n        uint256 temp1 = _toReserveBalance.mul(result);\r\n        uint256 temp2 = _toReserveBalance << precision;\r\n        return (temp1 - temp2) / result;\r\n    }\r\n\r\n    /**\r\n      * @dev given a smart token supply, reserve balance, total ratio and an amount of requested smart tokens,\r\n      * calculates the amount of reserve tokens required for purchasing the given amount of smart tokens\r\n      * \r\n      * Formula:\r\n      * Return = _reserveBalance * (((_supply + _amount) / _supply) ^ (MAX_RATIO / _totalRatio) - 1)\r\n      * \r\n      * @param _supply              smart token supply\r\n      * @param _reserveBalance      reserve token balance\r\n      * @param _totalRatio          total ratio, represented in ppm, 2-2000000\r\n      * @param _amount              requested amount of smart tokens\r\n      * \r\n      * @return amount of reserve tokens\r\n    */\r\n    function calculateFundCost(uint256 _supply, uint256 _reserveBalance, uint32 _totalRatio, uint256 _amount) public view returns (uint256) {\r\n        // validate input\r\n        require(_supply > 0 && _reserveBalance > 0 && _totalRatio > 1 && _totalRatio <= MAX_RATIO * 2);\r\n\r\n        // special case for 0 amount\r\n        if (_amount == 0)\r\n            return 0;\r\n\r\n        // special case if the total ratio = 100%\r\n        if (_totalRatio == MAX_RATIO)\r\n            return (_amount.mul(_reserveBalance) - 1) / _supply + 1;\r\n\r\n        uint256 result;\r\n        uint8 precision;\r\n        uint256 baseN = _supply.add(_amount);\r\n        (result, precision) = power(baseN, _supply, MAX_RATIO, _totalRatio);\r\n        uint256 temp = ((_reserveBalance.mul(result) - 1) >> precision) + 1;\r\n        return temp - _reserveBalance;\r\n    }\r\n\r\n    /**\r\n      * @dev given a smart token supply, reserve balance, total ratio and an amount of smart tokens to liquidate,\r\n      * calculates the amount of reserve tokens received for selling the given amount of smart tokens\r\n      * \r\n      * Formula:\r\n      * Return = _reserveBalance * (1 - ((_supply - _amount) / _supply) ^ (MAX_RATIO / _totalRatio))\r\n      * \r\n      * @param _supply              smart token supply\r\n      * @param _reserveBalance      reserve token balance\r\n      * @param _totalRatio          total ratio, represented in ppm, 2-2000000\r\n      * @param _amount              amount of smart tokens to liquidate\r\n      * \r\n      * @return amount of reserve tokens\r\n    */\r\n    function calculateLiquidateReturn(uint256 _supply, uint256 _reserveBalance, uint32 _totalRatio, uint256 _amount) public view returns (uint256) {\r\n        // validate input\r\n        require(_supply > 0 && _reserveBalance > 0 && _totalRatio > 1 && _totalRatio <= MAX_RATIO * 2 && _amount <= _supply);\r\n\r\n        // special case for 0 amount\r\n        if (_amount == 0)\r\n            return 0;\r\n\r\n        // special case for liquidating the entire supply\r\n        if (_amount == _supply)\r\n            return _reserveBalance;\r\n\r\n        // special case if the total ratio = 100%\r\n        if (_totalRatio == MAX_RATIO)\r\n            return _amount.mul(_reserveBalance) / _supply;\r\n\r\n        uint256 result;\r\n        uint8 precision;\r\n        uint256 baseD = _supply - _amount;\r\n        (result, precision) = power(_supply, baseD, MAX_RATIO, _totalRatio);\r\n        uint256 temp1 = _reserveBalance.mul(result);\r\n        uint256 temp2 = _reserveBalance << precision;\r\n        return (temp1 - temp2) / result;\r\n    }\r\n\r\n    /**\r\n      * @dev General Description:\r\n      *     Determine a value of precision.\r\n      *     Calculate an integer approximation of (_baseN / _baseD) ^ (_expN / _expD) * 2 ^ precision.\r\n      *     Return the result along with the precision used.\r\n      * \r\n      * Detailed Description:\r\n      *     Instead of calculating \"base ^ exp\", we calculate \"e ^ (log(base) * exp)\".\r\n      *     The value of \"log(base)\" is represented with an integer slightly smaller than \"log(base) * 2 ^ precision\".\r\n      *     The larger \"precision\" is, the more accurately this value represents the real value.\r\n      *     However, the larger \"precision\" is, the more bits are required in order to store this value.\r\n      *     And the exponentiation function, which takes \"x\" and calculates \"e ^ x\", is limited to a maximum exponent (maximum value of \"x\").\r\n      *     This maximum exponent depends on the \"precision\" used, and it is given by \"maxExpArray[precision] >> (MAX_PRECISION - precision)\".\r\n      *     Hence we need to determine the highest precision which can be used for the given input, before calling the exponentiation function.\r\n      *     This allows us to compute \"base ^ exp\" with maximum accuracy and without exceeding 256 bits in any of the intermediate computations.\r\n      *     This functions assumes that \"_expN < 2 ^ 256 / log(MAX_NUM - 1)\", otherwise the multiplication should be replaced with a \"safeMul\".\r\n      *     Since we rely on unsigned-integer arithmetic and \"base < 1\" ==> \"log(base) < 0\", this function does not support \"_baseN < _baseD\".\r\n    */\r\n    function power(uint256 _baseN, uint256 _baseD, uint32 _expN, uint32 _expD) internal view returns (uint256, uint8) {\r\n        require(_baseN < MAX_NUM);\r\n\r\n        uint256 baseLog;\r\n        uint256 base = _baseN * FIXED_1 / _baseD;\r\n        if (base < OPT_LOG_MAX_VAL) {\r\n            baseLog = optimalLog(base);\r\n        }\r\n        else {\r\n            baseLog = generalLog(base);\r\n        }\r\n\r\n        uint256 baseLogTimesExp = baseLog * _expN / _expD;\r\n        if (baseLogTimesExp < OPT_EXP_MAX_VAL) {\r\n            return (optimalExp(baseLogTimesExp), MAX_PRECISION);\r\n        }\r\n        else {\r\n            uint8 precision = findPositionInMaxExpArray(baseLogTimesExp);\r\n            return (generalExp(baseLogTimesExp >> (MAX_PRECISION - precision), precision), precision);\r\n        }\r\n    }\r\n\r\n    /**\r\n      * @dev computes log(x / FIXED_1) * FIXED_1.\r\n      * This functions assumes that \"x >= FIXED_1\", because the output would be negative otherwise.\r\n    */\r\n    function generalLog(uint256 x) internal pure returns (uint256) {\r\n        uint256 res = 0;\r\n\r\n        // If x >= 2, then we compute the integer part of log2(x), which is larger than 0.\r\n        if (x >= FIXED_2) {\r\n            uint8 count = floorLog2(x / FIXED_1);\r\n            x >>= count; // now x < 2\r\n            res = count * FIXED_1;\r\n        }\r\n\r\n        // If x > 1, then we compute the fraction part of log2(x), which is larger than 0.\r\n        if (x > FIXED_1) {\r\n            for (uint8 i = MAX_PRECISION; i > 0; --i) {\r\n                x = (x * x) / FIXED_1; // now 1 < x < 4\r\n                if (x >= FIXED_2) {\r\n                    x >>= 1; // now 1 < x < 2\r\n                    res += ONE << (i - 1);\r\n                }\r\n            }\r\n        }\r\n\r\n        return res * LN2_NUMERATOR / LN2_DENOMINATOR;\r\n    }\r\n\r\n    /**\r\n      * @dev computes the largest integer smaller than or equal to the binary logarithm of the input.\r\n    */\r\n    function floorLog2(uint256 _n) internal pure returns (uint8) {\r\n        uint8 res = 0;\r\n\r\n        if (_n < 256) {\r\n            // At most 8 iterations\r\n            while (_n > 1) {\r\n                _n >>= 1;\r\n                res += 1;\r\n            }\r\n        }\r\n        else {\r\n            // Exactly 8 iterations\r\n            for (uint8 s = 128; s > 0; s >>= 1) {\r\n                if (_n >= (ONE << s)) {\r\n                    _n >>= s;\r\n                    res |= s;\r\n                }\r\n            }\r\n        }\r\n\r\n        return res;\r\n    }\r\n\r\n    /**\r\n      * @dev the global \"maxExpArray\" is sorted in descending order, and therefore the following statements are equivalent:\r\n      * - This function finds the position of [the smallest value in \"maxExpArray\" larger than or equal to \"x\"]\r\n      * - This function finds the highest position of [a value in \"maxExpArray\" larger than or equal to \"x\"]\r\n    */\r\n    function findPositionInMaxExpArray(uint256 _x) internal view returns (uint8) {\r\n        uint8 lo = MIN_PRECISION;\r\n        uint8 hi = MAX_PRECISION;\r\n\r\n        while (lo + 1 < hi) {\r\n            uint8 mid = (lo + hi) / 2;\r\n            if (maxExpArray[mid] >= _x)\r\n                lo = mid;\r\n            else\r\n                hi = mid;\r\n        }\r\n\r\n        if (maxExpArray[hi] >= _x)\r\n            return hi;\r\n        if (maxExpArray[lo] >= _x)\r\n            return lo;\r\n\r\n        require(false);\r\n        return 0;\r\n    }\r\n\r\n    /**\r\n      * @dev this function can be auto-generated by the script 'PrintFunctionGeneralExp.py'.\r\n      * it approximates \"e ^ x\" via maclaurin summation: \"(x^0)/0! + (x^1)/1! + ... + (x^n)/n!\".\r\n      * it returns \"e ^ (x / 2 ^ precision) * 2 ^ precision\", that is, the result is upshifted for accuracy.\r\n      * the global \"maxExpArray\" maps each \"precision\" to \"((maximumExponent + 1) << (MAX_PRECISION - precision)) - 1\".\r\n      * the maximum permitted value for \"x\" is therefore given by \"maxExpArray[precision] >> (MAX_PRECISION - precision)\".\r\n    */\r\n    function generalExp(uint256 _x, uint8 _precision) internal pure returns (uint256) {\r\n        uint256 xi = _x;\r\n        uint256 res = 0;\r\n\r\n        xi = (xi * _x) >> _precision; res += xi * 0x3442c4e6074a82f1797f72ac0000000; // add x^02 * (33! / 02!)\r\n        xi = (xi * _x) >> _precision; res += xi * 0x116b96f757c380fb287fd0e40000000; // add x^03 * (33! / 03!)\r\n        xi = (xi * _x) >> _precision; res += xi * 0x045ae5bdd5f0e03eca1ff4390000000; // add x^04 * (33! / 04!)\r\n        xi = (xi * _x) >> _precision; res += xi * 0x00defabf91302cd95b9ffda50000000; // add x^05 * (33! / 05!)\r\n        xi = (xi * _x) >> _precision; res += xi * 0x002529ca9832b22439efff9b8000000; // add x^06 * (33! / 06!)\r\n        xi = (xi * _x) >> _precision; res += xi * 0x00054f1cf12bd04e516b6da88000000; // add x^07 * (33! / 07!)\r\n        xi = (xi * _x) >> _precision; res += xi * 0x0000a9e39e257a09ca2d6db51000000; // add x^08 * (33! / 08!)\r\n        xi = (xi * _x) >> _precision; res += xi * 0x000012e066e7b839fa050c309000000; // add x^09 * (33! / 09!)\r\n        xi = (xi * _x) >> _precision; res += xi * 0x000001e33d7d926c329a1ad1a800000; // add x^10 * (33! / 10!)\r\n        xi = (xi * _x) >> _precision; res += xi * 0x0000002bee513bdb4a6b19b5f800000; // add x^11 * (33! / 11!)\r\n        xi = (xi * _x) >> _precision; res += xi * 0x00000003a9316fa79b88eccf2a00000; // add x^12 * (33! / 12!)\r\n        xi = (xi * _x) >> _precision; res += xi * 0x0000000048177ebe1fa812375200000; // add x^13 * (33! / 13!)\r\n        xi = (xi * _x) >> _precision; res += xi * 0x0000000005263fe90242dcbacf00000; // add x^14 * (33! / 14!)\r\n        xi = (xi * _x) >> _precision; res += xi * 0x000000000057e22099c030d94100000; // add x^15 * (33! / 15!)\r\n        xi = (xi * _x) >> _precision; res += xi * 0x0000000000057e22099c030d9410000; // add x^16 * (33! / 16!)\r\n        xi = (xi * _x) >> _precision; res += xi * 0x00000000000052b6b54569976310000; // add x^17 * (33! / 17!)\r\n        xi = (xi * _x) >> _precision; res += xi * 0x00000000000004985f67696bf748000; // add x^18 * (33! / 18!)\r\n        xi = (xi * _x) >> _precision; res += xi * 0x000000000000003dea12ea99e498000; // add x^19 * (33! / 19!)\r\n        xi = (xi * _x) >> _precision; res += xi * 0x00000000000000031880f2214b6e000; // add x^20 * (33! / 20!)\r\n        xi = (xi * _x) >> _precision; res += xi * 0x000000000000000025bcff56eb36000; // add x^21 * (33! / 21!)\r\n        xi = (xi * _x) >> _precision; res += xi * 0x000000000000000001b722e10ab1000; // add x^22 * (33! / 22!)\r\n        xi = (xi * _x) >> _precision; res += xi * 0x0000000000000000001317c70077000; // add x^23 * (33! / 23!)\r\n        xi = (xi * _x) >> _precision; res += xi * 0x00000000000000000000cba84aafa00; // add x^24 * (33! / 24!)\r\n        xi = (xi * _x) >> _precision; res += xi * 0x00000000000000000000082573a0a00; // add x^25 * (33! / 25!)\r\n        xi = (xi * _x) >> _precision; res += xi * 0x00000000000000000000005035ad900; // add x^26 * (33! / 26!)\r\n        xi = (xi * _x) >> _precision; res += xi * 0x000000000000000000000002f881b00; // add x^27 * (33! / 27!)\r\n        xi = (xi * _x) >> _precision; res += xi * 0x0000000000000000000000001b29340; // add x^28 * (33! / 28!)\r\n        xi = (xi * _x) >> _precision; res += xi * 0x00000000000000000000000000efc40; // add x^29 * (33! / 29!)\r\n        xi = (xi * _x) >> _precision; res += xi * 0x0000000000000000000000000007fe0; // add x^30 * (33! / 30!)\r\n        xi = (xi * _x) >> _precision; res += xi * 0x0000000000000000000000000000420; // add x^31 * (33! / 31!)\r\n        xi = (xi * _x) >> _precision; res += xi * 0x0000000000000000000000000000021; // add x^32 * (33! / 32!)\r\n        xi = (xi * _x) >> _precision; res += xi * 0x0000000000000000000000000000001; // add x^33 * (33! / 33!)\r\n\r\n        return res / 0x688589cc0e9505e2f2fee5580000000 + _x + (ONE << _precision); // divide by 33! and then add x^1 / 1! + x^0 / 0!\r\n    }\r\n\r\n    /**\r\n      * @dev computes log(x / FIXED_1) * FIXED_1\r\n      * Input range: FIXED_1 <= x <= LOG_EXP_MAX_VAL - 1\r\n      * Auto-generated via 'PrintFunctionOptimalLog.py'\r\n      * Detailed description:\r\n      * - Rewrite the input as a product of natural exponents and a single residual r, such that 1 < r < 2\r\n      * - The natural logarithm of each (pre-calculated) exponent is the degree of the exponent\r\n      * - The natural logarithm of r is calculated via Taylor series for log(1 + x), where x = r - 1\r\n      * - The natural logarithm of the input is calculated by summing up the intermediate results above\r\n      * - For example: log(250) = log(e^4 * e^1 * e^0.5 * 1.021692859) = 4 + 1 + 0.5 + log(1 + 0.021692859)\r\n    */\r\n    function optimalLog(uint256 x) internal pure returns (uint256) {\r\n        uint256 res = 0;\r\n\r\n        uint256 y;\r\n        uint256 z;\r\n        uint256 w;\r\n\r\n        if (x >= 0xd3094c70f034de4b96ff7d5b6f99fcd8) {res += 0x40000000000000000000000000000000; x = x * FIXED_1 / 0xd3094c70f034de4b96ff7d5b6f99fcd8;} // add 1 / 2^1\r\n        if (x >= 0xa45af1e1f40c333b3de1db4dd55f29a7) {res += 0x20000000000000000000000000000000; x = x * FIXED_1 / 0xa45af1e1f40c333b3de1db4dd55f29a7;} // add 1 / 2^2\r\n        if (x >= 0x910b022db7ae67ce76b441c27035c6a1) {res += 0x10000000000000000000000000000000; x = x * FIXED_1 / 0x910b022db7ae67ce76b441c27035c6a1;} // add 1 / 2^3\r\n        if (x >= 0x88415abbe9a76bead8d00cf112e4d4a8) {res += 0x08000000000000000000000000000000; x = x * FIXED_1 / 0x88415abbe9a76bead8d00cf112e4d4a8;} // add 1 / 2^4\r\n        if (x >= 0x84102b00893f64c705e841d5d4064bd3) {res += 0x04000000000000000000000000000000; x = x * FIXED_1 / 0x84102b00893f64c705e841d5d4064bd3;} // add 1 / 2^5\r\n        if (x >= 0x8204055aaef1c8bd5c3259f4822735a2) {res += 0x02000000000000000000000000000000; x = x * FIXED_1 / 0x8204055aaef1c8bd5c3259f4822735a2;} // add 1 / 2^6\r\n        if (x >= 0x810100ab00222d861931c15e39b44e99) {res += 0x01000000000000000000000000000000; x = x * FIXED_1 / 0x810100ab00222d861931c15e39b44e99;} // add 1 / 2^7\r\n        if (x >= 0x808040155aabbbe9451521693554f733) {res += 0x00800000000000000000000000000000; x = x * FIXED_1 / 0x808040155aabbbe9451521693554f733;} // add 1 / 2^8\r\n\r\n        z = y = x - FIXED_1;\r\n        w = y * y / FIXED_1;\r\n        res += z * (0x100000000000000000000000000000000 - y) / 0x100000000000000000000000000000000; z = z * w / FIXED_1; // add y^01 / 01 - y^02 / 02\r\n        res += z * (0x0aaaaaaaaaaaaaaaaaaaaaaaaaaaaaaaa - y) / 0x200000000000000000000000000000000; z = z * w / FIXED_1; // add y^03 / 03 - y^04 / 04\r\n        res += z * (0x099999999999999999999999999999999 - y) / 0x300000000000000000000000000000000; z = z * w / FIXED_1; // add y^05 / 05 - y^06 / 06\r\n        res += z * (0x092492492492492492492492492492492 - y) / 0x400000000000000000000000000000000; z = z * w / FIXED_1; // add y^07 / 07 - y^08 / 08\r\n        res += z * (0x08e38e38e38e38e38e38e38e38e38e38e - y) / 0x500000000000000000000000000000000; z = z * w / FIXED_1; // add y^09 / 09 - y^10 / 10\r\n        res += z * (0x08ba2e8ba2e8ba2e8ba2e8ba2e8ba2e8b - y) / 0x600000000000000000000000000000000; z = z * w / FIXED_1; // add y^11 / 11 - y^12 / 12\r\n        res += z * (0x089d89d89d89d89d89d89d89d89d89d89 - y) / 0x700000000000000000000000000000000; z = z * w / FIXED_1; // add y^13 / 13 - y^14 / 14\r\n        res += z * (0x088888888888888888888888888888888 - y) / 0x800000000000000000000000000000000;                      // add y^15 / 15 - y^16 / 16\r\n\r\n        return res;\r\n    }\r\n\r\n    /**\r\n      * @dev computes e ^ (x / FIXED_1) * FIXED_1\r\n      * input range: 0 <= x <= OPT_EXP_MAX_VAL - 1\r\n      * auto-generated via 'PrintFunctionOptimalExp.py'\r\n      * Detailed description:\r\n      * - Rewrite the input as a sum of binary exponents and a single residual r, as small as possible\r\n      * - The exponentiation of each binary exponent is given (pre-calculated)\r\n      * - The exponentiation of r is calculated via Taylor series for e^x, where x = r\r\n      * - The exponentiation of the input is calculated by multiplying the intermediate results above\r\n      * - For example: e^5.521692859 = e^(4 + 1 + 0.5 + 0.021692859) = e^4 * e^1 * e^0.5 * e^0.021692859\r\n    */\r\n    function optimalExp(uint256 x) internal pure returns (uint256) {\r\n        uint256 res = 0;\r\n\r\n        uint256 y;\r\n        uint256 z;\r\n\r\n        z = y = x % 0x10000000000000000000000000000000; // get the input modulo 2^(-3)\r\n        z = z * y / FIXED_1; res += z * 0x10e1b3be415a0000; // add y^02 * (20! / 02!)\r\n        z = z * y / FIXED_1; res += z * 0x05a0913f6b1e0000; // add y^03 * (20! / 03!)\r\n        z = z * y / FIXED_1; res += z * 0x0168244fdac78000; // add y^04 * (20! / 04!)\r\n        z = z * y / FIXED_1; res += z * 0x004807432bc18000; // add y^05 * (20! / 05!)\r\n        z = z * y / FIXED_1; res += z * 0x000c0135dca04000; // add y^06 * (20! / 06!)\r\n        z = z * y / FIXED_1; res += z * 0x0001b707b1cdc000; // add y^07 * (20! / 07!)\r\n        z = z * y / FIXED_1; res += z * 0x000036e0f639b800; // add y^08 * (20! / 08!)\r\n        z = z * y / FIXED_1; res += z * 0x00000618fee9f800; // add y^09 * (20! / 09!)\r\n        z = z * y / FIXED_1; res += z * 0x0000009c197dcc00; // add y^10 * (20! / 10!)\r\n        z = z * y / FIXED_1; res += z * 0x0000000e30dce400; // add y^11 * (20! / 11!)\r\n        z = z * y / FIXED_1; res += z * 0x000000012ebd1300; // add y^12 * (20! / 12!)\r\n        z = z * y / FIXED_1; res += z * 0x0000000017499f00; // add y^13 * (20! / 13!)\r\n        z = z * y / FIXED_1; res += z * 0x0000000001a9d480; // add y^14 * (20! / 14!)\r\n        z = z * y / FIXED_1; res += z * 0x00000000001c6380; // add y^15 * (20! / 15!)\r\n        z = z * y / FIXED_1; res += z * 0x000000000001c638; // add y^16 * (20! / 16!)\r\n        z = z * y / FIXED_1; res += z * 0x0000000000001ab8; // add y^17 * (20! / 17!)\r\n        z = z * y / FIXED_1; res += z * 0x000000000000017c; // add y^18 * (20! / 18!)\r\n        z = z * y / FIXED_1; res += z * 0x0000000000000014; // add y^19 * (20! / 19!)\r\n        z = z * y / FIXED_1; res += z * 0x0000000000000001; // add y^20 * (20! / 20!)\r\n        res = res / 0x21c3677c82b40000 + y + FIXED_1; // divide by 20! and then add y^1 / 1! + y^0 / 0!\r\n\r\n        if ((x & 0x010000000000000000000000000000000) != 0) res = res * 0x1c3d6a24ed82218787d624d3e5eba95f9 / 0x18ebef9eac820ae8682b9793ac6d1e776; // multiply by e^2^(-3)\r\n        if ((x & 0x020000000000000000000000000000000) != 0) res = res * 0x18ebef9eac820ae8682b9793ac6d1e778 / 0x1368b2fc6f9609fe7aceb46aa619baed4; // multiply by e^2^(-2)\r\n        if ((x & 0x040000000000000000000000000000000) != 0) res = res * 0x1368b2fc6f9609fe7aceb46aa619baed5 / 0x0bc5ab1b16779be3575bd8f0520a9f21f; // multiply by e^2^(-1)\r\n        if ((x & 0x080000000000000000000000000000000) != 0) res = res * 0x0bc5ab1b16779be3575bd8f0520a9f21e / 0x0454aaa8efe072e7f6ddbab84b40a55c9; // multiply by e^2^(+0)\r\n        if ((x & 0x100000000000000000000000000000000) != 0) res = res * 0x0454aaa8efe072e7f6ddbab84b40a55c5 / 0x00960aadc109e7a3bf4578099615711ea; // multiply by e^2^(+1)\r\n        if ((x & 0x200000000000000000000000000000000) != 0) res = res * 0x00960aadc109e7a3bf4578099615711d7 / 0x0002bf84208204f5977f9a8cf01fdce3d; // multiply by e^2^(+2)\r\n        if ((x & 0x400000000000000000000000000000000) != 0) res = res * 0x0002bf84208204f5977f9a8cf01fdc307 / 0x0000003c6ab775dd0b95b4cbee7e65d11; // multiply by e^2^(+3)\r\n\r\n        return res;\r\n    }\r\n\r\n    /**\r\n      * @dev deprecated, backward compatibility\r\n    */\r\n    function calculateCrossConnectorReturn(uint256 _fromConnectorBalance, uint32 _fromConnectorWeight, uint256 _toConnectorBalance, uint32 _toConnectorWeight, uint256 _amount) public view returns (uint256) {\r\n        return calculateCrossReserveReturn(_fromConnectorBalance, _fromConnectorWeight, _toConnectorBalance, _toConnectorWeight, _amount);\r\n    }\r\n}\r\n",
  "sourcePath": "/home/faycal/Desktop/projects/BancorCompoundPool/contracts/contracts/converter/BancorFormula.sol",
  "compiler": {
    "name": "solc",
    "version": "0.4.26+commit.4563c3fc.Emscripten.clang"
  },
  "schemaVersion": "3.1.0",
  "updatedAt": "2020-04-17T21:34:25.259Z",
  "devdoc": {
    "methods": {
      "calculateCrossConnectorReturn(uint256,uint32,uint256,uint32,uint256)": {
        "details": "deprecated, backward compatibility\r"
      },
      "calculateCrossReserveReturn(uint256,uint32,uint256,uint32,uint256)": {
        "details": "given two reserve balances/ratios and a sell amount (in the first reserve token),\r calculates the return for a conversion from the first reserve token to the second reserve token (in the second reserve token)\r note that prior to version 4, you should use 'calculateCrossConnectorReturn' instead\r \r Formula:\r Return = _toReserveBalance * (1 - (_fromReserveBalance / (_fromReserveBalance + _amount)) ^ (_fromReserveRatio / _toReserveRatio))\r \r",
        "params": {
          "_amount": "input reserve amount\r \r",
          "_fromReserveBalance": "input reserve balance\r",
          "_fromReserveRatio": "input reserve ratio, represented in ppm, 1-1000000\r",
          "_toReserveBalance": "output reserve balance\r",
          "_toReserveRatio": "output reserve ratio, represented in ppm, 1-1000000\r"
        },
        "return": "second reserve amount\r"
      },
      "calculateFundCost(uint256,uint256,uint32,uint256)": {
        "details": "given a smart token supply, reserve balance, total ratio and an amount of requested smart tokens,\r calculates the amount of reserve tokens required for purchasing the given amount of smart tokens\r \r Formula:\r Return = _reserveBalance * (((_supply + _amount) / _supply) ^ (MAX_RATIO / _totalRatio) - 1)\r \r",
        "params": {
          "_amount": "requested amount of smart tokens\r \r",
          "_reserveBalance": "reserve token balance\r",
          "_supply": "smart token supply\r",
          "_totalRatio": "total ratio, represented in ppm, 2-2000000\r"
        },
        "return": "amount of reserve tokens\r"
      },
      "calculateLiquidateReturn(uint256,uint256,uint32,uint256)": {
        "details": "given a smart token supply, reserve balance, total ratio and an amount of smart tokens to liquidate,\r calculates the amount of reserve tokens received for selling the given amount of smart tokens\r \r Formula:\r Return = _reserveBalance * (1 - ((_supply - _amount) / _supply) ^ (MAX_RATIO / _totalRatio))\r \r",
        "params": {
          "_amount": "amount of smart tokens to liquidate\r \r",
          "_reserveBalance": "reserve token balance\r",
          "_supply": "smart token supply\r",
          "_totalRatio": "total ratio, represented in ppm, 2-2000000\r"
        },
        "return": "amount of reserve tokens\r"
      },
      "calculatePurchaseReturn(uint256,uint256,uint32,uint256)": {
        "details": "given a token supply, reserve balance, ratio and a deposit amount (in the reserve token),\r calculates the return for a given conversion (in the main token)\r \r Formula:\r Return = _supply * ((1 + _depositAmount / _reserveBalance) ^ (_reserveRatio / 1000000) - 1)\r \r",
        "params": {
          "_depositAmount": "deposit amount, in reserve token\r \r",
          "_reserveBalance": "total reserve balance\r",
          "_reserveRatio": "reserve ratio, represented in ppm, 1-1000000\r",
          "_supply": "token total supply\r"
        },
        "return": "purchase return amount\r"
      },
      "calculateSaleReturn(uint256,uint256,uint32,uint256)": {
        "details": "given a token supply, reserve balance, ratio and a sell amount (in the main token),\r calculates the return for a given conversion (in the reserve token)\r \r Formula:\r Return = _reserveBalance * (1 - (1 - _sellAmount / _supply) ^ (1000000 / _reserveRatio))\r \r",
        "params": {
          "_reserveBalance": "total reserve\r",
          "_reserveRatio": "constant reserve Ratio, represented in ppm, 1-1000000\r",
          "_sellAmount": "sell amount, in the token itself\r \r",
          "_supply": "token total supply\r"
        },
        "return": "sale return amount\r"
      }
    }
  },
  "userdoc": {
    "methods": {}
  }
}