{
  "contractName": "BancorConverterFactory",
  "abi": [
    {
      "inputs": [],
      "payable": false,
      "stateMutability": "nonpayable",
      "type": "constructor"
    },
    {
      "anonymous": false,
      "inputs": [
        {
          "indexed": true,
          "name": "_converter",
          "type": "address"
        },
        {
          "indexed": true,
          "name": "_owner",
          "type": "address"
        }
      ],
      "name": "NewConverter",
      "type": "event"
    },
    {
      "constant": false,
      "inputs": [
        {
          "name": "_token",
          "type": "address"
        },
        {
          "name": "_registry",
          "type": "address"
        },
        {
          "name": "_maxConversionFee",
          "type": "uint32"
        },
        {
          "name": "_reserveToken",
          "type": "address"
        },
        {
          "name": "_reserveRatio",
          "type": "uint32"
        }
      ],
      "name": "createConverter",
      "outputs": [
        {
          "name": "converterAddress",
          "type": "address"
        }
      ],
      "payable": false,
      "stateMutability": "nonpayable",
      "type": "function"
    }
  ],
  "bytecode": "0x608060405234801561001057600080fd5b50614d94806100206000396000f3006080604052600436106100405763ffffffff7c0100000000000000000000000000000000000000000000000000000000600035041663034efaeb8114610045575b600080fd5b34801561005157600080fd5b5061008f73ffffffffffffffffffffffffffffffffffffffff60043581169060243581169063ffffffff6044358116916064351690608435166100b8565b6040805173ffffffffffffffffffffffffffffffffffffffff9092168252519081900360200190f35b600080600087878787876100ca610207565b73ffffffffffffffffffffffffffffffffffffffff9586168152938516602085015263ffffffff9283166040808601919091529190941660608401529216608082015290519081900360a001906000f08015801561012c573d6000803e3d6000fd5b50604080517ff2fde38b000000000000000000000000000000000000000000000000000000008152336004820152905191935073ffffffffffffffffffffffffffffffffffffffff84169163f2fde38b9160248082019260009290919082900301818387803b15801561019e57600080fd5b505af11580156101b2573d6000803e3d6000fd5b505060405184935033925073ffffffffffffffffffffffffffffffffffffffff841691507fb54eb8f70476910bea510b4ca1ece1fdb11eeb345b0d46221dd40ba86e64953390600090a3979650505050505050565b604051614b5180610218833901905600608060405260058054751a00000000000000000000000000000000000000000060a860020a61ffff0219909116179055600980546001606860020a0319166c010000000000000000000000001790553480156200005b57600080fd5b5060405160a08062004b518339810160409081528151602083015191830151606084015160809094015160008054600160a060020a0319163317815592949192848680600160a060020a0381161515620000b457600080fd5b5060028054600160a060020a031916600160a060020a03928316179055819081161515620000e157600080fd5b5060048054600160a060020a03909216600160a060020a031992831681179091556005805490921617905583600063ffffffff8216108015906200012e5750620f424063ffffffff821611155b15156200013a57600080fd5b6200016e7f436f6e747261637446656174757265730000000000000000000000000000000064010000000062000255810204565b9150600160a060020a038216156200020357604080517f2c7077c000000000000000000000000000000000000000000000000000000000815260016004820181905260248201529051600160a060020a03841691632c7077c091604480830192600092919082900301818387803b158015620001e957600080fd5b505af1158015620001fe573d6000803e3d6000fd5b505050505b6009805467ffffffff00000000191664010000000063ffffffff881602179055600160a060020a038416156200024857620002488484640100000000620002f1810204565b5050505050505062000535565b60048054604080517fbb34534c00000000000000000000000000000000000000000000000000000000815292830184905251600092600160a060020a039092169163bb34534c91602480830192602092919082900301818787803b158015620002bd57600080fd5b505af1158015620002d2573d6000803e3d6000fd5b505050506040513d6020811015620002e957600080fd5b505192915050565b600054600160a060020a031633146200030957600080fd5b600254604080517f8da5cb5b00000000000000000000000000000000000000000000000000000000815290513092600160a060020a031691638da5cb5b9160048083019260209291908290030181600087803b1580156200036957600080fd5b505af11580156200037e573d6000803e3d6000fd5b505050506040513d60208110156200039557600080fd5b5051600160a060020a03161415620003ac57600080fd5b81600160a060020a0381161515620003c357600080fd5b82600160a060020a038116301415620003db57600080fd5b8260008163ffffffff16118015620003fc5750620f424063ffffffff821611155b15156200040857600080fd5b600254600160a060020a038681169116148015906200044d5750600160a060020a0385166000908152600860205260409020600101546601000000000000900460ff16155b80156200046c5750600954620f424063ffffffff918216860190911611155b15156200047857600080fd5b505050600160a060020a03919091166000818152600860205260408120600180820180549284905566010000000000006501000000000063ffffffff1994851663ffffffff808a169190911765ffff0000000019169190911766ff0000000000001916919091179091556007805492830181559093527fa66cc928b5edb82af9bd49922954155ab7b0942694bea4ce44661d9a8736c688018054600160a060020a0319169093179092556009805492831692821690930116179055565b61460c80620005456000396000f3006080604052600436106102be5763ffffffff7c0100000000000000000000000000000000000000000000000000000000600035041663024c7ec781146102c35780630ca78923146102df5780630e53aae9146103115780631120a7761461036657806315226b541461039757806319b64015146103ca5780631e1401f8146103e257806321e6b53d1461042557806322742564146104465780632a2e2f0c146104ae5780632c12b446146104db5780632fe8a6ad146104fc57806338a5e016146105255780633aa0145a1461053a5780633f4d2fc214610558578063415f12401461058757806341a5b33d1461059f57806349d10b64146105c95780634af80f0e146105de57806350057351146105ff57806354fd4d5014610674578063579cd3ca146106a05780635e35359e146106ce5780635e5144eb146106f857806361cd756e146107255780636520d6fb1461073a5780636a49d2c41461074f5780636ebf36c01461077957806371f52bf3146107b157806372b44b2c146107c657806375892cf1146107ea57806379ba5097146108175780637b1039991461082c5780638da5cb5b146108415780638e3047e01461085657806392d1abb714610880578063935e2ae11461089557806394c275ad146108b95780639b99a8e2146108ce578063a2c4c336146108e3578063b3a426d514610907578063b4a176d3146109a8578063bf754558146109bd578063c45d3d92146109d2578063ca1d209d146109e7578063cf73266a146109ff578063d031370b14610a29578063d4ee1d9014610a41578063d55ec69714610a56578063d66bd52414610a6b578063d895951214610a8c578063d924f0c314610aad578063e4dd22f614610ace578063ebf9470014610b31578063ecbca55d14610b8f578063f0843ba914610bad578063f2fde38b14610bfe578063fc0c546a14610c1f578063fe417fa514610c34575b600080fd5b3480156102cf57600080fd5b506102dd6004351515610c58565b005b3480156102eb57600080fd5b506102dd600160a060020a036004351663ffffffff602435166044351515606435610cb9565b34801561031d57600080fd5b50610332600160a060020a0360043516610cc9565b6040805195865263ffffffff9094166020860152911515848401521515606084015215156080830152519081900360a00190f35b34801561037257600080fd5b5061037b610d1b565b60408051600160a060020a039092168252519081900360200190f35b3480156103a357600080fd5b506103b8600160a060020a0360043516610d2a565b60408051918252519081900360200190f35b3480156103d657600080fd5b5061037b600435610df4565b3480156103ee57600080fd5b5061040c600160a060020a0360043581169060243516604435610e20565b6040805192835260208301919091528051918290030190f35b34801561043157600080fd5b506102dd600160a060020a0360043516610e9d565b604080516020600480358082013583810280860185019096528085526103b895369593946024949385019291829185019084908082843750949750508435955050506020830135926040810135925060ff606082013516915060808101359060a00135610eff565b3480156104ba57600080fd5b506103b8600160a060020a0360043581169060243516604435606435610f1b565b3480156104e757600080fd5b506103b8600160a060020a03600435166113a2565b34801561050857600080fd5b506105116113fe565b604080519115158252519081900360200190f35b34801561053157600080fd5b506102dd61141f565b34801561054657600080fd5b506103b860043560ff602435166114d5565b34801561056457600080fd5b506102dd600160a060020a036004351663ffffffff602435166044351515611533565b34801561059357600080fd5b506102dd600435611542565b3480156105ab57600080fd5b506102dd600160a060020a03600435811690602435166044356118b5565b3480156105d557600080fd5b506102dd61195f565b3480156105ea57600080fd5b506102dd600160a060020a0360043516611afd565b34801561060b57600080fd5b50604080516020600480358082013583810280860185019096528085526103b895369593946024949385019291829185019084908082843750949750508435955050506020830135926040810135925060ff606082013516915060808101359060a00135611b5b565b34801561068057600080fd5b50610689611b68565b6040805161ffff9092168252519081900360200190f35b3480156106ac57600080fd5b506106b5611b8b565b6040805163ffffffff9092168252519081900360200190f35b3480156106da57600080fd5b506102dd600160a060020a0360043581169060243516604435611ba3565b34801561070457600080fd5b506103b8600160a060020a0360043581169060243516604435606435611cc6565b34801561073157600080fd5b5061037b611cdd565b34801561074657600080fd5b506106b5611cec565b34801561075b57600080fd5b506102dd600160a060020a036004351663ffffffff60243516611cf8565b34801561078557600080fd5b506103b8600160a060020a0360043581169060243581169060443590606435906084351660a435611f89565b3480156107bd57600080fd5b5061068961202f565b3480156107d257600080fd5b5061040c600160a060020a036004351660243561203e565b3480156107f657600080fd5b506103b8600160a060020a036004358116906024351660443560643561235f565b34801561082357600080fd5b506102dd612370565b34801561083857600080fd5b5061037b6123f8565b34801561084d57600080fd5b5061037b612407565b34801561086257600080fd5b5061040c600160a060020a0360043581169060243516604435612416565b34801561088c57600080fd5b506103b8612424565b3480156108a157600080fd5b506102dd600160a060020a0360043516602435612429565b3480156108c557600080fd5b506106b561250a565b3480156108da57600080fd5b5061068961251e565b3480156108ef57600080fd5b5061040c600160a060020a0360043516602435612524565b604080516020600480358082013583810280860185019096528085526103b8953695939460249493850192918291850190849080828437505060408051818801358901803560208181028481018201909552818452989b8a359b8a8c01359b919a9099506060909101975092955090820193509182918501908490808284375094975050508335600160a060020a03169450505060209091013590506127f8565b3480156109b457600080fd5b506102dd612812565b3480156109c957600080fd5b5061051161285a565b3480156109de57600080fd5b5061037b612873565b3480156109f357600080fd5b506102dd600435612882565b348015610a0b57600080fd5b5061040c600160a060020a0360043581169060243516604435612bf4565b348015610a3557600080fd5b5061037b600435612e68565b348015610a4d57600080fd5b5061037b612e90565b348015610a6257600080fd5b506102dd612e9f565b348015610a7757600080fd5b50610332600160a060020a0360043516612f8d565b348015610a9857600080fd5b506103b8600160a060020a0360043516612fd3565b348015610ab957600080fd5b506102dd600160a060020a0360043516612fe4565b604080516020600480358082013583810280860185019096528085526103b89536959394602494938501929182918501908490808284375094975050843595505050602083013592600160a060020a03604082013516925060600135905061302a565b348015610b3d57600080fd5b50604080516020600480358082013583810280860185019096528085526103b8953695939460249493850192918291850190849080828437509497505084359550505060209092013591506132ed9050565b348015610b9b57600080fd5b506102dd63ffffffff6004351661365f565b604080516020600480358082013583810280860185019096528085526103b8953695939460249493850192918291850190849080828437509497505084359550505060209092013591506137409050565b348015610c0a57600080fd5b506102dd600160a060020a0360043516613758565b348015610c2b57600080fd5b5061037b6137b9565b348015610c4057600080fd5b506102dd600160a060020a03600435166024356137c8565b600054600160a060020a03163314610c6f57600080fd5b6005805491151574010000000000000000000000000000000000000000027fffffffffffffffffffffff00ffffffffffffffffffffffffffffffffffffffff909216919091179055565b610cc38482612429565b50505050565b600160a060020a031660009081526008602052604090208054600190910154909163ffffffff82169160ff64010000000082048116926501000000000083048216926601000000000000900490911690565b600354600160a060020a031681565b600160a060020a03811660009081526008602052604081206001015482906601000000000000900460ff161515610d6057600080fd5b604080517f70a082310000000000000000000000000000000000000000000000000000000081523060048201529051600160a060020a038516916370a082319160248083019260209291908290030181600087803b158015610dc157600080fd5b505af1158015610dd5573d6000803e3d6000fd5b505050506040513d6020811015610deb57600080fd5b50519392505050565b6000600782815481101515610e0557fe5b600091825260209091200154600160a060020a031692915050565b600080600160a060020a038581169085161415610e3c57600080fd5b600254600160a060020a0385811691161415610e6557610e5c8584612524565b91509150610e95565b600254600160a060020a0386811691161415610e8557610e5c848461203e565b610e90858585612bf4565b915091505b935093915050565b600054600160a060020a03163314610eb457600080fd5b7f42616e636f72436f6e7665727465725570677261646572000000000000000000610ede816138ed565b600160a060020a03163314610ef257600080fd5b610efb82613986565b5050565b6000610f0f88888860008061302a565b98975050505050505050565b6000806000806000807f42616e636f724e6574776f726b00000000000000000000000000000000000000610f4e816138ed565b600160a060020a03163314610f6257600080fd5b8760008111610f7057600080fd5b600160a060020a038c8116908c161415610f8957600080fd5b600254600160a060020a038c811691161415610fb157610faa8c8b8b613a1f565b9750611393565b600254600160a060020a038d811691161415610fd257610faa8b8b8b613c94565b610fdd8c8c8c612bf4565b90975095508615801590610ff15750888710155b1515610ffc57600080fd5b600160a060020a03808d16600090815260086020526040808220928e1682529020909550935061102b8b610d2a565b925082871061103657fe5b6110428c33308d6140eb565b61104e8b30338a6140eb565b61105b8c8c8c8a8a614374565b8b600160a060020a03167f8a6a7f53b3c8fa1dc4b83e3f1be668c1b251ff8d44cdcb83eb3acec3fec6a788600260009054906101000a9004600160a060020a0316600160a060020a03166318160ddd6040518163ffffffff167c0100000000000000000000000000000000000000000000000000000000028152600401602060405180830381600087803b1580156110f257600080fd5b505af1158015611106573d6000803e3d6000fd5b505050506040513d602081101561111c57600080fd5b81019080805190602001909291905050508e600160a060020a03166370a08231306040518263ffffffff167c01000000000000000000000000000000000000000000000000000000000281526004018082600160a060020a0316600160a060020a03168152602001915050602060405180830381600087803b1580156111a157600080fd5b505af11580156111b5573d6000803e3d6000fd5b505050506040513d60208110156111cb57600080fd5b5051600189015460408051938452602084019290925263ffffffff1682820152519081900360600190a28a600160a060020a03167f8a6a7f53b3c8fa1dc4b83e3f1be668c1b251ff8d44cdcb83eb3acec3fec6a788600260009054906101000a9004600160a060020a0316600160a060020a03166318160ddd6040518163ffffffff167c0100000000000000000000000000000000000000000000000000000000028152600401602060405180830381600087803b15801561128c57600080fd5b505af11580156112a0573d6000803e3d6000fd5b505050506040513d60208110156112b657600080fd5b81019080805190602001909291905050508d600160a060020a03166370a08231306040518263ffffffff167c01000000000000000000000000000000000000000000000000000000000281526004018082600160a060020a0316600160a060020a03168152602001915050602060405180830381600087803b15801561133b57600080fd5b505af115801561134f573d6000803e3d6000fd5b505050506040513d602081101561136557600080fd5b5051600188015460408051938452602084019290925263ffffffff1682820152519081900360600190a28697505b50505050505050949350505050565b600160a060020a03811660009081526008602052604081206001015482906601000000000000900460ff1615156113d857600080fd5b5050600160a060020a031660009081526008602052604090206001015463ffffffff1690565b60055474010000000000000000000000000000000000000000900460ff1681565b600054600160a060020a0316331461143657600080fd5b600254604080517f18160ddd0000000000000000000000000000000000000000000000000000000081529051600092600160a060020a0316916318160ddd91600480830192602092919082900301818787803b15801561149557600080fd5b505af11580156114a9573d6000803e3d6000fd5b505050506040513d60208110156114bf57600080fd5b5051116114cb57600080fd5b6114d36143f7565b565b60095460009061152c9060ff8416620f424081810a67ffffffffffffffff9081169361152093899363ffffffff680100000000000000009093048316900383160a9091169061448e16565b9063ffffffff6144c716565b9392505050565b61153d8383611cf8565b505050565b6000806000806000806000600160078054905011151561156157600080fd5b600260009054906101000a9004600160a060020a0316600160a060020a03166318160ddd6040518163ffffffff167c0100000000000000000000000000000000000000000000000000000000028152600401602060405180830381600087803b1580156115cd57600080fd5b505af11580156115e1573d6000803e3d6000fd5b505050506040513d60208110156115f757600080fd5b505196506116247f42616e636f72466f726d756c61000000000000000000000000000000000000006138ed565b600254604080517fa24835d1000000000000000000000000000000000000000000000000000000008152336004820152602481018c90529051929850600160a060020a039091169163a24835d19160448082019260009290919082900301818387803b15801561169357600080fd5b505af11580156116a7573d6000803e3d6000fd5b50505050600091505b60075461ffff831610156118ab576007805461ffff84169081106116d057fe5b6000918252602080832090910154604080517f70a082310000000000000000000000000000000000000000000000000000000081523060048201529051600160a060020a03909216985088936370a082319360248084019491939192918390030190829087803b15801561174357600080fd5b505af1158015611757573d6000803e3d6000fd5b505050506040513d602081101561176d57600080fd5b5051600954604080517fabfd231d000000000000000000000000000000000000000000000000000000008152600481018b90526024810184905263ffffffff9092166044830152606482018b905251919550600160a060020a0388169163abfd231d916084808201926020929091908290030181600087803b1580156117f257600080fd5b505af1158015611806573d6000803e3d6000fd5b505050506040513d602081101561181c57600080fd5b5051600160a060020a03861660009081526008602052604090209093509050611847853033866140eb565b6001810154604080518a8a038152858703602082015263ffffffff9092168282015251600160a060020a038716917f8a6a7f53b3c8fa1dc4b83e3f1be668c1b251ff8d44cdcb83eb3acec3fec6a788919081900360600190a26001909101906116b0565b5050505050505050565b600054600160a060020a031633146118cc57600080fd5b600254604080517f5e35359e000000000000000000000000000000000000000000000000000000008152600160a060020a03868116600483015285811660248301526044820185905291519190921691635e35359e91606480830192600092919082900301818387803b15801561194257600080fd5b505af1158015611956573d6000803e3d6000fd5b50505050505050565b60008054600160a060020a0316331480611994575060055474010000000000000000000000000000000000000000900460ff16155b151561199f57600080fd5b6119c87f436f6e74726163745265676973747279000000000000000000000000000000006138ed565b600454909150600160a060020a038083169116148015906119f15750600160a060020a03811615155b15156119fc57600080fd5b604080517fbb34534c0000000000000000000000000000000000000000000000000000000081527f436f6e747261637452656769737472790000000000000000000000000000000060048201529051600091600160a060020a0384169163bb34534c9160248082019260209290919082900301818787803b158015611a8057600080fd5b505af1158015611a94573d6000803e3d6000fd5b505050506040513d6020811015611aaa57600080fd5b5051600160a060020a03161415611ac057600080fd5b6004805460058054600160a060020a0380841673ffffffffffffffffffffffffffffffffffffffff19928316179092559091169216919091179055565b600054600160a060020a03163314611b1457600080fd5b80600160a060020a038116301415611b2b57600080fd5b506006805473ffffffffffffffffffffffffffffffffffffffff1916600160a060020a0392909216919091179055565b6000610f0f8888886132ed565b6005547501000000000000000000000000000000000000000000900461ffff1681565b60095468010000000000000000900463ffffffff1681565b6000611bce7f42616e636f72436f6e76657274657255706772616465720000000000000000006138ed565b600160a060020a0385166000908152600860205260409020600101549091506601000000000000900460ff161580611c985750600254604080517f8da5cb5b00000000000000000000000000000000000000000000000000000000815290513092600160a060020a031691638da5cb5b9160048083019260209291908290030181600087803b158015611c6057600080fd5b505af1158015611c74573d6000803e3d6000fd5b505050506040513d6020811015611c8a57600080fd5b5051600160a060020a031614155b80611cb05750600054600160a060020a038281169116145b1515611cbb57600080fd5b610cc38484846144ea565b6000611cd485858585610f1b565b95945050505050565b600554600160a060020a031681565b60095463ffffffff1681565b600054600160a060020a03163314611d0f57600080fd5b600254604080517f8da5cb5b00000000000000000000000000000000000000000000000000000000815290513092600160a060020a031691638da5cb5b9160048083019260209291908290030181600087803b158015611d6e57600080fd5b505af1158015611d82573d6000803e3d6000fd5b505050506040513d6020811015611d9857600080fd5b5051600160a060020a03161415611dae57600080fd5b81600160a060020a0381161515611dc457600080fd5b82600160a060020a038116301415611ddb57600080fd5b8260008163ffffffff16118015611dfb5750620f424063ffffffff821611155b1515611e0657600080fd5b600254600160a060020a03868116911614801590611e4a5750600160a060020a0385166000908152600860205260409020600101546601000000000000900460ff16155b8015611e685750600954620f424063ffffffff918216860190911611155b1515611e7357600080fd5b505050600160a060020a0391909116600081815260086020526040812060018082018054928490556601000000000000650100000000007fffffffffffffffffffffffffffffffffffffffffffffffffffffffff0000000094851663ffffffff808a16919091177fffffffffffffffffffffffffffffffffffffffffffffffffffff0000ffffffff16919091177fffffffffffffffffffffffffffffffffffffffffffffffffff00ffffffffffff16919091179091556007805492830181559093527fa66cc928b5edb82af9bd49922954155ab7b0942694bea4ce44661d9a8736c68801805473ffffffffffffffffffffffffffffffffffffffff19169093179092556009805492831692821690930116179055565b6040805160038082526080820190925260009160609190602082018380388339505060025482519293508a92600160a060020a039091169150899084906000908110611fd157fe5b906020019060200201846001815181101515611fe957fe5b90602001906020020185600281518110151561200157fe5b600160a060020a0394851660209182029092010152928216909252919091169052610f0f818787878761302a565b600061203961251e565b905090565b60008060008060008060008030600160a060020a0316600260009054906101000a9004600160a060020a0316600160a060020a0316638da5cb5b6040518163ffffffff167c0100000000000000000000000000000000000000000000000000000000028152600401602060405180830381600087803b1580156120c057600080fd5b505af11580156120d4573d6000803e3d6000fd5b505050506040513d60208110156120ea57600080fd5b5051600160a060020a0316146120ff57600080fd5b600160a060020a038a166000908152600860205260409020600101548a906601000000000000900460ff16151561213557600080fd5b600160a060020a03808c16600090815260086020908152604080832060025482517f18160ddd0000000000000000000000000000000000000000000000000000000081529251919c50909416936318160ddd93600480840194938390030190829087803b1580156121a557600080fd5b505af11580156121b9573d6000803e3d6000fd5b505050506040513d60208110156121cf57600080fd5b5051604080517f70a082310000000000000000000000000000000000000000000000000000000081523060048201529051919750600160a060020a038d16916370a08231916024808201926020929091908290030181600087803b15801561223657600080fd5b505af115801561224a573d6000803e3d6000fd5b505050506040513d602081101561226057600080fd5b5051945061228d7f42616e636f72466f726d756c61000000000000000000000000000000000000006138ed565b6001880154604080517f49f9b0f7000000000000000000000000000000000000000000000000000000008152600481018a90526024810189905263ffffffff9092166044830152606482018d905251919550600160a060020a038616916349f9b0f7916084808201926020929091908290030181600087803b15801561231257600080fd5b505af1158015612326573d6000803e3d6000fd5b505050506040513d602081101561233c57600080fd5b5051925061234b8360016114d5565b9b928c90039a509198505050505050505050565b6000611cd485858585600080611f89565b600154600160a060020a0316331461238757600080fd5b60015460008054604051600160a060020a0393841693909116917f343765429aea5a34b3ff6a3785a98a5abb2597aca87bfbb58632c173d585373a91a3600180546000805473ffffffffffffffffffffffffffffffffffffffff19908116600160a060020a03841617909155169055565b600454600160a060020a031681565b600054600160a060020a031681565b600080610e90858585612bf4565b600181565b60008054600160a060020a0316331461244157600080fd5b7f42616e636f72436f6e766572746572557067726164657200000000000000000061246b816138ed565b600160a060020a0316331461247f57600080fd5b600160a060020a03841660009081526008602052604090206001015484906601000000000000900460ff1615156124b557600080fd5b505050600160a060020a039190911660009081526008602052604090206001810180547fffffffffffffffffffffffffffffffffffffffffffffffffffffff00ffffffff168315156401000000000217905555565b600954640100000000900463ffffffff1681565b60075490565b60008060008060008060008030600160a060020a0316600260009054906101000a9004600160a060020a0316600160a060020a0316638da5cb5b6040518163ffffffff167c0100000000000000000000000000000000000000000000000000000000028152600401602060405180830381600087803b1580156125a657600080fd5b505af11580156125ba573d6000803e3d6000fd5b505050506040513d60208110156125d057600080fd5b5051600160a060020a0316146125e557600080fd5b600160a060020a038a166000908152600860205260409020600101548a906601000000000000900460ff16151561261b57600080fd5b600160a060020a03808c16600090815260086020908152604080832060025482517f18160ddd0000000000000000000000000000000000000000000000000000000081529251919c50909416936318160ddd93600480840194938390030190829087803b15801561268b57600080fd5b505af115801561269f573d6000803e3d6000fd5b505050506040513d60208110156126b557600080fd5b5051604080517f70a082310000000000000000000000000000000000000000000000000000000081523060048201529051919750600160a060020a038d16916370a08231916024808201926020929091908290030181600087803b15801561271c57600080fd5b505af1158015612730573d6000803e3d6000fd5b505050506040513d602081101561274657600080fd5b505194506127737f42616e636f72466f726d756c61000000000000000000000000000000000000006138ed565b6001880154604080517f29a00e7c000000000000000000000000000000000000000000000000000000008152600481018a90526024810189905263ffffffff9092166044830152606482018d905251919550600160a060020a038616916329a00e7c916084808201926020929091908290030181600087803b15801561231257600080fd5b6000612807878787868661302a565b979650505050505050565b600054600160a060020a0316331461282957600080fd5b6005546004805473ffffffffffffffffffffffffffffffffffffffff1916600160a060020a03909216919091179055565b6009546c01000000000000000000000000900460ff1681565b600654600160a060020a031681565b600080600080600080600060016007805490501115156128a157600080fd5b600260009054906101000a9004600160a060020a0316600160a060020a03166318160ddd6040518163ffffffff167c0100000000000000000000000000000000000000000000000000000000028152600401602060405180830381600087803b15801561290d57600080fd5b505af1158015612921573d6000803e3d6000fd5b505050506040513d602081101561293757600080fd5b505196506129647f42616e636f72466f726d756c61000000000000000000000000000000000000006138ed565b9550600091505b60075461ffff83161015612b66576007805461ffff841690811061298b57fe5b6000918252602080832090910154604080517f70a082310000000000000000000000000000000000000000000000000000000081523060048201529051600160a060020a03909216985088936370a082319360248084019491939192918390030190829087803b1580156129fe57600080fd5b505af1158015612a12573d6000803e3d6000fd5b505050506040513d6020811015612a2857600080fd5b5051600954604080517f1da6bbfb000000000000000000000000000000000000000000000000000000008152600481018b90526024810184905263ffffffff9092166044830152606482018b905251919550600160a060020a03881691631da6bbfb916084808201926020929091908290030181600087803b158015612aad57600080fd5b505af1158015612ac1573d6000803e3d6000fd5b505050506040513d6020811015612ad757600080fd5b5051600160a060020a03861660009081526008602052604090209093509050612b02853330866140eb565b600181015460408051898b018152868601602082015263ffffffff9092168282015251600160a060020a038716917f8a6a7f53b3c8fa1dc4b83e3f1be668c1b251ff8d44cdcb83eb3acec3fec6a788919081900360600190a260019091019061296b565b600254604080517f867904b4000000000000000000000000000000000000000000000000000000008152336004820152602481018b90529051600160a060020a039092169163867904b49160448082019260009290919082900301818387803b158015612bd257600080fd5b505af1158015612be6573d6000803e3d6000fd5b505050505050505050505050565b600080600080600080600030600160a060020a0316600260009054906101000a9004600160a060020a0316600160a060020a0316638da5cb5b6040518163ffffffff167c0100000000000000000000000000000000000000000000000000000000028152600401602060405180830381600087803b158015612c7557600080fd5b505af1158015612c89573d6000803e3d6000fd5b505050506040513d6020811015612c9f57600080fd5b5051600160a060020a031614612cb457600080fd5b600160a060020a038a166000908152600860205260409020600101548a906601000000000000900460ff161515612cea57600080fd5b600160a060020a038a166000908152600860205260409020600101548a906601000000000000900460ff161515612d2057600080fd5b600160a060020a03808d16600090815260086020526040808220928e16825290209097509550612d6f7f42616e636f72466f726d756c61000000000000000000000000000000000000006138ed565b945084600160a060020a03166379c1b450612d898e610d2a565b60018a015463ffffffff16612d9d8f610d2a565b60018b01546040805163ffffffff8781167c0100000000000000000000000000000000000000000000000000000000028252600482019690965293851660248501526044840192909252929092166064820152608481018e9052905160a48083019260209291908290030181600087803b158015612e1a57600080fd5b505af1158015612e2e573d6000803e3d6000fd5b505050506040513d6020811015612e4457600080fd5b50519350612e538460026114d5565b9c938d90039b50929950505050505050505050565b6007805482908110612e7657fe5b600091825260209091200154600160a060020a0316905081565b600154600160a060020a031681565b60008054600160a060020a03163314612eb757600080fd5b612ee07f42616e636f72436f6e76657274657255706772616465720000000000000000006138ed565b9050612eeb81613758565b600554604080517f90f58c96000000000000000000000000000000000000000000000000000000008152750100000000000000000000000000000000000000000090920461ffff16600483015251600160a060020a038316916390f58c9691602480830192600092919082900301818387803b158015612f6a57600080fd5b505af1158015612f7e573d6000803e3d6000fd5b50505050612f8a612370565b50565b6008602052600090815260409020805460019091015463ffffffff81169060ff640100000000820481169165010000000000810482169166010000000000009091041685565b6000612fde82610d2a565b92915050565b600054600160a060020a03163314612ffb57600080fd5b6003805473ffffffffffffffffffffffffffffffffffffffff1916600160a060020a0392909216919091179055565b6000806130567f42616e636f724e6574776f726b000000000000000000000000000000000000006138ed565b90503415156131c9576002548751600160a060020a03909116908890600090811061307d57fe5b90602001906020020151600160a060020a031614156131a557600254604080517fa24835d1000000000000000000000000000000000000000000000000000000008152336004820152602481018990529051600160a060020a039092169163a24835d19160448082019260009290919082900301818387803b15801561310257600080fd5b505af1158015613116573d6000803e3d6000fd5b5050600254604080517f867904b4000000000000000000000000000000000000000000000000000000008152600160a060020a038681166004830152602482018c9052915191909216935063867904b49250604480830192600092919082900301818387803b15801561318857600080fd5b505af115801561319c573d6000803e3d6000fd5b505050506131c9565b6131c98760008151811015156131b757fe5b906020019060200201513383896140eb565b80600160a060020a031663ab6214ce34898989338a8a6040518863ffffffff167c0100000000000000000000000000000000000000000000000000000000028152600401808060200187815260200186815260200185600160a060020a0316600160a060020a0316815260200184600160a060020a0316600160a060020a03168152602001838152602001828103825288818151815260200191508051906020019060200280838360005b8381101561328c578181015183820152602001613274565b505050509050019750505050505050506020604051808303818588803b1580156132b557600080fd5b505af11580156132c9573d6000803e3d6000fd5b50505050506040513d60208110156132e057600080fd5b5051979650505050505050565b60008060008061331c7f42616e636f7258000000000000000000000000000000000000000000000000006138ed565b92506133477f42616e636f724e6574776f726b000000000000000000000000000000000000006138ed565b91506133727f424e54546f6b656e0000000000000000000000000000000000000000000000006138ed565b600160a060020a031687600081518110151561338a57fe5b60209081029091010151600160a060020a0316146133a757600080fd5b604080517faafd6b76000000000000000000000000000000000000000000000000000000008152600481018790523360248201529051600160a060020a0385169163aafd6b769160448083019260209291908290030181600087803b15801561340f57600080fd5b505af1158015613423573d6000803e3d6000fd5b505050506040513d602081101561343957600080fd5b5051600254604080517fa24835d1000000000000000000000000000000000000000000000000000000008152336004820152602481018490529051929350600160a060020a039091169163a24835d19160448082019260009290919082900301818387803b1580156134aa57600080fd5b505af11580156134be573d6000803e3d6000fd5b5050600254604080517f867904b4000000000000000000000000000000000000000000000000000000008152600160a060020a03878116600483015260248201879052915191909216935063867904b49250604480830192600092919082900301818387803b15801561353057600080fd5b505af1158015613544573d6000803e3d6000fd5b5050505081600160a060020a031663ab6214ce888389336000806040518763ffffffff167c0100000000000000000000000000000000000000000000000000000000028152600401808060200187815260200186815260200185600160a060020a0316600160a060020a0316815260200184600160a060020a0316600160a060020a03168152602001838152602001828103825288818151815260200191508051906020019060200280838360005b8381101561360b5781810151838201526020016135f3565b50505050905001975050505050505050602060405180830381600087803b15801561363557600080fd5b505af1158015613649573d6000803e3d6000fd5b505050506040513d60208110156132e057600080fd5b600054600160a060020a0316331461367657600080fd5b60008163ffffffff16101580156136a1575060095463ffffffff640100000000909104811690821611155b15156136ac57600080fd5b6009546040805163ffffffff6801000000000000000090930483168152918316602083015280517f81cd2ffb37dd237c0e4e2a3de5265fcf9deb43d3e7801e80db9f1ccfba7ee6009281900390910190a16009805463ffffffff90921668010000000000000000027fffffffffffffffffffffffffffffffffffffffff00000000ffffffffffffffff909216919091179055565b600061375084848460008061302a565b949350505050565b600054600160a060020a0316331461376f57600080fd5b600054600160a060020a038281169116141561378a57600080fd5b6001805473ffffffffffffffffffffffffffffffffffffffff1916600160a060020a0392909216919091179055565b600254600160a060020a031681565b600354600160a060020a031633146137df57600080fd5b600254604080517fa24835d1000000000000000000000000000000000000000000000000000000008152600160a060020a038581166004830152602482018590529151919092169163a24835d191604480830192600092919082900301818387803b15801561384d57600080fd5b505af1158015613861573d6000803e3d6000fd5b5050600254604080517f867904b4000000000000000000000000000000000000000000000000000000008152336004820152602481018690529051600160a060020a03909216935063867904b4925060448082019260009290919082900301818387803b1580156138d157600080fd5b505af11580156138e5573d6000803e3d6000fd5b505050505050565b60048054604080517fbb34534c00000000000000000000000000000000000000000000000000000000815292830184905251600092600160a060020a039092169163bb34534c91602480830192602092919082900301818787803b15801561395457600080fd5b505af1158015613968573d6000803e3d6000fd5b505050506040513d602081101561397e57600080fd5b505192915050565b600054600160a060020a0316331461399d57600080fd5b600254604080517ff2fde38b000000000000000000000000000000000000000000000000000000008152600160a060020a0384811660048301529151919092169163f2fde38b91602480830192600092919082900301818387803b158015613a0457600080fd5b505af1158015613a18573d6000803e3d6000fd5b5050505050565b600080600080613a2f8787612524565b90935091508215801590613a435750848310155b1515613a4e57600080fd5b50600160a060020a0386166000908152600860205260409020613a73873330896140eb565b600254604080517f867904b4000000000000000000000000000000000000000000000000000000008152336004820152602481018690529051600160a060020a039092169163867904b49160448082019260009290919082900301818387803b158015613adf57600080fd5b505af1158015613af3573d6000803e3d6000fd5b5050600254613b119250899150600160a060020a0316888686614374565b86600160a060020a03167f8a6a7f53b3c8fa1dc4b83e3f1be668c1b251ff8d44cdcb83eb3acec3fec6a788600260009054906101000a9004600160a060020a0316600160a060020a03166318160ddd6040518163ffffffff167c0100000000000000000000000000000000000000000000000000000000028152600401602060405180830381600087803b158015613ba857600080fd5b505af1158015613bbc573d6000803e3d6000fd5b505050506040513d6020811015613bd257600080fd5b5051604080517f70a082310000000000000000000000000000000000000000000000000000000081523060048201529051600160a060020a038c16916370a082319160248083019260209291908290030181600087803b158015613c3557600080fd5b505af1158015613c49573d6000803e3d6000fd5b505050506040513d6020811015613c5f57600080fd5b5051600185015460408051938452602084019290925263ffffffff1682820152519081900360600190a2509095945050505050565b600254604080517f70a08231000000000000000000000000000000000000000000000000000000008152336004820152905160009283928392839283928392600160a060020a03909216916370a082319160248082019260209290919082900301818787803b158015613d0657600080fd5b505af1158015613d1a573d6000803e3d6000fd5b505050506040513d6020811015613d3057600080fd5b5051881115613d3e57600080fd5b613d48898961203e565b90955093508415801590613d5c5750868510155b1515613d6757600080fd5b600260009054906101000a9004600160a060020a0316600160a060020a03166318160ddd6040518163ffffffff167c0100000000000000000000000000000000000000000000000000000000028152600401602060405180830381600087803b158015613dd357600080fd5b505af1158015613de7573d6000803e3d6000fd5b505050506040513d6020811015613dfd57600080fd5b5051604080517f70a082310000000000000000000000000000000000000000000000000000000081523060048201529051919450600160a060020a038b16916370a08231916024808201926020929091908290030181600087803b158015613e6457600080fd5b505af1158015613e78573d6000803e3d6000fd5b505050506040513d6020811015613e8e57600080fd5b5051915081851080613ea957508185148015613ea957508288145b1515613eb157fe5b50600160a060020a0380891660009081526008602052604080822060025482517fa24835d1000000000000000000000000000000000000000000000000000000008152336004820152602481018d905292519194169263a24835d1926044808201939182900301818387803b158015613f2957600080fd5b505af1158015613f3d573d6000803e3d6000fd5b50505050613f4d893033886140eb565b600254613f6690600160a060020a03168a8a8888614374565b88600160a060020a03167f8a6a7f53b3c8fa1dc4b83e3f1be668c1b251ff8d44cdcb83eb3acec3fec6a788600260009054906101000a9004600160a060020a0316600160a060020a03166318160ddd6040518163ffffffff167c0100000000000000000000000000000000000000000000000000000000028152600401602060405180830381600087803b158015613ffd57600080fd5b505af1158015614011573d6000803e3d6000fd5b505050506040513d602081101561402757600080fd5b5051604080517f70a082310000000000000000000000000000000000000000000000000000000081523060048201529051600160a060020a038e16916370a082319160248083019260209291908290030181600087803b15801561408a57600080fd5b505af115801561409e573d6000803e3d6000fd5b505050506040513d60208110156140b457600080fd5b5051600185015460408051938452602084019290925263ffffffff1682820152519081900360600190a25092979650505050505050565b60008085600160a060020a03166370a08231856040518263ffffffff167c01000000000000000000000000000000000000000000000000000000000281526004018082600160a060020a0316600160a060020a03168152602001915050602060405180830381600087803b15801561416257600080fd5b505af1158015614176573d6000803e3d6000fd5b505050506040513d602081101561418c57600080fd5b50519150600160a060020a03851630141561423a5785600160a060020a031663a9059cbb85856040518363ffffffff167c01000000000000000000000000000000000000000000000000000000000281526004018083600160a060020a0316600160a060020a0316815260200182815260200192505050600060405180830381600087803b15801561421d57600080fd5b505af1158015614231573d6000803e3d6000fd5b505050506142c6565b604080517f23b872dd000000000000000000000000000000000000000000000000000000008152600160a060020a0387811660048301528681166024830152604482018690529151918816916323b872dd9160648082019260009290919082900301818387803b1580156142ad57600080fd5b505af11580156142c1573d6000803e3d6000fd5b505050505b85600160a060020a03166370a08231856040518263ffffffff167c01000000000000000000000000000000000000000000000000000000000281526004018082600160a060020a0316600160a060020a03168152602001915050602060405180830381600087803b15801561433a57600080fd5b505af115801561434e573d6000803e3d6000fd5b505050506040513d602081101561436457600080fd5b505190508181116138e557600080fd5b7f8000000000000000000000000000000000000000000000000000000000000000811061439d57fe5b604080518481526020810184905280820183905290513391600160a060020a0387811692908916917f276856b36cbc45526a0ba64f44611557a2a8b68662c5388e9fe6d72e86e1c8cb919081900360600190a45050505050565b600054600160a060020a0316331461440e57600080fd5b600260009054906101000a9004600160a060020a0316600160a060020a03166379ba50976040518163ffffffff167c0100000000000000000000000000000000000000000000000000000000028152600401600060405180830381600087803b15801561447a57600080fd5b505af1158015610cc3573d6000803e3d6000fd5b6000808315156144a157600091506144c0565b508282028284828115156144b157fe5b04146144bc57600080fd5b8091505b5092915050565b6000808083116144d657600080fd5b82848115156144e157fe5b04949350505050565b600054600160a060020a0316331461450157600080fd5b82600160a060020a038116151561451757600080fd5b82600160a060020a038116151561452d57600080fd5b83600160a060020a03811630141561454457600080fd5b85600160a060020a031663a9059cbb86866040518363ffffffff167c01000000000000000000000000000000000000000000000000000000000281526004018083600160a060020a0316600160a060020a0316815260200182815260200192505050600060405180830381600087803b1580156145c057600080fd5b505af11580156145d4573d6000803e3d6000fd5b505050505050505050505600a165627a7a72305820810039dac7ba79277b831e559903545c7724c35f9c0b43fee5de18b7231555220029a165627a7a72305820936513fdd24e5f6c07b8dc79f580acbc6de1baa99b11d39f652d6f9361d743570029",
  "source": "pragma solidity 0.4.26;\r\nimport './BancorConverter.sol';\r\nimport './interfaces/IBancorConverterFactory.sol';\r\nimport '../utility/interfaces/IContractRegistry.sol';\r\n\r\n/*\r\n    Bancor Converter Factory\r\n*/\r\ncontract BancorConverterFactory is IBancorConverterFactory {\r\n    /**\r\n      * @dev triggered when a new converter is created\r\n      * \r\n      * @param _converter   new converter address\r\n      * @param _owner       converter owner address\r\n    */\r\n    event NewConverter(address indexed _converter, address indexed _owner);\r\n\r\n    /**\r\n      * @dev initializes a new BancorConverterFactory instance\r\n    */\r\n    constructor() public {\r\n    }\r\n\r\n    /**\r\n      * @dev creates a new converter with the given arguments and transfers\r\n      * the ownership and management to the sender.\r\n      * \r\n      * @param  _token              smart token governed by the converter\r\n      * @param  _registry           address of a contract registry contract\r\n      * @param  _maxConversionFee   maximum conversion fee, represented in ppm\r\n      * @param  _reserveToken       optional, initial reserve, allows defining the first reserve at deployment time\r\n      * @param  _reserveRatio       optional, ratio for the initial reserve\r\n      * \r\n      * @return a new converter\r\n    */\r\n    function createConverter(\r\n        ISmartToken _token,\r\n        IContractRegistry _registry,\r\n        uint32 _maxConversionFee,\r\n        IERC20Token _reserveToken,\r\n        uint32 _reserveRatio\r\n    ) public returns(address converterAddress) {\r\n        BancorConverter converter = new BancorConverter(\r\n            _token,\r\n            _registry,\r\n            _maxConversionFee,\r\n            _reserveToken,\r\n            _reserveRatio\r\n        );\r\n\r\n        converter.transferOwnership(msg.sender);\r\n\r\n        address _converterAddress = address(converter);\r\n        emit NewConverter(_converterAddress, msg.sender);\r\n        return _converterAddress;\r\n    }\r\n}\r\n",
  "sourcePath": "/home/faycal/Desktop/projects/BancorCompoundPool/contracts/contracts/converter/BancorConverterFactory.sol",
  "compiler": {
    "name": "solc",
    "version": "0.4.26+commit.4563c3fc.Emscripten.clang"
  },
  "schemaVersion": "3.1.0",
  "updatedAt": "2020-04-17T21:34:25.208Z",
  "devdoc": {
    "methods": {
      "createConverter(address,address,uint32,address,uint32)": {
        "details": "creates a new converter with the given arguments and transfers\r the ownership and management to the sender.\r \r",
        "params": {
          "_maxConversionFee": "maximum conversion fee, represented in ppm\r",
          "_registry": "address of a contract registry contract\r",
          "_reserveRatio": "optional, ratio for the initial reserve\r \r",
          "_reserveToken": "optional, initial reserve, allows defining the first reserve at deployment time\r",
          "_token": "smart token governed by the converter\r"
        },
        "return": "a new converter\r"
      }
    }
  },
  "userdoc": {
    "methods": {}
  }
}