{
  "contractName": "BancorPriceFloor",
  "abi": [
    {
      "constant": true,
      "inputs": [],
      "name": "TOKEN_PRICE_D",
      "outputs": [
        {
          "name": "",
          "type": "uint256"
        }
      ],
      "payable": false,
      "stateMutability": "view",
      "type": "function"
    },
    {
      "constant": true,
      "inputs": [],
      "name": "TOKEN_PRICE_N",
      "outputs": [
        {
          "name": "",
          "type": "uint256"
        }
      ],
      "payable": false,
      "stateMutability": "view",
      "type": "function"
    },
    {
      "constant": true,
      "inputs": [],
      "name": "version",
      "outputs": [
        {
          "name": "",
          "type": "string"
        }
      ],
      "payable": false,
      "stateMutability": "view",
      "type": "function"
    },
    {
      "constant": false,
      "inputs": [
        {
          "name": "_token",
          "type": "address"
        },
        {
          "name": "_to",
          "type": "address"
        },
        {
          "name": "_amount",
          "type": "uint256"
        }
      ],
      "name": "withdrawTokens",
      "outputs": [],
      "payable": false,
      "stateMutability": "nonpayable",
      "type": "function"
    },
    {
      "constant": false,
      "inputs": [],
      "name": "acceptOwnership",
      "outputs": [],
      "payable": false,
      "stateMutability": "nonpayable",
      "type": "function"
    },
    {
      "constant": true,
      "inputs": [],
      "name": "owner",
      "outputs": [
        {
          "name": "",
          "type": "address"
        }
      ],
      "payable": false,
      "stateMutability": "view",
      "type": "function"
    },
    {
      "constant": true,
      "inputs": [],
      "name": "newOwner",
      "outputs": [
        {
          "name": "",
          "type": "address"
        }
      ],
      "payable": false,
      "stateMutability": "view",
      "type": "function"
    },
    {
      "constant": false,
      "inputs": [
        {
          "name": "_newOwner",
          "type": "address"
        }
      ],
      "name": "transferOwnership",
      "outputs": [],
      "payable": false,
      "stateMutability": "nonpayable",
      "type": "function"
    },
    {
      "constant": true,
      "inputs": [],
      "name": "token",
      "outputs": [
        {
          "name": "",
          "type": "address"
        }
      ],
      "payable": false,
      "stateMutability": "view",
      "type": "function"
    },
    {
      "inputs": [
        {
          "name": "_token",
          "type": "address"
        }
      ],
      "payable": false,
      "stateMutability": "nonpayable",
      "type": "constructor"
    },
    {
      "payable": true,
      "stateMutability": "payable",
      "type": "fallback"
    },
    {
      "anonymous": false,
      "inputs": [
        {
          "indexed": true,
          "name": "_prevOwner",
          "type": "address"
        },
        {
          "indexed": true,
          "name": "_newOwner",
          "type": "address"
        }
      ],
      "name": "OwnerUpdate",
      "type": "event"
    },
    {
      "constant": false,
      "inputs": [],
      "name": "sell",
      "outputs": [
        {
          "name": "amount",
          "type": "uint256"
        }
      ],
      "payable": false,
      "stateMutability": "nonpayable",
      "type": "function"
    },
    {
      "constant": false,
      "inputs": [
        {
          "name": "_amount",
          "type": "uint256"
        }
      ],
      "name": "withdraw",
      "outputs": [],
      "payable": false,
      "stateMutability": "nonpayable",
      "type": "function"
    }
  ],
  "bytecode": "0x60c0604052600360808190527f302e31000000000000000000000000000000000000000000000000000000000060a090815261003e91600291906100ab565b5034801561004b57600080fd5b50604051602080610a13833981016040525160008054600160a060020a0319163317905580600160a060020a038116151561008557600080fd5b5060038054600160a060020a031916600160a060020a0392909216919091179055610146565b828054600181600116156101000203166002900490600052602060002090601f016020900481019282601f106100ec57805160ff1916838001178555610119565b82800160010185558215610119579182015b828111156101195782518255916020019190600101906100fe565b50610125929150610129565b5090565b61014391905b80821115610125576000815560010161012f565b90565b6108be806101556000396000f3006080604052600436106100ae5763ffffffff7c01000000000000000000000000000000000000000000000000000000006000350416630d2806ad81146100b05780632e1a7d4d146100d757806345710074146100ef57806345cfad3e1461010457806354fd4d50146101195780635e35359e146101a357806379ba5097146101da5780638da5cb5b146101ef578063d4ee1d901461022d578063f2fde38b14610242578063fc0c546a14610270575b005b3480156100bc57600080fd5b506100c5610285565b60408051918252519081900360200190f35b3480156100e357600080fd5b506100ae60043561028a565b3480156100fb57600080fd5b506100c56102df565b34801561011057600080fd5b506100c561049a565b34801561012557600080fd5b5061012e61049f565b6040805160208082528351818301528351919283929083019185019080838360005b83811015610168578181015183820152602001610150565b50505050905090810190601f1680156101955780820380516001836020036101000a031916815260200191505b509250505060405180910390f35b3480156101af57600080fd5b506100ae73ffffffffffffffffffffffffffffffffffffffff60043581169060243516604435610548565b3480156101e657600080fd5b506100ae610699565b3480156101fb57600080fd5b50610204610753565b6040805173ffffffffffffffffffffffffffffffffffffffff9092168252519081900360200190f35b34801561023957600080fd5b5061020461076f565b34801561024e57600080fd5b506100ae73ffffffffffffffffffffffffffffffffffffffff6004351661078b565b34801561027c57600080fd5b5061020461081e565b606481565b60005473ffffffffffffffffffffffffffffffffffffffff1633146102ae57600080fd5b604051339082156108fc029083906000818181858888f193505050501580156102db573d6000803e3d6000fd5b5050565b600354604080517fdd62ed3e00000000000000000000000000000000000000000000000000000000815233600482015230602482015290516000928392839273ffffffffffffffffffffffffffffffffffffffff9092169163dd62ed3e9160448082019260209290919082900301818787803b15801561035e57600080fd5b505af1158015610372573d6000803e3d6000fd5b505050506040513d602081101561038857600080fd5b5051600354604080517f23b872dd00000000000000000000000000000000000000000000000000000000815233600482015230602482015260448101849052905192945073ffffffffffffffffffffffffffffffffffffffff909116916323b872dd916064808201926020929091908290030181600087803b15801561040d57600080fd5b505af1158015610421573d6000803e3d6000fd5b505050506040513d602081101561043757600080fd5b5051151561044157fe5b610463606461045784600163ffffffff61083a16565b9063ffffffff61086f16565b604051909150339082156108fc029083906000818181858888f19350505050158015610493573d6000803e3d6000fd5b5092915050565b600181565b600280546040805160206001841615610100027fffffffffffffffffffffffffffffffffffffffffffffffffffffffffffffffff01909316849004601f810184900484028201840190925281815292918301828280156105405780601f1061051557610100808354040283529160200191610540565b820191906000526020600020905b81548152906001019060200180831161052357829003601f168201915b505050505081565b60005473ffffffffffffffffffffffffffffffffffffffff16331461056c57600080fd5b8273ffffffffffffffffffffffffffffffffffffffff8116151561058f57600080fd5b8273ffffffffffffffffffffffffffffffffffffffff811615156105b257600080fd5b8373ffffffffffffffffffffffffffffffffffffffff81163014156105d657600080fd5b8573ffffffffffffffffffffffffffffffffffffffff1663a9059cbb86866040518363ffffffff167c0100000000000000000000000000000000000000000000000000000000028152600401808373ffffffffffffffffffffffffffffffffffffffff1673ffffffffffffffffffffffffffffffffffffffff16815260200182815260200192505050600060405180830381600087803b15801561067957600080fd5b505af115801561068d573d6000803e3d6000fd5b50505050505050505050565b60015473ffffffffffffffffffffffffffffffffffffffff1633146106bd57600080fd5b6001546000805460405173ffffffffffffffffffffffffffffffffffffffff93841693909116917f343765429aea5a34b3ff6a3785a98a5abb2597aca87bfbb58632c173d585373a91a360018054600080547fffffffffffffffffffffffff000000000000000000000000000000000000000090811673ffffffffffffffffffffffffffffffffffffffff841617909155169055565b60005473ffffffffffffffffffffffffffffffffffffffff1681565b60015473ffffffffffffffffffffffffffffffffffffffff1681565b60005473ffffffffffffffffffffffffffffffffffffffff1633146107af57600080fd5b60005473ffffffffffffffffffffffffffffffffffffffff828116911614156107d757600080fd5b600180547fffffffffffffffffffffffff00000000000000000000000000000000000000001673ffffffffffffffffffffffffffffffffffffffff92909216919091179055565b60035473ffffffffffffffffffffffffffffffffffffffff1681565b60008083151561084d5760009150610493565b5082820282848281151561085d57fe5b041461086857600080fd5b9392505050565b60008080831161087e57600080fd5b828481151561088957fe5b049493505050505600a165627a7a723058208ae73c19b93486524a82a6045d526305d13ac4181d8e1e3d5868559c8e5558960029",
  "source": "pragma solidity 0.4.26;\r\nimport '../utility/TokenHolder.sol';\r\nimport '../utility/Owned.sol';\r\nimport '../utility/Utils.sol';\r\nimport '../utility/SafeMath.sol';\r\nimport '../token/interfaces/ISmartToken.sol';\r\n\r\n/**\r\n  * @dev BancorPriceFloor\r\n  * \r\n  * The bancor price floor contract is a simple contract that allows selling smart tokens for a constant ETH price\r\n  * \r\n  * 'Owned' is specified here for readability reasons\r\n*/\r\ncontract BancorPriceFloor is Owned, TokenHolder {\r\n    using SafeMath for uint256;\r\n\r\n\r\n    uint256 public constant TOKEN_PRICE_N = 1;      // crowdsale price in wei (numerator)\r\n    uint256 public constant TOKEN_PRICE_D = 100;    // crowdsale price in wei (denominator)\r\n\r\n    string public version = '0.1';\r\n    ISmartToken public token; // smart token the contract allows selling\r\n\r\n    /**\r\n      * @dev initializes a new BancorPriceFloor instance\r\n      * \r\n      * @param _token   smart token the contract allows selling\r\n    */\r\n    constructor(ISmartToken _token)\r\n        public\r\n        validAddress(_token)\r\n    {\r\n        token = _token;\r\n    }\r\n\r\n    /**\r\n      * @dev sells the smart token for ETH\r\n      * note that the function will sell the full allowance amount\r\n      * \r\n      * @return ETH sent in return\r\n    */\r\n    function sell() public returns (uint256 amount) {\r\n        uint256 allowance = token.allowance(msg.sender, this); // get the full allowance amount\r\n        assert(token.transferFrom(msg.sender, this, allowance)); // transfer all tokens from the sender to the contract\r\n        uint256 etherValue = allowance.mul(TOKEN_PRICE_N).div(TOKEN_PRICE_D); // calculate ETH value of the tokens\r\n        msg.sender.transfer(etherValue); // send the ETH amount to the seller\r\n        return etherValue;\r\n    }\r\n\r\n    /**\r\n      * @dev withdraws ETH from the contract\r\n      * \r\n      * @param _amount  amount of ETH to withdraw\r\n    */\r\n    function withdraw(uint256 _amount) public ownerOnly {\r\n        msg.sender.transfer(_amount); // send the amount\r\n    }\r\n\r\n    /**\r\n      * @dev deposits ETH in the contract\r\n    */\r\n    function() public payable {\r\n    }\r\n}\r\n",
  "sourcePath": "/home/faycal/Desktop/projects/BancorCompoundPool/bancorContracts/solidity/contracts/legacy/BancorPriceFloor.sol",
  "compiler": {
    "name": "solc",
    "version": "0.4.26+commit.4563c3fc.Emscripten.clang"
  },
  "schemaVersion": "3.0.22",
  "updatedAt": "2020-04-03T06:39:09.893Z",
  "devdoc": {
    "methods": {
      "acceptOwnership()": {
        "details": "used by a new owner to accept an ownership transfer\r"
      },
      "sell()": {
        "details": "sells the smart token for ETH\r note that the function will sell the full allowance amount\r \r",
        "return": "ETH sent in return\r"
      },
      "transferOwnership(address)": {
        "details": "allows transferring the contract ownership\r the new owner still needs to accept the transfer\r can only be called by the contract owner\r \r",
        "params": {
          "_newOwner": "new contract owner\r"
        }
      },
      "withdraw(uint256)": {
        "details": "withdraws ETH from the contract\r \r",
        "params": {
          "_amount": "amount of ETH to withdraw\r"
        }
      },
      "withdrawTokens(address,address,uint256)": {
        "details": "withdraws tokens held by the contract and sends them to an account\r can only be called by the owner\r \r",
        "params": {
          "_amount": "amount to withdraw\r",
          "_to": "account to receive the new amount\r",
          "_token": "ERC20 token contract address\r"
        }
      }
    }
  },
  "userdoc": {
    "methods": {}
  }
}