{
  "contractName": "BancorConverterRegistry",
  "abi": [
    {
      "constant": false,
      "inputs": [
        {
          "name": "_onlyOwnerCanUpdateRegistry",
          "type": "bool"
        }
      ],
      "name": "restrictRegistryUpdate",
      "outputs": [],
      "payable": false,
      "stateMutability": "nonpayable",
      "type": "function"
    },
    {
      "constant": true,
      "inputs": [],
      "name": "onlyOwnerCanUpdateRegistry",
      "outputs": [
        {
          "name": "",
          "type": "bool"
        }
      ],
      "payable": false,
      "stateMutability": "view",
      "type": "function"
    },
    {
      "constant": false,
      "inputs": [],
      "name": "updateRegistry",
      "outputs": [],
      "payable": false,
      "stateMutability": "nonpayable",
      "type": "function"
    },
    {
      "constant": true,
      "inputs": [],
      "name": "prevRegistry",
      "outputs": [
        {
          "name": "",
          "type": "address"
        }
      ],
      "payable": false,
      "stateMutability": "view",
      "type": "function"
    },
    {
      "constant": false,
      "inputs": [],
      "name": "acceptOwnership",
      "outputs": [],
      "payable": false,
      "stateMutability": "nonpayable",
      "type": "function"
    },
    {
      "constant": true,
      "inputs": [],
      "name": "registry",
      "outputs": [
        {
          "name": "",
          "type": "address"
        }
      ],
      "payable": false,
      "stateMutability": "view",
      "type": "function"
    },
    {
      "constant": true,
      "inputs": [],
      "name": "owner",
      "outputs": [
        {
          "name": "",
          "type": "address"
        }
      ],
      "payable": false,
      "stateMutability": "view",
      "type": "function"
    },
    {
      "constant": false,
      "inputs": [],
      "name": "restoreRegistry",
      "outputs": [],
      "payable": false,
      "stateMutability": "nonpayable",
      "type": "function"
    },
    {
      "constant": true,
      "inputs": [],
      "name": "newOwner",
      "outputs": [
        {
          "name": "",
          "type": "address"
        }
      ],
      "payable": false,
      "stateMutability": "view",
      "type": "function"
    },
    {
      "constant": false,
      "inputs": [
        {
          "name": "_newOwner",
          "type": "address"
        }
      ],
      "name": "transferOwnership",
      "outputs": [],
      "payable": false,
      "stateMutability": "nonpayable",
      "type": "function"
    },
    {
      "inputs": [
        {
          "name": "_registry",
          "type": "address"
        }
      ],
      "payable": false,
      "stateMutability": "nonpayable",
      "type": "constructor"
    },
    {
      "anonymous": false,
      "inputs": [
        {
          "indexed": true,
          "name": "_smartToken",
          "type": "address"
        }
      ],
      "name": "SmartTokenAdded",
      "type": "event"
    },
    {
      "anonymous": false,
      "inputs": [
        {
          "indexed": true,
          "name": "_smartToken",
          "type": "address"
        }
      ],
      "name": "SmartTokenRemoved",
      "type": "event"
    },
    {
      "anonymous": false,
      "inputs": [
        {
          "indexed": true,
          "name": "_liquidityPool",
          "type": "address"
        }
      ],
      "name": "LiquidityPoolAdded",
      "type": "event"
    },
    {
      "anonymous": false,
      "inputs": [
        {
          "indexed": true,
          "name": "_liquidityPool",
          "type": "address"
        }
      ],
      "name": "LiquidityPoolRemoved",
      "type": "event"
    },
    {
      "anonymous": false,
      "inputs": [
        {
          "indexed": true,
          "name": "_convertibleToken",
          "type": "address"
        },
        {
          "indexed": true,
          "name": "_smartToken",
          "type": "address"
        }
      ],
      "name": "ConvertibleTokenAdded",
      "type": "event"
    },
    {
      "anonymous": false,
      "inputs": [
        {
          "indexed": true,
          "name": "_convertibleToken",
          "type": "address"
        },
        {
          "indexed": true,
          "name": "_smartToken",
          "type": "address"
        }
      ],
      "name": "ConvertibleTokenRemoved",
      "type": "event"
    },
    {
      "anonymous": false,
      "inputs": [
        {
          "indexed": true,
          "name": "_prevOwner",
          "type": "address"
        },
        {
          "indexed": true,
          "name": "_newOwner",
          "type": "address"
        }
      ],
      "name": "OwnerUpdate",
      "type": "event"
    },
    {
      "constant": false,
      "inputs": [
        {
          "name": "_converter",
          "type": "address"
        }
      ],
      "name": "addConverter",
      "outputs": [],
      "payable": false,
      "stateMutability": "nonpayable",
      "type": "function"
    },
    {
      "constant": false,
      "inputs": [
        {
          "name": "_converter",
          "type": "address"
        }
      ],
      "name": "removeConverter",
      "outputs": [],
      "payable": false,
      "stateMutability": "nonpayable",
      "type": "function"
    },
    {
      "constant": true,
      "inputs": [],
      "name": "getSmartTokenCount",
      "outputs": [
        {
          "name": "",
          "type": "uint256"
        }
      ],
      "payable": false,
      "stateMutability": "view",
      "type": "function"
    },
    {
      "constant": true,
      "inputs": [],
      "name": "getSmartTokens",
      "outputs": [
        {
          "name": "",
          "type": "address[]"
        }
      ],
      "payable": false,
      "stateMutability": "view",
      "type": "function"
    },
    {
      "constant": true,
      "inputs": [
        {
          "name": "_index",
          "type": "uint256"
        }
      ],
      "name": "getSmartToken",
      "outputs": [
        {
          "name": "",
          "type": "address"
        }
      ],
      "payable": false,
      "stateMutability": "view",
      "type": "function"
    },
    {
      "constant": true,
      "inputs": [
        {
          "name": "_value",
          "type": "address"
        }
      ],
      "name": "isSmartToken",
      "outputs": [
        {
          "name": "",
          "type": "bool"
        }
      ],
      "payable": false,
      "stateMutability": "view",
      "type": "function"
    },
    {
      "constant": true,
      "inputs": [],
      "name": "getLiquidityPoolCount",
      "outputs": [
        {
          "name": "",
          "type": "uint256"
        }
      ],
      "payable": false,
      "stateMutability": "view",
      "type": "function"
    },
    {
      "constant": true,
      "inputs": [],
      "name": "getLiquidityPools",
      "outputs": [
        {
          "name": "",
          "type": "address[]"
        }
      ],
      "payable": false,
      "stateMutability": "view",
      "type": "function"
    },
    {
      "constant": true,
      "inputs": [
        {
          "name": "_index",
          "type": "uint256"
        }
      ],
      "name": "getLiquidityPool",
      "outputs": [
        {
          "name": "",
          "type": "address"
        }
      ],
      "payable": false,
      "stateMutability": "view",
      "type": "function"
    },
    {
      "constant": true,
      "inputs": [
        {
          "name": "_value",
          "type": "address"
        }
      ],
      "name": "isLiquidityPool",
      "outputs": [
        {
          "name": "",
          "type": "bool"
        }
      ],
      "payable": false,
      "stateMutability": "view",
      "type": "function"
    },
    {
      "constant": true,
      "inputs": [],
      "name": "getConvertibleTokenCount",
      "outputs": [
        {
          "name": "",
          "type": "uint256"
        }
      ],
      "payable": false,
      "stateMutability": "view",
      "type": "function"
    },
    {
      "constant": true,
      "inputs": [],
      "name": "getConvertibleTokens",
      "outputs": [
        {
          "name": "",
          "type": "address[]"
        }
      ],
      "payable": false,
      "stateMutability": "view",
      "type": "function"
    },
    {
      "constant": true,
      "inputs": [
        {
          "name": "_index",
          "type": "uint256"
        }
      ],
      "name": "getConvertibleToken",
      "outputs": [
        {
          "name": "",
          "type": "address"
        }
      ],
      "payable": false,
      "stateMutability": "view",
      "type": "function"
    },
    {
      "constant": true,
      "inputs": [
        {
          "name": "_value",
          "type": "address"
        }
      ],
      "name": "isConvertibleToken",
      "outputs": [
        {
          "name": "",
          "type": "bool"
        }
      ],
      "payable": false,
      "stateMutability": "view",
      "type": "function"
    },
    {
      "constant": true,
      "inputs": [
        {
          "name": "_convertibleToken",
          "type": "address"
        }
      ],
      "name": "getConvertibleTokenSmartTokenCount",
      "outputs": [
        {
          "name": "",
          "type": "uint256"
        }
      ],
      "payable": false,
      "stateMutability": "view",
      "type": "function"
    },
    {
      "constant": true,
      "inputs": [
        {
          "name": "_convertibleToken",
          "type": "address"
        }
      ],
      "name": "getConvertibleTokenSmartTokens",
      "outputs": [
        {
          "name": "",
          "type": "address[]"
        }
      ],
      "payable": false,
      "stateMutability": "view",
      "type": "function"
    },
    {
      "constant": true,
      "inputs": [
        {
          "name": "_convertibleToken",
          "type": "address"
        },
        {
          "name": "_index",
          "type": "uint256"
        }
      ],
      "name": "getConvertibleTokenSmartToken",
      "outputs": [
        {
          "name": "",
          "type": "address"
        }
      ],
      "payable": false,
      "stateMutability": "view",
      "type": "function"
    },
    {
      "constant": true,
      "inputs": [
        {
          "name": "_convertibleToken",
          "type": "address"
        },
        {
          "name": "_value",
          "type": "address"
        }
      ],
      "name": "isConvertibleTokenSmartToken",
      "outputs": [
        {
          "name": "",
          "type": "bool"
        }
      ],
      "payable": false,
      "stateMutability": "view",
      "type": "function"
    },
    {
      "constant": true,
      "inputs": [
        {
          "name": "_smartTokens",
          "type": "address[]"
        }
      ],
      "name": "getConvertersBySmartTokens",
      "outputs": [
        {
          "name": "",
          "type": "address[]"
        }
      ],
      "payable": false,
      "stateMutability": "view",
      "type": "function"
    },
    {
      "constant": true,
      "inputs": [
        {
          "name": "_converter",
          "type": "address"
        }
      ],
      "name": "isConverterValid",
      "outputs": [
        {
          "name": "",
          "type": "bool"
        }
      ],
      "payable": false,
      "stateMutability": "view",
      "type": "function"
    },
    {
      "constant": true,
      "inputs": [
        {
          "name": "_reserveTokens",
          "type": "address[]"
        },
        {
          "name": "_reserveRatios",
          "type": "uint256[]"
        }
      ],
      "name": "getLiquidityPoolByReserveConfig",
      "outputs": [
        {
          "name": "",
          "type": "address"
        }
      ],
      "payable": false,
      "stateMutability": "view",
      "type": "function"
    }
  ],
  "bytecode": "0x608060405234801561001057600080fd5b50604051602080612874833981016040525160008054600160a060020a031916331790558080600160a060020a038116151561004b57600080fd5b5060028054600160a060020a03909216600160a060020a0319928316811790915560038054909216179055506127ee806100866000396000f3006080604052600436106101715763ffffffff60e060020a600035041663024c7ec7811461017657806304ceaf41146101925780631f8e2620146101f75780632fe8a6ad146102175780633ab8857c146102405780634123ef601461026157806349d10b64146102825780635f1b50fe1461029757806361cd756e146102ac57806369be4784146102dd5780636ce1c4dc14610304578063725b87861461032557806379ba50971461034c5780637a5f0ffd146103615780637b103999146103765780637f45c4c31461038b5780638181ebf4146103a0578063865cf1941461042e5780638da5cb5b14610446578063954254f51461045b5780639e76a0071461047c578063a109d2141461049d578063a43d5e94146104b5578063a74498aa146104d6578063b4a176d3146104ee578063d4ee1d9014610503578063d6c4b5b214610518578063e571049b1461053c578063e85455d714610551578063f2fde38b14610572578063f4fb86c014610593575b600080fd5b34801561018257600080fd5b5061019060043515156105b4565b005b34801561019e57600080fd5b506101a7610615565b60408051602080825283518183015283519192839290830191858101910280838360005b838110156101e35781810151838201526020016101cb565b505050509050019250505060405180910390f35b34801561020357600080fd5b506101a7600480356024810191013561070d565b34801561022357600080fd5b5061022c610809565b604080519115158252519081900360200190f35b34801561024c57600080fd5b5061022c600160a060020a036004351661082a565b34801561026d57600080fd5b5061022c600160a060020a03600435166108e1565b34801561028e57600080fd5b50610190610966565b3480156102a357600080fd5b506101a7610b04565b3480156102b857600080fd5b506102c1610b6c565b60408051600160a060020a039092168252519081900360200190f35b3480156102e957600080fd5b506102f2610b7b565b60408051918252519081900360200190f35b34801561031057600080fd5b50610190600160a060020a0360043516610c14565b34801561033157600080fd5b5061022c600160a060020a0360043581169060243516610e2d565b34801561035857600080fd5b50610190610ef9565b34801561036d57600080fd5b506102f2610f81565b34801561038257600080fd5b506102c1610fe9565b34801561039757600080fd5b506101a7610ff8565b3480156103ac57600080fd5b50604080516020600480358082013583810280860185019096528085526102c195369593946024949385019291829185019084908082843750506040805187358901803560208181028481018201909552818452989b9a9989019892975090820195509350839250850190849080828437509497506110609650505050505050565b34801561043a57600080fd5b506102c1600435611151565b34801561045257600080fd5b506102c16111c4565b34801561046757600080fd5b5061022c600160a060020a03600435166111d3565b34801561048857600080fd5b50610190600160a060020a036004351661150a565b3480156104a957600080fd5b506102c1600435611721565b3480156104c157600080fd5b506102f2600160a060020a0360043516611794565b3480156104e257600080fd5b506102c1600435611819565b3480156104fa57600080fd5b5061019061188c565b34801561050f57600080fd5b506102c16118d4565b34801561052457600080fd5b506102c1600160a060020a03600435166024356118e3565b34801561054857600080fd5b506102f2611970565b34801561055d57600080fd5b5061022c600160a060020a03600435166119d8565b34801561057e57600080fd5b50610190600160a060020a0360043516611a5d565b34801561059f57600080fd5b506101a7600160a060020a0360043516611abe565b600054600160a060020a031633146105cb57600080fd5b6003805491151574010000000000000000000000000000000000000000027fffffffffffffffffffffff00ffffffffffffffffffffffffffffffffffffffff909216919091179055565b60606106407f42616e636f72436f6e7665727465725265676973747279446174610000000000611bd4565b600160a060020a03166304ceaf416040518163ffffffff1660e060020a028152600401600060405180830381600087803b15801561067d57600080fd5b505af1158015610691573d6000803e3d6000fd5b505050506040513d6000823e601f3d908101601f1916820160405260208110156106ba57600080fd5b8101908080516401000000008111156106d257600080fd5b820160208101848111156106e557600080fd5b815185602082028301116401000000008211171561070257600080fd5b509094505050505090565b60608060008484905060405190808252806020026020018201604052801561073f578160200160208202803883390190505b509150600090505b838110156108015784848281811061075b57fe5b90506020020135600160a060020a0316600160a060020a0316638da5cb5b6040518163ffffffff1660e060020a028152600401602060405180830381600087803b1580156107a857600080fd5b505af11580156107bc573d6000803e3d6000fd5b505050506040513d60208110156107d257600080fd5b505182518390839081106107e257fe5b600160a060020a03909216602092830290910190910152600101610747565b509392505050565b60035474010000000000000000000000000000000000000000900460ff1681565b60006108557f42616e636f72436f6e7665727465725265676973747279446174610000000000611bd4565b600160a060020a0316633ab8857c836040518263ffffffff1660e060020a0281526004018082600160a060020a0316600160a060020a03168152602001915050602060405180830381600087803b1580156108af57600080fd5b505af11580156108c3573d6000803e3d6000fd5b505050506040513d60208110156108d957600080fd5b505192915050565b600061090c7f42616e636f72436f6e7665727465725265676973747279446174610000000000611bd4565b600160a060020a0316634123ef60836040518263ffffffff1660e060020a0281526004018082600160a060020a0316600160a060020a03168152602001915050602060405180830381600087803b1580156108af57600080fd5b60008054600160a060020a031633148061099b575060035474010000000000000000000000000000000000000000900460ff16155b15156109a657600080fd5b6109cf7f436f6e7472616374526567697374727900000000000000000000000000000000611bd4565b600254909150600160a060020a038083169116148015906109f85750600160a060020a03811615155b1515610a0357600080fd5b604080517fbb34534c0000000000000000000000000000000000000000000000000000000081527f436f6e747261637452656769737472790000000000000000000000000000000060048201529051600091600160a060020a0384169163bb34534c9160248082019260209290919082900301818787803b158015610a8757600080fd5b505af1158015610a9b573d6000803e3d6000fd5b505050506040513d6020811015610ab157600080fd5b5051600160a060020a03161415610ac757600080fd5b6002805460038054600160a060020a0380841673ffffffffffffffffffffffffffffffffffffffff19928316179092559091169216919091179055565b6060610b2f7f42616e636f72436f6e7665727465725265676973747279446174610000000000611bd4565b600160a060020a0316635f1b50fe6040518163ffffffff1660e060020a028152600401600060405180830381600087803b15801561067d57600080fd5b600354600160a060020a031681565b6000610ba67f42616e636f72436f6e7665727465725265676973747279446174610000000000611bd4565b600160a060020a03166369be47846040518163ffffffff1660e060020a028152600401602060405180830381600087803b158015610be357600080fd5b505af1158015610bf7573d6000803e3d6000fd5b505050506040513d6020811015610c0d57600080fd5b5051905090565b600080600080610c23856111d3565b8015610c355750610c3385611c3a565b155b1515610c4057600080fd5b610c697f42616e636f72436f6e7665727465725265676973747279446174610000000000611bd4565b935084600160a060020a031663fc0c546a6040518163ffffffff1660e060020a028152600401602060405180830381600087803b158015610ca957600080fd5b505af1158015610cbd573d6000803e3d6000fd5b505050506040513d6020811015610cd357600080fd5b5051604080517f71f52bf30000000000000000000000000000000000000000000000000000000081529051919450600160a060020a038716916371f52bf3916004808201926020929091908290030181600087803b158015610d3457600080fd5b505af1158015610d48573d6000803e3d6000fd5b505050506040513d6020811015610d5e57600080fd5b505161ffff169150610d708484611e09565b6001821115610d8857610d838484611eb4565b610d93565b610d93848485611f5f565b5060005b81811015610e2657610e1e8486600160a060020a03166319b64015846040518263ffffffff1660e060020a02815260040180828152602001915050602060405180830381600087803b158015610dec57600080fd5b505af1158015610e00573d6000803e3d6000fd5b505050506040513d6020811015610e1657600080fd5b505185611f5f565b600101610d97565b5050505050565b6000610e587f42616e636f72436f6e7665727465725265676973747279446174610000000000611bd4565b604080517f725b8786000000000000000000000000000000000000000000000000000000008152600160a060020a03868116600483015285811660248301529151929091169163725b8786916044808201926020929091908290030181600087803b158015610ec657600080fd5b505af1158015610eda573d6000803e3d6000fd5b505050506040513d6020811015610ef057600080fd5b50519392505050565b600154600160a060020a03163314610f1057600080fd5b60015460008054604051600160a060020a0393841693909116917f343765429aea5a34b3ff6a3785a98a5abb2597aca87bfbb58632c173d585373a91a3600180546000805473ffffffffffffffffffffffffffffffffffffffff19908116600160a060020a03841617909155169055565b6000610fac7f42616e636f72436f6e7665727465725265676973747279446174610000000000611bd4565b600160a060020a0316637a5f0ffd6040518163ffffffff1660e060020a028152600401602060405180830381600087803b158015610be357600080fd5b600254600160a060020a031681565b60606110237f42616e636f72436f6e7665727465725265676973747279446174610000000000611bd4565b600160a060020a0316637f45c4c36040518163ffffffff1660e060020a028152600401600060405180830381600087803b15801561067d57600080fd5b6000606060008060008551875114801561107b575060018751115b156111425761108987612020565b9350600092505b83518310156111425783838151811015156110a757fe5b90602001906020020151915081600160a060020a0316638da5cb5b6040518163ffffffff1660e060020a028152600401602060405180830381600087803b1580156110f157600080fd5b505af1158015611105573d6000803e3d6000fd5b505050506040513d602081101561111b57600080fd5b5051905061112a8188886123c8565b1561113757819450611147565b600190920191611090565b600094505b5050505092915050565b600061117c7f42616e636f72436f6e7665727465725265676973747279446174610000000000611bd4565b600160a060020a031663865cf194836040518263ffffffff1660e060020a02815260040180828152602001915050602060405180830381600087803b1580156108af57600080fd5b600054600160a060020a031681565b60008060008084600160a060020a031663fc0c546a6040518163ffffffff1660e060020a028152600401602060405180830381600087803b15801561121757600080fd5b505af115801561122b573d6000803e3d6000fd5b505050506040513d602081101561124157600080fd5b5051604080517f18160ddd0000000000000000000000000000000000000000000000000000000081529051919450600160a060020a038516916318160ddd916004808201926020929091908290030181600087803b1580156112a257600080fd5b505af11580156112b6573d6000803e3d6000fd5b505050506040513d60208110156112cc57600080fd5b50511580611355575084600160a060020a031683600160a060020a0316638da5cb5b6040518163ffffffff1660e060020a028152600401602060405180830381600087803b15801561131d57600080fd5b505af1158015611331573d6000803e3d6000fd5b505050506040513d602081101561134757600080fd5b5051600160a060020a031614155b156113635760009350611502565b84600160a060020a03166371f52bf36040518163ffffffff1660e060020a028152600401602060405180830381600087803b1580156113a157600080fd5b505af11580156113b5573d6000803e3d6000fd5b505050506040513d60208110156113cb57600080fd5b505161ffff169150600090505b818110156114fd5784600160a060020a03166319b64015826040518263ffffffff1660e060020a02815260040180828152602001915050602060405180830381600087803b15801561142957600080fd5b505af115801561143d573d6000803e3d6000fd5b505050506040513d602081101561145357600080fd5b5051604080517f70a08231000000000000000000000000000000000000000000000000000000008152600160a060020a038881166004830152915191909216916370a082319160248083019260209291908290030181600087803b1580156114ba57600080fd5b505af11580156114ce573d6000803e3d6000fd5b505050506040513d60208110156114e457600080fd5b505115156114f55760009350611502565b6001016113d8565b600193505b505050919050565b60008054819081908190600160a060020a0316331480611530575061152e856111d3565b155b151561153b57600080fd5b6115647f42616e636f72436f6e7665727465725265676973747279446174610000000000611bd4565b935084600160a060020a031663fc0c546a6040518163ffffffff1660e060020a028152600401602060405180830381600087803b1580156115a457600080fd5b505af11580156115b8573d6000803e3d6000fd5b505050506040513d60208110156115ce57600080fd5b5051604080517f71f52bf30000000000000000000000000000000000000000000000000000000081529051919450600160a060020a038716916371f52bf3916004808201926020929091908290030181600087803b15801561162f57600080fd5b505af1158015611643573d6000803e3d6000fd5b505050506040513d602081101561165957600080fd5b505161ffff16915061166b84846124b2565b60018211156116835761167e848461255d565b61168e565b61168e848485612608565b5060005b81811015610e26576117198486600160a060020a03166319b64015846040518263ffffffff1660e060020a02815260040180828152602001915050602060405180830381600087803b1580156116e757600080fd5b505af11580156116fb573d6000803e3d6000fd5b505050506040513d602081101561171157600080fd5b505185612608565b600101611692565b600061174c7f42616e636f72436f6e7665727465725265676973747279446174610000000000611bd4565b600160a060020a031663a109d214836040518263ffffffff1660e060020a02815260040180828152602001915050602060405180830381600087803b1580156108af57600080fd5b60006117bf7f42616e636f72436f6e7665727465725265676973747279446174610000000000611bd4565b600160a060020a031663a43d5e94836040518263ffffffff1660e060020a0281526004018082600160a060020a0316600160a060020a03168152602001915050602060405180830381600087803b1580156108af57600080fd5b60006118447f42616e636f72436f6e7665727465725265676973747279446174610000000000611bd4565b600160a060020a031663a74498aa836040518263ffffffff1660e060020a02815260040180828152602001915050602060405180830381600087803b1580156108af57600080fd5b600054600160a060020a031633146118a357600080fd5b6003546002805473ffffffffffffffffffffffffffffffffffffffff1916600160a060020a03909216919091179055565b600154600160a060020a031681565b600061190e7f42616e636f72436f6e7665727465725265676973747279446174610000000000611bd4565b600160a060020a031663d6c4b5b284846040518363ffffffff1660e060020a0281526004018083600160a060020a0316600160a060020a0316815260200182815260200192505050602060405180830381600087803b158015610ec657600080fd5b600061199b7f42616e636f72436f6e7665727465725265676973747279446174610000000000611bd4565b600160a060020a031663e571049b6040518163ffffffff1660e060020a028152600401602060405180830381600087803b158015610be357600080fd5b6000611a037f42616e636f72436f6e7665727465725265676973747279446174610000000000611bd4565b600160a060020a031663e85455d7836040518263ffffffff1660e060020a0281526004018082600160a060020a0316600160a060020a03168152602001915050602060405180830381600087803b1580156108af57600080fd5b600054600160a060020a03163314611a7457600080fd5b600054600160a060020a0382811691161415611a8f57600080fd5b6001805473ffffffffffffffffffffffffffffffffffffffff1916600160a060020a0392909216919091179055565b6060611ae97f42616e636f72436f6e7665727465725265676973747279446174610000000000611bd4565b600160a060020a031663f4fb86c0836040518263ffffffff1660e060020a0281526004018082600160a060020a0316600160a060020a03168152602001915050600060405180830381600087803b158015611b4357600080fd5b505af1158015611b57573d6000803e3d6000fd5b505050506040513d6000823e601f3d908101601f191682016040526020811015611b8057600080fd5b810190808051640100000000811115611b9857600080fd5b82016020810184811115611bab57600080fd5b8151856020820283011164010000000082111715611bc857600080fd5b50909695505050505050565b600254604080517fbb34534c000000000000000000000000000000000000000000000000000000008152600481018490529051600092600160a060020a03169163bb34534c91602480830192602092919082900301818787803b1580156108af57600080fd5b60008060608060008086600160a060020a03166371f52bf36040518163ffffffff1660e060020a028152600401602060405180830381600087803b158015611c8157600080fd5b505af1158015611c95573d6000803e3d6000fd5b505050506040513d6020811015611cab57600080fd5b50516040805161ffff90921680835260208181028401019091529550858015611cde578160200160208202803883390190505b50935084604051908082528060200260200182016040528015611d0b578160200160208202803883390190505b509250600091505b84821015611de75786600160a060020a03166319b64015836040518263ffffffff1660e060020a02815260040180828152602001915050602060405180830381600087803b158015611d6457600080fd5b505af1158015611d78573d6000803e3d6000fd5b505050506040513d6020811015611d8e57600080fd5b505184519091508190859084908110611da357fe5b600160a060020a03909216602092830290910190910152611dc487826126c9565b8383815181101515611dd257fe5b60209081029091010152600190910190611d13565b6000611df38585611060565b600160a060020a03161415979650505050505050565b81600160a060020a0316638de6c3eb826040518263ffffffff1660e060020a0281526004018082600160a060020a0316600160a060020a03168152602001915050600060405180830381600087803b158015611e6457600080fd5b505af1158015611e78573d6000803e3d6000fd5b5050604051600160a060020a03841692507f88881feecdf61136ac4bdb1f681f2f3746a82910263d21ffea94750d2a78c0ab9150600090a25050565b81600160a060020a031663ee6a934c826040518263ffffffff1660e060020a0281526004018082600160a060020a0316600160a060020a03168152602001915050600060405180830381600087803b158015611f0f57600080fd5b505af1158015611f23573d6000803e3d6000fd5b5050604051600160a060020a03841692507fb893f883ef734b712208a877459424ee509832c57e0461fb1ac99ed4d42f2d899150600090a25050565b604080517f36900c11000000000000000000000000000000000000000000000000000000008152600160a060020a03848116600483015283811660248301529151918516916336900c119160448082019260009290919082900301818387803b158015611fcb57600080fd5b505af1158015611fdf573d6000803e3d6000fd5b5050604051600160a060020a038085169350851691507ff2e7cf6d6ed3f77039511409a43d4fa5108f09ab71d72b014380364c910233a590600090a3505050565b606060008060606000806120537f42616e636f72436f6e7665727465725265676973747279446174610000000000611bd4565b945084600160a060020a031663a43d5e9488600081518110151561207357fe5b906020019060200201516040518263ffffffff1660e060020a0281526004018082600160a060020a0316600160a060020a03168152602001915050602060405180830381600087803b1580156120c857600080fd5b505af11580156120dc573d6000803e3d6000fd5b505050506040513d60208110156120f257600080fd5b50518751909450600160a060020a0386169063f4fb86c0908990600090811061211757fe5b906020019060200201516040518263ffffffff1660e060020a0281526004018082600160a060020a0316600160a060020a03168152602001915050600060405180830381600087803b15801561216c57600080fd5b505af1158015612180573d6000803e3d6000fd5b505050506040513d6000823e601f3d908101601f1916820160405260208110156121a957600080fd5b8101908080516401000000008111156121c157600080fd5b820160208101848111156121d457600080fd5b81518560208202830111640100000000821117156121f157600080fd5b5090965060019550505050505b86518210156123bd5784600160a060020a031663a43d5e94888481518110151561222457fe5b906020019060200201516040518263ffffffff1660e060020a0281526004018082600160a060020a0316600160a060020a03168152602001915050602060405180830381600087803b15801561227957600080fd5b505af115801561228d573d6000803e3d6000fd5b505050506040513d60208110156122a357600080fd5b50519050808411156123b25780935084600160a060020a031663f4fb86c088848151811015156122cf57fe5b906020019060200201516040518263ffffffff1660e060020a0281526004018082600160a060020a0316600160a060020a03168152602001915050600060405180830381600087803b15801561232457600080fd5b505af1158015612338573d6000803e3d6000fd5b505050506040513d6000823e601f3d908101601f19168201604052602081101561236157600080fd5b81019080805164010000000081111561237957600080fd5b8201602081018481111561238c57600080fd5b81518560208202830111640100000000821117156123a957600080fd5b50909650505050505b6001909101906121fe565b509095945050505050565b60008084600160a060020a03166371f52bf36040518163ffffffff1660e060020a028152600401602060405180830381600087803b15801561240957600080fd5b505af115801561241d573d6000803e3d6000fd5b505050506040513d602081101561243357600080fd5b5051845161ffff9091161461244b5760009150610801565b5060005b83518110156124a75761247985858381518110151561246a57fe5b906020019060200201516126c9565b838281518110151561248757fe5b602090810290910101511461249f5760009150610801565b60010161244f565b506001949350505050565b81600160a060020a031663ceb9838c826040518263ffffffff1660e060020a0281526004018082600160a060020a0316600160a060020a03168152602001915050600060405180830381600087803b15801561250d57600080fd5b505af1158015612521573d6000803e3d6000fd5b5050604051600160a060020a03841692507f2aff63790c7da80d1c50ede92d23bc841c384837735c92c184331f3d7b91e5bf9150600090a25050565b81600160a060020a031663ae22107f826040518263ffffffff1660e060020a0281526004018082600160a060020a0316600160a060020a03168152602001915050600060405180830381600087803b1580156125b857600080fd5b505af11580156125cc573d6000803e3d6000fd5b5050604051600160a060020a03841692507f59c3fbcae88f30e9b0e35c132a7f68c53231dffa4722f197c7ecb0ee013eee609150600090a25050565b604080517ffba8f031000000000000000000000000000000000000000000000000000000008152600160a060020a038481166004830152838116602483015291519185169163fba8f0319160448082019260009290919082900301818387803b15801561267457600080fd5b505af1158015612688573d6000803e3d6000fd5b5050604051600160a060020a038085169350851691507f9430ad6ff45d6c3e126c7711bf0036bd9bc6b202fa19628abd88e59cf43ced4390600090a3505050565b60006126d36127a7565b604080517f636f6e6e6563746f72732861646472657373290000000000000000000000000081528151908190036013018120600160a060020a03861660248084019190915283518084039091018152604490920183526020820180517bffffffffffffffffffffffffffffffffffffffffffffffffffffffff167fffffffff0000000000000000000000000000000000000000000000000000000060e060020a938490049093029290921691909117815281519192918491885afa80151561279a57600080fd5b5050602001519392505050565b604080518082018252906002908290803883395091929150505600a165627a7a72305820016dbf8dbda80ed22e7e3abdf206ae8f3ea8065616c0d38fac5c8f72a398b2c00029",
  "source": "pragma solidity 0.4.26;\r\nimport '../utility/ContractRegistryClient.sol';\r\nimport './interfaces/IBancorConverterRegistry.sol';\r\nimport './interfaces/IBancorConverterRegistryData.sol';\r\nimport '../token/interfaces/ISmartToken.sol';\r\nimport '../token/interfaces/ISmartTokenController.sol';\r\n\r\n/**\r\n  * @dev The BancorConverterRegistry maintains a list of all active converters in the Bancor Network.\r\n  *\r\n  * Since converters can be upgraded and thus their address can change, the registry actually keeps smart tokens internally and not the converters themselves.\r\n  * The active converter for each smart token can be easily accessed by querying the smart token owner.\r\n  *\r\n  * The registry exposes 3 differnet lists that can be accessed and iterated, based on the use-case of the caller:\r\n  * - Smart tokens - can be used to get all the latest / historical data in the network\r\n  * - Liquidity pools - can be used to get all liquidity pools for funding, liquidation etc.\r\n  * - Convertible tokens - can be used to get all tokens that can be converted in the network (excluding pool\r\n  *   tokens), and for each one - all smart tokens that hold it in their reserves\r\n  *\r\n  *\r\n  * The contract fires events whenever one of the primitives is added to or removed from the registry\r\n  *\r\n  * The contract is upgradable.\r\n*/\r\ncontract BancorConverterRegistry is IBancorConverterRegistry, ContractRegistryClient {\r\n    /**\r\n      * @dev triggered when a smart token is added to the registry\r\n      * \r\n      * @param _smartToken smart token\r\n    */\r\n    event SmartTokenAdded(address indexed _smartToken);\r\n\r\n    /**\r\n      * @dev triggered when a smart token is removed from the registry\r\n      * \r\n      * @param _smartToken smart token\r\n    */\r\n    event SmartTokenRemoved(address indexed _smartToken);\r\n\r\n    /**\r\n      * @dev triggered when a liquidity pool is added to the registry\r\n      * \r\n      * @param _liquidityPool liquidity pool\r\n    */\r\n    event LiquidityPoolAdded(address indexed _liquidityPool);\r\n\r\n    /**\r\n      * @dev triggered when a liquidity pool is removed from the registry\r\n      * \r\n      * @param _liquidityPool liquidity pool\r\n    */\r\n    event LiquidityPoolRemoved(address indexed _liquidityPool);\r\n\r\n    /**\r\n      * @dev triggered when a convertible token is added to the registry\r\n      * \r\n      * @param _convertibleToken convertible token\r\n      * @param _smartToken associated smart token\r\n    */\r\n    event ConvertibleTokenAdded(address indexed _convertibleToken, address indexed _smartToken);\r\n\r\n    /**\r\n      * @dev triggered when a convertible token is removed from the registry\r\n      * \r\n      * @param _convertibleToken convertible token\r\n      * @param _smartToken associated smart token\r\n    */\r\n    event ConvertibleTokenRemoved(address indexed _convertibleToken, address indexed _smartToken);\r\n\r\n    /**\r\n      * @dev initializes a new BancorConverterRegistry instance\r\n      * \r\n      * @param _registry address of a contract registry contract\r\n    */\r\n    constructor(IContractRegistry _registry) ContractRegistryClient(_registry) public {\r\n    }\r\n\r\n    /**\r\n      * @dev adds a converter to the registry\r\n      * anyone can add a converter to the registry, as long as the converter is active and valid\r\n      * note that a liquidity pool converter can be added only if no converter with the same reserve-configuration is already registered\r\n      * \r\n      * @param _converter converter\r\n    */\r\n    function addConverter(IBancorConverter _converter) external {\r\n        // validate input\r\n        require(isConverterValid(_converter) && !isSimilarLiquidityPoolRegistered(_converter));\r\n\r\n        IBancorConverterRegistryData converterRegistryData = IBancorConverterRegistryData(addressOf(BANCOR_CONVERTER_REGISTRY_DATA));\r\n        ISmartToken token = ISmartTokenController(_converter).token();\r\n        uint reserveTokenCount = _converter.connectorTokenCount();\r\n\r\n        // add the smart token\r\n        addSmartToken(converterRegistryData, token);\r\n        if (reserveTokenCount > 1)\r\n            addLiquidityPool(converterRegistryData, token);\r\n        else\r\n            addConvertibleToken(converterRegistryData, token, token);\r\n\r\n        // add all reserve tokens\r\n        for (uint i = 0; i < reserveTokenCount; i++)\r\n            addConvertibleToken(converterRegistryData, _converter.connectorTokens(i), token);\r\n    }\r\n\r\n    /**\r\n      * @dev removes a converter from the registry\r\n      * anyone can remove invalid or inactive converters from the registry\r\n      * note that the owner can also remove valid converters\r\n      * \r\n      * @param _converter converter\r\n    */\r\n    function removeConverter(IBancorConverter _converter) external {\r\n      // validate input\r\n        require(msg.sender == owner || !isConverterValid(_converter));\r\n\r\n        IBancorConverterRegistryData converterRegistryData = IBancorConverterRegistryData(addressOf(BANCOR_CONVERTER_REGISTRY_DATA));\r\n        ISmartToken token = ISmartTokenController(_converter).token();\r\n        uint reserveTokenCount = _converter.connectorTokenCount();\r\n\r\n        // remove the smart token\r\n        removeSmartToken(converterRegistryData, token);\r\n        if (reserveTokenCount > 1)\r\n            removeLiquidityPool(converterRegistryData, token);\r\n        else\r\n            removeConvertibleToken(converterRegistryData, token, token);\r\n\r\n        // remove all reserve tokens\r\n        for (uint i = 0; i < reserveTokenCount; i++)\r\n            removeConvertibleToken(converterRegistryData, _converter.connectorTokens(i), token);\r\n    }\r\n\r\n    /**\r\n      * @dev returns the number of smart tokens in the registry\r\n      * \r\n      * @return number of smart tokens\r\n    */\r\n    function getSmartTokenCount() external view returns (uint) {\r\n        return IBancorConverterRegistryData(addressOf(BANCOR_CONVERTER_REGISTRY_DATA)).getSmartTokenCount();\r\n    }\r\n\r\n    /**\r\n      * @dev returns the list of smart tokens in the registry\r\n      * \r\n      * @return list of smart tokens\r\n    */\r\n    function getSmartTokens() external view returns (address[]) {\r\n        return IBancorConverterRegistryData(addressOf(BANCOR_CONVERTER_REGISTRY_DATA)).getSmartTokens();\r\n    }\r\n\r\n    /**\r\n      * @dev returns the smart token at a given index\r\n      * \r\n      * @param _index index\r\n      * @return smart token at the given index\r\n    */\r\n    function getSmartToken(uint _index) external view returns (address) {\r\n        return IBancorConverterRegistryData(addressOf(BANCOR_CONVERTER_REGISTRY_DATA)).getSmartToken(_index);\r\n    }\r\n\r\n    /**\r\n      * @dev checks whether or not a given value is a smart token\r\n      * \r\n      * @param _value value\r\n      * @return true if the given value is a smart token, false if not\r\n    */\r\n    function isSmartToken(address _value) external view returns (bool) {\r\n        return IBancorConverterRegistryData(addressOf(BANCOR_CONVERTER_REGISTRY_DATA)).isSmartToken(_value);\r\n    }\r\n\r\n    /**\r\n      * @dev returns the number of liquidity pools in the registry\r\n      * \r\n      * @return number of liquidity pools\r\n    */\r\n    function getLiquidityPoolCount() external view returns (uint) {\r\n        return IBancorConverterRegistryData(addressOf(BANCOR_CONVERTER_REGISTRY_DATA)).getLiquidityPoolCount();\r\n    }\r\n\r\n    /**\r\n      * @dev returns the list of liquidity pools in the registry\r\n      * \r\n      * @return list of liquidity pools\r\n    */\r\n    function getLiquidityPools() external view returns (address[]) {\r\n        return IBancorConverterRegistryData(addressOf(BANCOR_CONVERTER_REGISTRY_DATA)).getLiquidityPools();\r\n    }\r\n\r\n    /**\r\n      * @dev returns the liquidity pool at a given index\r\n      * \r\n      * @param _index index\r\n      * @return liquidity pool at the given index\r\n    */\r\n    function getLiquidityPool(uint _index) external view returns (address) {\r\n        return IBancorConverterRegistryData(addressOf(BANCOR_CONVERTER_REGISTRY_DATA)).getLiquidityPool(_index);\r\n    }\r\n\r\n    /**\r\n      * @dev checks whether or not a given value is a liquidity pool\r\n      * \r\n      * @param _value value\r\n      * @return true if the given value is a liquidity pool, false if not\r\n    */\r\n    function isLiquidityPool(address _value) external view returns (bool) {\r\n        return IBancorConverterRegistryData(addressOf(BANCOR_CONVERTER_REGISTRY_DATA)).isLiquidityPool(_value);\r\n    }\r\n\r\n    /**\r\n      * @dev returns the number of convertible tokens in the registry\r\n      * \r\n      * @return number of convertible tokens\r\n    */\r\n    function getConvertibleTokenCount() external view returns (uint) {\r\n        return IBancorConverterRegistryData(addressOf(BANCOR_CONVERTER_REGISTRY_DATA)).getConvertibleTokenCount();\r\n    }\r\n\r\n    /**\r\n      * @dev returns the list of convertible tokens in the registry\r\n      * \r\n      * @return list of convertible tokens\r\n    */\r\n    function getConvertibleTokens() external view returns (address[]) {\r\n        return IBancorConverterRegistryData(addressOf(BANCOR_CONVERTER_REGISTRY_DATA)).getConvertibleTokens();\r\n    }\r\n\r\n    /**\r\n      * @dev returns the convertible token at a given index\r\n      * \r\n      * @param _index index\r\n      * @return convertible token at the given index\r\n    */\r\n    function getConvertibleToken(uint _index) external view returns (address) {\r\n        return IBancorConverterRegistryData(addressOf(BANCOR_CONVERTER_REGISTRY_DATA)).getConvertibleToken(_index);\r\n    }\r\n\r\n    /**\r\n      * @dev checks whether or not a given value is a convertible token\r\n      * \r\n      * @param _value value\r\n      * @return true if the given value is a convertible token, false if not\r\n    */\r\n    function isConvertibleToken(address _value) external view returns (bool) {\r\n        return IBancorConverterRegistryData(addressOf(BANCOR_CONVERTER_REGISTRY_DATA)).isConvertibleToken(_value);\r\n    }\r\n\r\n    /**\r\n      * @dev returns the number of smart tokens associated with a given convertible token\r\n      * \r\n      * @param _convertibleToken convertible token\r\n      * @return number of smart tokens associated with the given convertible token\r\n    */\r\n    function getConvertibleTokenSmartTokenCount(address _convertibleToken) external view returns (uint) {\r\n        return IBancorConverterRegistryData(addressOf(BANCOR_CONVERTER_REGISTRY_DATA)).getConvertibleTokenSmartTokenCount(_convertibleToken);\r\n    }\r\n\r\n    /**\r\n      * @dev returns the list of smart tokens associated with a given convertible token\r\n      * \r\n      * @param _convertibleToken convertible token\r\n      * @return list of smart tokens associated with the given convertible token\r\n    */\r\n    function getConvertibleTokenSmartTokens(address _convertibleToken) external view returns (address[]) {\r\n        return IBancorConverterRegistryData(addressOf(BANCOR_CONVERTER_REGISTRY_DATA)).getConvertibleTokenSmartTokens(_convertibleToken);\r\n    }\r\n\r\n    /**\r\n      * @dev returns the smart token associated with a given convertible token at a given index\r\n      * \r\n      * @param _index index\r\n      * @return smart token associated with the given convertible token at the given index\r\n    */\r\n    function getConvertibleTokenSmartToken(address _convertibleToken, uint _index) external view returns (address) {\r\n        return IBancorConverterRegistryData(addressOf(BANCOR_CONVERTER_REGISTRY_DATA)).getConvertibleTokenSmartToken(_convertibleToken, _index);\r\n    }\r\n\r\n    /**\r\n      * @dev checks whether or not a given value is a smart token of a given convertible token\r\n      * \r\n      * @param _convertibleToken convertible token\r\n      * @param _value value\r\n      * @return true if the given value is a smart token of the given convertible token, false if not\r\n    */\r\n    function isConvertibleTokenSmartToken(address _convertibleToken, address _value) external view returns (bool) {\r\n        return IBancorConverterRegistryData(addressOf(BANCOR_CONVERTER_REGISTRY_DATA)).isConvertibleTokenSmartToken(_convertibleToken, _value);\r\n    }\r\n\r\n    /**\r\n      * @dev returns a list of converters for a given list of smart tokens\r\n      * this is a utility function that can be used to reduce the number of calls to the contract\r\n      * \r\n      * @param _smartTokens list of smart tokens\r\n      * @return list of converters\r\n    */\r\n    function getConvertersBySmartTokens(address[] _smartTokens) external view returns (address[]) {\r\n        address[] memory converters = new address[](_smartTokens.length);\r\n\r\n        for (uint i = 0; i < _smartTokens.length; i++)\r\n            converters[i] = ISmartToken(_smartTokens[i]).owner();\r\n\r\n        return converters;\r\n    }\r\n\r\n    /**\r\n      * @dev checks whether or not a given converter is valid\r\n      * \r\n      * @param _converter converter\r\n      * @return true if the given converter is valid, false if not\r\n    */\r\n    function isConverterValid(IBancorConverter _converter) public view returns (bool) {\r\n        // verify the the smart token has a supply and that the converter is active\r\n        ISmartToken token = ISmartTokenController(_converter).token();\r\n        if (token.totalSupply() == 0 || token.owner() != address(_converter))\r\n            return false;\r\n\r\n        // verify that the converter holds balance in each of its reserves\r\n        uint reserveTokenCount = _converter.connectorTokenCount();\r\n        for (uint i = 0; i < reserveTokenCount; i++) {\r\n            if (_converter.connectorTokens(i).balanceOf(_converter) == 0)\r\n                return false;\r\n        }\r\n\r\n        return true;\r\n    }\r\n\r\n    /**\r\n      * @dev searches for a liquidity pool with specific reserve tokens/ratios\r\n      * \r\n      * @param _reserveTokens   reserve tokens\r\n      * @param _reserveRatios   reserve ratios\r\n      * @return the liquidity pool, or zero if no such liquidity pool exists\r\n    */\r\n    function getLiquidityPoolByReserveConfig(address[] memory _reserveTokens, uint[] memory _reserveRatios) public view returns (ISmartToken) {\r\n        // verify that the input parameters represent a valid liquidity pool\r\n        if (_reserveTokens.length == _reserveRatios.length && _reserveTokens.length > 1) {\r\n            // get the smart tokens of the least frequent token (optimization)\r\n            address[] memory convertibleTokenSmartTokens = getLeastFrequentTokenSmartTokens(_reserveTokens);\r\n            // search for a converter with an identical reserve-configuration\r\n            for (uint i = 0; i < convertibleTokenSmartTokens.length; i++) {\r\n                ISmartToken smartToken = ISmartToken(convertibleTokenSmartTokens[i]);\r\n                IBancorConverter converter = IBancorConverter(smartToken.owner());\r\n                if (isConverterReserveConfigEqual(converter, _reserveTokens, _reserveRatios))\r\n                    return smartToken;\r\n            }\r\n        }\r\n\r\n        return ISmartToken(0);\r\n    }\r\n\r\n    /**\r\n      * @dev checks if a liquidity pool with given reserve tokens/ratios is already registered\r\n      * \r\n      * @param _converter converter with specific reserve tokens/ratios\r\n      * @return if a liquidity pool with the same reserve tokens/ratios is already registered\r\n    */\r\n    function isSimilarLiquidityPoolRegistered(IBancorConverter _converter) internal view returns (bool) {\r\n        uint reserveTokenCount = _converter.connectorTokenCount();\r\n        address[] memory reserveTokens = new address[](reserveTokenCount);\r\n        uint[] memory reserveRatios = new uint[](reserveTokenCount);\r\n\r\n        // get the reserve-configuration of the converter\r\n        for (uint i = 0; i < reserveTokenCount; i++) {\r\n            IERC20Token reserveToken = _converter.connectorTokens(i);\r\n            reserveTokens[i] = reserveToken;\r\n            reserveRatios[i] = getReserveRatio(_converter, reserveToken);\r\n        }\r\n\r\n        // return if a liquidity pool with the same reserve tokens/ratios is already registered\r\n        return getLiquidityPoolByReserveConfig(reserveTokens, reserveRatios) != ISmartToken(0);\r\n    }\r\n\r\n    /**\r\n      * @dev adds a smart token to the registry\r\n      * \r\n      * @param _smartToken smart token\r\n    */\r\n    function addSmartToken(IBancorConverterRegistryData _converterRegistryData, address _smartToken) internal {\r\n        _converterRegistryData.addSmartToken(_smartToken);\r\n        emit SmartTokenAdded(_smartToken);\r\n    }\r\n\r\n    /**\r\n      * @dev removes a smart token from the registry\r\n      * \r\n      * @param _smartToken smart token\r\n    */\r\n    function removeSmartToken(IBancorConverterRegistryData _converterRegistryData, address _smartToken) internal {\r\n        _converterRegistryData.removeSmartToken(_smartToken);\r\n        emit SmartTokenRemoved(_smartToken);\r\n    }\r\n\r\n    /**\r\n      * @dev adds a liquidity pool to the registry\r\n      * \r\n      * @param _liquidityPool liquidity pool\r\n    */\r\n    function addLiquidityPool(IBancorConverterRegistryData _converterRegistryData, address _liquidityPool) internal {\r\n        _converterRegistryData.addLiquidityPool(_liquidityPool);\r\n        emit LiquidityPoolAdded(_liquidityPool);\r\n    }\r\n\r\n    /**\r\n      * @dev removes a liquidity pool from the registry\r\n      * \r\n      * @param _liquidityPool liquidity pool\r\n    */\r\n    function removeLiquidityPool(IBancorConverterRegistryData _converterRegistryData, address _liquidityPool) internal {\r\n        _converterRegistryData.removeLiquidityPool(_liquidityPool);\r\n        emit LiquidityPoolRemoved(_liquidityPool);\r\n    }\r\n\r\n    /**\r\n      * @dev adds a convertible token to the registry\r\n      * \r\n      * @param _convertibleToken convertible token\r\n      * @param _smartToken associated smart token\r\n    */\r\n    function addConvertibleToken(IBancorConverterRegistryData _converterRegistryData, address _convertibleToken, address _smartToken) internal {\r\n        _converterRegistryData.addConvertibleToken(_convertibleToken, _smartToken);\r\n        emit ConvertibleTokenAdded(_convertibleToken, _smartToken);\r\n    }\r\n\r\n    /**\r\n      * @dev removes a convertible token from the registry\r\n      * \r\n      * @param _convertibleToken convertible token\r\n      * @param _smartToken associated smart token\r\n    */\r\n    function removeConvertibleToken(IBancorConverterRegistryData _converterRegistryData, address _convertibleToken, address _smartToken) internal {\r\n        _converterRegistryData.removeConvertibleToken(_convertibleToken, _smartToken);\r\n        emit ConvertibleTokenRemoved(_convertibleToken, _smartToken);\r\n    }\r\n\r\n    function getLeastFrequentTokenSmartTokens(address[] memory _tokens) private view returns (address[] memory) {\r\n        IBancorConverterRegistryData bancorConverterRegistryData = IBancorConverterRegistryData(addressOf(BANCOR_CONVERTER_REGISTRY_DATA));\r\n\r\n        // find the token that has the smallest number of smart tokens\r\n        uint minSmartTokenCount = bancorConverterRegistryData.getConvertibleTokenSmartTokenCount(_tokens[0]);\r\n        address[] memory smartTokens = bancorConverterRegistryData.getConvertibleTokenSmartTokens(_tokens[0]);\r\n        for (uint i = 1; i < _tokens.length; i++) {\r\n            uint convertibleTokenSmartTokenCount = bancorConverterRegistryData.getConvertibleTokenSmartTokenCount(_tokens[i]);\r\n            if (minSmartTokenCount > convertibleTokenSmartTokenCount) {\r\n                minSmartTokenCount = convertibleTokenSmartTokenCount;\r\n                smartTokens = bancorConverterRegistryData.getConvertibleTokenSmartTokens(_tokens[i]);\r\n            }\r\n        }\r\n        return smartTokens;\r\n    }\r\n\r\n    function isConverterReserveConfigEqual(IBancorConverter _converter, address[] memory _reserveTokens, uint[] memory _reserveRatios) private view returns (bool) {\r\n        if (_reserveTokens.length != _converter.connectorTokenCount())\r\n            return false;\r\n\r\n        for (uint i = 0; i < _reserveTokens.length; i++) {\r\n            if (_reserveRatios[i] != getReserveRatio(_converter, _reserveTokens[i]))\r\n                return false;\r\n        }\r\n\r\n        return true;\r\n    }\r\n\r\n    bytes4 private constant CONNECTORS_FUNC_SELECTOR = bytes4(uint256(keccak256(\"connectors(address)\") >> (256 - 4 * 8)));\r\n\r\n    function getReserveRatio(address _converter, address _reserveToken) private view returns (uint256) {\r\n        uint256[2] memory ret;\r\n        bytes memory data = abi.encodeWithSelector(CONNECTORS_FUNC_SELECTOR, _reserveToken);\r\n\r\n        assembly {\r\n            let success := staticcall(\r\n                gas,           // gas remaining\r\n                _converter,    // destination address\r\n                add(data, 32), // input buffer (starts after the first 32 bytes in the `data` array)\r\n                mload(data),   // input length (loaded from the first 32 bytes in the `data` array)\r\n                ret,           // output buffer\r\n                64             // output length\r\n            )\r\n            if iszero(success) {\r\n                revert(0, 0)\r\n            }\r\n        }\r\n\r\n        return ret[1];\r\n    }\r\n}\r\n",
  "sourcePath": "/home/faycal/Desktop/projects/BancorCompoundPool/contracts/contracts/converter/BancorConverterRegistry.sol",
  "compiler": {
    "name": "solc",
    "version": "0.4.26+commit.4563c3fc.Emscripten.clang"
  },
  "schemaVersion": "3.1.0",
  "updatedAt": "2020-04-17T21:34:25.210Z",
  "devdoc": {
    "methods": {
      "acceptOwnership()": {
        "details": "used by a new owner to accept an ownership transfer\r"
      },
      "addConverter(address)": {
        "details": "adds a converter to the registry\r anyone can add a converter to the registry, as long as the converter is active and valid\r note that a liquidity pool converter can be added only if no converter with the same reserve-configuration is already registered\r \r",
        "params": {
          "_converter": "converter\r"
        }
      },
      "getConvertersBySmartTokens(address[])": {
        "details": "returns a list of converters for a given list of smart tokens\r this is a utility function that can be used to reduce the number of calls to the contract\r \r",
        "params": {
          "_smartTokens": "list of smart tokens\r"
        },
        "return": "list of converters\r"
      },
      "getConvertibleToken(uint256)": {
        "details": "returns the convertible token at a given index\r \r",
        "params": {
          "_index": "index\r"
        },
        "return": "convertible token at the given index\r"
      },
      "getConvertibleTokenCount()": {
        "details": "returns the number of convertible tokens in the registry\r \r",
        "return": "number of convertible tokens\r"
      },
      "getConvertibleTokenSmartToken(address,uint256)": {
        "details": "returns the smart token associated with a given convertible token at a given index\r \r",
        "params": {
          "_index": "index\r"
        },
        "return": "smart token associated with the given convertible token at the given index\r"
      },
      "getConvertibleTokenSmartTokenCount(address)": {
        "details": "returns the number of smart tokens associated with a given convertible token\r \r",
        "params": {
          "_convertibleToken": "convertible token\r"
        },
        "return": "number of smart tokens associated with the given convertible token\r"
      },
      "getConvertibleTokenSmartTokens(address)": {
        "details": "returns the list of smart tokens associated with a given convertible token\r \r",
        "params": {
          "_convertibleToken": "convertible token\r"
        },
        "return": "list of smart tokens associated with the given convertible token\r"
      },
      "getConvertibleTokens()": {
        "details": "returns the list of convertible tokens in the registry\r \r",
        "return": "list of convertible tokens\r"
      },
      "getLiquidityPool(uint256)": {
        "details": "returns the liquidity pool at a given index\r \r",
        "params": {
          "_index": "index\r"
        },
        "return": "liquidity pool at the given index\r"
      },
      "getLiquidityPoolByReserveConfig(address[],uint256[])": {
        "details": "searches for a liquidity pool with specific reserve tokens/ratios\r \r",
        "params": {
          "_reserveRatios": "reserve ratios\r",
          "_reserveTokens": "reserve tokens\r"
        },
        "return": "the liquidity pool, or zero if no such liquidity pool exists\r"
      },
      "getLiquidityPoolCount()": {
        "details": "returns the number of liquidity pools in the registry\r \r",
        "return": "number of liquidity pools\r"
      },
      "getLiquidityPools()": {
        "details": "returns the list of liquidity pools in the registry\r \r",
        "return": "list of liquidity pools\r"
      },
      "getSmartToken(uint256)": {
        "details": "returns the smart token at a given index\r \r",
        "params": {
          "_index": "index\r"
        },
        "return": "smart token at the given index\r"
      },
      "getSmartTokenCount()": {
        "details": "returns the number of smart tokens in the registry\r \r",
        "return": "number of smart tokens\r"
      },
      "getSmartTokens()": {
        "details": "returns the list of smart tokens in the registry\r \r",
        "return": "list of smart tokens\r"
      },
      "isConverterValid(address)": {
        "details": "checks whether or not a given converter is valid\r \r",
        "params": {
          "_converter": "converter\r"
        },
        "return": "true if the given converter is valid, false if not\r"
      },
      "isConvertibleToken(address)": {
        "details": "checks whether or not a given value is a convertible token\r \r",
        "params": {
          "_value": "value\r"
        },
        "return": "true if the given value is a convertible token, false if not\r"
      },
      "isConvertibleTokenSmartToken(address,address)": {
        "details": "checks whether or not a given value is a smart token of a given convertible token\r \r",
        "params": {
          "_convertibleToken": "convertible token\r",
          "_value": "value\r"
        },
        "return": "true if the given value is a smart token of the given convertible token, false if not\r"
      },
      "isLiquidityPool(address)": {
        "details": "checks whether or not a given value is a liquidity pool\r \r",
        "params": {
          "_value": "value\r"
        },
        "return": "true if the given value is a liquidity pool, false if not\r"
      },
      "isSmartToken(address)": {
        "details": "checks whether or not a given value is a smart token\r \r",
        "params": {
          "_value": "value\r"
        },
        "return": "true if the given value is a smart token, false if not\r"
      },
      "removeConverter(address)": {
        "details": "removes a converter from the registry\r anyone can remove invalid or inactive converters from the registry\r note that the owner can also remove valid converters\r \r",
        "params": {
          "_converter": "converter\r"
        }
      },
      "restoreRegistry()": {
        "details": "restores the previous contract-registry\r"
      },
      "restrictRegistryUpdate(bool)": {
        "details": "restricts the permission to update the contract-registry\r \r",
        "params": {
          "_onlyOwnerCanUpdateRegistry": "indicates whether or not permission is restricted to owner only\r"
        }
      },
      "transferOwnership(address)": {
        "details": "allows transferring the contract ownership\r the new owner still needs to accept the transfer\r can only be called by the contract owner\r \r",
        "params": {
          "_newOwner": "new contract owner\r"
        }
      },
      "updateRegistry()": {
        "details": "updates to the new contract-registry\r"
      }
    }
  },
  "userdoc": {
    "methods": {}
  }
}