{
  "contractName": "BCConverter",
  "abi": [
    {
      "constant": false,
      "inputs": [
        {
          "name": "_onlyOwnerCanUpdateRegistry",
          "type": "bool"
        }
      ],
      "name": "restrictRegistryUpdate",
      "outputs": [],
      "payable": false,
      "stateMutability": "nonpayable",
      "type": "function"
    },
    {
      "constant": true,
      "inputs": [],
      "name": "bancorX",
      "outputs": [
        {
          "name": "",
          "type": "address"
        }
      ],
      "payable": false,
      "stateMutability": "view",
      "type": "function"
    },
    {
      "constant": false,
      "inputs": [
        {
          "name": "_newOwner",
          "type": "address"
        }
      ],
      "name": "transferTokenOwnership",
      "outputs": [],
      "payable": false,
      "stateMutability": "nonpayable",
      "type": "function"
    },
    {
      "constant": true,
      "inputs": [
        {
          "name": "_reserveToken",
          "type": "address"
        }
      ],
      "name": "getReserveRatio",
      "outputs": [
        {
          "name": "",
          "type": "uint256"
        }
      ],
      "payable": false,
      "stateMutability": "view",
      "type": "function"
    },
    {
      "constant": true,
      "inputs": [],
      "name": "onlyOwnerCanUpdateRegistry",
      "outputs": [
        {
          "name": "",
          "type": "bool"
        }
      ],
      "payable": false,
      "stateMutability": "view",
      "type": "function"
    },
    {
      "constant": false,
      "inputs": [],
      "name": "acceptTokenOwnership",
      "outputs": [],
      "payable": false,
      "stateMutability": "nonpayable",
      "type": "function"
    },
    {
      "constant": true,
      "inputs": [
        {
          "name": "_amount",
          "type": "uint256"
        },
        {
          "name": "_magnitude",
          "type": "uint8"
        }
      ],
      "name": "getFinalAmount",
      "outputs": [
        {
          "name": "",
          "type": "uint256"
        }
      ],
      "payable": false,
      "stateMutability": "view",
      "type": "function"
    },
    {
      "constant": false,
      "inputs": [
        {
          "name": "_token",
          "type": "address"
        },
        {
          "name": "_to",
          "type": "address"
        },
        {
          "name": "_amount",
          "type": "uint256"
        }
      ],
      "name": "withdrawFromToken",
      "outputs": [],
      "payable": false,
      "stateMutability": "nonpayable",
      "type": "function"
    },
    {
      "constant": false,
      "inputs": [],
      "name": "updateRegistry",
      "outputs": [],
      "payable": false,
      "stateMutability": "nonpayable",
      "type": "function"
    },
    {
      "constant": false,
      "inputs": [
        {
          "name": "_whitelist",
          "type": "address"
        }
      ],
      "name": "setConversionWhitelist",
      "outputs": [],
      "payable": false,
      "stateMutability": "nonpayable",
      "type": "function"
    },
    {
      "constant": true,
      "inputs": [],
      "name": "version",
      "outputs": [
        {
          "name": "",
          "type": "uint16"
        }
      ],
      "payable": false,
      "stateMutability": "view",
      "type": "function"
    },
    {
      "constant": true,
      "inputs": [],
      "name": "conversionFee",
      "outputs": [
        {
          "name": "",
          "type": "uint32"
        }
      ],
      "payable": false,
      "stateMutability": "view",
      "type": "function"
    },
    {
      "constant": false,
      "inputs": [
        {
          "name": "_token",
          "type": "address"
        },
        {
          "name": "_to",
          "type": "address"
        },
        {
          "name": "_amount",
          "type": "uint256"
        }
      ],
      "name": "withdrawTokens",
      "outputs": [],
      "payable": false,
      "stateMutability": "nonpayable",
      "type": "function"
    },
    {
      "constant": true,
      "inputs": [],
      "name": "prevRegistry",
      "outputs": [
        {
          "name": "",
          "type": "address"
        }
      ],
      "payable": false,
      "stateMutability": "view",
      "type": "function"
    },
    {
      "constant": true,
      "inputs": [],
      "name": "totalReserveRatio",
      "outputs": [
        {
          "name": "",
          "type": "uint32"
        }
      ],
      "payable": false,
      "stateMutability": "view",
      "type": "function"
    },
    {
      "constant": false,
      "inputs": [],
      "name": "acceptOwnership",
      "outputs": [],
      "payable": false,
      "stateMutability": "nonpayable",
      "type": "function"
    },
    {
      "constant": true,
      "inputs": [],
      "name": "registry",
      "outputs": [
        {
          "name": "",
          "type": "address"
        }
      ],
      "payable": false,
      "stateMutability": "view",
      "type": "function"
    },
    {
      "constant": true,
      "inputs": [],
      "name": "owner",
      "outputs": [
        {
          "name": "",
          "type": "address"
        }
      ],
      "payable": false,
      "stateMutability": "view",
      "type": "function"
    },
    {
      "constant": true,
      "inputs": [],
      "name": "CONVERTER_CONVERSION_WHITELIST",
      "outputs": [
        {
          "name": "",
          "type": "uint256"
        }
      ],
      "payable": false,
      "stateMutability": "view",
      "type": "function"
    },
    {
      "constant": false,
      "inputs": [
        {
          "name": "_reserveToken",
          "type": "address"
        },
        {
          "name": "_virtualBalance",
          "type": "uint256"
        }
      ],
      "name": "updateReserveVirtualBalance",
      "outputs": [],
      "payable": false,
      "stateMutability": "nonpayable",
      "type": "function"
    },
    {
      "constant": true,
      "inputs": [],
      "name": "maxConversionFee",
      "outputs": [
        {
          "name": "",
          "type": "uint32"
        }
      ],
      "payable": false,
      "stateMutability": "view",
      "type": "function"
    },
    {
      "constant": true,
      "inputs": [
        {
          "name": "",
          "type": "address"
        }
      ],
      "name": "cTokens2uTokens",
      "outputs": [
        {
          "name": "",
          "type": "address"
        }
      ],
      "payable": false,
      "stateMutability": "view",
      "type": "function"
    },
    {
      "constant": true,
      "inputs": [],
      "name": "reserveTokenCount",
      "outputs": [
        {
          "name": "",
          "type": "uint16"
        }
      ],
      "payable": false,
      "stateMutability": "view",
      "type": "function"
    },
    {
      "constant": false,
      "inputs": [],
      "name": "restoreRegistry",
      "outputs": [],
      "payable": false,
      "stateMutability": "nonpayable",
      "type": "function"
    },
    {
      "constant": true,
      "inputs": [],
      "name": "conversionsEnabled",
      "outputs": [
        {
          "name": "",
          "type": "bool"
        }
      ],
      "payable": false,
      "stateMutability": "view",
      "type": "function"
    },
    {
      "constant": true,
      "inputs": [],
      "name": "conversionWhitelist",
      "outputs": [
        {
          "name": "",
          "type": "address"
        }
      ],
      "payable": false,
      "stateMutability": "view",
      "type": "function"
    },
    {
      "constant": true,
      "inputs": [
        {
          "name": "",
          "type": "address"
        }
      ],
      "name": "uTokens2cTokens",
      "outputs": [
        {
          "name": "",
          "type": "address"
        }
      ],
      "payable": false,
      "stateMutability": "view",
      "type": "function"
    },
    {
      "constant": true,
      "inputs": [
        {
          "name": "",
          "type": "uint256"
        }
      ],
      "name": "reserveTokens",
      "outputs": [
        {
          "name": "",
          "type": "address"
        }
      ],
      "payable": false,
      "stateMutability": "view",
      "type": "function"
    },
    {
      "constant": true,
      "inputs": [],
      "name": "newOwner",
      "outputs": [
        {
          "name": "",
          "type": "address"
        }
      ],
      "payable": false,
      "stateMutability": "view",
      "type": "function"
    },
    {
      "constant": true,
      "inputs": [
        {
          "name": "",
          "type": "address"
        }
      ],
      "name": "reserves",
      "outputs": [
        {
          "name": "virtualBalance",
          "type": "uint256"
        },
        {
          "name": "ratio",
          "type": "uint32"
        },
        {
          "name": "isVirtualBalanceEnabled",
          "type": "bool"
        },
        {
          "name": "isSaleEnabled",
          "type": "bool"
        },
        {
          "name": "isSet",
          "type": "bool"
        }
      ],
      "payable": false,
      "stateMutability": "view",
      "type": "function"
    },
    {
      "constant": false,
      "inputs": [
        {
          "name": "_bancorX",
          "type": "address"
        }
      ],
      "name": "setBancorX",
      "outputs": [],
      "payable": false,
      "stateMutability": "nonpayable",
      "type": "function"
    },
    {
      "constant": false,
      "inputs": [
        {
          "name": "_path",
          "type": "address[]"
        },
        {
          "name": "_minReturn",
          "type": "uint256"
        },
        {
          "name": "_conversionId",
          "type": "uint256"
        }
      ],
      "name": "completeXConversion2",
      "outputs": [
        {
          "name": "",
          "type": "uint256"
        }
      ],
      "payable": false,
      "stateMutability": "nonpayable",
      "type": "function"
    },
    {
      "constant": false,
      "inputs": [
        {
          "name": "_conversionFee",
          "type": "uint32"
        }
      ],
      "name": "setConversionFee",
      "outputs": [],
      "payable": false,
      "stateMutability": "nonpayable",
      "type": "function"
    },
    {
      "constant": false,
      "inputs": [
        {
          "name": "_newOwner",
          "type": "address"
        }
      ],
      "name": "transferOwnership",
      "outputs": [],
      "payable": false,
      "stateMutability": "nonpayable",
      "type": "function"
    },
    {
      "constant": true,
      "inputs": [],
      "name": "token",
      "outputs": [
        {
          "name": "",
          "type": "address"
        }
      ],
      "payable": false,
      "stateMutability": "view",
      "type": "function"
    },
    {
      "constant": false,
      "inputs": [
        {
          "name": "_from",
          "type": "address"
        },
        {
          "name": "_amount",
          "type": "uint256"
        }
      ],
      "name": "claimTokens",
      "outputs": [],
      "payable": false,
      "stateMutability": "nonpayable",
      "type": "function"
    },
    {
      "inputs": [
        {
          "name": "_token",
          "type": "address"
        },
        {
          "name": "_registry",
          "type": "address"
        },
        {
          "name": "_maxConversionFee",
          "type": "uint32"
        },
        {
          "name": "_reserveToken",
          "type": "address"
        },
        {
          "name": "_reserveRatio",
          "type": "uint32"
        }
      ],
      "payable": false,
      "stateMutability": "nonpayable",
      "type": "constructor"
    },
    {
      "anonymous": false,
      "inputs": [
        {
          "indexed": true,
          "name": "_fromToken",
          "type": "address"
        },
        {
          "indexed": true,
          "name": "_toToken",
          "type": "address"
        },
        {
          "indexed": true,
          "name": "_trader",
          "type": "address"
        },
        {
          "indexed": false,
          "name": "_amount",
          "type": "uint256"
        },
        {
          "indexed": false,
          "name": "_return",
          "type": "uint256"
        },
        {
          "indexed": false,
          "name": "_conversionFee",
          "type": "int256"
        }
      ],
      "name": "Conversion",
      "type": "event"
    },
    {
      "anonymous": false,
      "inputs": [
        {
          "indexed": true,
          "name": "_connectorToken",
          "type": "address"
        },
        {
          "indexed": false,
          "name": "_tokenSupply",
          "type": "uint256"
        },
        {
          "indexed": false,
          "name": "_connectorBalance",
          "type": "uint256"
        },
        {
          "indexed": false,
          "name": "_connectorWeight",
          "type": "uint32"
        }
      ],
      "name": "PriceDataUpdate",
      "type": "event"
    },
    {
      "anonymous": false,
      "inputs": [
        {
          "indexed": false,
          "name": "_prevFee",
          "type": "uint32"
        },
        {
          "indexed": false,
          "name": "_newFee",
          "type": "uint32"
        }
      ],
      "name": "ConversionFeeUpdate",
      "type": "event"
    },
    {
      "anonymous": false,
      "inputs": [
        {
          "indexed": true,
          "name": "_prevOwner",
          "type": "address"
        },
        {
          "indexed": true,
          "name": "_newOwner",
          "type": "address"
        }
      ],
      "name": "OwnerUpdate",
      "type": "event"
    },
    {
      "constant": false,
      "inputs": [
        {
          "name": "_token",
          "type": "address"
        },
        {
          "name": "_ratio",
          "type": "uint32"
        }
      ],
      "name": "addReserve",
      "outputs": [],
      "payable": false,
      "stateMutability": "nonpayable",
      "type": "function"
    },
    {
      "constant": false,
      "inputs": [
        {
          "name": "_uToken",
          "type": "address"
        },
        {
          "name": "_cToken",
          "type": "address"
        },
        {
          "name": "_ratio",
          "type": "uint32"
        }
      ],
      "name": "addReserve",
      "outputs": [],
      "payable": false,
      "stateMutability": "nonpayable",
      "type": "function"
    },
    {
      "constant": false,
      "inputs": [],
      "name": "approveTokensToCompound",
      "outputs": [],
      "payable": false,
      "stateMutability": "nonpayable",
      "type": "function"
    },
    {
      "constant": false,
      "inputs": [
        {
          "name": "_reserveToken",
          "type": "address"
        },
        {
          "name": "_amount",
          "type": "uint256"
        }
      ],
      "name": "addReserveBalance",
      "outputs": [],
      "payable": false,
      "stateMutability": "nonpayable",
      "type": "function"
    },
    {
      "constant": true,
      "inputs": [
        {
          "name": "_uToken",
          "type": "address"
        },
        {
          "name": "_cToken",
          "type": "address"
        },
        {
          "name": "_uAmount",
          "type": "uint256"
        }
      ],
      "name": "uAmount2cAmount",
      "outputs": [
        {
          "name": "",
          "type": "uint256"
        }
      ],
      "payable": false,
      "stateMutability": "view",
      "type": "function"
    },
    {
      "constant": true,
      "inputs": [
        {
          "name": "_cToken",
          "type": "address"
        },
        {
          "name": "_uToken",
          "type": "address"
        },
        {
          "name": "_cAmount",
          "type": "uint256"
        }
      ],
      "name": "cAmount2uAmount",
      "outputs": [
        {
          "name": "",
          "type": "uint256"
        }
      ],
      "payable": false,
      "stateMutability": "view",
      "type": "function"
    },
    {
      "constant": true,
      "inputs": [
        {
          "name": "_reserveToken",
          "type": "address"
        }
      ],
      "name": "getReserveBalance",
      "outputs": [
        {
          "name": "",
          "type": "uint256"
        }
      ],
      "payable": false,
      "stateMutability": "view",
      "type": "function"
    },
    {
      "constant": false,
      "inputs": [],
      "name": "upgrade",
      "outputs": [],
      "payable": false,
      "stateMutability": "nonpayable",
      "type": "function"
    },
    {
      "constant": false,
      "inputs": [
        {
          "name": "_amount",
          "type": "uint256"
        }
      ],
      "name": "fund",
      "outputs": [],
      "payable": false,
      "stateMutability": "nonpayable",
      "type": "function"
    },
    {
      "constant": false,
      "inputs": [
        {
          "name": "_amount",
          "type": "uint256"
        }
      ],
      "name": "liquidate",
      "outputs": [],
      "payable": false,
      "stateMutability": "nonpayable",
      "type": "function"
    },
    {
      "constant": false,
      "inputs": [
        {
          "name": "_fromToken",
          "type": "address"
        },
        {
          "name": "_toToken",
          "type": "address"
        },
        {
          "name": "_amount",
          "type": "uint256"
        },
        {
          "name": "_minReturn",
          "type": "uint256"
        }
      ],
      "name": "convertInternal",
      "outputs": [
        {
          "name": "",
          "type": "uint256"
        }
      ],
      "payable": false,
      "stateMutability": "nonpayable",
      "type": "function"
    },
    {
      "constant": true,
      "inputs": [
        {
          "name": "_reserveToken",
          "type": "address"
        },
        {
          "name": "_depositAmount",
          "type": "uint256"
        }
      ],
      "name": "getPurchaseReturn",
      "outputs": [
        {
          "name": "",
          "type": "uint256"
        },
        {
          "name": "",
          "type": "uint256"
        }
      ],
      "payable": false,
      "stateMutability": "view",
      "type": "function"
    },
    {
      "constant": true,
      "inputs": [
        {
          "name": "_reserveToken",
          "type": "address"
        },
        {
          "name": "_sellAmount",
          "type": "uint256"
        }
      ],
      "name": "getSaleReturn",
      "outputs": [
        {
          "name": "",
          "type": "uint256"
        },
        {
          "name": "",
          "type": "uint256"
        }
      ],
      "payable": false,
      "stateMutability": "view",
      "type": "function"
    },
    {
      "constant": true,
      "inputs": [
        {
          "name": "_fromReserveToken",
          "type": "address"
        },
        {
          "name": "_toReserveToken",
          "type": "address"
        },
        {
          "name": "_amount",
          "type": "uint256"
        }
      ],
      "name": "getCrossReserveReturn",
      "outputs": [
        {
          "name": "",
          "type": "uint256"
        },
        {
          "name": "",
          "type": "uint256"
        }
      ],
      "payable": false,
      "stateMutability": "view",
      "type": "function"
    },
    {
      "constant": false,
      "inputs": [
        {
          "name": "_path",
          "type": "address[]"
        },
        {
          "name": "_amount",
          "type": "uint256"
        },
        {
          "name": "_minReturn",
          "type": "uint256"
        },
        {
          "name": "_affiliateAccount",
          "type": "address"
        },
        {
          "name": "_affiliateFee",
          "type": "uint256"
        }
      ],
      "name": "quickConvert2",
      "outputs": [
        {
          "name": "",
          "type": "uint256"
        }
      ],
      "payable": true,
      "stateMutability": "payable",
      "type": "function"
    },
    {
      "constant": true,
      "inputs": [
        {
          "name": "_fromToken",
          "type": "address"
        },
        {
          "name": "_toToken",
          "type": "address"
        },
        {
          "name": "_amount",
          "type": "uint256"
        }
      ],
      "name": "getReturn",
      "outputs": [
        {
          "name": "",
          "type": "uint256"
        },
        {
          "name": "",
          "type": "uint256"
        }
      ],
      "payable": false,
      "stateMutability": "view",
      "type": "function"
    },
    {
      "constant": false,
      "inputs": [
        {
          "name": "_fromToken",
          "type": "address"
        },
        {
          "name": "_toToken",
          "type": "address"
        },
        {
          "name": "_amount",
          "type": "uint256"
        },
        {
          "name": "_minReturn",
          "type": "uint256"
        },
        {
          "name": "_affiliateAccount",
          "type": "address"
        },
        {
          "name": "_affiliateFee",
          "type": "uint256"
        }
      ],
      "name": "convert2",
      "outputs": [
        {
          "name": "",
          "type": "uint256"
        }
      ],
      "payable": false,
      "stateMutability": "nonpayable",
      "type": "function"
    },
    {
      "constant": false,
      "inputs": [
        {
          "name": "_fromToken",
          "type": "address"
        },
        {
          "name": "_toToken",
          "type": "address"
        },
        {
          "name": "_amount",
          "type": "uint256"
        },
        {
          "name": "_minReturn",
          "type": "uint256"
        }
      ],
      "name": "change",
      "outputs": [
        {
          "name": "",
          "type": "uint256"
        }
      ],
      "payable": false,
      "stateMutability": "nonpayable",
      "type": "function"
    },
    {
      "constant": false,
      "inputs": [
        {
          "name": "_fromToken",
          "type": "address"
        },
        {
          "name": "_toToken",
          "type": "address"
        },
        {
          "name": "_amount",
          "type": "uint256"
        },
        {
          "name": "_minReturn",
          "type": "uint256"
        }
      ],
      "name": "convert",
      "outputs": [
        {
          "name": "",
          "type": "uint256"
        }
      ],
      "payable": false,
      "stateMutability": "nonpayable",
      "type": "function"
    },
    {
      "constant": false,
      "inputs": [
        {
          "name": "_path",
          "type": "address[]"
        },
        {
          "name": "_amount",
          "type": "uint256"
        },
        {
          "name": "_minReturn",
          "type": "uint256"
        }
      ],
      "name": "quickConvert",
      "outputs": [
        {
          "name": "",
          "type": "uint256"
        }
      ],
      "payable": true,
      "stateMutability": "payable",
      "type": "function"
    },
    {
      "constant": false,
      "inputs": [
        {
          "name": "_path",
          "type": "address[]"
        },
        {
          "name": "_amount",
          "type": "uint256"
        },
        {
          "name": "_minReturn",
          "type": "uint256"
        },
        {
          "name": "",
          "type": "uint256[]"
        },
        {
          "name": "_affiliateAccount",
          "type": "address"
        },
        {
          "name": "_affiliateFee",
          "type": "uint256"
        }
      ],
      "name": "quickConvertPrioritized2",
      "outputs": [
        {
          "name": "",
          "type": "uint256"
        }
      ],
      "payable": true,
      "stateMutability": "payable",
      "type": "function"
    },
    {
      "constant": false,
      "inputs": [
        {
          "name": "_path",
          "type": "address[]"
        },
        {
          "name": "_amount",
          "type": "uint256"
        },
        {
          "name": "_minReturn",
          "type": "uint256"
        },
        {
          "name": "",
          "type": "uint256"
        },
        {
          "name": "",
          "type": "uint8"
        },
        {
          "name": "",
          "type": "bytes32"
        },
        {
          "name": "",
          "type": "bytes32"
        }
      ],
      "name": "quickConvertPrioritized",
      "outputs": [
        {
          "name": "",
          "type": "uint256"
        }
      ],
      "payable": true,
      "stateMutability": "payable",
      "type": "function"
    },
    {
      "constant": false,
      "inputs": [
        {
          "name": "_path",
          "type": "address[]"
        },
        {
          "name": "_minReturn",
          "type": "uint256"
        },
        {
          "name": "_conversionId",
          "type": "uint256"
        },
        {
          "name": "",
          "type": "uint256"
        },
        {
          "name": "",
          "type": "uint8"
        },
        {
          "name": "",
          "type": "bytes32"
        },
        {
          "name": "",
          "type": "bytes32"
        }
      ],
      "name": "completeXConversion",
      "outputs": [
        {
          "name": "",
          "type": "uint256"
        }
      ],
      "payable": false,
      "stateMutability": "nonpayable",
      "type": "function"
    },
    {
      "constant": true,
      "inputs": [
        {
          "name": "_address",
          "type": "address"
        }
      ],
      "name": "connectors",
      "outputs": [
        {
          "name": "",
          "type": "uint256"
        },
        {
          "name": "",
          "type": "uint32"
        },
        {
          "name": "",
          "type": "bool"
        },
        {
          "name": "",
          "type": "bool"
        },
        {
          "name": "",
          "type": "bool"
        }
      ],
      "payable": false,
      "stateMutability": "view",
      "type": "function"
    },
    {
      "constant": true,
      "inputs": [
        {
          "name": "_index",
          "type": "uint256"
        }
      ],
      "name": "connectorTokens",
      "outputs": [
        {
          "name": "",
          "type": "address"
        }
      ],
      "payable": false,
      "stateMutability": "view",
      "type": "function"
    },
    {
      "constant": true,
      "inputs": [],
      "name": "connectorTokenCount",
      "outputs": [
        {
          "name": "",
          "type": "uint16"
        }
      ],
      "payable": false,
      "stateMutability": "view",
      "type": "function"
    },
    {
      "constant": false,
      "inputs": [
        {
          "name": "_token",
          "type": "address"
        },
        {
          "name": "_weight",
          "type": "uint32"
        },
        {
          "name": "",
          "type": "bool"
        }
      ],
      "name": "addConnector",
      "outputs": [],
      "payable": false,
      "stateMutability": "nonpayable",
      "type": "function"
    },
    {
      "constant": false,
      "inputs": [
        {
          "name": "_connectorToken",
          "type": "address"
        },
        {
          "name": "",
          "type": "uint32"
        },
        {
          "name": "",
          "type": "bool"
        },
        {
          "name": "_virtualBalance",
          "type": "uint256"
        }
      ],
      "name": "updateConnector",
      "outputs": [],
      "payable": false,
      "stateMutability": "nonpayable",
      "type": "function"
    },
    {
      "constant": true,
      "inputs": [
        {
          "name": "_connectorToken",
          "type": "address"
        }
      ],
      "name": "getConnectorBalance",
      "outputs": [
        {
          "name": "",
          "type": "uint256"
        }
      ],
      "payable": false,
      "stateMutability": "view",
      "type": "function"
    },
    {
      "constant": true,
      "inputs": [
        {
          "name": "_fromConnectorToken",
          "type": "address"
        },
        {
          "name": "_toConnectorToken",
          "type": "address"
        },
        {
          "name": "_amount",
          "type": "uint256"
        }
      ],
      "name": "getCrossConnectorReturn",
      "outputs": [
        {
          "name": "",
          "type": "uint256"
        },
        {
          "name": "",
          "type": "uint256"
        }
      ],
      "payable": false,
      "stateMutability": "view",
      "type": "function"
    }
  ],
  "bytecode": "0x608060405260058054751a00000000000000000000000000000000000000000060a860020a61ffff0219909116179055600980546001606860020a0319166c010000000000000000000000001790553480156200005b57600080fd5b5060405160a080620054308339810160409081528151602083015191830151606084015160809094015160008054600160a060020a031916331781559294919285908590859085908590848680600160a060020a0381161515620000be57600080fd5b5060028054600160a060020a031916600160a060020a03928316179055819081161515620000eb57600080fd5b5060048054600160a060020a03909216600160a060020a031992831681179091556005805490921617905583600063ffffffff821610801590620001385750620f424063ffffffff821611155b15156200014457600080fd5b620001787f436f6e747261637446656174757265730000000000000000000000000000000064010000000062000264810204565b9150600160a060020a038216156200020d57604080517f2c7077c000000000000000000000000000000000000000000000000000000000815260016004820181905260248201529051600160a060020a03841691632c7077c091604480830192600092919082900301818387803b158015620001f357600080fd5b505af115801562000208573d6000803e3d6000fd5b505050505b6009805467ffffffff00000000191664010000000063ffffffff881602179055600160a060020a03841615620002525762000252848464010000000062000300810204565b50505050505050505050505062000544565b60048054604080517fbb34534c00000000000000000000000000000000000000000000000000000000815292830184905251600092600160a060020a039092169163bb34534c91602480830192602092919082900301818787803b158015620002cc57600080fd5b505af1158015620002e1573d6000803e3d6000fd5b505050506040513d6020811015620002f857600080fd5b505192915050565b600054600160a060020a031633146200031857600080fd5b600254604080517f8da5cb5b00000000000000000000000000000000000000000000000000000000815290513092600160a060020a031691638da5cb5b9160048083019260209291908290030181600087803b1580156200037857600080fd5b505af11580156200038d573d6000803e3d6000fd5b505050506040513d6020811015620003a457600080fd5b5051600160a060020a03161415620003bb57600080fd5b81600160a060020a0381161515620003d257600080fd5b82600160a060020a038116301415620003ea57600080fd5b8260008163ffffffff161180156200040b5750620f424063ffffffff821611155b15156200041757600080fd5b600254600160a060020a038681169116148015906200045c5750600160a060020a0385166000908152600860205260409020600101546601000000000000900460ff16155b80156200047b5750600954620f424063ffffffff918216860190911611155b15156200048757600080fd5b505050600160a060020a03919091166000818152600860205260408120600180820180549284905566010000000000006501000000000063ffffffff1994851663ffffffff808a169190911765ffff0000000019169190911766ff0000000000001916919091179091556007805492830181559093527fa66cc928b5edb82af9bd49922954155ab7b0942694bea4ce44661d9a8736c688018054600160a060020a0319169093179092556009805492831692821690930116179055565b614edc80620005546000396000f3006080604052600436106102fc5763ffffffff600080516020614e91833981519152600035041663024c7ec781146103015780630c77a5521461031d5780630ca78923146103595780630e53aae91461038b5780630e717926146103e05780631120a7761461040457806315226b541461043557806319b64015146104565780631e1401f81461046e57806321e6b53d146104b157806322742564146104d25780632a2e2f0c1461053a5780632c12b446146105675780632fe8a6ad1461058857806336561951146105b157806338a5e016146105e15780633aa0145a146105f65780633f4d2fc214610614578063415f12401461064357806341a5b33d1461065b57806349d10b64146106855780634af80f0e1461069a57806350057351146106bb57806354fd4d5014610730578063579cd3ca1461075c5780635e35359e1461078a5780635e5144eb146107b457806361cd756e146107e15780636520d6fb146107f65780636a49d2c41461080b5780636c1b62d5146108355780636ebf36c01461084a57806371f52bf31461088257806372b44b2c1461089757806375892cf1146108bb57806379ba5097146108e85780637b103999146108fd5780638da5cb5b146109125780638e3047e01461092757806392d1abb714610951578063935e2ae11461096657806394c275ad1461098a57806399e77de51461099f5780639b99a8e2146109c0578063a2c4c336146109d5578063b3a426d5146109f9578063b4a176d314610a9a578063bf75455814610aaf578063c45d3d9214610ac4578063c708377c14610ad9578063ca1d209d14610afa578063cf73266a14610b12578063d031370b14610b3c578063d4ee1d9014610b54578063d55ec69714610b69578063d66bd52414610b7e578063d895951214610b9f578063d924f0c314610bc0578063dd19dfa914610be1578063e4dd22f614610c0b578063ebf9470014610c6e578063ecbca55d14610ccc578063f0843ba914610cea578063f2fde38b14610d3b578063fc0c546a14610d5c578063fe417fa514610d71575b600080fd5b34801561030d57600080fd5b5061031b6004351515610d95565b005b34801561032957600080fd5b50610347600160a060020a0360043581169060243516604435610df6565b60408051918252519081900360200190f35b34801561036557600080fd5b5061031b600160a060020a036004351663ffffffff602435166044351515606435610f22565b34801561039757600080fd5b506103ac600160a060020a0360043516610f32565b6040805195865263ffffffff9094166020860152911515848401521515606084015215156080830152519081900360a00190f35b3480156103ec57600080fd5b5061031b600160a060020a0360043516602435610f84565b34801561041057600080fd5b50610419611081565b60408051600160a060020a039092168252519081900360200190f35b34801561044157600080fd5b50610347600160a060020a0360043516611090565b34801561046257600080fd5b506104196004356111e8565b34801561047a57600080fd5b50610498600160a060020a0360043581169060243516604435611214565b6040805192835260208301919091528051918290030190f35b3480156104bd57600080fd5b5061031b600160a060020a0360043516611291565b6040805160206004803580820135838102808601850190965280855261034795369593946024949385019291829185019084908082843750949750508435955050506020830135926040810135925060ff606082013516915060808101359060a001356112f3565b34801561054657600080fd5b50610347600160a060020a036004358116906024351660443560643561130f565b34801561057357600080fd5b50610347600160a060020a036004351661162c565b34801561059457600080fd5b5061059d611688565b604080519115158252519081900360200190f35b3480156105bd57600080fd5b5061031b600160a060020a036004358116906024351663ffffffff604435166116a9565b3480156105ed57600080fd5b5061031b6119e3565b34801561060257600080fd5b5061034760043560ff60243516611a99565b34801561062057600080fd5b5061031b600160a060020a036004351663ffffffff602435166044351515611aeb565b34801561064f57600080fd5b5061031b600435611af5565b34801561066757600080fd5b5061031b600160a060020a0360043581169060243516604435611dfc565b34801561069157600080fd5b5061031b611ea6565b3480156106a657600080fd5b5061031b600160a060020a0360043516612044565b3480156106c757600080fd5b506040805160206004803580820135838102808601850190965280855261034795369593946024949385019291829185019084908082843750949750508435955050506020830135926040810135925060ff606082013516915060808101359060a001356120a2565b34801561073c57600080fd5b506107456120af565b6040805161ffff9092168252519081900360200190f35b34801561076857600080fd5b506107716120d2565b6040805163ffffffff9092168252519081900360200190f35b34801561079657600080fd5b5061031b600160a060020a03600435811690602435166044356120ea565b3480156107c057600080fd5b50610347600160a060020a036004358116906024351660443560643561220d565b3480156107ed57600080fd5b50610419612224565b34801561080257600080fd5b50610771612233565b34801561081757600080fd5b5061031b600160a060020a036004351663ffffffff6024351661223f565b34801561084157600080fd5b5061031b612484565b34801561085657600080fd5b50610347600160a060020a0360043581169060243581169060443590606435906084351660a435612581565b34801561088e57600080fd5b50610745612627565b3480156108a357600080fd5b50610498600160a060020a0360043516602435612636565b3480156108c757600080fd5b50610347600160a060020a03600435811690602435166044356064356128c2565b3480156108f457600080fd5b5061031b6128d3565b34801561090957600080fd5b5061041961295b565b34801561091e57600080fd5b5061041961296a565b34801561093357600080fd5b50610498600160a060020a0360043581169060243516604435612979565b34801561095d57600080fd5b50610347612987565b34801561097257600080fd5b5061031b600160a060020a036004351660243561298c565b34801561099657600080fd5b50610771612a6d565b3480156109ab57600080fd5b50610419600160a060020a0360043516612a81565b3480156109cc57600080fd5b50610745612a9c565b3480156109e157600080fd5b50610498600160a060020a0360043516602435612aa2565b60408051602060048035808201358381028086018501909652808552610347953695939460249493850192918291850190849080828437505060408051818801358901803560208181028481018201909552818452989b8a359b8a8c01359b919a9099506060909101975092955090820193509182918501908490808284375094975050508335600160a060020a0316945050506020909101359050612ce1565b348015610aa657600080fd5b5061031b612cfb565b348015610abb57600080fd5b5061059d612d43565b348015610ad057600080fd5b50610419612d5c565b348015610ae557600080fd5b50610419600160a060020a0360043516612d6b565b348015610b0657600080fd5b5061031b600435612d86565b348015610b1e57600080fd5b50610498600160a060020a0360043581169060243516604435613280565b348015610b4857600080fd5b506104196004356134d6565b348015610b6057600080fd5b506104196134fe565b348015610b7557600080fd5b5061031b61350d565b348015610b8a57600080fd5b506103ac600160a060020a0360043516613524565b348015610bab57600080fd5b50610347600160a060020a036004351661356a565b348015610bcc57600080fd5b5061031b600160a060020a036004351661357b565b348015610bed57600080fd5b50610347600160a060020a03600435811690602435166044356135c1565b604080516020600480358082013583810280860185019096528085526103479536959394602494938501929182918501908490808284375094975050843595505050602083013592600160a060020a0360408201351692506060013590506136dc565b348015610c7a57600080fd5b5060408051602060048035808201358381028086018501909652808552610347953695939460249493850192918291850190849080828437509497505084359550505060209092013591506139909050565b348015610cd857600080fd5b5061031b63ffffffff60043516613cf3565b6040805160206004803580820135838102808601850190965280855261034795369593946024949385019291829185019084908082843750949750508435955050506020909201359150613dd49050565b348015610d4757600080fd5b5061031b600160a060020a0360043516613de4565b348015610d6857600080fd5b50610419613e45565b348015610d7d57600080fd5b5061031b600160a060020a0360043516602435613e54565b600054600160a060020a03163314610dac57600080fd5b6005805491151574010000000000000000000000000000000000000000027fffffffffffffffffffffff00ffffffffffffffffffffffffffffffffffffffff909216919091179055565b6000610f1a83600160a060020a031663bd6d894d6040518163ffffffff16600080516020614e91833981519152028152600401602060405180830381600087803b158015610e4357600080fd5b505af1158015610e57573d6000803e3d6000fd5b505050506040513d6020811015610e6d57600080fd5b5051604080517f313ce5670000000000000000000000000000000000000000000000000000000081529051610f0e91600160a060020a0389169163313ce567916004808201926020929091908290030181600087803b158015610ecf57600080fd5b505af1158015610ee3573d6000803e3d6000fd5b505050506040513d6020811015610ef957600080fd5b5051859060ff16600a0a63ffffffff613f7916565b9063ffffffff613fb216565b949350505050565b610f2c848261298c565b50505050565b600160a060020a031660009081526008602052604090208054600190910154909163ffffffff82169160ff64010000000082048116926501000000000083048216926601000000000000900490911690565b600054600160a060020a03163314610f9b57600080fd5b600160a060020a03821660009081526008602052604090206001015482906601000000000000900460ff161515610fd157600080fd5b600254604080517f8da5cb5b00000000000000000000000000000000000000000000000000000000815290513092600160a060020a031691638da5cb5b9160048083019260209291908290030181600087803b15801561103057600080fd5b505af1158015611044573d6000803e3d6000fd5b505050506040513d602081101561105a57600080fd5b5051600160a060020a0316141561107057600080fd5b61107c83333085613fd5565b505050565b600354600160a060020a031681565b600160a060020a038116600090815260086020526040812060010154819083906601000000000000900460ff1615156110c857600080fd5b600160a060020a038085166000908152600a602052604090205416915081151561118057604080517f70a082310000000000000000000000000000000000000000000000000000000081523060048201529051600160a060020a038616916370a082319160248083019260209291908290030181600087803b15801561114d57600080fd5b505af1158015611161573d6000803e3d6000fd5b505050506040513d602081101561117757600080fd5b505192506111e1565b604080517f3af9e6690000000000000000000000000000000000000000000000000000000081523060048201529051600160a060020a03841691633af9e6699160248083019260209291908290030181600087803b15801561114d57600080fd5b5050919050565b60006007828154811015156111f957fe5b600091825260209091200154600160a060020a031692915050565b600080600160a060020a03858116908516141561123057600080fd5b600254600160a060020a0385811691161415611259576112508584612aa2565b91509150611289565b600254600160a060020a0386811691161415611279576112508484612636565b611284858585613280565b915091505b935093915050565b600054600160a060020a031633146112a857600080fd5b7f42616e636f72436f6e76657274657255706772616465720000000000000000006112d281614652565b600160a060020a031633146112e657600080fd5b6112ef826146eb565b5050565b60006113038888886000806136dc565b98975050505050505050565b6000806000806000807f42616e636f724e6574776f726b0000000000000000000000000000000000000061134281614652565b600160a060020a0316331461135657600080fd5b876000811161136457600080fd5b600160a060020a038c8116908c16141561137d57600080fd5b600254600160a060020a038c8116911614156113a55761139e8c8b8b614784565b975061161d565b600254600160a060020a038d8116911614156113c65761139e8b8b8b614966565b6113d18c8c8c613280565b909750955086158015906113e55750888710155b15156113f057600080fd5b600160a060020a03808d16600090815260086020526040808220928e1682529020909550935061141f8b611090565b925082871061142a57fe5b6114368c33308d613fd5565b6114428b30338a613fd5565b61144f8c8c8c8a8a614c95565b8b600160a060020a03167f8a6a7f53b3c8fa1dc4b83e3f1be668c1b251ff8d44cdcb83eb3acec3fec6a788600260009054906101000a9004600160a060020a0316600160a060020a03166318160ddd6040518163ffffffff16600080516020614e91833981519152028152600401602060405180830381600087803b1580156114d757600080fd5b505af11580156114eb573d6000803e3d6000fd5b505050506040513d602081101561150157600080fd5b505161150c8f611090565b600189015460408051938452602084019290925263ffffffff1682820152519081900360600190a28a600160a060020a03167f8a6a7f53b3c8fa1dc4b83e3f1be668c1b251ff8d44cdcb83eb3acec3fec6a788600260009054906101000a9004600160a060020a0316600160a060020a03166318160ddd6040518163ffffffff16600080516020614e91833981519152028152600401602060405180830381600087803b1580156115bc57600080fd5b505af11580156115d0573d6000803e3d6000fd5b505050506040513d60208110156115e657600080fd5b50516115f18e611090565b600188015460408051938452602084019290925263ffffffff1682820152519081900360600190a28697505b50505050505050949350505050565b600160a060020a03811660009081526008602052604081206001015482906601000000000000900460ff16151561166257600080fd5b5050600160a060020a031660009081526008602052604090206001015463ffffffff1690565b60055474010000000000000000000000000000000000000000900460ff1681565b600080548190600160a060020a031633146116c357600080fd5b600254604080517f8da5cb5b00000000000000000000000000000000000000000000000000000000815290513092600160a060020a031691638da5cb5b9160048083019260209291908290030181600087803b15801561172257600080fd5b505af1158015611736573d6000803e3d6000fd5b505050506040513d602081101561174c57600080fd5b5051600160a060020a0316141561176257600080fd5b83600160a060020a038116151561177857600080fd5b84600160a060020a03811630141561178f57600080fd5b8460008163ffffffff161180156117af5750620f424063ffffffff821611155b15156117ba57600080fd5b6117c4878761223f565b86945084600160a060020a0316636f307dc36040518163ffffffff16600080516020614e91833981519152028152600401602060405180830381600087803b15801561180f57600080fd5b505af1158015611823573d6000803e3d6000fd5b505050506040513d602081101561183957600080fd5b50519350600160a060020a038085169089161461185557600080fd5b600160a060020a038086166000818152600b602090815260408083208054868b1673ffffffffffffffffffffffffffffffffffffffff199182168117909255818552600a90935292208054909116909217909155600254909116148015906118e35750600160a060020a0384166000908152600860205260409020600101546601000000000000900460ff16155b15156118ee57600080fd5b600160a060020a0384811660008181526008602090815260408083206001810180549185905566010000000000006501000000000063ffffffff1990931663ffffffff8f161765ffff0000000019169290921766ff000000000000191691909117905580517f095ea7b3000000000000000000000000000000000000000000000000000000008152948a166004860152600019602486015251929363095ea7b39360448083019491928390030190829087803b1580156119ad57600080fd5b505af11580156119c1573d6000803e3d6000fd5b505050506040513d60208110156119d757600080fd5b50505050505050505050565b600054600160a060020a031633146119fa57600080fd5b600254604080517f18160ddd0000000000000000000000000000000000000000000000000000000081529051600092600160a060020a0316916318160ddd91600480830192602092919082900301818787803b158015611a5957600080fd5b505af1158015611a6d573d6000803e3d6000fd5b505050506040513d6020811015611a8357600080fd5b505111611a8f57600080fd5b611a97614d18565b565b600954600090611ae49060ff8416620f424081810a67ffffffffffffffff90811693610f0e93899363ffffffff680100000000000000009093048316900383160a90911690613f7916565b9392505050565b61107c838361223f565b6000806000806000806000806001600780549050111515611b1557600080fd5b600260009054906101000a9004600160a060020a0316600160a060020a03166318160ddd6040518163ffffffff16600080516020614e91833981519152028152600401602060405180830381600087803b158015611b7257600080fd5b505af1158015611b86573d6000803e3d6000fd5b505050506040513d6020811015611b9c57600080fd5b50519750611bc97f42616e636f72466f726d756c6100000000000000000000000000000000000000614652565b600254604080517fa24835d1000000000000000000000000000000000000000000000000000000008152336004820152602481018d90529051929950600160a060020a039091169163a24835d19160448082019260009290919082900301818387803b158015611c3857600080fd5b505af1158015611c4c573d6000803e3d6000fd5b50505050600092505b60075461ffff84161015611df1576007805461ffff8516908110611c7557fe5b6000918252602080832090910154600160a060020a03908116808452600b9092526040909220549097501691508115611cac578195505b611cb586611090565b600954604080517fabfd231d000000000000000000000000000000000000000000000000000000008152600481018c90526024810184905263ffffffff9092166044830152606482018c905251919650600160a060020a0389169163abfd231d916084808201926020929091908290030181600087803b158015611d3857600080fd5b505af1158015611d4c573d6000803e3d6000fd5b505050506040513d6020811015611d6257600080fd5b5051600160a060020a03871660009081526008602052604090209094509050611d8d86303387613fd5565b6001810154604080518b8b038152868803602082015263ffffffff9092168282015251600160a060020a038816917f8a6a7f53b3c8fa1dc4b83e3f1be668c1b251ff8d44cdcb83eb3acec3fec6a788919081900360600190a2600190920191611c55565b505050505050505050565b600054600160a060020a03163314611e1357600080fd5b600254604080517f5e35359e000000000000000000000000000000000000000000000000000000008152600160a060020a03868116600483015285811660248301526044820185905291519190921691635e35359e91606480830192600092919082900301818387803b158015611e8957600080fd5b505af1158015611e9d573d6000803e3d6000fd5b50505050505050565b60008054600160a060020a0316331480611edb575060055474010000000000000000000000000000000000000000900460ff16155b1515611ee657600080fd5b611f0f7f436f6e7472616374526567697374727900000000000000000000000000000000614652565b600454909150600160a060020a03808316911614801590611f385750600160a060020a03811615155b1515611f4357600080fd5b604080517fbb34534c0000000000000000000000000000000000000000000000000000000081527f436f6e747261637452656769737472790000000000000000000000000000000060048201529051600091600160a060020a0384169163bb34534c9160248082019260209290919082900301818787803b158015611fc757600080fd5b505af1158015611fdb573d6000803e3d6000fd5b505050506040513d6020811015611ff157600080fd5b5051600160a060020a0316141561200757600080fd5b6004805460058054600160a060020a0380841673ffffffffffffffffffffffffffffffffffffffff19928316179092559091169216919091179055565b600054600160a060020a0316331461205b57600080fd5b80600160a060020a03811630141561207257600080fd5b506006805473ffffffffffffffffffffffffffffffffffffffff1916600160a060020a0392909216919091179055565b6000611303888888613990565b6005547501000000000000000000000000000000000000000000900461ffff1681565b60095468010000000000000000900463ffffffff1681565b60006121157f42616e636f72436f6e7665727465725570677261646572000000000000000000614652565b600160a060020a0385166000908152600860205260409020600101549091506601000000000000900460ff1615806121df5750600254604080517f8da5cb5b00000000000000000000000000000000000000000000000000000000815290513092600160a060020a031691638da5cb5b9160048083019260209291908290030181600087803b1580156121a757600080fd5b505af11580156121bb573d6000803e3d6000fd5b505050506040513d60208110156121d157600080fd5b5051600160a060020a031614155b806121f75750600054600160a060020a038281169116145b151561220257600080fd5b610f2c848484614da0565b600061221b8585858561130f565b95945050505050565b600554600160a060020a031681565b60095463ffffffff1681565b600054600160a060020a0316331461225657600080fd5b600254604080517f8da5cb5b00000000000000000000000000000000000000000000000000000000815290513092600160a060020a031691638da5cb5b9160048083019260209291908290030181600087803b1580156122b557600080fd5b505af11580156122c9573d6000803e3d6000fd5b505050506040513d60208110156122df57600080fd5b5051600160a060020a031614156122f557600080fd5b81600160a060020a038116151561230b57600080fd5b82600160a060020a03811630141561232257600080fd5b8260008163ffffffff161180156123425750620f424063ffffffff821611155b151561234d57600080fd5b600254600160a060020a038681169116148015906123915750600160a060020a0385166000908152600860205260409020600101546601000000000000900460ff16155b80156123af5750600954620f424063ffffffff918216860190911611155b15156123ba57600080fd5b505050600160a060020a03919091166000818152600860205260408120600180820180549284905566010000000000006501000000000063ffffffff1994851663ffffffff808a169190911765ffff0000000019169190911766ff0000000000001916919091179091556007805492830181559093527fa66cc928b5edb82af9bd49922954155ab7b0942694bea4ce44661d9a8736c68801805473ffffffffffffffffffffffffffffffffffffffff19169093179092556009805492831692821690930116179055565b600080805b60075461ffff8416101561107c576007805461ffff85169081106124a957fe5b6000918252602080832090910154600160a060020a03908116808452600b909252604090922054909350169050801561257657604080517f095ea7b3000000000000000000000000000000000000000000000000000000008152600160a060020a038481166004830152600019602483015291519183169163095ea7b3916044808201926020929091908290030181600087803b15801561254957600080fd5b505af115801561255d573d6000803e3d6000fd5b505050506040513d602081101561257357600080fd5b50505b600190920191612489565b6040805160038082526080820190925260009160609190602082018380388339505060025482519293508a92600160a060020a0390911691508990849060009081106125c957fe5b9060200190602002018460018151811015156125e157fe5b9060200190602002018560028151811015156125f957fe5b600160a060020a039485166020918202909201015292821690925291909116905261130381878787876136dc565b6000612631612a9c565b905090565b60008060008060008060008030600160a060020a0316600260009054906101000a9004600160a060020a0316600160a060020a0316638da5cb5b6040518163ffffffff16600080516020614e91833981519152028152600401602060405180830381600087803b1580156126a957600080fd5b505af11580156126bd573d6000803e3d6000fd5b505050506040513d60208110156126d357600080fd5b5051600160a060020a0316146126e857600080fd5b600160a060020a038a166000908152600860205260409020600101548a906601000000000000900460ff16151561271e57600080fd5b600160a060020a03808c16600090815260086020908152604080832060025482517f18160ddd0000000000000000000000000000000000000000000000000000000081529251919c50909416936318160ddd93600480840194938390030190829087803b15801561278e57600080fd5b505af11580156127a2573d6000803e3d6000fd5b505050506040513d60208110156127b857600080fd5b505195506127c58b611090565b94506127f07f42616e636f72466f726d756c6100000000000000000000000000000000000000614652565b6001880154604080517f49f9b0f7000000000000000000000000000000000000000000000000000000008152600481018a90526024810189905263ffffffff9092166044830152606482018d905251919550600160a060020a038616916349f9b0f7916084808201926020929091908290030181600087803b15801561287557600080fd5b505af1158015612889573d6000803e3d6000fd5b505050506040513d602081101561289f57600080fd5b505192506128ae836001611a99565b9b928c90039a509198505050505050505050565b600061221b85858585600080612581565b600154600160a060020a031633146128ea57600080fd5b60015460008054604051600160a060020a0393841693909116917f343765429aea5a34b3ff6a3785a98a5abb2597aca87bfbb58632c173d585373a91a3600180546000805473ffffffffffffffffffffffffffffffffffffffff19908116600160a060020a03841617909155169055565b600454600160a060020a031681565b600054600160a060020a031681565b600080611284858585613280565b600181565b60008054600160a060020a031633146129a457600080fd5b7f42616e636f72436f6e76657274657255706772616465720000000000000000006129ce81614652565b600160a060020a031633146129e257600080fd5b600160a060020a03841660009081526008602052604090206001015484906601000000000000900460ff161515612a1857600080fd5b505050600160a060020a039190911660009081526008602052604090206001810180547fffffffffffffffffffffffffffffffffffffffffffffffffffffff00ffffffff168315156401000000000217905555565b600954640100000000900463ffffffff1681565b600b60205260009081526040902054600160a060020a031681565b60075490565b60008060008060008060008030600160a060020a0316600260009054906101000a9004600160a060020a0316600160a060020a0316638da5cb5b6040518163ffffffff16600080516020614e91833981519152028152600401602060405180830381600087803b158015612b1557600080fd5b505af1158015612b29573d6000803e3d6000fd5b505050506040513d6020811015612b3f57600080fd5b5051600160a060020a031614612b5457600080fd5b600160a060020a038a166000908152600860205260409020600101548a906601000000000000900460ff161515612b8a57600080fd5b600160a060020a03808c16600090815260086020908152604080832060025482517f18160ddd0000000000000000000000000000000000000000000000000000000081529251919c50909416936318160ddd93600480840194938390030190829087803b158015612bfa57600080fd5b505af1158015612c0e573d6000803e3d6000fd5b505050506040513d6020811015612c2457600080fd5b50519550612c318b611090565b9450612c5c7f42616e636f72466f726d756c6100000000000000000000000000000000000000614652565b6001880154604080517f29a00e7c000000000000000000000000000000000000000000000000000000008152600481018a90526024810189905263ffffffff9092166044830152606482018d905251919550600160a060020a038616916329a00e7c916084808201926020929091908290030181600087803b15801561287557600080fd5b6000612cf087878786866136dc565b979650505050505050565b600054600160a060020a03163314612d1257600080fd5b6005546004805473ffffffffffffffffffffffffffffffffffffffff1916600160a060020a03909216919091179055565b6009546c01000000000000000000000000900460ff1681565b600654600160a060020a031681565b600a60205260009081526040902054600160a060020a031681565b6000806000806000806000806001600780549050111515612da657600080fd5b600260009054906101000a9004600160a060020a0316600160a060020a03166318160ddd6040518163ffffffff16600080516020614e91833981519152028152600401602060405180830381600087803b158015612e0357600080fd5b505af1158015612e17573d6000803e3d6000fd5b505050506040513d6020811015612e2d57600080fd5b50519750612e5a7f42616e636f72466f726d756c6100000000000000000000000000000000000000614652565b9650600095505b60075461ffff871610156131f1576007805461ffff8816908110612e8157fe5b600091825260209091200154600160a060020a03169450612ea185611090565b600954604080517f1da6bbfb000000000000000000000000000000000000000000000000000000008152600481018c90526024810184905263ffffffff9092166044830152606482018c905251919550600160a060020a03891691631da6bbfb916084808201926020929091908290030181600087803b158015612f2457600080fd5b505af1158015612f38573d6000803e3d6000fd5b505050506040513d6020811015612f4e57600080fd5b5051600160a060020a038087166000908152600b6020526040902054919450169150811561316857604080517fdd62ed3e00000000000000000000000000000000000000000000000000000000815233600482015230602482015290518491600160a060020a0388169163dd62ed3e916044808201926020929091908290030181600087803b158015612fe057600080fd5b505af1158015612ff4573d6000803e3d6000fd5b505050506040513d602081101561300a57600080fd5b505110806130a55750604080517f70a0823100000000000000000000000000000000000000000000000000000000815233600482015290518491600160a060020a038816916370a08231916024808201926020929091908290030181600087803b15801561307757600080fd5b505af115801561308b573d6000803e3d6000fd5b505050506040513d60208110156130a157600080fd5b5051105b15613168578194506130b685611090565b600954604080517f1da6bbfb000000000000000000000000000000000000000000000000000000008152600481018c90526024810184905263ffffffff9092166044830152606482018c905251919550600160a060020a03891691631da6bbfb916084808201926020929091908290030181600087803b15801561313957600080fd5b505af115801561314d573d6000803e3d6000fd5b505050506040513d602081101561316357600080fd5b505192505b50600160a060020a038416600090815260086020526040902061318d85333086613fd5565b6001810154604080518a8c018152868601602082015263ffffffff9092168282015251600160a060020a038716917f8a6a7f53b3c8fa1dc4b83e3f1be668c1b251ff8d44cdcb83eb3acec3fec6a788919081900360600190a2600190950194612e61565b600254604080517f867904b4000000000000000000000000000000000000000000000000000000008152336004820152602481018c90529051600160a060020a039092169163867904b49160448082019260009290919082900301818387803b15801561325d57600080fd5b505af1158015613271573d6000803e3d6000fd5b50505050505050505050505050565b600080600080600080600030600160a060020a0316600260009054906101000a9004600160a060020a0316600160a060020a0316638da5cb5b6040518163ffffffff16600080516020614e91833981519152028152600401602060405180830381600087803b1580156132f257600080fd5b505af1158015613306573d6000803e3d6000fd5b505050506040513d602081101561331c57600080fd5b5051600160a060020a03161461333157600080fd5b600160a060020a038a166000908152600860205260409020600101548a906601000000000000900460ff16151561336757600080fd5b600160a060020a038a166000908152600860205260409020600101548a906601000000000000900460ff16151561339d57600080fd5b600160a060020a03808d16600090815260086020526040808220928e168252902090975095506133ec7f42616e636f72466f726d756c6100000000000000000000000000000000000000614652565b945084600160a060020a03166379c1b4506134068e611090565b60018a015463ffffffff1661341a8f611090565b60018b01546040805163ffffffff878116600080516020614e91833981519152028252600482019690965293851660248501526044840192909252929092166064820152608481018e9052905160a48083019260209291908290030181600087803b15801561348857600080fd5b505af115801561349c573d6000803e3d6000fd5b505050506040513d60208110156134b257600080fd5b505193506134c1846002611a99565b9c938d90039b50929950505050505050505050565b60078054829081106134e457fe5b600091825260209091200154600160a060020a0316905081565b600154600160a060020a031681565b600054600160a060020a03163314611a9757600080fd5b6008602052600090815260409020805460019091015463ffffffff81169060ff640100000000820481169165010000000000810482169166010000000000009091041685565b600061357582611090565b92915050565b600054600160a060020a0316331461359257600080fd5b6003805473ffffffffffffffffffffffffffffffffffffffff1916600160a060020a0392909216919091179055565b6000610f1a83600160a060020a031663313ce5676040518163ffffffff16600080516020614e91833981519152028152600401602060405180830381600087803b15801561360e57600080fd5b505af1158015613622573d6000803e3d6000fd5b505050506040513d602081101561363857600080fd5b5051604080517fbd6d894d000000000000000000000000000000000000000000000000000000008152905160ff909216600a0a91610f0e91600160a060020a0389169163bd6d894d916004808201926020929091908290030181600087803b1580156136a357600080fd5b505af11580156136b7573d6000803e3d6000fd5b505050506040513d60208110156136cd57600080fd5b5051859063ffffffff613f7916565b6000806137087f42616e636f724e6574776f726b00000000000000000000000000000000000000614652565b905034151561387b576002548751600160a060020a03909116908890600090811061372f57fe5b90602001906020020151600160a060020a0316141561385757600254604080517fa24835d1000000000000000000000000000000000000000000000000000000008152336004820152602481018990529051600160a060020a039092169163a24835d19160448082019260009290919082900301818387803b1580156137b457600080fd5b505af11580156137c8573d6000803e3d6000fd5b5050600254604080517f867904b4000000000000000000000000000000000000000000000000000000008152600160a060020a038681166004830152602482018c9052915191909216935063867904b49250604480830192600092919082900301818387803b15801561383a57600080fd5b505af115801561384e573d6000803e3d6000fd5b5050505061387b565b61387b87600081518110151561386957fe5b90602001906020020151338389613fd5565b80600160a060020a031663ab6214ce34898989338a8a6040518863ffffffff16600080516020614e91833981519152028152600401808060200187815260200186815260200185600160a060020a0316600160a060020a0316815260200184600160a060020a0316600160a060020a03168152602001838152602001828103825288818151815260200191508051906020019060200280838360005b8381101561392f578181015183820152602001613917565b505050509050019750505050505050506020604051808303818588803b15801561395857600080fd5b505af115801561396c573d6000803e3d6000fd5b50505050506040513d602081101561398357600080fd5b5051979650505050505050565b6000806000806139bf7f42616e636f725800000000000000000000000000000000000000000000000000614652565b92506139ea7f42616e636f724e6574776f726b00000000000000000000000000000000000000614652565b9150613a157f424e54546f6b656e000000000000000000000000000000000000000000000000614652565b600160a060020a0316876000815181101515613a2d57fe5b60209081029091010151600160a060020a031614613a4a57600080fd5b604080517faafd6b76000000000000000000000000000000000000000000000000000000008152600481018790523360248201529051600160a060020a0385169163aafd6b769160448083019260209291908290030181600087803b158015613ab257600080fd5b505af1158015613ac6573d6000803e3d6000fd5b505050506040513d6020811015613adc57600080fd5b5051600254604080517fa24835d1000000000000000000000000000000000000000000000000000000008152336004820152602481018490529051929350600160a060020a039091169163a24835d19160448082019260009290919082900301818387803b158015613b4d57600080fd5b505af1158015613b61573d6000803e3d6000fd5b5050600254604080517f867904b4000000000000000000000000000000000000000000000000000000008152600160a060020a03878116600483015260248201879052915191909216935063867904b49250604480830192600092919082900301818387803b158015613bd357600080fd5b505af1158015613be7573d6000803e3d6000fd5b5050505081600160a060020a031663ab6214ce888389336000806040518763ffffffff16600080516020614e91833981519152028152600401808060200187815260200186815260200185600160a060020a0316600160a060020a0316815260200184600160a060020a0316600160a060020a03168152602001838152602001828103825288818151815260200191508051906020019060200280838360005b83811015613c9f578181015183820152602001613c87565b50505050905001975050505050505050602060405180830381600087803b158015613cc957600080fd5b505af1158015613cdd573d6000803e3d6000fd5b505050506040513d602081101561398357600080fd5b600054600160a060020a03163314613d0a57600080fd5b60008163ffffffff1610158015613d35575060095463ffffffff640100000000909104811690821611155b1515613d4057600080fd5b6009546040805163ffffffff6801000000000000000090930483168152918316602083015280517f81cd2ffb37dd237c0e4e2a3de5265fcf9deb43d3e7801e80db9f1ccfba7ee6009281900390910190a16009805463ffffffff90921668010000000000000000027fffffffffffffffffffffffffffffffffffffffff00000000ffffffffffffffff909216919091179055565b6000610f1a8484846000806136dc565b600054600160a060020a03163314613dfb57600080fd5b600054600160a060020a0382811691161415613e1657600080fd5b6001805473ffffffffffffffffffffffffffffffffffffffff1916600160a060020a0392909216919091179055565b600254600160a060020a031681565b600354600160a060020a03163314613e6b57600080fd5b600254604080517fa24835d1000000000000000000000000000000000000000000000000000000008152600160a060020a038581166004830152602482018590529151919092169163a24835d191604480830192600092919082900301818387803b158015613ed957600080fd5b505af1158015613eed573d6000803e3d6000fd5b5050600254604080517f867904b4000000000000000000000000000000000000000000000000000000008152336004820152602481018690529051600160a060020a03909216935063867904b4925060448082019260009290919082900301818387803b158015613f5d57600080fd5b505af1158015613f71573d6000803e3d6000fd5b505050505050565b600080831515613f8c5760009150613fab565b50828202828482811515613f9c57fe5b0414613fa757600080fd5b8091505b5092915050565b600080808311613fc157600080fd5b8284811515613fcc57fe5b04949350505050565b600080600086600160a060020a03166370a08231866040518263ffffffff16600080516020614e918339815191520281526004018082600160a060020a0316600160a060020a03168152602001915050602060405180830381600087803b15801561403f57600080fd5b505af1158015614053573d6000803e3d6000fd5b505050506040513d602081101561406957600080fd5b5051600160a060020a038089166000908152600a602052604090205491945016905080151561425157600160a060020a03861630141561412d5786600160a060020a031663a9059cbb86866040518363ffffffff16600080516020614e918339815191520281526004018083600160a060020a0316600160a060020a0316815260200182815260200192505050600060405180830381600087803b15801561411057600080fd5b505af1158015614124573d6000803e3d6000fd5b505050506141b9565b604080517f23b872dd000000000000000000000000000000000000000000000000000000008152600160a060020a0388811660048301528781166024830152604482018790529151918916916323b872dd9160648082019260009290919082900301818387803b1580156141a057600080fd5b505af11580156141b4573d6000803e3d6000fd5b505050505b86600160a060020a03166370a08231866040518263ffffffff16600080516020614e918339815191520281526004018082600160a060020a0316600160a060020a03168152602001915050602060405180830381600087803b15801561421e57600080fd5b505af1158015614232573d6000803e3d6000fd5b505050506040513d602081101561424857600080fd5b505191506145d4565b600160a060020a0386163014156143ba5780600160a060020a031663852a12e3856040518263ffffffff16600080516020614e9183398151915202815260040180828152602001915050602060405180830381600087803b1580156142b557600080fd5b505af11580156142c9573d6000803e3d6000fd5b505050506040513d60208110156142df57600080fd5b50511561434d57604080517f08c379a000000000000000000000000000000000000000000000000000000000815260206004820152601560248201527f636f6d706f756e642072656465656d206572726f720000000000000000000000604482015290519081900360640190fd5b86600160a060020a031663a9059cbb86866040518363ffffffff16600080516020614e918339815191520281526004018083600160a060020a0316600160a060020a0316815260200182815260200192505050600060405180830381600087803b1580156141a057600080fd5b604080517f23b872dd000000000000000000000000000000000000000000000000000000008152600160a060020a0388811660048301528781166024830152604482018790529151918916916323b872dd9160648082019260009290919082900301818387803b15801561442d57600080fd5b505af1158015614441573d6000803e3d6000fd5b5050505086600160a060020a03166370a08231866040518263ffffffff16600080516020614e918339815191520281526004018082600160a060020a0316600160a060020a03168152602001915050602060405180830381600087803b1580156144aa57600080fd5b505af11580156144be573d6000803e3d6000fd5b505050506040513d60208110156144d457600080fd5b50519150600160a060020a0385163014156145d45780600160a060020a031663a0712d68856040518263ffffffff16600080516020614e9183398151915202815260040180828152602001915050602060405180830381600087803b15801561453c57600080fd5b505af1158015614550573d6000803e3d6000fd5b505050506040513d602081101561456657600080fd5b5051156145d457604080517f08c379a000000000000000000000000000000000000000000000000000000000815260206004820152601360248201527f636f6d706f756e64206d696e74206572726f7200000000000000000000000000604482015290519081900360640190fd5b60006145e6838563ffffffff614e7b16565b11611e9d57604080517f08c379a000000000000000000000000000000000000000000000000000000000815260206004820152600d60248201527f7472616e736665206572726f7200000000000000000000000000000000000000604482015290519081900360640190fd5b60048054604080517fbb34534c00000000000000000000000000000000000000000000000000000000815292830184905251600092600160a060020a039092169163bb34534c91602480830192602092919082900301818787803b1580156146b957600080fd5b505af11580156146cd573d6000803e3d6000fd5b505050506040513d60208110156146e357600080fd5b505192915050565b600054600160a060020a0316331461470257600080fd5b600254604080517ff2fde38b000000000000000000000000000000000000000000000000000000008152600160a060020a0384811660048301529151919092169163f2fde38b91602480830192600092919082900301818387803b15801561476957600080fd5b505af115801561477d573d6000803e3d6000fd5b5050505050565b6000806000806147948787612aa2565b909350915082158015906147a85750848310155b15156147b357600080fd5b50600160a060020a03861660009081526008602052604090206147d887333089613fd5565b600254604080517f867904b4000000000000000000000000000000000000000000000000000000008152336004820152602481018690529051600160a060020a039092169163867904b49160448082019260009290919082900301818387803b15801561484457600080fd5b505af1158015614858573d6000803e3d6000fd5b50506002546148769250899150600160a060020a0316888686614c95565b86600160a060020a03167f8a6a7f53b3c8fa1dc4b83e3f1be668c1b251ff8d44cdcb83eb3acec3fec6a788600260009054906101000a9004600160a060020a0316600160a060020a03166318160ddd6040518163ffffffff16600080516020614e91833981519152028152600401602060405180830381600087803b1580156148fe57600080fd5b505af1158015614912573d6000803e3d6000fd5b505050506040513d602081101561492857600080fd5b50516149338a611090565b600185015460408051938452602084019290925263ffffffff1682820152519081900360600190a2509095945050505050565b600254604080517f70a08231000000000000000000000000000000000000000000000000000000008152336004820152905160009283928392839283928392600160a060020a03909216916370a082319160248082019260209290919082900301818787803b1580156149d857600080fd5b505af11580156149ec573d6000803e3d6000fd5b505050506040513d6020811015614a0257600080fd5b5051881115614a1057600080fd5b614a1a8989612636565b90955093508415801590614a2e5750868510155b1515614a3957600080fd5b600260009054906101000a9004600160a060020a0316600160a060020a03166318160ddd6040518163ffffffff16600080516020614e91833981519152028152600401602060405180830381600087803b158015614a9657600080fd5b505af1158015614aaa573d6000803e3d6000fd5b505050506040513d6020811015614ac057600080fd5b50519250614acd89611090565b915081851080614ae657508185148015614ae657508288145b1515614aee57fe5b50600160a060020a0380891660009081526008602052604080822060025482517fa24835d1000000000000000000000000000000000000000000000000000000008152336004820152602481018d905292519194169263a24835d1926044808201939182900301818387803b158015614b6657600080fd5b505af1158015614b7a573d6000803e3d6000fd5b50505050614b8a89303388613fd5565b600254614ba390600160a060020a03168a8a8888614c95565b88600160a060020a03167f8a6a7f53b3c8fa1dc4b83e3f1be668c1b251ff8d44cdcb83eb3acec3fec6a788600260009054906101000a9004600160a060020a0316600160a060020a03166318160ddd6040518163ffffffff16600080516020614e91833981519152028152600401602060405180830381600087803b158015614c2b57600080fd5b505af1158015614c3f573d6000803e3d6000fd5b505050506040513d6020811015614c5557600080fd5b5051614c608c611090565b600185015460408051938452602084019290925263ffffffff1682820152519081900360600190a25092979650505050505050565b7f80000000000000000000000000000000000000000000000000000000000000008110614cbe57fe5b604080518481526020810184905280820183905290513391600160a060020a0387811692908916917f276856b36cbc45526a0ba64f44611557a2a8b68662c5388e9fe6d72e86e1c8cb919081900360600190a45050505050565b600054600160a060020a03163314614d2f57600080fd5b600260009054906101000a9004600160a060020a0316600160a060020a03166379ba50976040518163ffffffff16600080516020614e91833981519152028152600401600060405180830381600087803b158015614d8c57600080fd5b505af1158015610f2c573d6000803e3d6000fd5b600054600160a060020a03163314614db757600080fd5b82600160a060020a0381161515614dcd57600080fd5b82600160a060020a0381161515614de357600080fd5b83600160a060020a038116301415614dfa57600080fd5b85600160a060020a031663a9059cbb86866040518363ffffffff16600080516020614e918339815191520281526004018083600160a060020a0316600160a060020a0316815260200182815260200192505050600060405180830381600087803b158015614e6757600080fd5b505af11580156119d7573d6000803e3d6000fd5b600081831015614e8a57600080fd5b5090039056000000000100000000000000000000000000000000000000000000000000000000a165627a7a7230582099cbc9ca66a49b68b21b90020164227d1dbbfbfbba1c90ce3c5b466873058d9d0029",
  "source": "\npragma solidity ^0.4.26;\n\nimport \"../bancorContracts/solidity/contracts/token/interfaces/IERC20Token.sol\";\nimport \"../bancorContracts/solidity/contracts/converter/BancorConverter.sol\";\n\n\nimport \"./interfaces/ICToken.sol\";\n\ncontract BCConverter is BancorConverter {\n\n    uint constant MAX_UINT = 2**256 - 1;\n\n    mapping(address => ICToken) public uTokens2cTokens;\n    mapping(address => IERC20Token) public cTokens2uTokens;\n\n    constructor(\n        ISmartToken _token,\n        IContractRegistry _registry,\n        uint32 _maxConversionFee,\n        IERC20Token _reserveToken,\n        uint32 _reserveRatio\n    ) \n        BancorConverter(\n            _token,\n            _registry,\n            _maxConversionFee,\n            _reserveToken,\n            _reserveRatio\n        )\n        public\n    {\n\n    }\n\n    // Overloading the addReseve function to add the compound token for a given underlying token\n\n    /**\n      * @dev all compound tokens going to be listed should be passed through this function with their underlying token.\n      * \n      * @param _uToken    undelying token used by compound cToken\n      * @param _cToken    compound token contract address of the underlying token\n      * @param _ratio     constant reserve ratio, represented in ppm, 1-1000000\n      * \n    */\n\n    function addReserve(IERC20Token _uToken ,IERC20Token _cToken, uint32 _ratio)\n        public\n        ownerOnly\n        inactive\n        validAddress(_cToken)\n        notThis(_cToken)\n        validReserveRatio(_ratio)\n    {\n        addReserve(_cToken,_ratio);\n\n        // adding uToken to reserve without adding its ratio to the total ratio amount \n        // since both tokens are represented by the same asset at any time\n        // allowing both tokens to be swapped\n        ICToken cToken = ICToken(_cToken);\n        IERC20Token uToken = IERC20Token(cToken.underlying());\n        require(uToken == _uToken);\n\n        cTokens2uTokens[cToken] = uToken;\n        uTokens2cTokens[uToken] = cToken;\n\n        require(address(uToken) != address(token) && !reserves[uToken].isSet); // validate input\n        reserves[uToken].ratio = _ratio;\n        reserves[uToken].isVirtualBalanceEnabled = false;\n        reserves[uToken].virtualBalance = 0;\n        reserves[uToken].isSaleEnabled = true;\n        reserves[uToken].isSet = true;\n        uToken.approve(address(cToken),MAX_UINT);\n    }\n\n    /**\n      * @dev This function approves the underlying token used as reserve to be spent by the compound tokens contracts\n      * it is most likely to not be called, since apporval of the underlying token is set max_uint for the compound token\n      * it is just a safety measure.\n      * \n    */\n\n    function approveTokensToCompound() public {\n        for (uint16 i = 0; i < reserveTokens.length; i++) {\n            IERC20Token reserveToken = reserveTokens[i];\n            IERC20Token uToken = cTokens2uTokens[reserveToken];\n            if(address(uToken) != address(0x0)) uToken.approve(reserveToken,MAX_UINT);\n        }\n    } \n\n    /**\n      * @dev This function aims to automate the minting of coumpound tokens when adding its underlying tokens to the reserve\n      * It allow also the deposit of any reserve token, user should first approve the ERC20 transer.\n      * \n      * @param _reserveToken  token address\n      * @param _amount    token amount to be deposited\n      * \n    */\n\n    function addReserveBalance(IERC20Token _reserveToken, uint _amount) \n        public\n        ownerOnly\n        validReserve(_reserveToken)\n        inactive\n    {\n        ensureTransferFrom(_reserveToken, msg.sender, this, _amount);\n    }\n\n    /**\n      * @dev returns the converted value of an underlying amount in compound to compound tokens value\n      * \n      * @param _uToken    underlying token address used as asset in compound token contract\n      * @param _cToken    compound token contract address of the underlying token\n      * @param _uAmount   underlying amount to convert\n      * \n      * @return converted underlying amount\n    */\n\n    function uAmount2cAmount(IERC20Token _uToken, ICToken _cToken, uint _uAmount) public view returns(uint) {\n        return _uAmount.mul(10**uint(_uToken.decimals())).div(_cToken.exchangeRateCurrent());\n    }\n\n    /**\n      * @dev returns the converted value of a compound token to its underlying token value\n      * \n      * @param _cToken    compound token contract address of the underlying token \n      * @param _uToken    underlying token address used as asset in compound token contract\n      * @param _cAmount   compound token amount to convert\n      * \n      * @return converted compound token amount\n    */\n\n    function cAmount2uAmount(ICToken _cToken, IERC20Token _uToken, uint _cAmount) public view returns(uint) {\n        return _cAmount.mul(_cToken.exchangeRateCurrent()).div(10**uint(_uToken.decimals()));\n    }\n\n    /**\n      * @dev returns the reserve's balance following the token address, if the token is an underlying token\n      * is hold by compound ctoken contract.\n      * note that prior to version 17, you should use 'getConnectorBalance' instead\n      * \n      * @param _reserveToken    reserve token contract address\n      * \n      * @return reserve balance\n    */\n    function getReserveBalance(IERC20Token _reserveToken)\n        public\n        view\n        validReserve(_reserveToken)\n        returns (uint256)\n    {\n        ICToken cToken = uTokens2cTokens[_reserveToken];\n\n        if (address(cToken) == address(0x0))  {\n            return _reserveToken.balanceOf(this);\n        }\n        else {\n            return cToken.balanceOfUnderlying(this);        \n        }\n    }\n     \n    // ensureTransferFrom was modified to mint or redeem compound tokens balance in some specific cases: \n    // - If _token is an underlying token, with its compound token set in uTokens2cTokens mapping:\n    //   - When transfering it outside of the contract, the needed value should be first redeemed then transfered.\n    //   - Following bancor flow, if someone calls any conversion functions implemented in this contract the tokens should \n    //     be transfered to BancorNetwork without no minting or redeem.\n    //   - When the underlying tokens are deposited to the contract, that same balance is converted to compound through \"mint\"\n    // - If _token is not an underlying token but its compound token or another token listed in the reserve the reimplemented \n    //   function will behave the same as the implemented function in the inherited contract.\n\n    // The function was changed to return a value that is being transfered due to \"Truncation-Related Issues\" as mentioned in \n    // https://blog.openzeppelin.com/compound-audit/, a truncation always happens when minting/redeeming tokens due to compound\n    // implementation, meaning that if you mint x amount and redeem the total amount in the same transaction the value returned\n    // is slightly lower than the initial amount used to mint cTokens. This issue is making the amount return by compound when\n    // redeeming tokens not predictable (by a very small value)\n\n    function ensureTransferFrom(IERC20Token _token, address _from, address _to, uint256 _amount) private {\n\n        // We must assume that functions `transfer` and `transferFrom` do not return anything,\n        // because not all tokens abide the requirement of the ERC20 standard to return success or failure.\n        // This is because in the current compiler version, the calling contract can handle more returned data than expected but not less.\n        // This may change in the future, so that the calling contract will revert if the size of the data is not exactly what it expects.\n\n        uint prevBalance = _token.balanceOf(_to);\n        uint nextBalance;\n        ICToken cToken = uTokens2cTokens[_token];\n\n        if(cToken==address(0))\n        {\n            if (_from == address(this)) INonStandardERC20(_token).transfer(_to, _amount);\n            else INonStandardERC20(_token).transferFrom(_from, _to, _amount);\n            nextBalance = _token.balanceOf(_to);\n        } \n        else \n        {\n            if (_from == address(this)) \n            {\n                require(cToken.redeemUnderlying(_amount)==0,\"compound redeem error\"); \n                INonStandardERC20(_token).transfer(_to,_amount);\n                nextBalance = _token.balanceOf(_to);\n               \n            }\n            else \n            {\n                INonStandardERC20(_token).transferFrom(_from, _to, _amount);\n                nextBalance = _token.balanceOf(_to);\n                if(_to == address(this)) require(cToken.mint(_amount)==0,\"compound mint error\");\n            }\n        }\n\n        require(nextBalance.sub(prevBalance)>0,\"transfe error\");\n        \n    }\n\n    // Disable upgrade since this converter contract is different than normal bancorConverter\n    // to enable it bancor upgrader contract has to take this logic into account, please note\n    // that this procedure was done to avoid any possible issue with the asset held by the contract.\n\n    function upgrade() public ownerOnly {\n\n    }\n\n    // Funding will accept underlying tokens or their corresponding compound tokens plus any other token listed as a reserve\n\n    function fund(uint256 _amount)\n        public\n        multipleReservesOnly\n    {\n        uint256 supply = token.totalSupply();\n        IBancorFormula formula = IBancorFormula(addressOf(BANCOR_FORMULA));\n\n        // iterate through the reserve tokens and transfer a percentage equal to the ratio between _amount\n        // and the total supply in each reserve from the caller to the converter\n        for (uint16 i = 0; i < reserveTokens.length; i++) {\n\n            IERC20Token reserveToken;\n            \n            uint256 reserveBalance;\n            uint256 reserveAmount;\n            \n            reserveToken = reserveTokens[i];\n            \n            // ---------------------------------------------------------------------//\n            // changed reserveToken.balanceOf(this) to getReserveBalance(reserveToken)\n            // ---------------------------------------------------------------------//\n            reserveBalance = getReserveBalance(reserveToken);\n            reserveAmount = formula.calculateFundCost(supply, reserveBalance, totalReserveRatio, _amount);\n\n            // ---------------------------------------------------------------------//\n            // first check of the user approve enough compound tokens to the contract\n            // if not we switch to the underlying token since a user can aprove either\n            // ones-----------------------------------------------------------------//\n            // ---------------------------------------------------------------------//\n            IERC20Token uToken = cTokens2uTokens[reserveToken];\n            if( uToken != address(0) ) \n            {\n                if( reserveToken.allowance(msg.sender,this) < reserveAmount || reserveToken.balanceOf(msg.sender) < reserveAmount) {\n                    reserveToken = uToken;\n                    reserveBalance = getReserveBalance(reserveToken);\n                    reserveAmount = formula.calculateFundCost(supply, reserveBalance, totalReserveRatio, _amount);\n                }\n            }\n\n            Reserve storage reserve = reserves[reserveToken];\n            // transfer funds from the caller in the reserve token\n            ensureTransferFrom(reserveToken, msg.sender, this, reserveAmount);\n\n            // dispatch price data update for the smart token/reserve\n            emit PriceDataUpdate(reserveToken, supply + _amount, reserveBalance +reserveAmount, reserve.ratio);\n        }\n        // issue new funds to the caller in the smart token\n        token.issue(msg.sender, _amount);\n    }\n\n    // Liquidate will only return underlying tokens, in the opposite of funding function that accepts both underlying and \n    // compound tokens\n\n    function liquidate(uint256 _amount)\n        public\n        multipleReservesOnly\n    {\n        uint256 supply = token.totalSupply();\n        IBancorFormula formula = IBancorFormula(addressOf(BANCOR_FORMULA));\n\n        // destroy _amount from the caller's balance in the smart token\n        token.destroy(msg.sender, _amount);\n\n        // iterate through the reserve tokens and send a percentage equal to the ratio between _amount\n        // and the total supply from each reserve balance to the caller\n        IERC20Token reserveToken;\n        uint256 reserveBalance;\n        uint256 reserveAmount;\n        for (uint16 i = 0; i < reserveTokens.length; i++) {\n            reserveToken = reserveTokens[i];\n\n            // ---------------------------------------------------------------------//\n            // if the reserve token is cToken switch it to its corresponding underlying\n            // ---------------------------------------------------------------------//\n            IERC20Token uToken = cTokens2uTokens[reserveToken];\n            if(uToken != address(0)) reserveToken = uToken;\n\n            // ---------------------------------------------------------------------//\n            // changed reserveToken.balanceOf(this) to getReserveBalance(reserveToken)\n            // ---------------------------------------------------------------------//\n            reserveBalance = getReserveBalance(reserveToken);\n            reserveAmount = formula.calculateLiquidateReturn(supply, reserveBalance, totalReserveRatio, _amount);\n\n            Reserve storage reserve = reserves[reserveToken];\n\n            // transfer funds to the caller in the reserve token\n            ensureTransferFrom(reserveToken, this, msg.sender, reserveAmount);\n\n            // dispatch price data update for the smart token/reserve\n            emit PriceDataUpdate(reserveToken, supply - _amount, reserveBalance - reserveAmount, reserve.ratio);\n        }\n    }\n\n\n    // ----------------------------------------------------------------------------------------------------------------- //\n    // ----------------------------------------------------------------------------------------------------------------- //\n    // ----------------------------------------------------------------------------------------------------------------- //\n    // Minimal changes have been done to the functions below, mainly the XXXX.balanceOf(this) was replaced with  ------- //\n    // getReserveBalance(XXXX) since the underlying balance has to be converted from the compound balance--------------- //\n    // The changes can be submited as PR on the main repo BancorConverter without risk since this contract-------------- //\n    // ----------------------------------------------------------------------------------------------------------------- //\n    // ----------------------------------------------------------------------------------------------------------------- //\n    // ----------------------------------------------------------------------------------------------------------------- //\n\n\n\n    function convertInternal(IERC20Token _fromToken, IERC20Token _toToken, uint256 _amount, uint256 _minReturn)\n        public\n        only(BANCOR_NETWORK)\n        greaterThanZero(_minReturn)\n        returns (uint256)\n    {\n        require(_fromToken != _toToken); // validate input\n\n        // conversion between the token and one of its reserves\n        if (_toToken == token)\n            return buy(_fromToken, _amount, _minReturn);\n        else if (_fromToken == token)\n            return sell(_toToken, _amount, _minReturn);\n\n        uint256 amount;\n        uint256 feeAmount;\n\n        // conversion between 2 reserves\n        (amount, feeAmount) = getCrossReserveReturn(_fromToken, _toToken, _amount);\n        // ensure the trade gives something in return and meets the minimum requested amount\n        require(amount != 0 && amount >= _minReturn);\n\n        Reserve storage fromReserve = reserves[_fromToken];\n        Reserve storage toReserve = reserves[_toToken];\n\n        // ensure that the trade won't deplete the reserve balance\n        // ---------------------------------------------------------------------//\n        // changed _toToken.balanceOf(this) to getReserveBalance(_toToken)\n        // ---------------------------------------------------------------------//\n        uint256 toReserveBalance = getReserveBalance(_toToken);\n        assert(amount < toReserveBalance);\n\n        // transfer funds from the caller in the from reserve token\n        ensureTransferFrom(_fromToken, msg.sender, this, _amount);\n        // transfer funds to the caller in the to reserve token\n        ensureTransferFrom(_toToken, this, msg.sender, amount);\n\n        // dispatch the conversion event\n        // the fee is higher (magnitude = 2) since cross reserve conversion equals 2 conversions (from / to the smart token)\n        dispatchConversionEvent(_fromToken, _toToken, _amount, amount, feeAmount);\n\n        // dispatch price data updates for the smart token / both reserves\n        // ---------------------------------------------------------------------//\n        // changed _fromToken.balanceOf(this) to getReserveBalance(_fromToken)\n        // ---------------------------------------------------------------------//\n        emit PriceDataUpdate(_fromToken, token.totalSupply(), getReserveBalance(_fromToken), fromReserve.ratio);\n        // ---------------------------------------------------------------------//\n        // changed _toToken.balanceOf(this) to getReserveBalance(_toToken)\n        // ---------------------------------------------------------------------//\n        emit PriceDataUpdate(_toToken, token.totalSupply(), getReserveBalance(_toToken), toReserve.ratio);\n        return amount;\n    }\n\n    function buy(IERC20Token _reserveToken, uint256 _depositAmount, uint256 _minReturn) internal returns (uint256) {\n        uint256 amount;\n        uint256 feeAmount;\n        (amount, feeAmount) = getPurchaseReturn(_reserveToken, _depositAmount);\n        // ensure the trade gives something in return and meets the minimum requested amount\n        require(amount != 0 && amount >= _minReturn);\n\n        Reserve storage reserve = reserves[_reserveToken];\n\n        // transfer funds from the caller in the reserve token\n        ensureTransferFrom(_reserveToken, msg.sender, this, _depositAmount);\n        // issue new funds to the caller in the smart token\n        token.issue(msg.sender, amount);\n\n        // dispatch the conversion event\n        dispatchConversionEvent(_reserveToken, token, _depositAmount, amount, feeAmount);\n\n        // dispatch price data update for the smart token/reserve\n        // -----------------------------------------------------------------------//\n        // changed _reserveToken.balanceOf(this) to getReserveBalance(_reserveToken)\n        // -----------------------------------------------------------------------//\n        emit PriceDataUpdate(_reserveToken, token.totalSupply(), getReserveBalance(_reserveToken), reserve.ratio);\n        return amount;\n    }\n\n    function sell(IERC20Token _reserveToken, uint256 _sellAmount, uint256 _minReturn) internal returns (uint256) {\n        require(_sellAmount <= token.balanceOf(msg.sender)); // validate input\n        uint256 amount;\n        uint256 feeAmount;\n        (amount, feeAmount) = getSaleReturn(_reserveToken, _sellAmount);\n        // ensure the trade gives something in return and meets the minimum requested amount\n        require(amount != 0 && amount >= _minReturn);\n\n        // ensure that the trade will only deplete the reserve balance if the total supply is depleted as well\n        uint256 tokenSupply = token.totalSupply();\n        // ---------------------------------------------------------------------//\n        // changed reserveToken.balanceOf(this) to getReserveBalance(reserveToken)\n        // ---------------------------------------------------------------------//\n        uint256 reserveBalance = getReserveBalance(_reserveToken);\n        assert(amount < reserveBalance || (amount == reserveBalance && _sellAmount == tokenSupply));\n\n        Reserve storage reserve = reserves[_reserveToken];\n\n        // destroy _sellAmount from the caller's balance in the smart token\n        token.destroy(msg.sender, _sellAmount);\n        // transfer funds to the caller in the reserve token\n        ensureTransferFrom(_reserveToken, this, msg.sender, amount);\n\n        // dispatch the conversion event\n        dispatchConversionEvent(token, _reserveToken, _sellAmount, amount, feeAmount);\n\n        // dispatch price data update for the smart token/reserve\n        // -----------------------------------------------------------------------//\n        // changed _reserveToken.balanceOf(this) to getReserveBalance(_reserveToken)\n        // -----------------------------------------------------------------------//\n        emit PriceDataUpdate(_reserveToken, token.totalSupply(), getReserveBalance(_reserveToken), reserve.ratio);\n        return amount;\n    }\n\n    function getPurchaseReturn(IERC20Token _reserveToken, uint256 _depositAmount)\n        public\n        view\n        active\n        validReserve(_reserveToken)\n        returns (uint256, uint256)\n    {\n        Reserve storage reserve = reserves[_reserveToken];\n\n        uint256 tokenSupply = token.totalSupply();\n        // ---------------------------------------------------------------------//\n        // changed _reserveToken.balanceOf(this) to getReserveBalance(_reserveToken)\n        // ---------------------------------------------------------------------//\n        uint256 reserveBalance = getReserveBalance(_reserveToken);\n        IBancorFormula formula = IBancorFormula(addressOf(BANCOR_FORMULA));\n        uint256 amount = formula.calculatePurchaseReturn(tokenSupply, reserveBalance, reserve.ratio, _depositAmount);\n        uint256 finalAmount = getFinalAmount(amount, 1);\n\n        // return the amount minus the conversion fee and the conversion fee\n        return (finalAmount, amount - finalAmount);\n    }\n\n    function getSaleReturn(IERC20Token _reserveToken, uint256 _sellAmount)\n        public\n        view\n        active\n        validReserve(_reserveToken)\n        returns (uint256, uint256)\n    {\n        Reserve storage reserve = reserves[_reserveToken];\n        uint256 tokenSupply = token.totalSupply();\n        // -----------------------------------------------------------------------//\n        // changed _reserveToken.balanceOf(this) to getReserveBalance(_reserveToken)\n        // -----------------------------------------------------------------------//\n        uint256 reserveBalance = getReserveBalance(_reserveToken); \n        IBancorFormula formula = IBancorFormula(addressOf(BANCOR_FORMULA));\n        uint256 amount = formula.calculateSaleReturn(tokenSupply, reserveBalance, reserve.ratio, _sellAmount);\n        uint256 finalAmount = getFinalAmount(amount, 1);\n\n        // return the amount minus the conversion fee and the conversion fee\n        return (finalAmount, amount - finalAmount);\n    }\n\n    //---------------------------------------------------------------------------------------------------------------//\n    // no changes were applied to dispatchConversionEvent , it was ported here because it was marked as private, meaning \n    // that it cannot be inherited ----------------------------------------------------------------------------------//\n    //---------------------------------------------------------------------------------------------------------------//\n\n    function dispatchConversionEvent(IERC20Token _fromToken, IERC20Token _toToken, uint256 _amount, uint256 _returnAmount, uint256 _feeAmount) private {\n        // fee amount is converted to 255 bits -\n        // negative amount means the fee is taken from the source token, positive amount means its taken from the target token\n        // currently the fee is always taken from the target token\n        // since we convert it to a signed number, we first ensure that it's capped at 255 bits to prevent overflow\n        assert(_feeAmount < 2 ** 255);\n        emit Conversion(_fromToken, _toToken, msg.sender, _amount, _returnAmount, int256(_feeAmount));\n    }\n\n    function getCrossReserveReturn(IERC20Token _fromReserveToken, IERC20Token _toReserveToken, uint256 _amount)\n        public\n        view\n        active\n        validReserve(_fromReserveToken)\n        validReserve(_toReserveToken)\n        returns (uint256, uint256)\n    {\n        Reserve storage fromReserve = reserves[_fromReserveToken];\n        Reserve storage toReserve = reserves[_toReserveToken];\n\n        // ---------------------------------------------------------------------//\n        // changed reserveToken.balanceOf(this) to getReserveBalance(xxxxxxxxx)\n        // ---------------------------------------------------------------------//\n        IBancorFormula formula = IBancorFormula(addressOf(BANCOR_FORMULA));\n        uint256 amount = formula.calculateCrossReserveReturn(\n            getReserveBalance(_fromReserveToken), \n            fromReserve.ratio, \n            getReserveBalance(_toReserveToken), \n            toReserve.ratio, \n            _amount);\n        uint256 finalAmount = getFinalAmount(amount, 2);\n\n        // return the amount minus the conversion fee and the conversion fee\n        // the fee is higher (magnitude = 2) since cross reserve conversion equals 2 conversions (from / to the smart token)\n        return (finalAmount, amount - finalAmount);\n    }\n\n    function quickConvert2(IERC20Token[] _path, uint256 _amount, uint256 _minReturn, address _affiliateAccount, uint256 _affiliateFee)\n        public\n        payable\n        returns (uint256)\n    {\n        IBancorNetwork bancorNetwork = IBancorNetwork(addressOf(BANCOR_NETWORK));\n\n        // we need to transfer the source tokens from the caller to the BancorNetwork contract,\n        // so it can execute the conversion on behalf of the caller\n        if (msg.value == 0) {\n            // not ETH, send the source tokens to the BancorNetwork contract\n            // if the token is the smart token, no allowance is required - destroy the tokens\n            // from the caller and issue them to the BancorNetwork contract\n            if (_path[0] == token) {\n                token.destroy(msg.sender, _amount); // destroy _amount tokens from the caller's balance in the smart token\n                token.issue(bancorNetwork, _amount); // issue _amount new tokens to the BancorNetwork contract\n            } else {\n                // otherwise, we assume we already have allowance, transfer the tokens directly to the BancorNetwork contract\n                ensureTransferFrom(_path[0], msg.sender, bancorNetwork, _amount);\n            }\n        }\n\n        // execute the conversion and pass on the ETH with the call\n        return bancorNetwork.convertFor2.value(msg.value)(_path, _amount, _minReturn, msg.sender, _affiliateAccount, _affiliateFee);\n    }\n\n    /**\n      * @dev calculates the expected return of converting a given amount of tokens\n      * \n      * @param _fromToken  contract address of the token to convert from\n      * @param _toToken    contract address of the token to convert to\n      * @param _amount     amount of tokens received from the user\n      * \n      * @return amount of tokens that the user will receive\n      * @return amount of tokens that the user will pay as fee\n    */\n    function getReturn(IERC20Token _fromToken, IERC20Token _toToken, uint256 _amount) public view returns (uint256, uint256) {\n        require(_fromToken != _toToken); // validate input\n\n        // conversion between the token and one of its reserves\n        if (_toToken == token)\n            return getPurchaseReturn(_fromToken, _amount);\n        else if (_fromToken == token)\n            return getSaleReturn(_toToken, _amount);\n\n        // conversion between 2 reserves\n        return getCrossReserveReturn(_fromToken, _toToken, _amount);\n    }\n\n    /**\n      * @dev converts a specific amount of _fromToken to _toToken\n      * note that prior to version 16, you should use 'convert' instead\n      * \n      * @param _fromToken           ERC20 token to convert from\n      * @param _toToken             ERC20 token to convert to\n      * @param _amount              amount to convert, in fromToken\n      * @param _minReturn           if the conversion results in an amount smaller than the minimum return - it is cancelled, must be nonzero\n      * @param _affiliateAccount    affiliate account\n      * @param _affiliateFee        affiliate fee in PPM\n      * \n      * @return conversion return amount\n    */\n    function convert2(IERC20Token _fromToken, IERC20Token _toToken, uint256 _amount, uint256 _minReturn, address _affiliateAccount, uint256 _affiliateFee) public returns (uint256) {\n        IERC20Token[] memory path = new IERC20Token[](3);\n        (path[0], path[1], path[2]) = (_fromToken, token, _toToken);\n        return quickConvert2(path, _amount, _minReturn, _affiliateAccount, _affiliateFee);\n    }\n\n     /**\n      * @dev deprecated, backward compatibility\n    */\n    function change(IERC20Token _fromToken, IERC20Token _toToken, uint256 _amount, uint256 _minReturn) public returns (uint256) {\n        return convertInternal(_fromToken, _toToken, _amount, _minReturn);\n    }\n\n    /**\n      * @dev deprecated, backward compatibility\n    */\n    function convert(IERC20Token _fromToken, IERC20Token _toToken, uint256 _amount, uint256 _minReturn) public returns (uint256) {\n        return convert2(_fromToken, _toToken, _amount, _minReturn, address(0), 0);\n    }\n\n    /**\n      * @dev deprecated, backward compatibility\n    */\n    function quickConvert(IERC20Token[] _path, uint256 _amount, uint256 _minReturn) public payable returns (uint256) {\n        return quickConvert2(_path, _amount, _minReturn, address(0), 0);\n    }\n\n    /**\n      * @dev deprecated, backward compatibility\n    */\n    function quickConvertPrioritized2(IERC20Token[] _path, uint256 _amount, uint256 _minReturn, uint256[] memory, address _affiliateAccount, uint256 _affiliateFee) public payable returns (uint256) {\n        return quickConvert2(_path, _amount, _minReturn, _affiliateAccount, _affiliateFee);\n    }\n\n    /**\n      * @dev deprecated, backward compatibility\n    */\n    function quickConvertPrioritized(IERC20Token[] _path, uint256 _amount, uint256 _minReturn, uint256, uint8, bytes32, bytes32) public payable returns (uint256) {\n        return quickConvert2(_path, _amount, _minReturn, address(0), 0);\n    }\n\n    /**\n      * @dev deprecated, backward compatibility\n    */\n    function completeXConversion(IERC20Token[] _path, uint256 _minReturn, uint256 _conversionId, uint256, uint8, bytes32, bytes32) public returns (uint256) {\n        return completeXConversion2(_path, _minReturn, _conversionId);\n    }\n\n    /**\n      * @dev deprecated, backward compatibility\n    */\n    function connectors(address _address) public view returns (uint256, uint32, bool, bool, bool) {\n        Reserve storage reserve = reserves[_address];\n        return(reserve.virtualBalance, reserve.ratio, reserve.isVirtualBalanceEnabled, reserve.isSaleEnabled, reserve.isSet);\n    }\n\n    /**\n      * @dev deprecated, backward compatibility\n    */\n    function connectorTokens(uint256 _index) public view returns (IERC20Token) {\n        return BancorConverter.reserveTokens[_index];\n    }\n\n    /**\n      * @dev deprecated, backward compatibility\n    */\n    function connectorTokenCount() public view returns (uint16) {\n        return reserveTokenCount();\n    }\n\n    /**\n      * @dev deprecated, backward compatibility\n    */\n    function addConnector(IERC20Token _token, uint32 _weight, bool /*_enableVirtualBalance*/) public {\n        addReserve(_token, _weight);\n    }\n\n    /**\n      * @dev deprecated, backward compatibility\n    */\n    function updateConnector(IERC20Token _connectorToken, uint32 /*_weight*/, bool /*_enableVirtualBalance*/, uint256 _virtualBalance) public {\n        updateReserveVirtualBalance(_connectorToken, _virtualBalance);\n    }\n\n    /**\n      * @dev deprecated, backward compatibility\n    */\n    function getConnectorBalance(IERC20Token _connectorToken) public view returns (uint256) {\n        return getReserveBalance(_connectorToken);\n    }\n\n    /**\n      * @dev deprecated, backward compatibility\n    */\n    function getCrossConnectorReturn(IERC20Token _fromConnectorToken, IERC20Token _toConnectorToken, uint256 _amount) public view returns (uint256, uint256) {\n        return getCrossReserveReturn(_fromConnectorToken, _toConnectorToken, _amount);\n    }\n}\n",
  "sourcePath": "/home/faycal/Desktop/projects/BancorCompoundPool/contracts/BCConverter.sol",
  "compiler": {
    "name": "solc",
    "version": "0.4.26+commit.4563c3fc.Emscripten.clang"
  },
  "schemaVersion": "3.1.0",
  "updatedAt": "2020-04-17T22:33:15.843Z",
  "networkType": "ethereum",
  "devdoc": {
    "methods": {
      "acceptOwnership()": {
        "details": "used by a new owner to accept an ownership transfer\r"
      },
      "acceptTokenOwnership()": {
        "details": "used by a new owner to accept a token ownership transfer\r can only be called by the contract owner\r note that token ownership can only be accepted if its total-supply is greater than zero\r"
      },
      "addConnector(address,uint32,bool)": {
        "details": "deprecated, backward compatibility"
      },
      "addReserve(address,address,uint32)": {
        "details": "all compound tokens going to be listed should be passed through this function with their underlying token. ",
        "params": {
          "_cToken": "compound token contract address of the underlying token",
          "_ratio": "constant reserve ratio, represented in ppm, 1-1000000     ",
          "_uToken": "undelying token used by compound cToken"
        }
      },
      "addReserve(address,uint32)": {
        "details": "defines a new reserve for the token\r can only be called by the owner while the converter is inactive\r note that prior to version 17, you should use 'addConnector' instead\r \r",
        "params": {
          "_ratio": "constant reserve ratio, represented in ppm, 1-1000000\r",
          "_token": "address of the reserve token\r"
        }
      },
      "addReserveBalance(address,uint256)": {
        "details": "This function aims to automate the minting of coumpound tokens when adding its underlying tokens to the reserve It allow also the deposit of any reserve token, user should first approve the ERC20 transer. ",
        "params": {
          "_amount": "token amount to be deposited     ",
          "_reserveToken": "token address"
        }
      },
      "approveTokensToCompound()": {
        "details": "This function approves the underlying token used as reserve to be spent by the compound tokens contracts it is most likely to not be called, since apporval of the underlying token is set max_uint for the compound token it is just a safety measure.     "
      },
      "cAmount2uAmount(address,address,uint256)": {
        "details": "returns the converted value of a compound token to its underlying token value ",
        "params": {
          "_cAmount": "compound token amount to convert ",
          "_cToken": "compound token contract address of the underlying token ",
          "_uToken": "underlying token address used as asset in compound token contract"
        },
        "return": "converted compound token amount"
      },
      "change(address,address,uint256,uint256)": {
        "details": "deprecated, backward compatibility"
      },
      "claimTokens(address,uint256)": {
        "details": "allows the associated BancorX contract to claim tokens from any address (so that users\r dont have to first give allowance when calling BancorX)\r \r",
        "params": {
          "_amount": "the amount of tokens to claim\r",
          "_from": "address to claim the tokens from\r"
        }
      },
      "completeXConversion(address[],uint256,uint256,uint256,uint8,bytes32,bytes32)": {
        "details": "deprecated, backward compatibility"
      },
      "completeXConversion2(address[],uint256,uint256)": {
        "details": "allows a user to convert BNT that was sent from another blockchain into any other\r token on the BancorNetwork without specifying the amount of BNT to be converted, but\r rather by providing the xTransferId which allows us to get the amount from BancorX.\r note that prior to version 16, you should use 'completeXConversion' instead\r \r",
        "params": {
          "_conversionId": "pre-determined unique (if non zero) id which refers to this transaction \r \r",
          "_minReturn": "if the conversion results in an amount smaller than the minimum return - it is cancelled, must be nonzero\r",
          "_path": "conversion path, see conversion path format in the BancorNetwork contract\r"
        },
        "return": "tokens issued in return\r"
      },
      "connectorTokenCount()": {
        "details": "deprecated, backward compatibility"
      },
      "connectorTokens(uint256)": {
        "details": "deprecated, backward compatibility"
      },
      "connectors(address)": {
        "details": "deprecated, backward compatibility"
      },
      "convert(address,address,uint256,uint256)": {
        "details": "deprecated, backward compatibility"
      },
      "convert2(address,address,uint256,uint256,address,uint256)": {
        "details": "converts a specific amount of _fromToken to _toToken note that prior to version 16, you should use 'convert' instead ",
        "params": {
          "_affiliateAccount": "affiliate account",
          "_affiliateFee": "affiliate fee in PPM ",
          "_amount": "amount to convert, in fromToken",
          "_fromToken": "ERC20 token to convert from",
          "_minReturn": "if the conversion results in an amount smaller than the minimum return - it is cancelled, must be nonzero",
          "_toToken": "ERC20 token to convert to"
        },
        "return": "conversion return amount"
      },
      "getConnectorBalance(address)": {
        "details": "deprecated, backward compatibility"
      },
      "getCrossConnectorReturn(address,address,uint256)": {
        "details": "deprecated, backward compatibility"
      },
      "getFinalAmount(uint256,uint8)": {
        "details": "given a return amount, returns the amount minus the conversion fee\r \r",
        "params": {
          "_amount": "return amount\r",
          "_magnitude": "1 for standard conversion, 2 for cross reserve conversion\r \r"
        },
        "return": "return amount minus conversion fee\r"
      },
      "getReserveBalance(address)": {
        "details": "returns the reserve's balance following the token address, if the token is an underlying token is hold by compound ctoken contract. note that prior to version 17, you should use 'getConnectorBalance' instead ",
        "params": {
          "_reserveToken": "reserve token contract address "
        },
        "return": "reserve balance"
      },
      "getReserveRatio(address)": {
        "details": "returns the reserve's ratio\r added in version 22\r \r",
        "params": {
          "_reserveToken": "reserve token contract address\r \r"
        },
        "return": "reserve ratio\r"
      },
      "getReturn(address,address,uint256)": {
        "details": "calculates the expected return of converting a given amount of tokens ",
        "params": {
          "_amount": "amount of tokens received from the user ",
          "_fromToken": "contract address of the token to convert from",
          "_toToken": "contract address of the token to convert to"
        },
        "return": "amount of tokens that the user will receiveamount of tokens that the user will pay as fee"
      },
      "quickConvert(address[],uint256,uint256)": {
        "details": "deprecated, backward compatibility"
      },
      "quickConvertPrioritized(address[],uint256,uint256,uint256,uint8,bytes32,bytes32)": {
        "details": "deprecated, backward compatibility"
      },
      "quickConvertPrioritized2(address[],uint256,uint256,uint256[],address,uint256)": {
        "details": "deprecated, backward compatibility"
      },
      "reserveTokenCount()": {
        "details": "returns the number of reserve tokens defined\r note that prior to version 17, you should use 'connectorTokenCount' instead\r \r",
        "return": "number of reserve tokens\r"
      },
      "restoreRegistry()": {
        "details": "restores the previous contract-registry\r"
      },
      "restrictRegistryUpdate(bool)": {
        "details": "restricts the permission to update the contract-registry\r \r",
        "params": {
          "_onlyOwnerCanUpdateRegistry": "indicates whether or not permission is restricted to owner only\r"
        }
      },
      "setBancorX(address)": {
        "details": "allows the owner to set the associated BancorX contract\r",
        "params": {
          "_bancorX": "BancorX contract\r"
        }
      },
      "setConversionFee(uint32)": {
        "details": "updates the current conversion fee\r can only be called by the contract owner\r \r",
        "params": {
          "_conversionFee": "new conversion fee, represented in ppm\r"
        }
      },
      "setConversionWhitelist(address)": {
        "details": "allows the owner to update & enable the conversion whitelist contract address\r when set, only addresses that are whitelisted are actually allowed to use the converter\r note that the whitelist check is actually done by the BancorNetwork contract\r \r",
        "params": {
          "_whitelist": "address of a whitelist contract\r"
        }
      },
      "transferOwnership(address)": {
        "details": "allows transferring the contract ownership\r the new owner still needs to accept the transfer\r can only be called by the contract owner\r \r",
        "params": {
          "_newOwner": "new contract owner\r"
        }
      },
      "transferTokenOwnership(address)": {
        "details": "allows transferring the token ownership\r the new owner needs to accept the transfer\r can only be called by the contract owner\r note that token ownership can only be transferred while the owner is the converter upgrader contract\r \r",
        "params": {
          "_newOwner": "new token owner\r"
        }
      },
      "uAmount2cAmount(address,address,uint256)": {
        "details": "returns the converted value of an underlying amount in compound to compound tokens value ",
        "params": {
          "_cToken": "compound token contract address of the underlying token",
          "_uAmount": "underlying amount to convert ",
          "_uToken": "underlying token address used as asset in compound token contract"
        },
        "return": "converted underlying amount"
      },
      "updateConnector(address,uint32,bool,uint256)": {
        "details": "deprecated, backward compatibility"
      },
      "updateRegistry()": {
        "details": "updates to the new contract-registry\r"
      },
      "updateReserveVirtualBalance(address,uint256)": {
        "details": "updates a reserve's virtual balance\r only used during an upgrade process\r can only be called by the contract owner while the owner is the converter upgrader contract\r note that prior to version 17, you should use 'updateConnector' instead\r \r",
        "params": {
          "_reserveToken": "address of the reserve token\r",
          "_virtualBalance": "new reserve virtual balance, or 0 to disable virtual balance\r"
        }
      },
      "withdrawFromToken(address,address,uint256)": {
        "details": "withdraws tokens held by the controller and sends them to an account\r can only be called by the owner\r \r",
        "params": {
          "_amount": "amount to withdraw\r",
          "_to": "account to receive the new amount\r",
          "_token": "ERC20 token contract address\r"
        }
      },
      "withdrawTokens(address,address,uint256)": {
        "details": "withdraws tokens held by the converter and sends them to an account\r can only be called by the owner\r note that reserve tokens can only be withdrawn by the owner while the converter is inactive\r unless the owner is the converter upgrader contract\r \r",
        "params": {
          "_amount": "amount to withdraw\r",
          "_to": "account to receive the new amount\r",
          "_token": "ERC20 token contract address\r"
        }
      }
    }
  },
  "userdoc": {
    "methods": {}
  }
}