{
  "contractName": "ContractRegistry",
  "abi": [
    {
      "constant": true,
      "inputs": [
        {
          "name": "",
          "type": "uint256"
        }
      ],
      "name": "contractNames",
      "outputs": [
        {
          "name": "",
          "type": "string"
        }
      ],
      "payable": false,
      "stateMutability": "view",
      "type": "function"
    },
    {
      "constant": false,
      "inputs": [],
      "name": "acceptOwnership",
      "outputs": [],
      "payable": false,
      "stateMutability": "nonpayable",
      "type": "function"
    },
    {
      "constant": true,
      "inputs": [],
      "name": "owner",
      "outputs": [
        {
          "name": "",
          "type": "address"
        }
      ],
      "payable": false,
      "stateMutability": "view",
      "type": "function"
    },
    {
      "constant": true,
      "inputs": [],
      "name": "newOwner",
      "outputs": [
        {
          "name": "",
          "type": "address"
        }
      ],
      "payable": false,
      "stateMutability": "view",
      "type": "function"
    },
    {
      "constant": false,
      "inputs": [
        {
          "name": "_newOwner",
          "type": "address"
        }
      ],
      "name": "transferOwnership",
      "outputs": [],
      "payable": false,
      "stateMutability": "nonpayable",
      "type": "function"
    },
    {
      "anonymous": false,
      "inputs": [
        {
          "indexed": true,
          "name": "_contractName",
          "type": "bytes32"
        },
        {
          "indexed": false,
          "name": "_contractAddress",
          "type": "address"
        }
      ],
      "name": "AddressUpdate",
      "type": "event"
    },
    {
      "anonymous": false,
      "inputs": [
        {
          "indexed": true,
          "name": "_prevOwner",
          "type": "address"
        },
        {
          "indexed": true,
          "name": "_newOwner",
          "type": "address"
        }
      ],
      "name": "OwnerUpdate",
      "type": "event"
    },
    {
      "constant": true,
      "inputs": [],
      "name": "itemCount",
      "outputs": [
        {
          "name": "",
          "type": "uint256"
        }
      ],
      "payable": false,
      "stateMutability": "view",
      "type": "function"
    },
    {
      "constant": true,
      "inputs": [
        {
          "name": "_contractName",
          "type": "bytes32"
        }
      ],
      "name": "addressOf",
      "outputs": [
        {
          "name": "",
          "type": "address"
        }
      ],
      "payable": false,
      "stateMutability": "view",
      "type": "function"
    },
    {
      "constant": false,
      "inputs": [
        {
          "name": "_contractName",
          "type": "bytes32"
        },
        {
          "name": "_contractAddress",
          "type": "address"
        }
      ],
      "name": "registerAddress",
      "outputs": [],
      "payable": false,
      "stateMutability": "nonpayable",
      "type": "function"
    },
    {
      "constant": false,
      "inputs": [
        {
          "name": "_contractName",
          "type": "bytes32"
        }
      ],
      "name": "unregisterAddress",
      "outputs": [],
      "payable": false,
      "stateMutability": "nonpayable",
      "type": "function"
    },
    {
      "constant": true,
      "inputs": [
        {
          "name": "_contractName",
          "type": "bytes32"
        }
      ],
      "name": "getAddress",
      "outputs": [
        {
          "name": "",
          "type": "address"
        }
      ],
      "payable": false,
      "stateMutability": "view",
      "type": "function"
    }
  ],
  "bytecode": "0x608060405260008054600160a060020a03191633179055610a16806100256000396000f3006080604052600436106100a35763ffffffff7c010000000000000000000000000000000000000000000000000000000060003504166321f8a72181146100a85780632bbd9530146100e95780633ca6bb9214610103578063662de379146101905780636bfb0d01146101c157806379ba5097146101e85780638da5cb5b146101fd578063bb34534c14610212578063d4ee1d901461022a578063f2fde38b1461023f575b600080fd5b3480156100b457600080fd5b506100c060043561026d565b6040805173ffffffffffffffffffffffffffffffffffffffff9092168252519081900360200190f35b3480156100f557600080fd5b5061010160043561027e565b005b34801561010f57600080fd5b5061011b600435610483565b6040805160208082528351818301528351919283929083019185019080838360005b8381101561015557818101518382015260200161013d565b50505050905090810190601f1680156101825780820380516001836020036101000a031916815260200191505b509250505060405180910390f35b34801561019c57600080fd5b5061010160043573ffffffffffffffffffffffffffffffffffffffff6024351661052a565b3480156101cd57600080fd5b506101d661066d565b60408051918252519081900360200190f35b3480156101f457600080fd5b50610101610674565b34801561020957600080fd5b506100c0610723565b34801561021e57600080fd5b506100c060043561073f565b34801561023657600080fd5b506100c0610767565b34801561024b57600080fd5b5061010173ffffffffffffffffffffffffffffffffffffffff60043516610783565b60006102788261073f565b92915050565b60008054606091908190819073ffffffffffffffffffffffffffffffffffffffff1633146102ab57600080fd5b60008581526002602052604090205473ffffffffffffffffffffffffffffffffffffffff1615156102db57600080fd5b6000858152600260205260409020805473ffffffffffffffffffffffffffffffffffffffff19169055600354600110156104205760038054600019810190811061032157fe5b600091825260209182902001805460408051601f60026000196101006001871615020190941693909304928301859004850281018501909152818152928301828280156103af5780601f10610384576101008083540402835291602001916103af565b820191906000526020600020905b81548152906001019060200180831161039257829003601f168201915b50505060008881526002602052604090206001015460038054949850909650879390925086915081106103de57fe5b9060005260206000200190805190602001906103fb9291906108bf565b506104058461080b565b60008181526002602052604090206001810185905590925090505b600380549061043390600019830161093d565b50600085815260026020908152604080832060010183905580519283525187927ffc08d1253c81bcd5444fc7056ef1f5a5df4c9220b6fd70d7449267f1f0f2991892908290030190a25050505050565b600380548290811061049157fe5b600091825260209182902001805460408051601f60026000196101006001871615020190941693909304928301859004850281018501909152818152935090918301828280156105225780601f106104f757610100808354040283529160200191610522565b820191906000526020600020905b81548152906001019060200180831161050557829003601f168201915b505050505081565b6000805473ffffffffffffffffffffffffffffffffffffffff16331461054f57600080fd5b8173ffffffffffffffffffffffffffffffffffffffff8116151561057257600080fd5b60008481526002602052604090205473ffffffffffffffffffffffffffffffffffffffff1615156105ed5760036105a885610812565b8154600181018084556000938452602093849020835191946105d094919093019201906108bf565b506000858152600260205260409020600019820160019091015591505b600084815260026020908152604091829020805473ffffffffffffffffffffffffffffffffffffffff191673ffffffffffffffffffffffffffffffffffffffff87169081179091558251908152915186927ffc08d1253c81bcd5444fc7056ef1f5a5df4c9220b6fd70d7449267f1f0f2991892908290030190a250505050565b6003545b90565b60015473ffffffffffffffffffffffffffffffffffffffff16331461069857600080fd5b6001546000805460405173ffffffffffffffffffffffffffffffffffffffff93841693909116917f343765429aea5a34b3ff6a3785a98a5abb2597aca87bfbb58632c173d585373a91a3600180546000805473ffffffffffffffffffffffffffffffffffffffff1990811673ffffffffffffffffffffffffffffffffffffffff841617909155169055565b60005473ffffffffffffffffffffffffffffffffffffffff1681565b60009081526002602052604090205473ffffffffffffffffffffffffffffffffffffffff1690565b60015473ffffffffffffffffffffffffffffffffffffffff1681565b60005473ffffffffffffffffffffffffffffffffffffffff1633146107a757600080fd5b60005473ffffffffffffffffffffffffffffffffffffffff828116911614156107cf57600080fd5b6001805473ffffffffffffffffffffffffffffffffffffffff191673ffffffffffffffffffffffffffffffffffffffff92909216919091179055565b6020015190565b6040805160208082528183019092526060918291600091808201610400803883390190505091505b60208110156108b85783816020811061084f57fe5b1a7f010000000000000000000000000000000000000000000000000000000000000002828281518110151561088057fe5b9060200101907effffffffffffffffffffffffffffffffffffffffffffffffffffffffffffff1916908160001a90535060010161083a565b5092915050565b828054600181600116156101000203166002900490600052602060002090601f016020900481019282601f1061090057805160ff191683800117855561092d565b8280016001018555821561092d579182015b8281111561092d578251825591602001919060010190610912565b50610939929150610966565b5090565b81548183558181111561096157600083815260209020610961918101908301610980565b505050565b61067191905b80821115610939576000815560010161096c565b61067191905b8082111561093957600061099a82826109a3565b50600101610986565b50805460018160011615610100020316600290046000825580601f106109c957506109e7565b601f0160209004906000526020600020908101906109e79190610966565b505600a165627a7a72305820a94bc34ec8c0140160fbcfb5f05be78be54fe7159fe992ffc1e08a04f7f6b60b0029",
  "source": "pragma solidity 0.4.26;\r\nimport './Owned.sol';\r\nimport './Utils.sol';\r\nimport './interfaces/IContractRegistry.sol';\r\n\r\n/**\r\n  * @dev Contract Registry\r\n  * \r\n  * The contract registry keeps contract addresses by name.\r\n  * The owner can update contract addresses so that a contract name always points to the latest version\r\n  * of the given contract.\r\n  * Other contracts can query the registry to get updated addresses instead of depending on specific\r\n  * addresses.\r\n  * \r\n  * Note that contract names are limited to 32 bytes UTF8 encoded ASCII strings to optimize gas costs\r\n*/\r\ncontract ContractRegistry is IContractRegistry, Owned, Utils {\r\n    struct RegistryItem {\r\n        address contractAddress;    // contract address\r\n        uint256 nameIndex;          // index of the item in the list of contract names\r\n    }\r\n\r\n    mapping (bytes32 => RegistryItem) private items;    // name -> RegistryItem mapping\r\n    string[] public contractNames;                      // list of all registered contract names\r\n\r\n    /**\r\n      * @dev triggered when an address pointed to by a contract name is modified\r\n      * \r\n      * @param _contractName    contract name\r\n      * @param _contractAddress new contract address\r\n    */\r\n    event AddressUpdate(bytes32 indexed _contractName, address _contractAddress);\r\n\r\n    /**\r\n      * @dev returns the number of items in the registry\r\n      * \r\n      * @return number of items\r\n    */\r\n    function itemCount() public view returns (uint256) {\r\n        return contractNames.length;\r\n    }\r\n\r\n    /**\r\n      * @dev returns the address associated with the given contract name\r\n      * \r\n      * @param _contractName    contract name\r\n      * \r\n      * @return contract address\r\n    */\r\n    function addressOf(bytes32 _contractName) public view returns (address) {\r\n        return items[_contractName].contractAddress;\r\n    }\r\n\r\n    /**\r\n      * @dev registers a new address for the contract name in the registry\r\n      * \r\n      * @param _contractName     contract name\r\n      * @param _contractAddress  contract address\r\n    */\r\n    function registerAddress(bytes32 _contractName, address _contractAddress)\r\n        public\r\n        ownerOnly\r\n        validAddress(_contractAddress)\r\n    {\r\n        require(_contractName.length > 0); // validate input\r\n\r\n        if (items[_contractName].contractAddress == address(0)) {\r\n            // add the contract name to the name list\r\n            uint256 i = contractNames.push(bytes32ToString(_contractName));\r\n            // update the item's index in the list\r\n            items[_contractName].nameIndex = i - 1;\r\n        }\r\n\r\n        // update the address in the registry\r\n        items[_contractName].contractAddress = _contractAddress;\r\n\r\n        // dispatch the address update event\r\n        emit AddressUpdate(_contractName, _contractAddress);\r\n    }\r\n\r\n    /**\r\n      * @dev removes an existing contract address from the registry\r\n      * \r\n      * @param _contractName contract name\r\n    */\r\n    function unregisterAddress(bytes32 _contractName) public ownerOnly {\r\n        require(_contractName.length > 0); // validate input\r\n        require(items[_contractName].contractAddress != address(0));\r\n\r\n        // remove the address from the registry\r\n        items[_contractName].contractAddress = address(0);\r\n\r\n        // if there are multiple items in the registry, move the last element to the deleted element's position\r\n        // and modify last element's registryItem.nameIndex in the items collection to point to the right position in contractNames\r\n        if (contractNames.length > 1) {\r\n            string memory lastContractNameString = contractNames[contractNames.length - 1];\r\n            uint256 unregisterIndex = items[_contractName].nameIndex;\r\n\r\n            contractNames[unregisterIndex] = lastContractNameString;\r\n            bytes32 lastContractName = stringToBytes32(lastContractNameString);\r\n            RegistryItem storage registryItem = items[lastContractName];\r\n            registryItem.nameIndex = unregisterIndex;\r\n        }\r\n\r\n        // remove the last element from the name list\r\n        contractNames.length--;\r\n        // zero the deleted element's index\r\n        items[_contractName].nameIndex = 0;\r\n\r\n        // dispatch the address update event\r\n        emit AddressUpdate(_contractName, address(0));\r\n    }\r\n\r\n    /**\r\n      * @dev utility, converts bytes32 to a string\r\n      * note that the bytes32 argument is assumed to be UTF8 encoded ASCII string\r\n      * \r\n      * @return string representation of the given bytes32 argument\r\n    */\r\n    function bytes32ToString(bytes32 _bytes) private pure returns (string) {\r\n        bytes memory byteArray = new bytes(32);\r\n        for (uint256 i; i < 32; i++) {\r\n            byteArray[i] = _bytes[i];\r\n        }\r\n\r\n        return string(byteArray);\r\n    }\r\n\r\n    /**\r\n      * @dev utility, converts string to bytes32\r\n      * note that the bytes32 argument is assumed to be UTF8 encoded ASCII string\r\n      * \r\n      * @return string representation of the given bytes32 argument\r\n    */\r\n    function stringToBytes32(string memory _string) private pure returns (bytes32) {\r\n        bytes32 result;\r\n        assembly {\r\n            result := mload(add(_string,32))\r\n        }\r\n        return result;\r\n    }\r\n\r\n    /**\r\n      * @dev deprecated, backward compatibility\r\n    */\r\n    function getAddress(bytes32 _contractName) public view returns (address) {\r\n        return addressOf(_contractName);\r\n    }\r\n}\r\n",
  "sourcePath": "/home/faycal/Desktop/projects/BancorCompoundPool/contracts/contracts/utility/ContractRegistry.sol",
  "compiler": {
    "name": "solc",
    "version": "0.4.26+commit.4563c3fc.Emscripten.clang"
  },
  "schemaVersion": "3.1.0",
  "updatedAt": "2020-04-17T21:34:25.431Z",
  "devdoc": {
    "methods": {
      "acceptOwnership()": {
        "details": "used by a new owner to accept an ownership transfer\r"
      },
      "addressOf(bytes32)": {
        "details": "returns the address associated with the given contract name\r \r",
        "params": {
          "_contractName": "contract name\r \r"
        },
        "return": "contract address\r"
      },
      "getAddress(bytes32)": {
        "details": "deprecated, backward compatibility\r"
      },
      "itemCount()": {
        "details": "returns the number of items in the registry\r \r",
        "return": "number of items\r"
      },
      "registerAddress(bytes32,address)": {
        "details": "registers a new address for the contract name in the registry\r \r",
        "params": {
          "_contractAddress": "contract address\r",
          "_contractName": "contract name\r"
        }
      },
      "transferOwnership(address)": {
        "details": "allows transferring the contract ownership\r the new owner still needs to accept the transfer\r can only be called by the contract owner\r \r",
        "params": {
          "_newOwner": "new contract owner\r"
        }
      },
      "unregisterAddress(bytes32)": {
        "details": "removes an existing contract address from the registry\r \r",
        "params": {
          "_contractName": "contract name\r"
        }
      }
    }
  },
  "userdoc": {
    "methods": {}
  }
}