{
  "contractName": "CrowdsaleController",
  "abi": [
    {
      "constant": true,
      "inputs": [],
      "name": "BTCS_ETHER_CAP",
      "outputs": [
        {
          "name": "",
          "type": "uint256"
        }
      ],
      "payable": false,
      "stateMutability": "view",
      "type": "function"
    },
    {
      "constant": true,
      "inputs": [],
      "name": "TOKEN_PRICE_D",
      "outputs": [
        {
          "name": "",
          "type": "uint256"
        }
      ],
      "payable": false,
      "stateMutability": "view",
      "type": "function"
    },
    {
      "constant": true,
      "inputs": [],
      "name": "bancorX",
      "outputs": [
        {
          "name": "",
          "type": "address"
        }
      ],
      "payable": false,
      "stateMutability": "view",
      "type": "function"
    },
    {
      "constant": true,
      "inputs": [],
      "name": "DURATION",
      "outputs": [
        {
          "name": "",
          "type": "uint256"
        }
      ],
      "payable": false,
      "stateMutability": "view",
      "type": "function"
    },
    {
      "constant": false,
      "inputs": [
        {
          "name": "_newOwner",
          "type": "address"
        }
      ],
      "name": "transferTokenOwnership",
      "outputs": [],
      "payable": false,
      "stateMutability": "nonpayable",
      "type": "function"
    },
    {
      "constant": true,
      "inputs": [],
      "name": "endTime",
      "outputs": [
        {
          "name": "",
          "type": "uint256"
        }
      ],
      "payable": false,
      "stateMutability": "view",
      "type": "function"
    },
    {
      "constant": true,
      "inputs": [],
      "name": "totalEtherCap",
      "outputs": [
        {
          "name": "",
          "type": "uint256"
        }
      ],
      "payable": false,
      "stateMutability": "view",
      "type": "function"
    },
    {
      "constant": false,
      "inputs": [],
      "name": "acceptTokenOwnership",
      "outputs": [],
      "payable": false,
      "stateMutability": "nonpayable",
      "type": "function"
    },
    {
      "constant": true,
      "inputs": [],
      "name": "beneficiary",
      "outputs": [
        {
          "name": "",
          "type": "address"
        }
      ],
      "payable": false,
      "stateMutability": "view",
      "type": "function"
    },
    {
      "constant": false,
      "inputs": [
        {
          "name": "_token",
          "type": "address"
        },
        {
          "name": "_to",
          "type": "address"
        },
        {
          "name": "_amount",
          "type": "uint256"
        }
      ],
      "name": "withdrawFromToken",
      "outputs": [],
      "payable": false,
      "stateMutability": "nonpayable",
      "type": "function"
    },
    {
      "constant": true,
      "inputs": [],
      "name": "TOKEN_PRICE_N",
      "outputs": [
        {
          "name": "",
          "type": "uint256"
        }
      ],
      "payable": false,
      "stateMutability": "view",
      "type": "function"
    },
    {
      "constant": true,
      "inputs": [],
      "name": "version",
      "outputs": [
        {
          "name": "",
          "type": "string"
        }
      ],
      "payable": false,
      "stateMutability": "view",
      "type": "function"
    },
    {
      "constant": false,
      "inputs": [
        {
          "name": "_token",
          "type": "address"
        },
        {
          "name": "_to",
          "type": "address"
        },
        {
          "name": "_amount",
          "type": "uint256"
        }
      ],
      "name": "withdrawTokens",
      "outputs": [],
      "payable": false,
      "stateMutability": "nonpayable",
      "type": "function"
    },
    {
      "constant": true,
      "inputs": [],
      "name": "startTime",
      "outputs": [
        {
          "name": "",
          "type": "uint256"
        }
      ],
      "payable": false,
      "stateMutability": "view",
      "type": "function"
    },
    {
      "constant": false,
      "inputs": [],
      "name": "acceptOwnership",
      "outputs": [],
      "payable": false,
      "stateMutability": "nonpayable",
      "type": "function"
    },
    {
      "constant": true,
      "inputs": [],
      "name": "owner",
      "outputs": [
        {
          "name": "",
          "type": "address"
        }
      ],
      "payable": false,
      "stateMutability": "view",
      "type": "function"
    },
    {
      "constant": true,
      "inputs": [],
      "name": "realEtherCapHash",
      "outputs": [
        {
          "name": "",
          "type": "bytes32"
        }
      ],
      "payable": false,
      "stateMutability": "view",
      "type": "function"
    },
    {
      "constant": true,
      "inputs": [],
      "name": "totalEtherContributed",
      "outputs": [
        {
          "name": "",
          "type": "uint256"
        }
      ],
      "payable": false,
      "stateMutability": "view",
      "type": "function"
    },
    {
      "constant": true,
      "inputs": [],
      "name": "btcs",
      "outputs": [
        {
          "name": "",
          "type": "address"
        }
      ],
      "payable": false,
      "stateMutability": "view",
      "type": "function"
    },
    {
      "constant": true,
      "inputs": [],
      "name": "newOwner",
      "outputs": [
        {
          "name": "",
          "type": "address"
        }
      ],
      "payable": false,
      "stateMutability": "view",
      "type": "function"
    },
    {
      "constant": false,
      "inputs": [
        {
          "name": "_bancorX",
          "type": "address"
        }
      ],
      "name": "setBancorX",
      "outputs": [],
      "payable": false,
      "stateMutability": "nonpayable",
      "type": "function"
    },
    {
      "constant": true,
      "inputs": [],
      "name": "MAX_GAS_PRICE",
      "outputs": [
        {
          "name": "",
          "type": "uint256"
        }
      ],
      "payable": false,
      "stateMutability": "view",
      "type": "function"
    },
    {
      "constant": false,
      "inputs": [
        {
          "name": "_newOwner",
          "type": "address"
        }
      ],
      "name": "transferOwnership",
      "outputs": [],
      "payable": false,
      "stateMutability": "nonpayable",
      "type": "function"
    },
    {
      "constant": true,
      "inputs": [],
      "name": "token",
      "outputs": [
        {
          "name": "",
          "type": "address"
        }
      ],
      "payable": false,
      "stateMutability": "view",
      "type": "function"
    },
    {
      "constant": false,
      "inputs": [
        {
          "name": "_from",
          "type": "address"
        },
        {
          "name": "_amount",
          "type": "uint256"
        }
      ],
      "name": "claimTokens",
      "outputs": [],
      "payable": false,
      "stateMutability": "nonpayable",
      "type": "function"
    },
    {
      "inputs": [
        {
          "name": "_token",
          "type": "address"
        },
        {
          "name": "_startTime",
          "type": "uint256"
        },
        {
          "name": "_beneficiary",
          "type": "address"
        },
        {
          "name": "_btcs",
          "type": "address"
        },
        {
          "name": "_realEtherCapHash",
          "type": "bytes32"
        }
      ],
      "payable": false,
      "stateMutability": "nonpayable",
      "type": "constructor"
    },
    {
      "payable": true,
      "stateMutability": "payable",
      "type": "fallback"
    },
    {
      "anonymous": false,
      "inputs": [
        {
          "indexed": true,
          "name": "_contributor",
          "type": "address"
        },
        {
          "indexed": false,
          "name": "_amount",
          "type": "uint256"
        },
        {
          "indexed": false,
          "name": "_return",
          "type": "uint256"
        }
      ],
      "name": "Contribution",
      "type": "event"
    },
    {
      "anonymous": false,
      "inputs": [
        {
          "indexed": true,
          "name": "_prevOwner",
          "type": "address"
        },
        {
          "indexed": true,
          "name": "_newOwner",
          "type": "address"
        }
      ],
      "name": "OwnerUpdate",
      "type": "event"
    },
    {
      "constant": true,
      "inputs": [
        {
          "name": "_cap",
          "type": "uint256"
        },
        {
          "name": "_key",
          "type": "uint256"
        }
      ],
      "name": "computeRealCap",
      "outputs": [
        {
          "name": "",
          "type": "bytes32"
        }
      ],
      "payable": false,
      "stateMutability": "pure",
      "type": "function"
    },
    {
      "constant": false,
      "inputs": [
        {
          "name": "_cap",
          "type": "uint256"
        },
        {
          "name": "_key",
          "type": "uint256"
        }
      ],
      "name": "enableRealCap",
      "outputs": [],
      "payable": false,
      "stateMutability": "nonpayable",
      "type": "function"
    },
    {
      "constant": true,
      "inputs": [
        {
          "name": "_contribution",
          "type": "uint256"
        }
      ],
      "name": "computeReturn",
      "outputs": [
        {
          "name": "",
          "type": "uint256"
        }
      ],
      "payable": false,
      "stateMutability": "pure",
      "type": "function"
    },
    {
      "constant": false,
      "inputs": [],
      "name": "contributeETH",
      "outputs": [
        {
          "name": "amount",
          "type": "uint256"
        }
      ],
      "payable": true,
      "stateMutability": "payable",
      "type": "function"
    },
    {
      "constant": false,
      "inputs": [],
      "name": "contributeBTCs",
      "outputs": [
        {
          "name": "amount",
          "type": "uint256"
        }
      ],
      "payable": true,
      "stateMutability": "payable",
      "type": "function"
    }
  ],
  "bytecode": "0x60c0604052600360808190527f302e31000000000000000000000000000000000000000000000000000000000060a090815262000040916004919062000186565b5060006005819055600681905569d3c21bcecceda1000000600755600855600a8054600160a060020a0319908116909155600b805490911690553480156200008757600080fd5b5060405160a080620015898339810160409081528151602083015191830151606084015160809094015160008054600160a060020a03191633179055919390918480600160a060020a0381161515620000df57600080fd5b5060028054600160a060020a031916600160a060020a039283161790558390811615156200010c57600080fd5b82600160a060020a03811615156200012357600080fd5b854281116200012e57fe5b83600081116200013d57600080fd5b50505060058590555062127500909301600655600a8054600160a060020a03938416600160a060020a031991821617909155600b8054929093169116179055600955506200022b565b828054600181600116156101000203166002900490600052602060002090601f016020900481019282601f10620001c957805160ff1916838001178555620001f9565b82800160010185558215620001f9579182015b82811115620001f9578251825591602001919060010190620001dc565b50620002079291506200020b565b5090565b6200022891905b8082111562000207576000815560010162000212565b90565b61134e806200023b6000396000f30060806040526004361061017f5763ffffffff7c010000000000000000000000000000000000000000000000000000000060003504166301d1c7fd811461018a5780630d2806ad146101b15780631120a776146101c6578063175323a8146102045780631be052891461020c5780631fc3a5191461022157806321e6b53d146102395780633197cbb61461026957806334971dd61461027e57806338a5e0161461029357806338af3eed146102a857806341a5b33d146102bd57806345cfad3e146102f457806354fd4d50146103095780635e35359e1461039357806378e97925146103ca57806379ba5097146103df5780638da5cb5b146103f4578063aa4bdd3b14610409578063ad03abc51461041e578063b3cffc6e14610439578063b591fc6914610441578063bb63224414610456578063d4ee1d901461046b578063d924f0c314610480578063e2119c80146104ae578063e3bbb4f1146104c9578063f2fde38b146104de578063fc0c546a1461050c578063fe417fa514610521575b610187610552565b50005b34801561019657600080fd5b5061019f610580565b60408051918252519081900360200190f35b3480156101bd57600080fd5b5061019f61058e565b3480156101d257600080fd5b506101db610593565b6040805173ffffffffffffffffffffffffffffffffffffffff9092168252519081900360200190f35b61019f610552565b34801561021857600080fd5b5061019f6105af565b34801561022d57600080fd5b5061019f6004356105b6565b34801561024557600080fd5b5061026773ffffffffffffffffffffffffffffffffffffffff600435166105e0565b005b34801561027557600080fd5b5061019f610693565b34801561028a57600080fd5b5061019f610699565b34801561029f57600080fd5b5061026761069f565b3480156102b457600080fd5b506101db610763565b3480156102c957600080fd5b5061026773ffffffffffffffffffffffffffffffffffffffff6004358116906024351660443561077f565b34801561030057600080fd5b5061019f610843565b34801561031557600080fd5b5061031e610848565b6040805160208082528351818301528351919283929083019185019080838360005b83811015610358578181015183820152602001610340565b50505050905090810190601f1680156103855780820380516001836020036101000a031916815260200191505b509250505060405180910390f35b34801561039f57600080fd5b5061026773ffffffffffffffffffffffffffffffffffffffff600435811690602435166044356108d6565b3480156103d657600080fd5b5061019f610a27565b3480156103eb57600080fd5b50610267610a2d565b34801561040057600080fd5b506101db610adc565b34801561041557600080fd5b5061019f610af8565b34801561042a57600080fd5b50610267600435602435610afe565b61019f610c2d565b34801561044d57600080fd5b5061019f610c86565b34801561046257600080fd5b506101db610c8c565b34801561047757600080fd5b506101db610ca8565b34801561048c57600080fd5b5061026773ffffffffffffffffffffffffffffffffffffffff60043516610cc4565b3480156104ba57600080fd5b5061019f600435602435610d24565b3480156104d557600080fd5b5061019f610dce565b3480156104ea57600080fd5b5061026773ffffffffffffffffffffffffffffffffffffffff60043516610dd7565b34801561051857600080fd5b506101db610e5f565b34801561052d57600080fd5b5061026773ffffffffffffffffffffffffffffffffffffffff60043516602435610e7b565b600060055460065481421015801561056957508042105b151561057157fe5b610579610fc7565b9250505090565b690a968163f0a57b40000081565b606481565b60035473ffffffffffffffffffffffffffffffffffffffff1681565b6212750081565b60006105da60016105ce84606463ffffffff6112b416565b9063ffffffff6112ed16565b92915050565b60005473ffffffffffffffffffffffffffffffffffffffff16331461060457600080fd5b600254604080517ff2fde38b00000000000000000000000000000000000000000000000000000000815273ffffffffffffffffffffffffffffffffffffffff84811660048301529151919092169163f2fde38b91602480830192600092919082900301818387803b15801561067857600080fd5b505af115801561068c573d6000803e3d6000fd5b5050505050565b60065481565b60075481565b60005473ffffffffffffffffffffffffffffffffffffffff1633146106c357600080fd5b600260009054906101000a900473ffffffffffffffffffffffffffffffffffffffff1673ffffffffffffffffffffffffffffffffffffffff166379ba50976040518163ffffffff167c0100000000000000000000000000000000000000000000000000000000028152600401600060405180830381600087803b15801561074957600080fd5b505af115801561075d573d6000803e3d6000fd5b50505050565b600a5473ffffffffffffffffffffffffffffffffffffffff1681565b60005473ffffffffffffffffffffffffffffffffffffffff1633146107a357600080fd5b600254604080517f5e35359e00000000000000000000000000000000000000000000000000000000815273ffffffffffffffffffffffffffffffffffffffff868116600483015285811660248301526044820185905291519190921691635e35359e91606480830192600092919082900301818387803b15801561082657600080fd5b505af115801561083a573d6000803e3d6000fd5b50505050505050565b600181565b6004805460408051602060026001851615610100026000190190941693909304601f810184900484028201840190925281815292918301828280156108ce5780601f106108a3576101008083540402835291602001916108ce565b820191906000526020600020905b8154815290600101906020018083116108b157829003601f168201915b505050505081565b60005473ffffffffffffffffffffffffffffffffffffffff1633146108fa57600080fd5b8273ffffffffffffffffffffffffffffffffffffffff8116151561091d57600080fd5b8273ffffffffffffffffffffffffffffffffffffffff8116151561094057600080fd5b8373ffffffffffffffffffffffffffffffffffffffff811630141561096457600080fd5b8573ffffffffffffffffffffffffffffffffffffffff1663a9059cbb86866040518363ffffffff167c0100000000000000000000000000000000000000000000000000000000028152600401808373ffffffffffffffffffffffffffffffffffffffff1673ffffffffffffffffffffffffffffffffffffffff16815260200182815260200192505050600060405180830381600087803b158015610a0757600080fd5b505af1158015610a1b573d6000803e3d6000fd5b50505050505050505050565b60055481565b60015473ffffffffffffffffffffffffffffffffffffffff163314610a5157600080fd5b6001546000805460405173ffffffffffffffffffffffffffffffffffffffff93841693909116917f343765429aea5a34b3ff6a3785a98a5abb2597aca87bfbb58632c173d585373a91a3600180546000805473ffffffffffffffffffffffffffffffffffffffff1990811673ffffffffffffffffffffffffffffffffffffffff841617909155169055565b60005473ffffffffffffffffffffffffffffffffffffffff1681565b60095481565b60005473ffffffffffffffffffffffffffffffffffffffff163314610b2257600080fd5b600254604080517f8da5cb5b0000000000000000000000000000000000000000000000000000000081529051309273ffffffffffffffffffffffffffffffffffffffff1691638da5cb5b9160048083019260209291908290030181600087803b158015610b8e57600080fd5b505af1158015610ba2573d6000803e3d6000fd5b505050506040513d6020811015610bb857600080fd5b505173ffffffffffffffffffffffffffffffffffffffff1614610bda57600080fd5b600554600654814210158015610bef57508042105b1515610bf757fe5b60095484908490610c088383610d24565b14610c1257600080fd5b6007548610610c2057600080fd5b5050506007929092555050565b600b5460009073ffffffffffffffffffffffffffffffffffffffff163314610c5157fe5b34690a968163f0a57b400000610c728260085461131090919063ffffffff16565b1115610c7a57fe5b60055442811161057157fe5b60085481565b600b5473ffffffffffffffffffffffffffffffffffffffff1681565b60015473ffffffffffffffffffffffffffffffffffffffff1681565b60005473ffffffffffffffffffffffffffffffffffffffff163314610ce857600080fd5b6003805473ffffffffffffffffffffffffffffffffffffffff191673ffffffffffffffffffffffffffffffffffffffff92909216919091179055565b6000828260405160200180838152602001828152602001925050506040516020818303038152906040526040518082805190602001908083835b60208310610d9b57805182527fffffffffffffffffffffffffffffffffffffffffffffffffffffffffffffffe09092019160209182019101610d5e565b5181516020939093036101000a600019018019909116921691909117905260405192018290039091209695505050505050565b640ba43b740081565b60005473ffffffffffffffffffffffffffffffffffffffff163314610dfb57600080fd5b60005473ffffffffffffffffffffffffffffffffffffffff82811691161415610e2357600080fd5b6001805473ffffffffffffffffffffffffffffffffffffffff191673ffffffffffffffffffffffffffffffffffffffff92909216919091179055565b60025473ffffffffffffffffffffffffffffffffffffffff1681565b60035473ffffffffffffffffffffffffffffffffffffffff163314610e9f57600080fd5b600254604080517fa24835d100000000000000000000000000000000000000000000000000000000815273ffffffffffffffffffffffffffffffffffffffff8581166004830152602482018590529151919092169163a24835d191604480830192600092919082900301818387803b158015610f1a57600080fd5b505af1158015610f2e573d6000803e3d6000fd5b5050600254604080517f867904b400000000000000000000000000000000000000000000000000000000815233600482015260248101869052905173ffffffffffffffffffffffffffffffffffffffff909216935063867904b4925060448082019260009290919082900301818387803b158015610fab57600080fd5b505af1158015610fbf573d6000803e3d6000fd5b505050505050565b6000803073ffffffffffffffffffffffffffffffffffffffff16600260009054906101000a900473ffffffffffffffffffffffffffffffffffffffff1673ffffffffffffffffffffffffffffffffffffffff16638da5cb5b6040518163ffffffff167c0100000000000000000000000000000000000000000000000000000000028152600401602060405180830381600087803b15801561106757600080fd5b505af115801561107b573d6000803e3d6000fd5b505050506040513d602081101561109157600080fd5b505173ffffffffffffffffffffffffffffffffffffffff16146110b357600080fd5b346007546110cc8260085461131090919063ffffffff16565b11156110d457fe5b640ba43b74003a11156110e357fe5b6110ec346105b6565b600a5460405191935073ffffffffffffffffffffffffffffffffffffffff16903480156108fc02916000818181858888f19350505050158015611133573d6000803e3d6000fd5b50600854611147903463ffffffff61131016565b600855600254604080517f867904b400000000000000000000000000000000000000000000000000000000815233600482015260248101859052905173ffffffffffffffffffffffffffffffffffffffff9092169163867904b49160448082019260009290919082900301818387803b1580156111c357600080fd5b505af11580156111d7573d6000803e3d6000fd5b5050600254600a54604080517f867904b400000000000000000000000000000000000000000000000000000000815273ffffffffffffffffffffffffffffffffffffffff928316600482015260248101889052905191909216935063867904b49250604480830192600092919082900301818387803b15801561125957600080fd5b505af115801561126d573d6000803e3d6000fd5b5050604080513481526020810186905281513394507f5f7675b09617d2c9fa4fd13058ee5877a9538f626b0308816736e83748a4504093509081900390910190a250919050565b6000808315156112c757600091506112e6565b508282028284828115156112d757fe5b04146112e257600080fd5b8091505b5092915050565b6000808083116112fc57600080fd5b828481151561130757fe5b04949350505050565b6000828201838110156112e257600080fd00a165627a7a72305820ddcec942f8dde2d7809c3a958cddc645dfec0d6712ac3296afc9732c349ec0140029",
  "source": "pragma solidity 0.4.26;\r\nimport '../token/SmartTokenController.sol';\r\nimport '../token/interfaces/ISmartToken.sol';\r\nimport '../utility/SafeMath.sol';\r\n\r\n/**\r\n  * @dev Crowdsale\r\n  * \r\n  * The crowdsale version of the smart token controller, allows contributing ether in exchange for Bancor tokens\r\n  * The price remains fixed for the entire duration of the crowdsale\r\n  * Note that 20% of the contributions are the BNT token's ETH reserve balance\r\n*/\r\ncontract CrowdsaleController is SmartTokenController {\r\n    using SafeMath for uint256;\r\n\r\n\r\n    uint256 public constant DURATION = 14 days;                 // crowdsale duration\r\n    uint256 public constant TOKEN_PRICE_N = 1;                  // initial price in wei (numerator)\r\n    uint256 public constant TOKEN_PRICE_D = 100;                // initial price in wei (denominator)\r\n    uint256 public constant BTCS_ETHER_CAP = 50000 ether;       // maximum bitcoin suisse ether contribution\r\n    uint256 public constant MAX_GAS_PRICE = 50000000000 wei;    // maximum gas price for contribution transactions\r\n\r\n    string public version = '0.1';\r\n\r\n    uint256 public startTime = 0;                   // crowdsale start time (in seconds)\r\n    uint256 public endTime = 0;                     // crowdsale end time (in seconds)\r\n    uint256 public totalEtherCap = 1000000 ether;   // current ether contribution cap, initialized with a temp value as a safety mechanism until the real cap is revealed\r\n    uint256 public totalEtherContributed = 0;       // ether contributed so far\r\n    bytes32 public realEtherCapHash;                // ensures that the real cap is predefined on deployment and cannot be changed later\r\n    address public beneficiary = address(0);        // address to receive all ether contributions\r\n    address public btcs = address(0);               // bitcoin suisse address\r\n\r\n    // triggered on each contribution\r\n    event Contribution(address indexed _contributor, uint256 _amount, uint256 _return);\r\n\r\n    /**\r\n      * @dev initializes a new CrowdsaleController instance\r\n      * \r\n      * @param _token          smart token the crowdsale is for\r\n      * @param _startTime      crowdsale start time\r\n      * @param _beneficiary    address to receive all ether contributions\r\n      * @param _btcs           bitcoin suisse address\r\n    */\r\n    constructor(ISmartToken _token, uint256 _startTime, address _beneficiary, address _btcs, bytes32 _realEtherCapHash)\r\n        public\r\n        SmartTokenController(_token)\r\n        validAddress(_beneficiary)\r\n        validAddress(_btcs)\r\n        earlierThan(_startTime)\r\n        greaterThanZero(uint256(_realEtherCapHash))\r\n    {\r\n        startTime = _startTime;\r\n        endTime = startTime + DURATION;\r\n        beneficiary = _beneficiary;\r\n        btcs = _btcs;\r\n        realEtherCapHash = _realEtherCapHash;\r\n    }\r\n\r\n    // verifies that the gas price is lower than 50 gwei\r\n    modifier validGasPrice() {\r\n        assert(tx.gasprice <= MAX_GAS_PRICE);\r\n        _;\r\n    }\r\n\r\n    // verifies that the ether cap is valid based on the key provided\r\n    modifier validEtherCap(uint256 _cap, uint256 _key) {\r\n        require(computeRealCap(_cap, _key) == realEtherCapHash);\r\n        _;\r\n    }\r\n\r\n    // ensures that it's earlier than the given time\r\n    modifier earlierThan(uint256 _time) {\r\n        assert(now < _time);\r\n        _;\r\n    }\r\n\r\n    // ensures that the current time is between _startTime (inclusive) and _endTime (exclusive)\r\n    modifier between(uint256 _startTime, uint256 _endTime) {\r\n        assert(now >= _startTime && now < _endTime);\r\n        _;\r\n    }\r\n\r\n    // ensures that the sender is bitcoin suisse\r\n    modifier btcsOnly() {\r\n        assert(msg.sender == btcs);\r\n        _;\r\n    }\r\n\r\n    // ensures that we didn't reach the ether cap\r\n    modifier etherCapNotReached(uint256 _contribution) {\r\n        assert(totalEtherContributed.add(_contribution) <= totalEtherCap);\r\n        _;\r\n    }\r\n\r\n    // ensures that we didn't reach the bitcoin suisse ether cap\r\n    modifier btcsEtherCapNotReached(uint256 _ethContribution) {\r\n        assert(totalEtherContributed.add(_ethContribution) <= BTCS_ETHER_CAP);\r\n        _;\r\n    }\r\n\r\n    /**\r\n      * @dev computes the real cap based on the given cap & key\r\n      * \r\n      * @param _cap    cap\r\n      * @param _key    key used to compute the cap hash\r\n      * \r\n      * @return computed real cap hash\r\n    */\r\n    function computeRealCap(uint256 _cap, uint256 _key) public pure returns (bytes32) {\r\n        return keccak256(abi.encodePacked(_cap, _key));\r\n    }\r\n\r\n    /**\r\n      * @dev enables the real cap defined on deployment\r\n      * \r\n      * @param _cap    predefined cap\r\n      * @param _key    key used to compute the cap hash\r\n    */\r\n    function enableRealCap(uint256 _cap, uint256 _key)\r\n        public\r\n        ownerOnly\r\n        active\r\n        between(startTime, endTime)\r\n        validEtherCap(_cap, _key)\r\n    {\r\n        require(_cap < totalEtherCap); // validate input\r\n        totalEtherCap = _cap;\r\n    }\r\n\r\n    /**\r\n      * @dev computes the number of tokens that should be issued for a given contribution\r\n      * \r\n      * @param _contribution    contribution amount\r\n      * \r\n      * @return computed number of tokens\r\n    */\r\n    function computeReturn(uint256 _contribution) public pure returns (uint256) {\r\n        return _contribution.mul(TOKEN_PRICE_D).div(TOKEN_PRICE_N);\r\n    }\r\n\r\n    /**\r\n      * @dev ETH contribution\r\n      * can only be called during the crowdsale\r\n      * \r\n      * @return tokens issued in return\r\n    */\r\n    function contributeETH()\r\n        public\r\n        payable\r\n        between(startTime, endTime)\r\n        returns (uint256 amount)\r\n    {\r\n        return processContribution();\r\n    }\r\n\r\n    /**\r\n      * @dev Contribution through BTCs (Bitcoin Suisse only)\r\n      * can only be called before the crowdsale started\r\n      * \r\n      * @return tokens issued in return\r\n    */\r\n    function contributeBTCs()\r\n        public\r\n        payable\r\n        btcsOnly\r\n        btcsEtherCapNotReached(msg.value)\r\n        earlierThan(startTime)\r\n        returns (uint256 amount)\r\n    {\r\n        return processContribution();\r\n    }\r\n\r\n    /**\r\n      * @dev handles contribution logic\r\n      * note that the Contribution event is triggered using the sender as the contributor, regardless of the actual contributor\r\n      * \r\n      * @return tokens issued in return\r\n    */\r\n    function processContribution() private\r\n        active\r\n        etherCapNotReached(msg.value)\r\n        validGasPrice\r\n        returns (uint256 amount)\r\n    {\r\n        uint256 tokenAmount = computeReturn(msg.value);\r\n        beneficiary.transfer(msg.value); // transfer the ether to the beneficiary account\r\n        totalEtherContributed = totalEtherContributed.add(msg.value); // update the total contribution amount\r\n        token.issue(msg.sender, tokenAmount); // issue new funds to the contributor in the smart token\r\n        token.issue(beneficiary, tokenAmount); // issue tokens to the beneficiary\r\n\r\n        emit Contribution(msg.sender, msg.value, tokenAmount);\r\n        return tokenAmount;\r\n    }\r\n\r\n    // fallback\r\n    function() payable public {\r\n        contributeETH();\r\n    }\r\n}\r\n",
  "sourcePath": "/home/faycal/Desktop/projects/BancorCompoundPool/contracts/contracts/crowdsale/CrowdsaleController.sol",
  "compiler": {
    "name": "solc",
    "version": "0.4.26+commit.4563c3fc.Emscripten.clang"
  },
  "schemaVersion": "3.1.0",
  "updatedAt": "2020-04-17T21:34:25.348Z",
  "devdoc": {
    "methods": {
      "acceptOwnership()": {
        "details": "used by a new owner to accept an ownership transfer\r"
      },
      "acceptTokenOwnership()": {
        "details": "used by a new owner to accept a token ownership transfer\r can only be called by the contract owner\r"
      },
      "claimTokens(address,uint256)": {
        "details": "allows the associated BancorX contract to claim tokens from any address (so that users\r dont have to first give allowance when calling BancorX)\r \r",
        "params": {
          "_amount": "the amount of tokens to claim\r",
          "_from": "address to claim the tokens from\r"
        }
      },
      "computeRealCap(uint256,uint256)": {
        "details": "computes the real cap based on the given cap & key\r \r",
        "params": {
          "_cap": "cap\r",
          "_key": "key used to compute the cap hash\r \r"
        },
        "return": "computed real cap hash\r"
      },
      "computeReturn(uint256)": {
        "details": "computes the number of tokens that should be issued for a given contribution\r \r",
        "params": {
          "_contribution": "contribution amount\r \r"
        },
        "return": "computed number of tokens\r"
      },
      "contributeBTCs()": {
        "details": "Contribution through BTCs (Bitcoin Suisse only)\r can only be called before the crowdsale started\r \r",
        "return": "tokens issued in return\r"
      },
      "contributeETH()": {
        "details": "ETH contribution\r can only be called during the crowdsale\r \r",
        "return": "tokens issued in return\r"
      },
      "enableRealCap(uint256,uint256)": {
        "details": "enables the real cap defined on deployment\r \r",
        "params": {
          "_cap": "predefined cap\r",
          "_key": "key used to compute the cap hash\r"
        }
      },
      "setBancorX(address)": {
        "details": "allows the owner to set the associated BancorX contract\r",
        "params": {
          "_bancorX": "BancorX contract\r"
        }
      },
      "transferOwnership(address)": {
        "details": "allows transferring the contract ownership\r the new owner still needs to accept the transfer\r can only be called by the contract owner\r \r",
        "params": {
          "_newOwner": "new contract owner\r"
        }
      },
      "transferTokenOwnership(address)": {
        "details": "allows transferring the token ownership\r the new owner needs to accept the transfer\r can only be called by the contract owner\r \r",
        "params": {
          "_newOwner": "new token owner\r"
        }
      },
      "withdrawFromToken(address,address,uint256)": {
        "details": "withdraws tokens held by the controller and sends them to an account\r can only be called by the owner\r \r",
        "params": {
          "_amount": "amount to withdraw\r",
          "_to": "account to receive the new amount\r",
          "_token": "ERC20 token contract address\r"
        }
      },
      "withdrawTokens(address,address,uint256)": {
        "details": "withdraws tokens held by the contract and sends them to an account\r can only be called by the owner\r \r",
        "params": {
          "_amount": "amount to withdraw\r",
          "_to": "account to receive the new amount\r",
          "_token": "ERC20 token contract address\r"
        }
      }
    }
  },
  "userdoc": {
    "methods": {}
  }
}