{
  "contractName": "CTokenMock",
  "abi": [
    {
      "constant": true,
      "inputs": [],
      "name": "name",
      "outputs": [
        {
          "name": "",
          "type": "string"
        }
      ],
      "payable": false,
      "stateMutability": "view",
      "type": "function"
    },
    {
      "constant": false,
      "inputs": [
        {
          "name": "_spender",
          "type": "address"
        },
        {
          "name": "_value",
          "type": "uint256"
        }
      ],
      "name": "approve",
      "outputs": [
        {
          "name": "success",
          "type": "bool"
        }
      ],
      "payable": false,
      "stateMutability": "nonpayable",
      "type": "function"
    },
    {
      "constant": true,
      "inputs": [],
      "name": "totalSupply",
      "outputs": [
        {
          "name": "",
          "type": "uint256"
        }
      ],
      "payable": false,
      "stateMutability": "view",
      "type": "function"
    },
    {
      "constant": false,
      "inputs": [
        {
          "name": "_from",
          "type": "address"
        },
        {
          "name": "_to",
          "type": "address"
        },
        {
          "name": "_value",
          "type": "uint256"
        }
      ],
      "name": "transferFrom",
      "outputs": [
        {
          "name": "success",
          "type": "bool"
        }
      ],
      "payable": false,
      "stateMutability": "nonpayable",
      "type": "function"
    },
    {
      "constant": true,
      "inputs": [],
      "name": "decimals",
      "outputs": [
        {
          "name": "",
          "type": "uint8"
        }
      ],
      "payable": false,
      "stateMutability": "view",
      "type": "function"
    },
    {
      "constant": true,
      "inputs": [],
      "name": "underlyingDec",
      "outputs": [
        {
          "name": "",
          "type": "uint256"
        }
      ],
      "payable": false,
      "stateMutability": "view",
      "type": "function"
    },
    {
      "constant": true,
      "inputs": [],
      "name": "underlying",
      "outputs": [
        {
          "name": "",
          "type": "address"
        }
      ],
      "payable": false,
      "stateMutability": "view",
      "type": "function"
    },
    {
      "constant": true,
      "inputs": [
        {
          "name": "",
          "type": "address"
        }
      ],
      "name": "balanceOf",
      "outputs": [
        {
          "name": "",
          "type": "uint256"
        }
      ],
      "payable": false,
      "stateMutability": "view",
      "type": "function"
    },
    {
      "constant": true,
      "inputs": [],
      "name": "symbol",
      "outputs": [
        {
          "name": "",
          "type": "string"
        }
      ],
      "payable": false,
      "stateMutability": "view",
      "type": "function"
    },
    {
      "constant": false,
      "inputs": [
        {
          "name": "_to",
          "type": "address"
        },
        {
          "name": "_value",
          "type": "uint256"
        }
      ],
      "name": "transfer",
      "outputs": [
        {
          "name": "success",
          "type": "bool"
        }
      ],
      "payable": false,
      "stateMutability": "nonpayable",
      "type": "function"
    },
    {
      "constant": true,
      "inputs": [],
      "name": "exchangeRateCurrent",
      "outputs": [
        {
          "name": "",
          "type": "uint256"
        }
      ],
      "payable": false,
      "stateMutability": "view",
      "type": "function"
    },
    {
      "constant": true,
      "inputs": [
        {
          "name": "",
          "type": "address"
        },
        {
          "name": "",
          "type": "address"
        }
      ],
      "name": "allowance",
      "outputs": [
        {
          "name": "",
          "type": "uint256"
        }
      ],
      "payable": false,
      "stateMutability": "view",
      "type": "function"
    },
    {
      "inputs": [
        {
          "name": "_name",
          "type": "string"
        },
        {
          "name": "_symbol",
          "type": "string"
        },
        {
          "name": "_decimals",
          "type": "uint8"
        },
        {
          "name": "_totalSupply",
          "type": "uint256"
        },
        {
          "name": "_underlying",
          "type": "address"
        }
      ],
      "payable": false,
      "stateMutability": "nonpayable",
      "type": "constructor"
    },
    {
      "anonymous": false,
      "inputs": [
        {
          "indexed": true,
          "name": "_from",
          "type": "address"
        },
        {
          "indexed": true,
          "name": "_to",
          "type": "address"
        },
        {
          "indexed": false,
          "name": "_value",
          "type": "uint256"
        }
      ],
      "name": "Transfer",
      "type": "event"
    },
    {
      "anonymous": false,
      "inputs": [
        {
          "indexed": true,
          "name": "_owner",
          "type": "address"
        },
        {
          "indexed": true,
          "name": "_spender",
          "type": "address"
        },
        {
          "indexed": false,
          "name": "_value",
          "type": "uint256"
        }
      ],
      "name": "Approval",
      "type": "event"
    },
    {
      "constant": false,
      "inputs": [
        {
          "name": "mintAmount",
          "type": "uint256"
        }
      ],
      "name": "mint",
      "outputs": [
        {
          "name": "",
          "type": "uint256"
        }
      ],
      "payable": false,
      "stateMutability": "nonpayable",
      "type": "function"
    },
    {
      "constant": false,
      "inputs": [
        {
          "name": "redeemAmount",
          "type": "uint256"
        }
      ],
      "name": "redeemUnderlying",
      "outputs": [
        {
          "name": "",
          "type": "uint256"
        }
      ],
      "payable": false,
      "stateMutability": "nonpayable",
      "type": "function"
    },
    {
      "constant": true,
      "inputs": [
        {
          "name": "account",
          "type": "address"
        }
      ],
      "name": "balanceOfUnderlying",
      "outputs": [
        {
          "name": "",
          "type": "uint256"
        }
      ],
      "payable": false,
      "stateMutability": "view",
      "type": "function"
    }
  ],
  "bytecode": "0x6080604052600f60085534801561001557600080fd5b5060405162000dc338038062000dc3833981016040908152815160208301519183015160608401516080850151928501805190959490940193919290918590859085908590600010801561006a575060008351115b151561007557600080fd5b835161008890600090602087019061018a565b50825161009c90600190602086019061018a565b506002805460ff191660ff939093169290921790915560038190553360009081526004602081815260408084209490945560068054600160a060020a031916600160a060020a0389811691909117918290556402540be40060085585517f313ce56700000000000000000000000000000000000000000000000000000000815295519116965063313ce567955084830194919390929183900390910190829087803b15801561014a57600080fd5b505af115801561015e573d6000803e3d6000fd5b505050506040513d602081101561017457600080fd5b505160ff16600a0a600755506102259350505050565b828054600181600116156101000203166002900490600052602060002090601f016020900481019282601f106101cb57805160ff19168380011785556101f8565b828001600101855582156101f8579182015b828111156101f85782518255916020019190600101906101dd565b50610204929150610208565b5090565b61022291905b80821115610204576000815560010161020e565b90565b610b8e80620002356000396000f3006080604052600436106100da5763ffffffff7c010000000000000000000000000000000000000000000000000000000060003504166306fdde0381146100df578063095ea7b31461016957806318160ddd146101ae57806323b872dd146101d5578063313ce5671461020c5780633af9e66914610237578063691c0d7f146102655780636f307dc31461027a57806370a08231146102b8578063852a12e3146102e657806395d89b41146102fe578063a0712d6814610313578063a9059cbb1461032b578063bd6d894d1461035c578063dd62ed3e14610371575b600080fd5b3480156100eb57600080fd5b506100f46103a5565b6040805160208082528351818301528351919283929083019185019080838360005b8381101561012e578181015183820152602001610116565b50505050905090810190601f16801561015b5780820380516001836020036101000a031916815260200191505b509250505060405180910390f35b34801561017557600080fd5b5061019a73ffffffffffffffffffffffffffffffffffffffff60043516602435610433565b604080519115158252519081900360200190f35b3480156101ba57600080fd5b506101c3610515565b60408051918252519081900360200190f35b3480156101e157600080fd5b5061019a73ffffffffffffffffffffffffffffffffffffffff6004358116906024351660443561051b565b34801561021857600080fd5b506102216106a4565b6040805160ff9092168252519081900360200190f35b34801561024357600080fd5b506101c373ffffffffffffffffffffffffffffffffffffffff600435166106ad565b34801561027157600080fd5b506101c3610702565b34801561028657600080fd5b5061028f610708565b6040805173ffffffffffffffffffffffffffffffffffffffff9092168252519081900360200190f35b3480156102c457600080fd5b506101c373ffffffffffffffffffffffffffffffffffffffff60043516610724565b3480156102f257600080fd5b506101c3600435610736565b34801561030a57600080fd5b506100f4610857565b34801561031f57600080fd5b506101c36004356108b1565b34801561033757600080fd5b5061019a73ffffffffffffffffffffffffffffffffffffffff600435166024356109d0565b34801561036857600080fd5b506101c3610ac0565b34801561037d57600080fd5b506101c373ffffffffffffffffffffffffffffffffffffffff60043581169060243516610ac6565b6000805460408051602060026001851615610100026000190190941693909304601f8101849004840282018401909252818152929183018282801561042b5780601f106104005761010080835404028352916020019161042b565b820191906000526020600020905b81548152906001019060200180831161040e57829003601f168201915b505050505081565b60008273ffffffffffffffffffffffffffffffffffffffff8116151561045857600080fd5b821580610493575033600090815260056020908152604080832073ffffffffffffffffffffffffffffffffffffffff88168452909152902054155b151561049e57600080fd5b33600081815260056020908152604080832073ffffffffffffffffffffffffffffffffffffffff891680855290835292819020879055805187815290519293927f8c5be1e5ebec7d5bd14f71427d1e84f3dd0314c0f7b2291e5b200ac8c7c3b925929181900390910190a3600191505b5092915050565b60035481565b60008373ffffffffffffffffffffffffffffffffffffffff8116151561054057600080fd5b8373ffffffffffffffffffffffffffffffffffffffff8116151561056357600080fd5b73ffffffffffffffffffffffffffffffffffffffff861660009081526005602090815260408083203384529091529020546105a4908563ffffffff610ae316565b73ffffffffffffffffffffffffffffffffffffffff87166000818152600560209081526040808320338452825280832094909455918152600490915220546105f2908563ffffffff610ae316565b73ffffffffffffffffffffffffffffffffffffffff8088166000908152600460205260408082209390935590871681522054610634908563ffffffff610af816565b73ffffffffffffffffffffffffffffffffffffffff80871660008181526004602090815260409182902094909455805188815290519193928a16927fddf252ad1be2c89b69c2b068fc378daa952ba7f163c4a11628f55a4df523b3ef92918290030190a350600195945050505050565b60025460ff1681565b60075460085473ffffffffffffffffffffffffffffffffffffffff831660009081526004602052604081205490926106fc9290916106f09163ffffffff610b1116565b9063ffffffff610b3f16565b92915050565b60075481565b60065473ffffffffffffffffffffffffffffffffffffffff1681565b60046020526000908152604090205481565b6000806107546008546106f060075486610b1190919063ffffffff16565b33600090815260046020526040902054909150610777908263ffffffff610ae316565b3360009081526004602052604090205560035461079a908263ffffffff610ae316565b600355600654604080517fa9059cbb00000000000000000000000000000000000000000000000000000000815233600482015260248101869052905173ffffffffffffffffffffffffffffffffffffffff9092169163a9059cbb916044808201926020929091908290030181600087803b15801561081757600080fd5b505af115801561082b573d6000803e3d6000fd5b505050506040513d602081101561084157600080fd5b5051151561084e57600080fd5b50600092915050565b60018054604080516020600284861615610100026000190190941693909304601f8101849004840282018401909252818152929183018282801561042b5780601f106104005761010080835404028352916020019161042b565b600654604080517f23b872dd000000000000000000000000000000000000000000000000000000008152336004820152306024820152604481018490529051600092839273ffffffffffffffffffffffffffffffffffffffff909116916323b872dd9160648082019260209290919082900301818787803b15801561093557600080fd5b505af1158015610949573d6000803e3d6000fd5b505050506040513d602081101561095f57600080fd5b505060085460075461097d91906106f090869063ffffffff610b1116565b600354909150610993908263ffffffff610af816565b600355336000908152600460205260409020546109b6908263ffffffff610af816565b336000908152600460205260408120919091559392505050565b60008273ffffffffffffffffffffffffffffffffffffffff811615156109f557600080fd5b33600090815260046020526040902054610a15908463ffffffff610ae316565b336000908152600460205260408082209290925573ffffffffffffffffffffffffffffffffffffffff861681522054610a54908463ffffffff610af816565b73ffffffffffffffffffffffffffffffffffffffff85166000818152600460209081526040918290209390935580518681529051919233927fddf252ad1be2c89b69c2b068fc378daa952ba7f163c4a11628f55a4df523b3ef9281900390910190a35060019392505050565b60085481565b600560209081526000928352604080842090915290825290205481565b600081831015610af257600080fd5b50900390565b600082820183811015610b0a57600080fd5b9392505050565b600080831515610b24576000915061050e565b50828202828482811515610b3457fe5b0414610b0a57600080fd5b600080808311610b4e57600080fd5b8284811515610b5957fe5b049493505050505600a165627a7a72305820580a1ffa1071c1fc59b6d2d36e908a793059df060691c3c56f87e286d5d378760029",
  "source": "pragma solidity ^0.4.26;\n\nimport \"../../bancorContracts/solidity/contracts/token/ERC20Token.sol\";\nimport \"../../bancorContracts/solidity/contracts/utility/SafeMath.sol\";\n\ncontract CTokenMock is ERC20Token {\n\n\tusing SafeMath for uint;\n\tusing SafeMath for uint256;\n\n\tERC20Token public underlying;\n\tuint public underlyingDec;\n\tuint public exchangeRateCurrent= 15;\n\n\tconstructor(string _name, string _symbol, uint8 _decimals, uint256 _totalSupply,address _underlying) \n\tpublic \n\tERC20Token(_name,_symbol,_decimals,_totalSupply) {\n\n\t\tunderlying = ERC20Token(_underlying);\n\t\texchangeRateCurrent = 10000000000;\n\t\tunderlyingDec = 10**uint(underlying.decimals());\n\t}\n\n\n\tfunction mint(uint mintAmount) public returns (uint) {\n\t\tunderlying.transferFrom(msg.sender,this,mintAmount);\n\t\tuint ctokenAmount = mintAmount.mul(underlyingDec).div(exchangeRateCurrent);\n\t\ttotalSupply = totalSupply.add(ctokenAmount);\n\t\tbalanceOf[msg.sender]=balanceOf[msg.sender].add(ctokenAmount);\n\t\treturn 0;\n\t}\n\t\n\tfunction redeemUnderlying(uint redeemAmount) public returns (uint) {\n\t\tuint ctokenAmount = redeemAmount.mul(underlyingDec).div(exchangeRateCurrent);\n\t\tbalanceOf[msg.sender]=balanceOf[msg.sender].sub(ctokenAmount);\n\t\ttotalSupply = totalSupply.sub(ctokenAmount);\n\t\trequire(underlying.transfer(msg.sender,redeemAmount));\n\t\treturn 0;\n\t}\n\n\tfunction balanceOfUnderlying(address account) public view returns (uint) {\n\t\treturn balanceOf[account].mul(exchangeRateCurrent).div(underlyingDec);\n\t}\n}",
  "sourcePath": "/home/faycal/Desktop/projects/BancorCompoundPool/contracts/mock/CTokenMock.sol",
  "compiler": {
    "name": "solc",
    "version": "0.4.26+commit.4563c3fc.Emscripten.clang"
  },
  "schemaVersion": "3.1.0",
  "updatedAt": "2020-04-17T21:29:21.236Z",
  "devdoc": {
    "methods": {
      "approve(address,uint256)": {
        "details": "allow another account/contract to spend some tokens on your behalf\r throws on any error rather then return a false flag to minimize user errors\r \r also, to minimize the risk of the approve/transferFrom attack vector\r (see https://docs.google.com/document/d/1YLPtQxZu1UAvO9cZ1O2RPXBbT0mooh4DYKjA_jp-RLM/), approve has to be called twice\r in 2 separate transactions - once to change the allowance to 0 and secondly to change it to the new allowance value\r \r",
        "params": {
          "_spender": "approved address\r",
          "_value": "allowance amount\r \r"
        },
        "return": "true if the approval was successful, false if it wasn't\r"
      },
      "transfer(address,uint256)": {
        "details": "send coins\r throws on any error rather then return a false flag to minimize user errors\r \r",
        "params": {
          "_to": "target address\r",
          "_value": "transfer amount\r \r"
        },
        "return": "true if the transfer was successful, false if it wasn't\r"
      },
      "transferFrom(address,address,uint256)": {
        "details": "an account/contract attempts to get the coins\r throws on any error rather then return a false flag to minimize user errors\r \r",
        "params": {
          "_from": "source address\r",
          "_to": "target address\r",
          "_value": "transfer amount\r \r"
        },
        "return": "true if the transfer was successful, false if it wasn't\r"
      }
    }
  },
  "userdoc": {
    "methods": {}
  }
}