{
  "contractName": "FeatureIds",
  "abi": [
    {
      "constant": true,
      "inputs": [],
      "name": "CONVERTER_CONVERSION_WHITELIST",
      "outputs": [
        {
          "name": "",
          "type": "uint256"
        }
      ],
      "payable": false,
      "stateMutability": "view",
      "type": "function"
    }
  ],
  "bytecode": "0x6080604052348015600f57600080fd5b5060988061001e6000396000f300608060405260043610603e5763ffffffff7c010000000000000000000000000000000000000000000000000000000060003504166392d1abb781146043575b600080fd5b348015604e57600080fd5b5060556067565b60408051918252519081900360200190f35b6001815600a165627a7a723058209a0142cdbc7c8ede4990407c9dd50c3399ece954d50ee0c79bf8f9675073830c0029",
  "source": "pragma solidity 0.4.26;\r\n\r\n/**\r\n  * @dev Id definitions for bancor contract features\r\n  * \r\n  * Can be used to query the ContractFeatures contract to check whether a certain feature is supported by a contract\r\n*/\r\ncontract FeatureIds {\r\n    // converter features\r\n    uint256 public constant CONVERTER_CONVERSION_WHITELIST = 1 << 0;\r\n}\r\n",
  "sourcePath": "/home/faycal/Desktop/projects/BancorCompoundPool/contracts/contracts/FeatureIds.sol",
  "compiler": {
    "name": "solc",
    "version": "0.4.26+commit.4563c3fc.Emscripten.clang"
  },
  "schemaVersion": "3.1.0",
  "updatedAt": "2020-04-17T21:34:25.151Z",
  "devdoc": {
    "methods": {}
  },
  "userdoc": {
    "methods": {}
  }
}