{
  "contractName": "SmartTokenController",
  "abi": [
    {
      "constant": true,
      "inputs": [],
      "name": "bancorX",
      "outputs": [
        {
          "name": "",
          "type": "address"
        }
      ],
      "payable": false,
      "stateMutability": "view",
      "type": "function"
    },
    {
      "constant": false,
      "inputs": [
        {
          "name": "_token",
          "type": "address"
        },
        {
          "name": "_to",
          "type": "address"
        },
        {
          "name": "_amount",
          "type": "uint256"
        }
      ],
      "name": "withdrawTokens",
      "outputs": [],
      "payable": false,
      "stateMutability": "nonpayable",
      "type": "function"
    },
    {
      "constant": false,
      "inputs": [],
      "name": "acceptOwnership",
      "outputs": [],
      "payable": false,
      "stateMutability": "nonpayable",
      "type": "function"
    },
    {
      "constant": true,
      "inputs": [],
      "name": "owner",
      "outputs": [
        {
          "name": "",
          "type": "address"
        }
      ],
      "payable": false,
      "stateMutability": "view",
      "type": "function"
    },
    {
      "constant": true,
      "inputs": [],
      "name": "newOwner",
      "outputs": [
        {
          "name": "",
          "type": "address"
        }
      ],
      "payable": false,
      "stateMutability": "view",
      "type": "function"
    },
    {
      "constant": false,
      "inputs": [
        {
          "name": "_newOwner",
          "type": "address"
        }
      ],
      "name": "transferOwnership",
      "outputs": [],
      "payable": false,
      "stateMutability": "nonpayable",
      "type": "function"
    },
    {
      "constant": true,
      "inputs": [],
      "name": "token",
      "outputs": [
        {
          "name": "",
          "type": "address"
        }
      ],
      "payable": false,
      "stateMutability": "view",
      "type": "function"
    },
    {
      "inputs": [
        {
          "name": "_token",
          "type": "address"
        }
      ],
      "payable": false,
      "stateMutability": "nonpayable",
      "type": "constructor"
    },
    {
      "anonymous": false,
      "inputs": [
        {
          "indexed": true,
          "name": "_prevOwner",
          "type": "address"
        },
        {
          "indexed": true,
          "name": "_newOwner",
          "type": "address"
        }
      ],
      "name": "OwnerUpdate",
      "type": "event"
    },
    {
      "constant": false,
      "inputs": [
        {
          "name": "_newOwner",
          "type": "address"
        }
      ],
      "name": "transferTokenOwnership",
      "outputs": [],
      "payable": false,
      "stateMutability": "nonpayable",
      "type": "function"
    },
    {
      "constant": false,
      "inputs": [],
      "name": "acceptTokenOwnership",
      "outputs": [],
      "payable": false,
      "stateMutability": "nonpayable",
      "type": "function"
    },
    {
      "constant": false,
      "inputs": [
        {
          "name": "_token",
          "type": "address"
        },
        {
          "name": "_to",
          "type": "address"
        },
        {
          "name": "_amount",
          "type": "uint256"
        }
      ],
      "name": "withdrawFromToken",
      "outputs": [],
      "payable": false,
      "stateMutability": "nonpayable",
      "type": "function"
    },
    {
      "constant": false,
      "inputs": [
        {
          "name": "_from",
          "type": "address"
        },
        {
          "name": "_amount",
          "type": "uint256"
        }
      ],
      "name": "claimTokens",
      "outputs": [],
      "payable": false,
      "stateMutability": "nonpayable",
      "type": "function"
    },
    {
      "constant": false,
      "inputs": [
        {
          "name": "_bancorX",
          "type": "address"
        }
      ],
      "name": "setBancorX",
      "outputs": [],
      "payable": false,
      "stateMutability": "nonpayable",
      "type": "function"
    }
  ],
  "bytecode": "0x608060405234801561001057600080fd5b50604051602080610a15833981016040525160008054600160a060020a0319163317905580600160a060020a038116151561004a57600080fd5b5060028054600160a060020a031916600160a060020a039290921691909117905561099b8061007a6000396000f3006080604052600436106100b95763ffffffff7c01000000000000000000000000000000000000000000000000000000006000350416631120a77681146100be57806321e6b53d146100fc57806338a5e0161461012c57806341a5b33d146101415780635e35359e1461017857806379ba5097146101af5780638da5cb5b146101c4578063d4ee1d90146101d9578063d924f0c3146101ee578063f2fde38b1461021c578063fc0c546a1461024a578063fe417fa51461025f575b600080fd5b3480156100ca57600080fd5b506100d3610290565b6040805173ffffffffffffffffffffffffffffffffffffffff9092168252519081900360200190f35b34801561010857600080fd5b5061012a73ffffffffffffffffffffffffffffffffffffffff600435166102ac565b005b34801561013857600080fd5b5061012a61035f565b34801561014d57600080fd5b5061012a73ffffffffffffffffffffffffffffffffffffffff60043581169060243516604435610423565b34801561018457600080fd5b5061012a73ffffffffffffffffffffffffffffffffffffffff600435811690602435166044356104e7565b3480156101bb57600080fd5b5061012a610638565b3480156101d057600080fd5b506100d36106e7565b3480156101e557600080fd5b506100d3610703565b3480156101fa57600080fd5b5061012a73ffffffffffffffffffffffffffffffffffffffff6004351661071f565b34801561022857600080fd5b5061012a73ffffffffffffffffffffffffffffffffffffffff6004351661077f565b34801561025657600080fd5b506100d3610807565b34801561026b57600080fd5b5061012a73ffffffffffffffffffffffffffffffffffffffff60043516602435610823565b60035473ffffffffffffffffffffffffffffffffffffffff1681565b60005473ffffffffffffffffffffffffffffffffffffffff1633146102d057600080fd5b600254604080517ff2fde38b00000000000000000000000000000000000000000000000000000000815273ffffffffffffffffffffffffffffffffffffffff84811660048301529151919092169163f2fde38b91602480830192600092919082900301818387803b15801561034457600080fd5b505af1158015610358573d6000803e3d6000fd5b5050505050565b60005473ffffffffffffffffffffffffffffffffffffffff16331461038357600080fd5b600260009054906101000a900473ffffffffffffffffffffffffffffffffffffffff1673ffffffffffffffffffffffffffffffffffffffff166379ba50976040518163ffffffff167c0100000000000000000000000000000000000000000000000000000000028152600401600060405180830381600087803b15801561040957600080fd5b505af115801561041d573d6000803e3d6000fd5b50505050565b60005473ffffffffffffffffffffffffffffffffffffffff16331461044757600080fd5b600254604080517f5e35359e00000000000000000000000000000000000000000000000000000000815273ffffffffffffffffffffffffffffffffffffffff868116600483015285811660248301526044820185905291519190921691635e35359e91606480830192600092919082900301818387803b1580156104ca57600080fd5b505af11580156104de573d6000803e3d6000fd5b50505050505050565b60005473ffffffffffffffffffffffffffffffffffffffff16331461050b57600080fd5b8273ffffffffffffffffffffffffffffffffffffffff8116151561052e57600080fd5b8273ffffffffffffffffffffffffffffffffffffffff8116151561055157600080fd5b8373ffffffffffffffffffffffffffffffffffffffff811630141561057557600080fd5b8573ffffffffffffffffffffffffffffffffffffffff1663a9059cbb86866040518363ffffffff167c0100000000000000000000000000000000000000000000000000000000028152600401808373ffffffffffffffffffffffffffffffffffffffff1673ffffffffffffffffffffffffffffffffffffffff16815260200182815260200192505050600060405180830381600087803b15801561061857600080fd5b505af115801561062c573d6000803e3d6000fd5b50505050505050505050565b60015473ffffffffffffffffffffffffffffffffffffffff16331461065c57600080fd5b6001546000805460405173ffffffffffffffffffffffffffffffffffffffff93841693909116917f343765429aea5a34b3ff6a3785a98a5abb2597aca87bfbb58632c173d585373a91a3600180546000805473ffffffffffffffffffffffffffffffffffffffff1990811673ffffffffffffffffffffffffffffffffffffffff841617909155169055565b60005473ffffffffffffffffffffffffffffffffffffffff1681565b60015473ffffffffffffffffffffffffffffffffffffffff1681565b60005473ffffffffffffffffffffffffffffffffffffffff16331461074357600080fd5b6003805473ffffffffffffffffffffffffffffffffffffffff191673ffffffffffffffffffffffffffffffffffffffff92909216919091179055565b60005473ffffffffffffffffffffffffffffffffffffffff1633146107a357600080fd5b60005473ffffffffffffffffffffffffffffffffffffffff828116911614156107cb57600080fd5b6001805473ffffffffffffffffffffffffffffffffffffffff191673ffffffffffffffffffffffffffffffffffffffff92909216919091179055565b60025473ffffffffffffffffffffffffffffffffffffffff1681565b60035473ffffffffffffffffffffffffffffffffffffffff16331461084757600080fd5b600254604080517fa24835d100000000000000000000000000000000000000000000000000000000815273ffffffffffffffffffffffffffffffffffffffff8581166004830152602482018590529151919092169163a24835d191604480830192600092919082900301818387803b1580156108c257600080fd5b505af11580156108d6573d6000803e3d6000fd5b5050600254604080517f867904b400000000000000000000000000000000000000000000000000000000815233600482015260248101869052905173ffffffffffffffffffffffffffffffffffffffff909216935063867904b4925060448082019260009290919082900301818387803b15801561095357600080fd5b505af1158015610967573d6000803e3d6000fd5b5050505050505600a165627a7a7230582009fdb4f96898c88c95861ef54cd469f888c2ffd767df5bf3b0d524e82b2ca5c70029",
  "source": "pragma solidity 0.4.26;\r\nimport './interfaces/ISmartTokenController.sol';\r\nimport './interfaces/ISmartToken.sol';\r\nimport '../utility/TokenHolder.sol';\r\n\r\n/**\r\n  * @dev The smart token controller is an upgradable part of the smart token that allows\r\n  * more functionality as well as fixes for bugs/exploits.\r\n  * Once it accepts ownership of the token, it becomes the token's sole controller\r\n  * that can execute any of its functions.\r\n  * \r\n  * To upgrade the controller, ownership must be transferred to a new controller, along with\r\n  * any relevant data.\r\n  * \r\n  * The smart token must be set on construction and cannot be changed afterwards.\r\n  * Wrappers are provided (as opposed to a single 'execute' function) for each of the token's functions, for easier access.\r\n  * \r\n  * Note that the controller can transfer token ownership to a new controller that\r\n  * doesn't allow executing any function on the token, for a trustless solution.\r\n  * Doing that will also remove the owner's ability to upgrade the controller.\r\n*/\r\ncontract SmartTokenController is ISmartTokenController, TokenHolder {\r\n    ISmartToken public token;   // Smart Token contract\r\n    address public bancorX;     // BancorX contract\r\n\r\n    /**\r\n      * @dev initializes a new SmartTokenController instance\r\n      * \r\n      * @param  _token      smart token governed by the controller\r\n    */\r\n    constructor(ISmartToken _token)\r\n        public\r\n        validAddress(_token)\r\n    {\r\n        token = _token;\r\n    }\r\n\r\n    // ensures that the controller is the token's owner\r\n    modifier active() {\r\n        require(token.owner() == address(this));\r\n        _;\r\n    }\r\n\r\n    // ensures that the controller is not the token's owner\r\n    modifier inactive() {\r\n        require(token.owner() != address(this));\r\n        _;\r\n    }\r\n\r\n    /**\r\n      * @dev allows transferring the token ownership\r\n      * the new owner needs to accept the transfer\r\n      * can only be called by the contract owner\r\n      * \r\n      * @param _newOwner    new token owner\r\n    */\r\n    function transferTokenOwnership(address _newOwner) public ownerOnly {\r\n        token.transferOwnership(_newOwner);\r\n    }\r\n\r\n    /**\r\n      * @dev used by a new owner to accept a token ownership transfer\r\n      * can only be called by the contract owner\r\n    */\r\n    function acceptTokenOwnership() public ownerOnly {\r\n        token.acceptOwnership();\r\n    }\r\n\r\n    /**\r\n      * @dev withdraws tokens held by the controller and sends them to an account\r\n      * can only be called by the owner\r\n      * \r\n      * @param _token   ERC20 token contract address\r\n      * @param _to      account to receive the new amount\r\n      * @param _amount  amount to withdraw\r\n    */\r\n    function withdrawFromToken(IERC20Token _token, address _to, uint256 _amount) public ownerOnly {\r\n        ITokenHolder(token).withdrawTokens(_token, _to, _amount);\r\n    }\r\n\r\n    /**\r\n      * @dev allows the associated BancorX contract to claim tokens from any address (so that users\r\n      * dont have to first give allowance when calling BancorX)\r\n      * \r\n      * @param _from      address to claim the tokens from\r\n      * @param _amount    the amount of tokens to claim\r\n     */\r\n    function claimTokens(address _from, uint256 _amount) public {\r\n        // only the associated BancorX contract may call this method\r\n        require(msg.sender == bancorX);\r\n\r\n        // destroy the tokens belonging to _from, and issue the same amount to bancorX\r\n        token.destroy(_from, _amount);\r\n        token.issue(msg.sender, _amount);\r\n    }\r\n\r\n    /**\r\n      * @dev allows the owner to set the associated BancorX contract\r\n      * @param _bancorX    BancorX contract\r\n     */\r\n    function setBancorX(address _bancorX) public ownerOnly {\r\n        bancorX = _bancorX;\r\n    }\r\n}\r\n",
  "sourcePath": "/home/faycal/Desktop/projects/BancorCompoundPool/contracts/contracts/token/SmartTokenController.sol",
  "compiler": {
    "name": "solc",
    "version": "0.4.26+commit.4563c3fc.Emscripten.clang"
  },
  "schemaVersion": "3.1.0",
  "updatedAt": "2020-04-17T21:34:25.423Z",
  "devdoc": {
    "methods": {
      "acceptOwnership()": {
        "details": "used by a new owner to accept an ownership transfer\r"
      },
      "acceptTokenOwnership()": {
        "details": "used by a new owner to accept a token ownership transfer\r can only be called by the contract owner\r"
      },
      "claimTokens(address,uint256)": {
        "details": "allows the associated BancorX contract to claim tokens from any address (so that users\r dont have to first give allowance when calling BancorX)\r \r",
        "params": {
          "_amount": "the amount of tokens to claim\r",
          "_from": "address to claim the tokens from\r"
        }
      },
      "setBancorX(address)": {
        "details": "allows the owner to set the associated BancorX contract\r",
        "params": {
          "_bancorX": "BancorX contract\r"
        }
      },
      "transferOwnership(address)": {
        "details": "allows transferring the contract ownership\r the new owner still needs to accept the transfer\r can only be called by the contract owner\r \r",
        "params": {
          "_newOwner": "new contract owner\r"
        }
      },
      "transferTokenOwnership(address)": {
        "details": "allows transferring the token ownership\r the new owner needs to accept the transfer\r can only be called by the contract owner\r \r",
        "params": {
          "_newOwner": "new token owner\r"
        }
      },
      "withdrawFromToken(address,address,uint256)": {
        "details": "withdraws tokens held by the controller and sends them to an account\r can only be called by the owner\r \r",
        "params": {
          "_amount": "amount to withdraw\r",
          "_to": "account to receive the new amount\r",
          "_token": "ERC20 token contract address\r"
        }
      },
      "withdrawTokens(address,address,uint256)": {
        "details": "withdraws tokens held by the contract and sends them to an account\r can only be called by the owner\r \r",
        "params": {
          "_amount": "amount to withdraw\r",
          "_to": "account to receive the new amount\r",
          "_token": "ERC20 token contract address\r"
        }
      }
    }
  },
  "userdoc": {
    "methods": {}
  }
}