{
  "contractName": "TestBancorFormula",
  "abi": [
    {
      "constant": true,
      "inputs": [
        {
          "name": "_supply",
          "type": "uint256"
        },
        {
          "name": "_reserveBalance",
          "type": "uint256"
        },
        {
          "name": "_totalRatio",
          "type": "uint32"
        },
        {
          "name": "_amount",
          "type": "uint256"
        }
      ],
      "name": "calculateFundCost",
      "outputs": [
        {
          "name": "",
          "type": "uint256"
        }
      ],
      "payable": false,
      "stateMutability": "view",
      "type": "function"
    },
    {
      "constant": true,
      "inputs": [
        {
          "name": "_supply",
          "type": "uint256"
        },
        {
          "name": "_reserveBalance",
          "type": "uint256"
        },
        {
          "name": "_reserveRatio",
          "type": "uint32"
        },
        {
          "name": "_depositAmount",
          "type": "uint256"
        }
      ],
      "name": "calculatePurchaseReturn",
      "outputs": [
        {
          "name": "",
          "type": "uint256"
        }
      ],
      "payable": false,
      "stateMutability": "view",
      "type": "function"
    },
    {
      "constant": true,
      "inputs": [
        {
          "name": "_supply",
          "type": "uint256"
        },
        {
          "name": "_reserveBalance",
          "type": "uint256"
        },
        {
          "name": "_reserveRatio",
          "type": "uint32"
        },
        {
          "name": "_sellAmount",
          "type": "uint256"
        }
      ],
      "name": "calculateSaleReturn",
      "outputs": [
        {
          "name": "",
          "type": "uint256"
        }
      ],
      "payable": false,
      "stateMutability": "view",
      "type": "function"
    },
    {
      "constant": true,
      "inputs": [],
      "name": "version",
      "outputs": [
        {
          "name": "",
          "type": "uint16"
        }
      ],
      "payable": false,
      "stateMutability": "view",
      "type": "function"
    },
    {
      "constant": true,
      "inputs": [
        {
          "name": "_fromConnectorBalance",
          "type": "uint256"
        },
        {
          "name": "_fromConnectorWeight",
          "type": "uint32"
        },
        {
          "name": "_toConnectorBalance",
          "type": "uint256"
        },
        {
          "name": "_toConnectorWeight",
          "type": "uint32"
        },
        {
          "name": "_amount",
          "type": "uint256"
        }
      ],
      "name": "calculateCrossConnectorReturn",
      "outputs": [
        {
          "name": "",
          "type": "uint256"
        }
      ],
      "payable": false,
      "stateMutability": "view",
      "type": "function"
    },
    {
      "constant": true,
      "inputs": [
        {
          "name": "_fromReserveBalance",
          "type": "uint256"
        },
        {
          "name": "_fromReserveRatio",
          "type": "uint32"
        },
        {
          "name": "_toReserveBalance",
          "type": "uint256"
        },
        {
          "name": "_toReserveRatio",
          "type": "uint32"
        },
        {
          "name": "_amount",
          "type": "uint256"
        }
      ],
      "name": "calculateCrossReserveReturn",
      "outputs": [
        {
          "name": "",
          "type": "uint256"
        }
      ],
      "payable": false,
      "stateMutability": "view",
      "type": "function"
    },
    {
      "constant": true,
      "inputs": [
        {
          "name": "_supply",
          "type": "uint256"
        },
        {
          "name": "_reserveBalance",
          "type": "uint256"
        },
        {
          "name": "_totalRatio",
          "type": "uint32"
        },
        {
          "name": "_amount",
          "type": "uint256"
        }
      ],
      "name": "calculateLiquidateReturn",
      "outputs": [
        {
          "name": "",
          "type": "uint256"
        }
      ],
      "payable": false,
      "stateMutability": "view",
      "type": "function"
    },
    {
      "inputs": [],
      "payable": false,
      "stateMutability": "nonpayable",
      "type": "constructor"
    },
    {
      "constant": true,
      "inputs": [
        {
          "name": "_baseN",
          "type": "uint256"
        },
        {
          "name": "_baseD",
          "type": "uint256"
        },
        {
          "name": "_expN",
          "type": "uint32"
        },
        {
          "name": "_expD",
          "type": "uint32"
        }
      ],
      "name": "powerTest",
      "outputs": [
        {
          "name": "",
          "type": "uint256"
        },
        {
          "name": "",
          "type": "uint8"
        }
      ],
      "payable": false,
      "stateMutability": "view",
      "type": "function"
    },
    {
      "constant": true,
      "inputs": [
        {
          "name": "x",
          "type": "uint256"
        }
      ],
      "name": "generalLogTest",
      "outputs": [
        {
          "name": "",
          "type": "uint256"
        }
      ],
      "payable": false,
      "stateMutability": "pure",
      "type": "function"
    },
    {
      "constant": true,
      "inputs": [
        {
          "name": "_n",
          "type": "uint256"
        }
      ],
      "name": "floorLog2Test",
      "outputs": [
        {
          "name": "",
          "type": "uint8"
        }
      ],
      "payable": false,
      "stateMutability": "pure",
      "type": "function"
    },
    {
      "constant": true,
      "inputs": [
        {
          "name": "_x",
          "type": "uint256"
        }
      ],
      "name": "findPositionInMaxExpArrayTest",
      "outputs": [
        {
          "name": "",
          "type": "uint8"
        }
      ],
      "payable": false,
      "stateMutability": "view",
      "type": "function"
    },
    {
      "constant": true,
      "inputs": [
        {
          "name": "_x",
          "type": "uint256"
        },
        {
          "name": "_precision",
          "type": "uint8"
        }
      ],
      "name": "generalExpTest",
      "outputs": [
        {
          "name": "",
          "type": "uint256"
        }
      ],
      "payable": false,
      "stateMutability": "pure",
      "type": "function"
    },
    {
      "constant": true,
      "inputs": [
        {
          "name": "x",
          "type": "uint256"
        }
      ],
      "name": "optimalLogTest",
      "outputs": [
        {
          "name": "",
          "type": "uint256"
        }
      ],
      "payable": false,
      "stateMutability": "pure",
      "type": "function"
    },
    {
      "constant": true,
      "inputs": [
        {
          "name": "x",
          "type": "uint256"
        }
      ],
      "name": "optimalExpTest",
      "outputs": [
        {
          "name": "",
          "type": "uint256"
        }
      ],
      "payable": false,
      "stateMutability": "pure",
      "type": "function"
    }
  ],
  "bytecode": "0x60806040526000805461ffff1916600617905534801561001e57600080fd5b506001606060020a641c35fedd1502036021556001605e60020a646c3390ecc902036022556001606160020a640cf801476102036023556001605f60020a6431bdb23e1d02036024556001605b60020a6502fb1d8fe08302036025556001605a60020a6505b771955b3702036026556001605960020a650af67a93bb5102036027556001605860020a6515060c256cb302036028556001605860020a651428a2f98d7302036029556001605660020a654d51566397090203602a556001605560020a65944620b0e70f0203602b557011c592761c666fffffffffffffffffffff602c5570110a688680a757ffffffffffffffffffff602d55701056f1b5bedf77ffffffffffffffffffff602e55700faadceceeff8bffffffffffffffffffff602f55700f05dc6b27edadffffffffffffffffffff603055700e67a5a25da4107fffffffffffffffffff603155700dcff115b14eedffffffffffffffffffff603255700d3e7a392431239fffffffffffffffffff603355700cb2ff529eb71e4fffffffffffffffffff603455700c2d415c3db974afffffffffffffffffff603555700bad03e7d883f69bffffffffffffffffff603655700b320d03b2c343d5ffffffffffffffffff603755700abc25204e02828dffffffffffffffffff603855700a4b16f74ee4bb207fffffffffffffffff6039557009deaf736ac1f569ffffffffffffffffff603a55700976bd9952c7aa957fffffffffffffffff603b557009131271922eaa606fffffffffffffffff603c557008b380f3558668c46fffffffffffffffff603d55700857ddf0117efa215bffffffffffffffff603e556001608360020a03603f557007abbf6f6abb9d087fffffffffffffffff60405570075af62cbac95f7dfa7fffffffffffffff60415570070d7fb7452e187ac13fffffffffffffff6042557006c3390ecc8af379295fffffffffffffff60435570067c00a3b07ffc01fd6fffffffffffffff604455700637b647c39cbb9d3d27ffffffffffffff6045557005f63b1fc104dbd39587ffffffffffffff6046557005b771955b36e12f7235ffffffffffffff60475570057b3d49dda84556d6f6ffffffffffffff60485570054183095b2c8ececf30ffffffffffffff60495570050a28be635ca2b888f77fffffffffffff604a557004d5156639708c9db33c3fffffffffffff604b557004a23105873875bd52dfdfffffffffffff604c55700471649d87199aa990756fffffffffffff604d557004429a21a029d4c1457cfbffffffffffff604e55700415bc6d6fb7dd71af2cb3ffffffffffff604f557003eab73b3bbfe282243ce1ffffffffffff6050557003c1771ac9fb6b4c18e229ffffffffffff605155700399e96897690418f785257fffffffffff605255700373fc456c53bb779bf0ea9fffffffffff60535570034f9e8e490c48e67e6ab8bfffffffffff60545570032cbfd4a7adc790560b3337ffffffffff60555570030b50570f6e5d2acca94613ffffffffff6056557002eb40f9f620fda6b56c2861ffffffffff6057557002cc8340ecb0d0f520a6af58ffffffffff6058557002af09481380a0a35cf1ba02ffffffffff605955700292c5bdd3b92ec810287b1b3fffffffff605a55700277abdcdab07d5a77ac6d6b9fffffffff605b5570025daf6654b1eaa55fd64df5efffffffff605c55700244c49c648baa98192dce88b7ffffffff605d5570022ce03cd5619a311b2471268bffffffff605e55700215f77c045fbe885654a44a0fffffffff605f556001608160020a036060557001eaefdbdaaee7421fc4d3ede5ffffffff6061557001d6bd8b2eb257df7e8ca57b09bfffffff6062557001c35fedd14b861eb0443f7f133fffffff6063557001b0ce43b322bcde4a56e8ada5afffffff60645570019f0028ec1fff007f5a195a39dfffffff60655570018ded91f0e72ee74f49b15ba527ffffff60665570017d8ec7f04136f4e5615fd41a63ffffff60675570016ddc6556cdb84bdc8d12d22e6fffffff60685570015ecf52776a1155b5bd8395814f7fffff60695570015060c256cb23b3b3cc3754cf40ffffff606a557001428a2f98d728ae223ddab715be3fffff606b5570013545598e5c23276ccf0ede68034fffff606c557001288c4161ce1d6f54b7f61081194fffff606d5570011c592761c666aa641d5a01a40f17ffff606e55700110a688680a7530515f3e6e6cfdcdffff606f557001056f1b5bedf75c6bcb2ce8aed428ffff6070556ffaadceceeff8a0890f3875f008277fff6071556ff05dc6b27edad306388a600f6ba0bfff6072556fe67a5a25da41063de1495d5b18cdbfff6073556fdcff115b14eedde6fc3aa5353f2e4fff6074556fd3e7a3924312399f9aae2e0f868f8fff6075556fcb2ff529eb71e41582cccd5a1ee26fff6076556fc2d415c3db974ab32a51840c0b67edff6077556fbad03e7d883f69ad5b0a186184e06bff6078556fb320d03b2c343d4829abd6075f0cc5ff6079556fabc25204e02828d73c6e80bcdb1a95bf607a556fa4b16f74ee4bb2040a1ec6c15fbbf2df607b556f9deaf736ac1f569deb1b5ae3f36c130f607c556f976bd9952c7aa957f5937d790ef65037607d556f9131271922eaa6064b73a22d0bd4f2bf607e556f8b380f3558668c46c91c49a2f8e967b9607f556f857ddf0117efa215952912839f6473e6608055611961806107d06000396000f3006080604052600436106100cf5763ffffffff7c01000000000000000000000000000000000000000000000000000000006000350416631da6bbfb81146100d457806329a00e7c1461010d5780633e8a38ab146101345780634982d52d1461014c57806349f9b0f71461016457806354fd4d501461018b57806365098bb3146101b75780636cab5055146101e557806379c1b450146102035780638c5ce82a14610231578063a25a34b114610276578063abfd231d146102a4578063acdee8cb146102cb578063ce782e08146102e3575b600080fd5b3480156100e057600080fd5b506100fb60043560243563ffffffff604435166064356102fb565b60408051918252519081900360200190f35b34801561011957600080fd5b506100fb60043560243563ffffffff604435166064356103e7565b34801561014057600080fd5b506100fb6004356104c5565b34801561015857600080fd5b506100fb6004356104d6565b34801561017057600080fd5b506100fb60043560243563ffffffff604435166064356104e1565b34801561019757600080fd5b506101a06105de565b6040805161ffff9092168252519081900360200190f35b3480156101c357600080fd5b506100fb60043563ffffffff60243581169060443590606435166084356105e8565b3480156101f157600080fd5b506100fb60043560ff60243516610601565b34801561020f57600080fd5b506100fb60043563ffffffff6024358116906044359060643516608435610614565b34801561023d57600080fd5b5061025b60043560243563ffffffff60443581169060643516610729565b6040805192835260ff90911660208301528051918290030190f35b34801561028257600080fd5b5061028e600435610745565b6040805160ff9092168252519081900360200190f35b3480156102b057600080fd5b506100fb60043560243563ffffffff60443516606435610750565b3480156102d757600080fd5b506100fb6004356107e9565b3480156102ef57600080fd5b5061028e6004356107f4565b600080600080600080891180156103125750600088115b8015610324575060018763ffffffff16115b80156103395750621e848063ffffffff881611155b151561034457600080fd5b85151561035457600094506103db565b63ffffffff8716620f4240141561038d57886001610378888b63ffffffff6107ff16565b0381151561038257fe5b0460010194506103db565b61039d898763ffffffff61083816565b91506103ae828a620f42408a61084a565b909450925060ff831660016103c98a8763ffffffff6107ff16565b039060020a9004600101905087810394505b50505050949350505050565b600080600080600080891180156103fe5750600088115b8015610410575060008763ffffffff16115b80156104255750620f424063ffffffff881611155b151561043057600080fd5b85151561044057600094506103db565b63ffffffff8716620f4240141561047357876104628a8863ffffffff6107ff16565b81151561046b57fe5b0494506103db565b610483868963ffffffff61083816565b9150610494828989620f424061084a565b909450925060ff83166104ad8a8663ffffffff6107ff16565b60029190910a90049890980398975050505050505050565b60006104d082610940565b92915050565b60006104d082610e34565b60008060008060008060008a1180156104fa5750600089115b801561050c575060008863ffffffff16115b80156105215750620f424063ffffffff891611155b801561052d5750898711155b151561053857600080fd5b86151561054857600095506105d1565b89871415610558578895506105d1565b63ffffffff8816620f4240141561058b578961057a8a8963ffffffff6107ff16565b81151561058357fe5b0495506105d1565b868a03925061059f8a84620f42408b61084a565b90955093506105b4898663ffffffff6107ff16565b91505060ff831660020a8802848183038115156105cd57fe5b0495505b5050505050949350505050565b60005461ffff1681565b60006105f78686868686610614565b9695505050505050565b600061060d8383610f37565b9392505050565b60008060008060008060008b118015610633575060008a63ffffffff16115b80156106485750620f424063ffffffff8b1611155b80156106545750600089115b8015610666575060008863ffffffff16115b801561067b5750620f424063ffffffff891611155b151561068657600080fd5b8763ffffffff168a63ffffffff1614156106cb576106aa8b8863ffffffff61083816565b6106ba8a8963ffffffff6107ff16565b8115156106c357fe5b04955061071b565b6106db8b8863ffffffff61083816565b92506106e9838c8c8b61084a565b90955093506106fe898663ffffffff6107ff16565b91505060ff831660020a88028481830381151561071757fe5b0495505b505050505095945050505050565b6000806107388686868661084a565b9150915094509492505050565b60006104d08261135a565b60008060008060008060008a1180156107695750600089115b801561077b575060018863ffffffff16115b80156107905750621e848063ffffffff891611155b801561079c5750898711155b15156107a757600080fd5b8615156107b757600095506105d1565b898714156107c7578895506105d1565b63ffffffff8816620f4240141561058b578961057a888b63ffffffff6107ff16565b60006104d0826113e7565b60006104d0826118cc565b6000808315156108125760009150610831565b5082820282848281151561082257fe5b041461082d57600080fd5b8091505b5092915050565b60008282018381101561082d57600080fd5b600080808080807002000000000000000000000000000000008a1061086e57600080fd5b886f800000000000000000000000000000008b0281151561088b57fe5b04925070015bf0a8b1457695355fb8ac404e7a79e38310156108b7576108b083610940565b93506108c3565b6108c083610e34565b93505b8663ffffffff168863ffffffff1685028115156108dc57fe5b04915070080000000000000000000000000000000082101561090c57610901826113e7565b607f95509550610933565b6109158261135a565b905061092d60ff607f8390031660020a830482610f37565b81955095505b5050505094509492505050565b6000808080806fd3094c70f034de4b96ff7d5b6f99fcd8861061099b576f4000000000000000000000000000000093909301926fd3094c70f034de4b96ff7d5b6f99fcd86f8000000000000000000000000000000087020495505b6fa45af1e1f40c333b3de1db4dd55f29a786106109f0576f2000000000000000000000000000000093909301926fa45af1e1f40c333b3de1db4dd55f29a76f8000000000000000000000000000000087020495505b6f910b022db7ae67ce76b441c27035c6a18610610a45576f1000000000000000000000000000000093909301926f910b022db7ae67ce76b441c27035c6a16f8000000000000000000000000000000087020495505b6f88415abbe9a76bead8d00cf112e4d4a88610610a9a576f0800000000000000000000000000000093909301926f88415abbe9a76bead8d00cf112e4d4a86f8000000000000000000000000000000087020495505b6f84102b00893f64c705e841d5d4064bd38610610aef576f0400000000000000000000000000000093909301926f84102b00893f64c705e841d5d4064bd36f8000000000000000000000000000000087020495505b6f8204055aaef1c8bd5c3259f4822735a28610610b44576f0200000000000000000000000000000093909301926f8204055aaef1c8bd5c3259f4822735a26f8000000000000000000000000000000087020495505b6f810100ab00222d861931c15e39b44e998610610b99576f0100000000000000000000000000000093909301926f810100ab00222d861931c15e39b44e996f8000000000000000000000000000000087020495505b6f808040155aabbbe9451521693554f7338610610bed576e80000000000000000000000000000093909301926f808040155aabbbe9451521693554f7336f8000000000000000000000000000000087020495505b7fffffffffffffffffffffffffffffffff80000000000000000000000000000000860192508291506f8000000000000000000000000000000082800204905070010000000000000000000000000000000083810383020493909301926f800000000000000000000000000000008282020491507002000000000000000000000000000000006faaaaaaaaaaaaaaaaaaaaaaaaaaaaaaaa84900383020493909301926f800000000000000000000000000000008282020491507003000000000000000000000000000000006f9999999999999999999999999999999984900383020493909301926f800000000000000000000000000000008282020491507004000000000000000000000000000000006f9249249249249249249249249249249284900383020493909301926f800000000000000000000000000000008282020491507005000000000000000000000000000000006f8e38e38e38e38e38e38e38e38e38e38e84900383020493909301926f800000000000000000000000000000008282020491507006000000000000000000000000000000006f8ba2e8ba2e8ba2e8ba2e8ba2e8ba2e8b84900383020493909301926f800000000000000000000000000000008282020491507007000000000000000000000000000000006f89d89d89d89d89d89d89d89d89d89d8984900383020493909301926f800000000000000000000000000000008282020491507008000000000000000000000000000000006f888888888888888888888888888888888490038302049390930195945050505050565b60008080807001000000000000000000000000000000008510610e9057610e6c6f8000000000000000000000000000000086046118cc565b60ff8116600281900a909604956f8000000000000000000000000000000002935091505b6f80000000000000000000000000000000851115610f075750607f5b60008160ff161115610f07576f800000000000000000000000000000008580020494507001000000000000000000000000000000008510610efe576002948590049460ff600019830116900a92909201915b60001901610eac565b6f05b9de1d10bf4103d647b0955897ba806f03f80fe03f80fe03f80fe03f80fe03f884020493505b505050919050565b6000806000849150600090508360ff168583029060020a90049150816f03442c4e6074a82f1797f72ac000000002810190508360ff168583029060020a90049150816f0116b96f757c380fb287fd0e4000000002810190508360ff168583029060020a90049150816e45ae5bdd5f0e03eca1ff439000000002810190508360ff168583029060020a90049150816e0defabf91302cd95b9ffda5000000002810190508360ff168583029060020a90049150816e02529ca9832b22439efff9b800000002810190508360ff168583029060020a90049150816d54f1cf12bd04e516b6da8800000002810190508360ff168583029060020a90049150816d0a9e39e257a09ca2d6db5100000002810190508360ff168583029060020a90049150816d012e066e7b839fa050c30900000002810190508360ff168583029060020a90049150816c1e33d7d926c329a1ad1a80000002810190508360ff168583029060020a90049150816c02bee513bdb4a6b19b5f80000002810190508360ff168583029060020a90049150816b3a9316fa79b88eccf2a0000002810190508360ff168583029060020a90049150816b048177ebe1fa81237520000002810190508360ff168583029060020a90049150816a5263fe90242dcbacf0000002810190508360ff168583029060020a90049150816a057e22099c030d9410000002810190508360ff168583029060020a90049150816957e22099c030d941000002810190508360ff168583029060020a900491508169052b6b5456997631000002810190508360ff168583029060020a9004915081684985f67696bf74800002810190508360ff168583029060020a90049150816803dea12ea99e49800002810190508360ff168583029060020a90049150816731880f2214b6e00002810190508360ff168583029060020a900491508167025bcff56eb3600002810190508360ff168583029060020a9004915081661b722e10ab100002810190508360ff168583029060020a90049150816601317c7007700002810190508360ff168583029060020a9004915081650cba84aafa0002810190508360ff168583029060020a90049150816482573a0a0002810190508360ff168583029060020a90049150816405035ad90002810190508360ff168583029060020a9004915081632f881b0002810190508360ff168583029060020a90049150816301b2934002810190508360ff168583029060020a9004915081620efc4002810190508360ff168583029060020a9004915081617fe002810190508360ff168583029060020a900491508161042002810190508360ff168583029060020a9004915081602102810190508360ff168583029060020a9004915081600102810190508360ff1660019060020a02856f0688589cc0e9505e2f2fee55800000008381151561134e57fe5b04010195945050505050565b60006020607f825b8160ff168360010160ff1610156113a757600260ff8484011604905084600160ff83166080811061138f57fe5b01541061139e578092506113a2565b8091505b611362565b84600160ff8416608081106113b857fe5b0154106113c757819350610f2f565b84600160ff8516608081106113d857fe5b0154106100cf57829350610f2f565b6000670168244fdac780006f800000000000000000000000000000006f0fffffffffffffffffffffffffffffff84168080028290048082028390048083028490049485026710e1b3be415a00009092026705a0913f6b1e000091909102010192909181830204905080664807432bc1800002830192506f8000000000000000000000000000000082820281151561147a57fe5b04905080660c0135dca0400002830192506f800000000000000000000000000000008282028115156114a857fe5b049050806601b707b1cdc00002830192506f800000000000000000000000000000008282028115156114d657fe5b049050806536e0f639b80002830192506f8000000000000000000000000000000082820281151561150357fe5b04905080650618fee9f80002830192506f8000000000000000000000000000000082820281151561153057fe5b04905080649c197dcc0002830192506f8000000000000000000000000000000082820281151561155c57fe5b04905080640e30dce40002830192506f8000000000000000000000000000000082820281151561158857fe5b0490508064012ebd130002830192506f800000000000000000000000000000008282028115156115b457fe5b049050806317499f0002830192506f800000000000000000000000000000008282028115156115df57fe5b049050806301a9d48002830192506f8000000000000000000000000000000082820281151561160a57fe5b04905080621c638002830192506f8000000000000000000000000000000082820281151561163457fe5b049050806201c63802830192506f8000000000000000000000000000000082820281151561165e57fe5b04905080611ab802830192506f8000000000000000000000000000000082820281151561168757fe5b0490508061017c02830192506f800000000000000000000000000000008282028115156116b057fe5b04905080601402830192506f800000000000000000000000000000008282028115156116d857fe5b6721c3677c82b400009190049384010482016f80000000000000000000000000000000019290506f100000000000000000000000000000008516156117415770018ebef9eac820ae8682b9793ac6d1e7767001c3d6a24ed82218787d624d3e5eba95f984020492505b6f20000000000000000000000000000000851615611783577001368b2fc6f9609fe7aceb46aa619baed470018ebef9eac820ae8682b9793ac6d1e77884020492505b6f400000000000000000000000000000008516156117c4576fbc5ab1b16779be3575bd8f0520a9f21f7001368b2fc6f9609fe7aceb46aa619baed584020492505b6f80000000000000000000000000000000851615611804576f454aaa8efe072e7f6ddbab84b40a55c96fbc5ab1b16779be3575bd8f0520a9f21e84020492505b700100000000000000000000000000000000851615611845576f0960aadc109e7a3bf4578099615711ea6f454aaa8efe072e7f6ddbab84b40a55c584020492505b700200000000000000000000000000000000851615611885576e2bf84208204f5977f9a8cf01fdce3d6f0960aadc109e7a3bf4578099615711d784020492505b7004000000000000000000000000000000008516156118c3576d03c6ab775dd0b95b4cbee7e65d116e2bf84208204f5977f9a8cf01fdc30784020492505b50909392505050565b600080806101008410156118fb575b60018411156118f657600290930492600191909101906118db565b610831565b5060805b60008160ff1611156108315760ff811660020a84106119285760ff811660020a90930492908117905b600260ff909116046118ff5600a165627a7a7230582096df6335d71a9528b23b8c88e49c9aac4fe335dc383d4e0ed1b87e2fe4d400430029",
  "source": "pragma solidity 0.4.26;\nimport '../converter/BancorFormula.sol';\n\n/*\n    BancorFormula test helper that exposes some BancorFormula functions\n*/\ncontract TestBancorFormula is BancorFormula {\n    constructor() public {\n    }\n\n    function powerTest(uint256 _baseN, uint256 _baseD, uint32 _expN, uint32 _expD) external view returns (uint256, uint8) {\n        return super.power(_baseN, _baseD, _expN, _expD);\n    }\n\n    function generalLogTest(uint256 x) external pure returns (uint256) {\n        return super.generalLog(x);\n    }\n\n    function floorLog2Test(uint256 _n) external pure returns (uint8) {\n        return super.floorLog2(_n);\n    }\n\n    function findPositionInMaxExpArrayTest(uint256 _x) external view returns (uint8) {\n        return super.findPositionInMaxExpArray(_x);\n    }\n\n    function generalExpTest(uint256 _x, uint8 _precision) external pure returns (uint256) {\n        return super.generalExp(_x, _precision);\n    }\n\n    function optimalLogTest(uint256 x) external pure returns (uint256) {\n        return super.optimalLog(x);\n    }\n\n    function optimalExpTest(uint256 x) external pure returns (uint256) {\n        return super.optimalExp(x);\n    }\n}\n",
  "sourcePath": "/home/faycal/Desktop/projects/BancorCompoundPool/contracts/contracts/helpers/TestBancorFormula.sol",
  "compiler": {
    "name": "solc",
    "version": "0.4.26+commit.4563c3fc.Emscripten.clang"
  },
  "schemaVersion": "3.1.0",
  "updatedAt": "2020-04-17T21:34:25.386Z",
  "devdoc": {
    "methods": {
      "calculateCrossConnectorReturn(uint256,uint32,uint256,uint32,uint256)": {
        "details": "deprecated, backward compatibility\r"
      },
      "calculateCrossReserveReturn(uint256,uint32,uint256,uint32,uint256)": {
        "details": "given two reserve balances/ratios and a sell amount (in the first reserve token),\r calculates the return for a conversion from the first reserve token to the second reserve token (in the second reserve token)\r note that prior to version 4, you should use 'calculateCrossConnectorReturn' instead\r \r Formula:\r Return = _toReserveBalance * (1 - (_fromReserveBalance / (_fromReserveBalance + _amount)) ^ (_fromReserveRatio / _toReserveRatio))\r \r",
        "params": {
          "_amount": "input reserve amount\r \r",
          "_fromReserveBalance": "input reserve balance\r",
          "_fromReserveRatio": "input reserve ratio, represented in ppm, 1-1000000\r",
          "_toReserveBalance": "output reserve balance\r",
          "_toReserveRatio": "output reserve ratio, represented in ppm, 1-1000000\r"
        },
        "return": "second reserve amount\r"
      },
      "calculateFundCost(uint256,uint256,uint32,uint256)": {
        "details": "given a smart token supply, reserve balance, total ratio and an amount of requested smart tokens,\r calculates the amount of reserve tokens required for purchasing the given amount of smart tokens\r \r Formula:\r Return = _reserveBalance * (((_supply + _amount) / _supply) ^ (MAX_RATIO / _totalRatio) - 1)\r \r",
        "params": {
          "_amount": "requested amount of smart tokens\r \r",
          "_reserveBalance": "reserve token balance\r",
          "_supply": "smart token supply\r",
          "_totalRatio": "total ratio, represented in ppm, 2-2000000\r"
        },
        "return": "amount of reserve tokens\r"
      },
      "calculateLiquidateReturn(uint256,uint256,uint32,uint256)": {
        "details": "given a smart token supply, reserve balance, total ratio and an amount of smart tokens to liquidate,\r calculates the amount of reserve tokens received for selling the given amount of smart tokens\r \r Formula:\r Return = _reserveBalance * (1 - ((_supply - _amount) / _supply) ^ (MAX_RATIO / _totalRatio))\r \r",
        "params": {
          "_amount": "amount of smart tokens to liquidate\r \r",
          "_reserveBalance": "reserve token balance\r",
          "_supply": "smart token supply\r",
          "_totalRatio": "total ratio, represented in ppm, 2-2000000\r"
        },
        "return": "amount of reserve tokens\r"
      },
      "calculatePurchaseReturn(uint256,uint256,uint32,uint256)": {
        "details": "given a token supply, reserve balance, ratio and a deposit amount (in the reserve token),\r calculates the return for a given conversion (in the main token)\r \r Formula:\r Return = _supply * ((1 + _depositAmount / _reserveBalance) ^ (_reserveRatio / 1000000) - 1)\r \r",
        "params": {
          "_depositAmount": "deposit amount, in reserve token\r \r",
          "_reserveBalance": "total reserve balance\r",
          "_reserveRatio": "reserve ratio, represented in ppm, 1-1000000\r",
          "_supply": "token total supply\r"
        },
        "return": "purchase return amount\r"
      },
      "calculateSaleReturn(uint256,uint256,uint32,uint256)": {
        "details": "given a token supply, reserve balance, ratio and a sell amount (in the main token),\r calculates the return for a given conversion (in the reserve token)\r \r Formula:\r Return = _reserveBalance * (1 - (1 - _sellAmount / _supply) ^ (1000000 / _reserveRatio))\r \r",
        "params": {
          "_reserveBalance": "total reserve\r",
          "_reserveRatio": "constant reserve Ratio, represented in ppm, 1-1000000\r",
          "_sellAmount": "sell amount, in the token itself\r \r",
          "_supply": "token total supply\r"
        },
        "return": "sale return amount\r"
      }
    }
  },
  "userdoc": {
    "methods": {}
  }
}