{
  "contractName": "TestCrowdsaleController",
  "abi": [
    {
      "constant": true,
      "inputs": [],
      "name": "BTCS_ETHER_CAP",
      "outputs": [
        {
          "name": "",
          "type": "uint256"
        }
      ],
      "payable": false,
      "stateMutability": "view",
      "type": "function"
    },
    {
      "constant": true,
      "inputs": [],
      "name": "TOKEN_PRICE_D",
      "outputs": [
        {
          "name": "",
          "type": "uint256"
        }
      ],
      "payable": false,
      "stateMutability": "view",
      "type": "function"
    },
    {
      "constant": true,
      "inputs": [],
      "name": "bancorX",
      "outputs": [
        {
          "name": "",
          "type": "address"
        }
      ],
      "payable": false,
      "stateMutability": "view",
      "type": "function"
    },
    {
      "constant": false,
      "inputs": [],
      "name": "contributeETH",
      "outputs": [
        {
          "name": "amount",
          "type": "uint256"
        }
      ],
      "payable": true,
      "stateMutability": "payable",
      "type": "function"
    },
    {
      "constant": true,
      "inputs": [],
      "name": "DURATION",
      "outputs": [
        {
          "name": "",
          "type": "uint256"
        }
      ],
      "payable": false,
      "stateMutability": "view",
      "type": "function"
    },
    {
      "constant": true,
      "inputs": [
        {
          "name": "_contribution",
          "type": "uint256"
        }
      ],
      "name": "computeReturn",
      "outputs": [
        {
          "name": "",
          "type": "uint256"
        }
      ],
      "payable": false,
      "stateMutability": "pure",
      "type": "function"
    },
    {
      "constant": false,
      "inputs": [
        {
          "name": "_newOwner",
          "type": "address"
        }
      ],
      "name": "transferTokenOwnership",
      "outputs": [],
      "payable": false,
      "stateMutability": "nonpayable",
      "type": "function"
    },
    {
      "constant": true,
      "inputs": [],
      "name": "endTime",
      "outputs": [
        {
          "name": "",
          "type": "uint256"
        }
      ],
      "payable": false,
      "stateMutability": "view",
      "type": "function"
    },
    {
      "constant": true,
      "inputs": [],
      "name": "totalEtherCap",
      "outputs": [
        {
          "name": "",
          "type": "uint256"
        }
      ],
      "payable": false,
      "stateMutability": "view",
      "type": "function"
    },
    {
      "constant": false,
      "inputs": [],
      "name": "acceptTokenOwnership",
      "outputs": [],
      "payable": false,
      "stateMutability": "nonpayable",
      "type": "function"
    },
    {
      "constant": true,
      "inputs": [],
      "name": "beneficiary",
      "outputs": [
        {
          "name": "",
          "type": "address"
        }
      ],
      "payable": false,
      "stateMutability": "view",
      "type": "function"
    },
    {
      "constant": false,
      "inputs": [
        {
          "name": "_token",
          "type": "address"
        },
        {
          "name": "_to",
          "type": "address"
        },
        {
          "name": "_amount",
          "type": "uint256"
        }
      ],
      "name": "withdrawFromToken",
      "outputs": [],
      "payable": false,
      "stateMutability": "nonpayable",
      "type": "function"
    },
    {
      "constant": true,
      "inputs": [],
      "name": "TOKEN_PRICE_N",
      "outputs": [
        {
          "name": "",
          "type": "uint256"
        }
      ],
      "payable": false,
      "stateMutability": "view",
      "type": "function"
    },
    {
      "constant": true,
      "inputs": [],
      "name": "version",
      "outputs": [
        {
          "name": "",
          "type": "string"
        }
      ],
      "payable": false,
      "stateMutability": "view",
      "type": "function"
    },
    {
      "constant": false,
      "inputs": [
        {
          "name": "_token",
          "type": "address"
        },
        {
          "name": "_to",
          "type": "address"
        },
        {
          "name": "_amount",
          "type": "uint256"
        }
      ],
      "name": "withdrawTokens",
      "outputs": [],
      "payable": false,
      "stateMutability": "nonpayable",
      "type": "function"
    },
    {
      "constant": true,
      "inputs": [],
      "name": "startTime",
      "outputs": [
        {
          "name": "",
          "type": "uint256"
        }
      ],
      "payable": false,
      "stateMutability": "view",
      "type": "function"
    },
    {
      "constant": false,
      "inputs": [],
      "name": "acceptOwnership",
      "outputs": [],
      "payable": false,
      "stateMutability": "nonpayable",
      "type": "function"
    },
    {
      "constant": true,
      "inputs": [],
      "name": "owner",
      "outputs": [
        {
          "name": "",
          "type": "address"
        }
      ],
      "payable": false,
      "stateMutability": "view",
      "type": "function"
    },
    {
      "constant": true,
      "inputs": [],
      "name": "realEtherCapHash",
      "outputs": [
        {
          "name": "",
          "type": "bytes32"
        }
      ],
      "payable": false,
      "stateMutability": "view",
      "type": "function"
    },
    {
      "constant": false,
      "inputs": [
        {
          "name": "_cap",
          "type": "uint256"
        },
        {
          "name": "_key",
          "type": "uint256"
        }
      ],
      "name": "enableRealCap",
      "outputs": [],
      "payable": false,
      "stateMutability": "nonpayable",
      "type": "function"
    },
    {
      "constant": false,
      "inputs": [],
      "name": "contributeBTCs",
      "outputs": [
        {
          "name": "amount",
          "type": "uint256"
        }
      ],
      "payable": true,
      "stateMutability": "payable",
      "type": "function"
    },
    {
      "constant": true,
      "inputs": [],
      "name": "totalEtherContributed",
      "outputs": [
        {
          "name": "",
          "type": "uint256"
        }
      ],
      "payable": false,
      "stateMutability": "view",
      "type": "function"
    },
    {
      "constant": true,
      "inputs": [],
      "name": "btcs",
      "outputs": [
        {
          "name": "",
          "type": "address"
        }
      ],
      "payable": false,
      "stateMutability": "view",
      "type": "function"
    },
    {
      "constant": true,
      "inputs": [],
      "name": "newOwner",
      "outputs": [
        {
          "name": "",
          "type": "address"
        }
      ],
      "payable": false,
      "stateMutability": "view",
      "type": "function"
    },
    {
      "constant": false,
      "inputs": [
        {
          "name": "_bancorX",
          "type": "address"
        }
      ],
      "name": "setBancorX",
      "outputs": [],
      "payable": false,
      "stateMutability": "nonpayable",
      "type": "function"
    },
    {
      "constant": true,
      "inputs": [
        {
          "name": "_cap",
          "type": "uint256"
        },
        {
          "name": "_key",
          "type": "uint256"
        }
      ],
      "name": "computeRealCap",
      "outputs": [
        {
          "name": "",
          "type": "bytes32"
        }
      ],
      "payable": false,
      "stateMutability": "pure",
      "type": "function"
    },
    {
      "constant": true,
      "inputs": [],
      "name": "MAX_GAS_PRICE",
      "outputs": [
        {
          "name": "",
          "type": "uint256"
        }
      ],
      "payable": false,
      "stateMutability": "view",
      "type": "function"
    },
    {
      "constant": true,
      "inputs": [],
      "name": "BTCS_ETHER_CAP_SMALL",
      "outputs": [
        {
          "name": "",
          "type": "uint256"
        }
      ],
      "payable": false,
      "stateMutability": "view",
      "type": "function"
    },
    {
      "constant": false,
      "inputs": [
        {
          "name": "_newOwner",
          "type": "address"
        }
      ],
      "name": "transferOwnership",
      "outputs": [],
      "payable": false,
      "stateMutability": "nonpayable",
      "type": "function"
    },
    {
      "constant": true,
      "inputs": [],
      "name": "token",
      "outputs": [
        {
          "name": "",
          "type": "address"
        }
      ],
      "payable": false,
      "stateMutability": "view",
      "type": "function"
    },
    {
      "constant": false,
      "inputs": [
        {
          "name": "_from",
          "type": "address"
        },
        {
          "name": "_amount",
          "type": "uint256"
        }
      ],
      "name": "claimTokens",
      "outputs": [],
      "payable": false,
      "stateMutability": "nonpayable",
      "type": "function"
    },
    {
      "inputs": [
        {
          "name": "_token",
          "type": "address"
        },
        {
          "name": "_startTime",
          "type": "uint256"
        },
        {
          "name": "_beneficiary",
          "type": "address"
        },
        {
          "name": "_btcs",
          "type": "address"
        },
        {
          "name": "_realEtherCapHash",
          "type": "bytes32"
        },
        {
          "name": "_startTimeOverride",
          "type": "uint256"
        }
      ],
      "payable": false,
      "stateMutability": "nonpayable",
      "type": "constructor"
    },
    {
      "payable": true,
      "stateMutability": "payable",
      "type": "fallback"
    },
    {
      "anonymous": false,
      "inputs": [
        {
          "indexed": true,
          "name": "_contributor",
          "type": "address"
        },
        {
          "indexed": false,
          "name": "_amount",
          "type": "uint256"
        },
        {
          "indexed": false,
          "name": "_return",
          "type": "uint256"
        }
      ],
      "name": "Contribution",
      "type": "event"
    },
    {
      "anonymous": false,
      "inputs": [
        {
          "indexed": true,
          "name": "_prevOwner",
          "type": "address"
        },
        {
          "indexed": true,
          "name": "_newOwner",
          "type": "address"
        }
      ],
      "name": "OwnerUpdate",
      "type": "event"
    }
  ],
  "bytecode": "0x60c0604052600360808190527f302e31000000000000000000000000000000000000000000000000000000000060a09081526200004091600491906200019c565b5060006005819055600681905569d3c21bcecceda1000000600755600855600a8054600160a060020a0319908116909155600b805490911690553480156200008757600080fd5b5060405160c080620015c983398101604090815281516020830151918301516060840151608085015160a09095015160008054600160a060020a031916331790559294919290919085858585858480600160a060020a0381161515620000ec57600080fd5b5060028054600160a060020a031916600160a060020a039283161790558390811615156200011957600080fd5b82600160a060020a03811615156200013057600080fd5b854281116200013b57fe5b83600081116200014a57600080fd5b5050600a8054600160a060020a03968716600160a060020a031991821617909155600b805495909616941693909317909355600955505050600582905550621275000160065550620002419350505050565b828054600181600116156101000203166002900490600052602060002090601f016020900481019282601f10620001df57805160ff19168380011785556200020f565b828001600101855582156200020f579182015b828111156200020f578251825591602001919060010190620001f2565b506200021d92915062000221565b5090565b6200023e91905b808211156200021d576000815560010162000228565b90565b61137880620002516000396000f30060806040526004361061018a5763ffffffff7c010000000000000000000000000000000000000000000000000000000060003504166301d1c7fd81146101955780630d2806ad146101bc5780631120a776146101d1578063175323a81461020f5780631be05289146102175780631fc3a5191461022c57806321e6b53d146102445780633197cbb61461027457806334971dd61461028957806338a5e0161461029e57806338af3eed146102b357806341a5b33d146102c857806345cfad3e146102ff57806354fd4d50146103145780635e35359e1461039e57806378e97925146103d557806379ba5097146103ea5780638da5cb5b146103ff578063aa4bdd3b14610414578063ad03abc514610429578063b3cffc6e14610444578063b591fc691461044c578063bb63224414610461578063d4ee1d9014610476578063d924f0c31461048b578063e2119c80146104b9578063e3bbb4f1146104d4578063ebaf2f3a146104e9578063f2fde38b146104fe578063fc0c546a1461052c578063fe417fa514610541575b610192610572565b50005b3480156101a157600080fd5b506101aa6105a0565b60408051918252519081900360200190f35b3480156101c857600080fd5b506101aa6105ae565b3480156101dd57600080fd5b506101e66105b3565b6040805173ffffffffffffffffffffffffffffffffffffffff9092168252519081900360200190f35b6101aa610572565b34801561022357600080fd5b506101aa6105cf565b34801561023857600080fd5b506101aa6004356105d6565b34801561025057600080fd5b5061027273ffffffffffffffffffffffffffffffffffffffff60043516610600565b005b34801561028057600080fd5b506101aa6106b3565b34801561029557600080fd5b506101aa6106b9565b3480156102aa57600080fd5b506102726106bf565b3480156102bf57600080fd5b506101e6610783565b3480156102d457600080fd5b5061027273ffffffffffffffffffffffffffffffffffffffff6004358116906024351660443561079f565b34801561030b57600080fd5b506101aa610863565b34801561032057600080fd5b50610329610868565b6040805160208082528351818301528351919283929083019185019080838360005b8381101561036357818101518382015260200161034b565b50505050905090810190601f1680156103905780820380516001836020036101000a031916815260200191505b509250505060405180910390f35b3480156103aa57600080fd5b5061027273ffffffffffffffffffffffffffffffffffffffff600435811690602435166044356108f6565b3480156103e157600080fd5b506101aa610a47565b3480156103f657600080fd5b50610272610a4d565b34801561040b57600080fd5b506101e6610afc565b34801561042057600080fd5b506101aa610b18565b34801561043557600080fd5b50610272600435602435610b1e565b6101aa610c4d565b34801561045857600080fd5b506101aa610ca4565b34801561046d57600080fd5b506101e6610caa565b34801561048257600080fd5b506101e6610cc6565b34801561049757600080fd5b5061027273ffffffffffffffffffffffffffffffffffffffff60043516610ce2565b3480156104c557600080fd5b506101aa600435602435610d42565b3480156104e057600080fd5b506101aa610dec565b3480156104f557600080fd5b506101aa610df5565b34801561050a57600080fd5b5061027273ffffffffffffffffffffffffffffffffffffffff60043516610e01565b34801561053857600080fd5b506101e6610e89565b34801561054d57600080fd5b5061027273ffffffffffffffffffffffffffffffffffffffff60043516602435610ea5565b600060055460065481421015801561058957508042105b151561059157fe5b610599610ff1565b9250505090565b690a968163f0a57b40000081565b606481565b60035473ffffffffffffffffffffffffffffffffffffffff1681565b6212750081565b60006105fa60016105ee84606463ffffffff6112de16565b9063ffffffff61131716565b92915050565b60005473ffffffffffffffffffffffffffffffffffffffff16331461062457600080fd5b600254604080517ff2fde38b00000000000000000000000000000000000000000000000000000000815273ffffffffffffffffffffffffffffffffffffffff84811660048301529151919092169163f2fde38b91602480830192600092919082900301818387803b15801561069857600080fd5b505af11580156106ac573d6000803e3d6000fd5b5050505050565b60065481565b60075481565b60005473ffffffffffffffffffffffffffffffffffffffff1633146106e357600080fd5b600260009054906101000a900473ffffffffffffffffffffffffffffffffffffffff1673ffffffffffffffffffffffffffffffffffffffff166379ba50976040518163ffffffff167c0100000000000000000000000000000000000000000000000000000000028152600401600060405180830381600087803b15801561076957600080fd5b505af115801561077d573d6000803e3d6000fd5b50505050565b600a5473ffffffffffffffffffffffffffffffffffffffff1681565b60005473ffffffffffffffffffffffffffffffffffffffff1633146107c357600080fd5b600254604080517f5e35359e00000000000000000000000000000000000000000000000000000000815273ffffffffffffffffffffffffffffffffffffffff868116600483015285811660248301526044820185905291519190921691635e35359e91606480830192600092919082900301818387803b15801561084657600080fd5b505af115801561085a573d6000803e3d6000fd5b50505050505050565b600181565b6004805460408051602060026001851615610100026000190190941693909304601f810184900484028201840190925281815292918301828280156108ee5780601f106108c3576101008083540402835291602001916108ee565b820191906000526020600020905b8154815290600101906020018083116108d157829003601f168201915b505050505081565b60005473ffffffffffffffffffffffffffffffffffffffff16331461091a57600080fd5b8273ffffffffffffffffffffffffffffffffffffffff8116151561093d57600080fd5b8273ffffffffffffffffffffffffffffffffffffffff8116151561096057600080fd5b8373ffffffffffffffffffffffffffffffffffffffff811630141561098457600080fd5b8573ffffffffffffffffffffffffffffffffffffffff1663a9059cbb86866040518363ffffffff167c0100000000000000000000000000000000000000000000000000000000028152600401808373ffffffffffffffffffffffffffffffffffffffff1673ffffffffffffffffffffffffffffffffffffffff16815260200182815260200192505050600060405180830381600087803b158015610a2757600080fd5b505af1158015610a3b573d6000803e3d6000fd5b50505050505050505050565b60055481565b60015473ffffffffffffffffffffffffffffffffffffffff163314610a7157600080fd5b6001546000805460405173ffffffffffffffffffffffffffffffffffffffff93841693909116917f343765429aea5a34b3ff6a3785a98a5abb2597aca87bfbb58632c173d585373a91a3600180546000805473ffffffffffffffffffffffffffffffffffffffff1990811673ffffffffffffffffffffffffffffffffffffffff841617909155169055565b60005473ffffffffffffffffffffffffffffffffffffffff1681565b60095481565b60005473ffffffffffffffffffffffffffffffffffffffff163314610b4257600080fd5b600254604080517f8da5cb5b0000000000000000000000000000000000000000000000000000000081529051309273ffffffffffffffffffffffffffffffffffffffff1691638da5cb5b9160048083019260209291908290030181600087803b158015610bae57600080fd5b505af1158015610bc2573d6000803e3d6000fd5b505050506040513d6020811015610bd857600080fd5b505173ffffffffffffffffffffffffffffffffffffffff1614610bfa57600080fd5b600554600654814210158015610c0f57508042105b1515610c1757fe5b60095484908490610c288383610d42565b14610c3257600080fd5b6007548610610c4057600080fd5b5050506007929092555050565b600b5460009073ffffffffffffffffffffffffffffffffffffffff163314610c7157fe5b34671bc16d674ec80000610c908260085461133a90919063ffffffff16565b1115610c9857fe5b60055442811161059157fe5b60085481565b600b5473ffffffffffffffffffffffffffffffffffffffff1681565b60015473ffffffffffffffffffffffffffffffffffffffff1681565b60005473ffffffffffffffffffffffffffffffffffffffff163314610d0657600080fd5b6003805473ffffffffffffffffffffffffffffffffffffffff191673ffffffffffffffffffffffffffffffffffffffff92909216919091179055565b6000828260405160200180838152602001828152602001925050506040516020818303038152906040526040518082805190602001908083835b60208310610db957805182527fffffffffffffffffffffffffffffffffffffffffffffffffffffffffffffffe09092019160209182019101610d7c565b5181516020939093036101000a600019018019909116921691909117905260405192018290039091209695505050505050565b640ba43b740081565b671bc16d674ec8000081565b60005473ffffffffffffffffffffffffffffffffffffffff163314610e2557600080fd5b60005473ffffffffffffffffffffffffffffffffffffffff82811691161415610e4d57600080fd5b6001805473ffffffffffffffffffffffffffffffffffffffff191673ffffffffffffffffffffffffffffffffffffffff92909216919091179055565b60025473ffffffffffffffffffffffffffffffffffffffff1681565b60035473ffffffffffffffffffffffffffffffffffffffff163314610ec957600080fd5b600254604080517fa24835d100000000000000000000000000000000000000000000000000000000815273ffffffffffffffffffffffffffffffffffffffff8581166004830152602482018590529151919092169163a24835d191604480830192600092919082900301818387803b158015610f4457600080fd5b505af1158015610f58573d6000803e3d6000fd5b5050600254604080517f867904b400000000000000000000000000000000000000000000000000000000815233600482015260248101869052905173ffffffffffffffffffffffffffffffffffffffff909216935063867904b4925060448082019260009290919082900301818387803b158015610fd557600080fd5b505af1158015610fe9573d6000803e3d6000fd5b505050505050565b6000803073ffffffffffffffffffffffffffffffffffffffff16600260009054906101000a900473ffffffffffffffffffffffffffffffffffffffff1673ffffffffffffffffffffffffffffffffffffffff16638da5cb5b6040518163ffffffff167c0100000000000000000000000000000000000000000000000000000000028152600401602060405180830381600087803b15801561109157600080fd5b505af11580156110a5573d6000803e3d6000fd5b505050506040513d60208110156110bb57600080fd5b505173ffffffffffffffffffffffffffffffffffffffff16146110dd57600080fd5b346007546110f68260085461133a90919063ffffffff16565b11156110fe57fe5b640ba43b74003a111561110d57fe5b611116346105d6565b600a5460405191935073ffffffffffffffffffffffffffffffffffffffff16903480156108fc02916000818181858888f1935050505015801561115d573d6000803e3d6000fd5b50600854611171903463ffffffff61133a16565b600855600254604080517f867904b400000000000000000000000000000000000000000000000000000000815233600482015260248101859052905173ffffffffffffffffffffffffffffffffffffffff9092169163867904b49160448082019260009290919082900301818387803b1580156111ed57600080fd5b505af1158015611201573d6000803e3d6000fd5b5050600254600a54604080517f867904b400000000000000000000000000000000000000000000000000000000815273ffffffffffffffffffffffffffffffffffffffff928316600482015260248101889052905191909216935063867904b49250604480830192600092919082900301818387803b15801561128357600080fd5b505af1158015611297573d6000803e3d6000fd5b5050604080513481526020810186905281513394507f5f7675b09617d2c9fa4fd13058ee5877a9538f626b0308816736e83748a4504093509081900390910190a250919050565b6000808315156112f15760009150611310565b5082820282848281151561130157fe5b041461130c57600080fd5b8091505b5092915050565b60008080831161132657600080fd5b828481151561133157fe5b04949350505050565b60008282018381101561130c57600080fd00a165627a7a72305820622c7e070386edee9f64bc236187ac22555c1b7558e1e0e741ff40e77de6bd9e0029",
  "source": "pragma solidity 0.4.26;\nimport '../crowdsale/CrowdsaleController.sol';\n\n/*\n    Test crowdsale controller with start time < now < end time\n*/\ncontract TestCrowdsaleController is CrowdsaleController {\n    using SafeMath for uint256;\n\n    \n    uint256 public constant BTCS_ETHER_CAP_SMALL = 2 ether; // maximum bitcoin suisse ether contribution\n\n    constructor(\n        ISmartToken _token,\n        uint256 _startTime,\n        address _beneficiary,\n        address _btcs,\n        bytes32 _realEtherCapHash,\n        uint256 _startTimeOverride)\n        public\n        CrowdsaleController(_token, _startTime, _beneficiary, _btcs, _realEtherCapHash)\n    {\n        startTime = _startTimeOverride;\n        endTime = startTime + DURATION;\n    }\n\n    modifier btcsEtherCapNotReached(uint256 _ethContribution) {\n        assert(totalEtherContributed.add(_ethContribution) <= BTCS_ETHER_CAP_SMALL);\n        _;\n    }\n}\n",
  "sourcePath": "/home/faycal/Desktop/projects/BancorCompoundPool/contracts/contracts/helpers/TestCrowdsaleController.sol",
  "compiler": {
    "name": "solc",
    "version": "0.4.26+commit.4563c3fc.Emscripten.clang"
  },
  "schemaVersion": "3.1.0",
  "updatedAt": "2020-04-17T21:34:25.404Z",
  "devdoc": {
    "methods": {
      "acceptOwnership()": {
        "details": "used by a new owner to accept an ownership transfer\r"
      },
      "acceptTokenOwnership()": {
        "details": "used by a new owner to accept a token ownership transfer\r can only be called by the contract owner\r"
      },
      "claimTokens(address,uint256)": {
        "details": "allows the associated BancorX contract to claim tokens from any address (so that users\r dont have to first give allowance when calling BancorX)\r \r",
        "params": {
          "_amount": "the amount of tokens to claim\r",
          "_from": "address to claim the tokens from\r"
        }
      },
      "computeRealCap(uint256,uint256)": {
        "details": "computes the real cap based on the given cap & key\r \r",
        "params": {
          "_cap": "cap\r",
          "_key": "key used to compute the cap hash\r \r"
        },
        "return": "computed real cap hash\r"
      },
      "computeReturn(uint256)": {
        "details": "computes the number of tokens that should be issued for a given contribution\r \r",
        "params": {
          "_contribution": "contribution amount\r \r"
        },
        "return": "computed number of tokens\r"
      },
      "contributeBTCs()": {
        "details": "Contribution through BTCs (Bitcoin Suisse only)\r can only be called before the crowdsale started\r \r",
        "return": "tokens issued in return\r"
      },
      "contributeETH()": {
        "details": "ETH contribution\r can only be called during the crowdsale\r \r",
        "return": "tokens issued in return\r"
      },
      "enableRealCap(uint256,uint256)": {
        "details": "enables the real cap defined on deployment\r \r",
        "params": {
          "_cap": "predefined cap\r",
          "_key": "key used to compute the cap hash\r"
        }
      },
      "setBancorX(address)": {
        "details": "allows the owner to set the associated BancorX contract\r",
        "params": {
          "_bancorX": "BancorX contract\r"
        }
      },
      "transferOwnership(address)": {
        "details": "allows transferring the contract ownership\r the new owner still needs to accept the transfer\r can only be called by the contract owner\r \r",
        "params": {
          "_newOwner": "new contract owner\r"
        }
      },
      "transferTokenOwnership(address)": {
        "details": "allows transferring the token ownership\r the new owner needs to accept the transfer\r can only be called by the contract owner\r \r",
        "params": {
          "_newOwner": "new token owner\r"
        }
      },
      "withdrawFromToken(address,address,uint256)": {
        "details": "withdraws tokens held by the controller and sends them to an account\r can only be called by the owner\r \r",
        "params": {
          "_amount": "amount to withdraw\r",
          "_to": "account to receive the new amount\r",
          "_token": "ERC20 token contract address\r"
        }
      },
      "withdrawTokens(address,address,uint256)": {
        "details": "withdraws tokens held by the contract and sends them to an account\r can only be called by the owner\r \r",
        "params": {
          "_amount": "amount to withdraw\r",
          "_to": "account to receive the new amount\r",
          "_token": "ERC20 token contract address\r"
        }
      }
    }
  },
  "userdoc": {
    "methods": {}
  }
}