{
  "contractName": "TestBancorNetwork",
  "abi": [
    {
      "constant": false,
      "inputs": [
        {
          "name": "_onlyOwnerCanUpdateRegistry",
          "type": "bool"
        }
      ],
      "name": "restrictRegistryUpdate",
      "outputs": [],
      "payable": false,
      "stateMutability": "nonpayable",
      "type": "function"
    },
    {
      "constant": false,
      "inputs": [
        {
          "name": "_token",
          "type": "address"
        },
        {
          "name": "_register",
          "type": "bool"
        }
      ],
      "name": "registerEtherToken",
      "outputs": [],
      "payable": false,
      "stateMutability": "nonpayable",
      "type": "function"
    },
    {
      "constant": true,
      "inputs": [
        {
          "name": "_path",
          "type": "address[]"
        },
        {
          "name": "_amount",
          "type": "uint256"
        }
      ],
      "name": "getReturnByPath",
      "outputs": [
        {
          "name": "",
          "type": "uint256"
        },
        {
          "name": "",
          "type": "uint256"
        }
      ],
      "payable": false,
      "stateMutability": "view",
      "type": "function"
    },
    {
      "constant": false,
      "inputs": [
        {
          "name": "_path",
          "type": "address[]"
        },
        {
          "name": "_amount",
          "type": "uint256"
        },
        {
          "name": "_minReturn",
          "type": "uint256"
        },
        {
          "name": "_for",
          "type": "address"
        },
        {
          "name": "",
          "type": "uint256"
        },
        {
          "name": "",
          "type": "uint256"
        },
        {
          "name": "",
          "type": "uint8"
        },
        {
          "name": "",
          "type": "bytes32"
        },
        {
          "name": "",
          "type": "bytes32"
        }
      ],
      "name": "convertForPrioritized",
      "outputs": [
        {
          "name": "",
          "type": "uint256"
        }
      ],
      "payable": true,
      "stateMutability": "payable",
      "type": "function"
    },
    {
      "constant": false,
      "inputs": [
        {
          "name": "_path",
          "type": "address[]"
        },
        {
          "name": "_amount",
          "type": "uint256"
        },
        {
          "name": "_minReturn",
          "type": "uint256"
        },
        {
          "name": "_for",
          "type": "address"
        },
        {
          "name": "_affiliateAccount",
          "type": "address"
        },
        {
          "name": "_affiliateFee",
          "type": "uint256"
        }
      ],
      "name": "claimAndConvertFor2",
      "outputs": [
        {
          "name": "",
          "type": "uint256"
        }
      ],
      "payable": false,
      "stateMutability": "nonpayable",
      "type": "function"
    },
    {
      "constant": true,
      "inputs": [],
      "name": "onlyOwnerCanUpdateRegistry",
      "outputs": [
        {
          "name": "",
          "type": "bool"
        }
      ],
      "payable": false,
      "stateMutability": "view",
      "type": "function"
    },
    {
      "constant": false,
      "inputs": [],
      "name": "updateRegistry",
      "outputs": [],
      "payable": false,
      "stateMutability": "nonpayable",
      "type": "function"
    },
    {
      "constant": false,
      "inputs": [
        {
          "name": "_path",
          "type": "address[]"
        },
        {
          "name": "_amount",
          "type": "uint256"
        },
        {
          "name": "_minReturn",
          "type": "uint256"
        },
        {
          "name": "_for",
          "type": "address"
        },
        {
          "name": "",
          "type": "uint256[]"
        },
        {
          "name": "_affiliateAccount",
          "type": "address"
        },
        {
          "name": "_affiliateFee",
          "type": "uint256"
        }
      ],
      "name": "convertForPrioritized4",
      "outputs": [
        {
          "name": "",
          "type": "uint256"
        }
      ],
      "payable": true,
      "stateMutability": "payable",
      "type": "function"
    },
    {
      "constant": false,
      "inputs": [
        {
          "name": "_path",
          "type": "address[]"
        },
        {
          "name": "_amount",
          "type": "uint256"
        },
        {
          "name": "_minReturn",
          "type": "uint256"
        },
        {
          "name": "_affiliateAccount",
          "type": "address"
        },
        {
          "name": "_affiliateFee",
          "type": "uint256"
        }
      ],
      "name": "convert2",
      "outputs": [
        {
          "name": "",
          "type": "uint256"
        }
      ],
      "payable": true,
      "stateMutability": "payable",
      "type": "function"
    },
    {
      "constant": true,
      "inputs": [],
      "name": "maxAffiliateFee",
      "outputs": [
        {
          "name": "",
          "type": "uint256"
        }
      ],
      "payable": false,
      "stateMutability": "view",
      "type": "function"
    },
    {
      "constant": false,
      "inputs": [
        {
          "name": "_token",
          "type": "address"
        },
        {
          "name": "_to",
          "type": "address"
        },
        {
          "name": "_amount",
          "type": "uint256"
        }
      ],
      "name": "withdrawTokens",
      "outputs": [],
      "payable": false,
      "stateMutability": "nonpayable",
      "type": "function"
    },
    {
      "constant": true,
      "inputs": [],
      "name": "prevRegistry",
      "outputs": [
        {
          "name": "",
          "type": "address"
        }
      ],
      "payable": false,
      "stateMutability": "view",
      "type": "function"
    },
    {
      "constant": false,
      "inputs": [
        {
          "name": "_path",
          "type": "address[]"
        },
        {
          "name": "_amount",
          "type": "uint256"
        },
        {
          "name": "_minReturn",
          "type": "uint256"
        },
        {
          "name": "_toBlockchain",
          "type": "bytes32"
        },
        {
          "name": "_to",
          "type": "bytes32"
        },
        {
          "name": "_conversionId",
          "type": "uint256"
        },
        {
          "name": "",
          "type": "uint256"
        },
        {
          "name": "",
          "type": "uint8"
        },
        {
          "name": "",
          "type": "bytes32"
        },
        {
          "name": "",
          "type": "bytes32"
        }
      ],
      "name": "xConvertPrioritized",
      "outputs": [
        {
          "name": "",
          "type": "uint256"
        }
      ],
      "payable": true,
      "stateMutability": "payable",
      "type": "function"
    },
    {
      "constant": false,
      "inputs": [
        {
          "name": "_path",
          "type": "address[]"
        },
        {
          "name": "_amount",
          "type": "uint256"
        },
        {
          "name": "_minReturn",
          "type": "uint256"
        },
        {
          "name": "_for",
          "type": "address"
        },
        {
          "name": "",
          "type": "uint256"
        },
        {
          "name": "",
          "type": "uint8"
        },
        {
          "name": "",
          "type": "bytes32"
        },
        {
          "name": "",
          "type": "bytes32"
        }
      ],
      "name": "convertForPrioritized2",
      "outputs": [
        {
          "name": "",
          "type": "uint256"
        }
      ],
      "payable": true,
      "stateMutability": "payable",
      "type": "function"
    },
    {
      "constant": false,
      "inputs": [],
      "name": "acceptOwnership",
      "outputs": [],
      "payable": false,
      "stateMutability": "nonpayable",
      "type": "function"
    },
    {
      "constant": true,
      "inputs": [],
      "name": "registry",
      "outputs": [
        {
          "name": "",
          "type": "address"
        }
      ],
      "payable": false,
      "stateMutability": "view",
      "type": "function"
    },
    {
      "constant": true,
      "inputs": [
        {
          "name": "",
          "type": "address"
        }
      ],
      "name": "etherTokens",
      "outputs": [
        {
          "name": "",
          "type": "bool"
        }
      ],
      "payable": false,
      "stateMutability": "view",
      "type": "function"
    },
    {
      "constant": true,
      "inputs": [
        {
          "name": "",
          "type": "bytes32"
        }
      ],
      "name": "conversionHashes",
      "outputs": [
        {
          "name": "",
          "type": "bool"
        }
      ],
      "payable": false,
      "stateMutability": "view",
      "type": "function"
    },
    {
      "constant": true,
      "inputs": [],
      "name": "owner",
      "outputs": [
        {
          "name": "",
          "type": "address"
        }
      ],
      "payable": false,
      "stateMutability": "view",
      "type": "function"
    },
    {
      "constant": false,
      "inputs": [
        {
          "name": "_path",
          "type": "address[]"
        },
        {
          "name": "_amount",
          "type": "uint256"
        },
        {
          "name": "_minReturn",
          "type": "uint256"
        },
        {
          "name": "_toBlockchain",
          "type": "bytes32"
        },
        {
          "name": "_to",
          "type": "bytes32"
        },
        {
          "name": "_conversionId",
          "type": "uint256"
        },
        {
          "name": "",
          "type": "uint256[]"
        },
        {
          "name": "_affiliateAccount",
          "type": "address"
        },
        {
          "name": "_affiliateFee",
          "type": "uint256"
        }
      ],
      "name": "xConvertPrioritized3",
      "outputs": [
        {
          "name": "",
          "type": "uint256"
        }
      ],
      "payable": true,
      "stateMutability": "payable",
      "type": "function"
    },
    {
      "constant": true,
      "inputs": [],
      "name": "CONVERTER_CONVERSION_WHITELIST",
      "outputs": [
        {
          "name": "",
          "type": "uint256"
        }
      ],
      "payable": false,
      "stateMutability": "view",
      "type": "function"
    },
    {
      "constant": false,
      "inputs": [
        {
          "name": "_path",
          "type": "address[]"
        },
        {
          "name": "_amount",
          "type": "uint256"
        },
        {
          "name": "_minReturn",
          "type": "uint256"
        },
        {
          "name": "_for",
          "type": "address"
        },
        {
          "name": "_affiliateAccount",
          "type": "address"
        },
        {
          "name": "_affiliateFee",
          "type": "uint256"
        }
      ],
      "name": "convertFor2",
      "outputs": [
        {
          "name": "",
          "type": "uint256"
        }
      ],
      "payable": true,
      "stateMutability": "payable",
      "type": "function"
    },
    {
      "constant": false,
      "inputs": [
        {
          "name": "_path",
          "type": "address[]"
        },
        {
          "name": "_amount",
          "type": "uint256"
        },
        {
          "name": "_minReturn",
          "type": "uint256"
        },
        {
          "name": "_for",
          "type": "address"
        }
      ],
      "name": "claimAndConvertFor",
      "outputs": [
        {
          "name": "",
          "type": "uint256"
        }
      ],
      "payable": false,
      "stateMutability": "nonpayable",
      "type": "function"
    },
    {
      "constant": false,
      "inputs": [
        {
          "name": "_path",
          "type": "address[]"
        },
        {
          "name": "_amount",
          "type": "uint256"
        },
        {
          "name": "_minReturn",
          "type": "uint256"
        },
        {
          "name": "_for",
          "type": "address"
        },
        {
          "name": "",
          "type": "uint256"
        },
        {
          "name": "",
          "type": "uint256"
        },
        {
          "name": "",
          "type": "uint8"
        },
        {
          "name": "",
          "type": "bytes32"
        },
        {
          "name": "",
          "type": "bytes32"
        }
      ],
      "name": "convertForPrioritized3",
      "outputs": [
        {
          "name": "",
          "type": "uint256"
        }
      ],
      "payable": true,
      "stateMutability": "payable",
      "type": "function"
    },
    {
      "constant": false,
      "inputs": [],
      "name": "restoreRegistry",
      "outputs": [],
      "payable": false,
      "stateMutability": "nonpayable",
      "type": "function"
    },
    {
      "constant": false,
      "inputs": [
        {
          "name": "_path",
          "type": "address[]"
        },
        {
          "name": "_amount",
          "type": "uint256"
        },
        {
          "name": "_minReturn",
          "type": "uint256"
        },
        {
          "name": "_toBlockchain",
          "type": "bytes32"
        },
        {
          "name": "_to",
          "type": "bytes32"
        },
        {
          "name": "_conversionId",
          "type": "uint256"
        }
      ],
      "name": "xConvert",
      "outputs": [
        {
          "name": "",
          "type": "uint256"
        }
      ],
      "payable": true,
      "stateMutability": "payable",
      "type": "function"
    },
    {
      "constant": false,
      "inputs": [
        {
          "name": "_path",
          "type": "address[]"
        },
        {
          "name": "_amount",
          "type": "uint256"
        },
        {
          "name": "_minReturn",
          "type": "uint256"
        }
      ],
      "name": "claimAndConvert",
      "outputs": [
        {
          "name": "",
          "type": "uint256"
        }
      ],
      "payable": false,
      "stateMutability": "nonpayable",
      "type": "function"
    },
    {
      "constant": false,
      "inputs": [
        {
          "name": "_path",
          "type": "address[]"
        },
        {
          "name": "_amount",
          "type": "uint256"
        },
        {
          "name": "_minReturn",
          "type": "uint256"
        },
        {
          "name": "_for",
          "type": "address"
        }
      ],
      "name": "convertFor",
      "outputs": [
        {
          "name": "",
          "type": "uint256"
        }
      ],
      "payable": true,
      "stateMutability": "payable",
      "type": "function"
    },
    {
      "constant": false,
      "inputs": [
        {
          "name": "_path",
          "type": "address[]"
        },
        {
          "name": "_amount",
          "type": "uint256"
        },
        {
          "name": "_minReturn",
          "type": "uint256"
        },
        {
          "name": "_toBlockchain",
          "type": "bytes32"
        },
        {
          "name": "_to",
          "type": "bytes32"
        },
        {
          "name": "_conversionId",
          "type": "uint256"
        },
        {
          "name": "_affiliateAccount",
          "type": "address"
        },
        {
          "name": "_affiliateFee",
          "type": "uint256"
        }
      ],
      "name": "xConvert2",
      "outputs": [
        {
          "name": "",
          "type": "uint256"
        }
      ],
      "payable": true,
      "stateMutability": "payable",
      "type": "function"
    },
    {
      "constant": false,
      "inputs": [
        {
          "name": "_path",
          "type": "address[]"
        },
        {
          "name": "_amount",
          "type": "uint256"
        },
        {
          "name": "_minReturn",
          "type": "uint256"
        },
        {
          "name": "_toBlockchain",
          "type": "bytes32"
        },
        {
          "name": "_to",
          "type": "bytes32"
        },
        {
          "name": "_conversionId",
          "type": "uint256"
        },
        {
          "name": "",
          "type": "uint256[]"
        }
      ],
      "name": "xConvertPrioritized2",
      "outputs": [
        {
          "name": "",
          "type": "uint256"
        }
      ],
      "payable": true,
      "stateMutability": "payable",
      "type": "function"
    },
    {
      "constant": true,
      "inputs": [],
      "name": "newOwner",
      "outputs": [
        {
          "name": "",
          "type": "address"
        }
      ],
      "payable": false,
      "stateMutability": "view",
      "type": "function"
    },
    {
      "constant": false,
      "inputs": [
        {
          "name": "_path",
          "type": "address[]"
        },
        {
          "name": "_amount",
          "type": "uint256"
        },
        {
          "name": "_minReturn",
          "type": "uint256"
        },
        {
          "name": "_affiliateAccount",
          "type": "address"
        },
        {
          "name": "_affiliateFee",
          "type": "uint256"
        }
      ],
      "name": "claimAndConvert2",
      "outputs": [
        {
          "name": "",
          "type": "uint256"
        }
      ],
      "payable": false,
      "stateMutability": "nonpayable",
      "type": "function"
    },
    {
      "constant": false,
      "inputs": [
        {
          "name": "_newOwner",
          "type": "address"
        }
      ],
      "name": "transferOwnership",
      "outputs": [],
      "payable": false,
      "stateMutability": "nonpayable",
      "type": "function"
    },
    {
      "constant": false,
      "inputs": [
        {
          "name": "_path",
          "type": "address[]"
        },
        {
          "name": "_amount",
          "type": "uint256"
        },
        {
          "name": "_minReturn",
          "type": "uint256"
        }
      ],
      "name": "convert",
      "outputs": [
        {
          "name": "",
          "type": "uint256"
        }
      ],
      "payable": true,
      "stateMutability": "payable",
      "type": "function"
    },
    {
      "constant": false,
      "inputs": [
        {
          "name": "_maxAffiliateFee",
          "type": "uint256"
        }
      ],
      "name": "setMaxAffiliateFee",
      "outputs": [],
      "payable": false,
      "stateMutability": "nonpayable",
      "type": "function"
    },
    {
      "inputs": [
        {
          "name": "_amount",
          "type": "uint256"
        },
        {
          "name": "_fee",
          "type": "uint256"
        }
      ],
      "payable": false,
      "stateMutability": "nonpayable",
      "type": "constructor"
    },
    {
      "anonymous": false,
      "inputs": [
        {
          "indexed": true,
          "name": "_smartToken",
          "type": "address"
        },
        {
          "indexed": true,
          "name": "_fromToken",
          "type": "address"
        },
        {
          "indexed": true,
          "name": "_toToken",
          "type": "address"
        },
        {
          "indexed": false,
          "name": "_fromAmount",
          "type": "uint256"
        },
        {
          "indexed": false,
          "name": "_toAmount",
          "type": "uint256"
        },
        {
          "indexed": false,
          "name": "_trader",
          "type": "address"
        }
      ],
      "name": "Conversion",
      "type": "event"
    },
    {
      "anonymous": false,
      "inputs": [
        {
          "indexed": true,
          "name": "_prevOwner",
          "type": "address"
        },
        {
          "indexed": true,
          "name": "_newOwner",
          "type": "address"
        }
      ],
      "name": "OwnerUpdate",
      "type": "event"
    },
    {
      "constant": true,
      "inputs": [],
      "name": "getReturnOld",
      "outputs": [
        {
          "name": "",
          "type": "uint256"
        },
        {
          "name": "",
          "type": "uint256"
        }
      ],
      "payable": false,
      "stateMutability": "view",
      "type": "function"
    },
    {
      "constant": true,
      "inputs": [],
      "name": "getReturnNew",
      "outputs": [
        {
          "name": "",
          "type": "uint256"
        },
        {
          "name": "",
          "type": "uint256"
        }
      ],
      "payable": false,
      "stateMutability": "view",
      "type": "function"
    }
  ],
  "bytecode": "0x60806040526175306004553480156200001757600080fd5b50604051604080620031ed8339810160405280516020909101516000805433600160a060020a03199182161790915560028054821660019081179091556003805490921617905581620000696200010c565b90815260405190819003602001906000f0801580156200008d573d6000803e3d6000fd5b5060078054600160a060020a031916600160a060020a03929092169190911790558181620000ba6200011c565b9182526020820152604080519182900301906000f080158015620000e2573d6000803e3d6000fd5b5060088054600160a060020a031916600160a060020a0392909216919091179055506200012d9050565b60405160f28062002ff183390190565b60405161010a80620030e383390190565b612eb4806200013d6000396000f3006080604052600436106101cc5763ffffffff7c0100000000000000000000000000000000000000000000000000000000600035041663024c7ec781146101d157806302ef521e146101ed5780630c8496cc146102135780631134269a146102835780632978c10e146103125780632fe8a6ad1461038957806349d10b64146103b25780634de006cb146103c7578063569706eb146104735780635d732ff2146104d65780635e35359e146104eb57806361cd756e146105155780636896b99914610546578063699e7546146105c15780636b08f2ef146105d657806379ba50971461064d5780637b103999146106625780638077ccf71461067757806389e63a60146106985780638da5cb5b146106b05780638dc56657146106c557806392d1abb71461077357806398e9574014610788578063ab6214ce1461079d578063b1e9932b14610807578063b406d38614610283578063b4a176d314610872578063c52173de14610887578063c7ba24bc146108e6578063c98fefed14610944578063cb32564e146109a2578063ce20096314610a16578063d4ee1d9014610ab3578063e57738e514610ac8578063f2fde38b14610b38578063f3898a9714610b59578063f3bc7d2a14610baa575b600080fd5b3480156101dd57600080fd5b506101eb6004351515610bc2565b005b3480156101f957600080fd5b506101eb600160a060020a03600435166024351515610c23565b34801561021f57600080fd5b506040805160206004803580820135838102808601850190965280855261026a953695939460249493850192918291850190849080828437509497505093359450610cb29350505050565b6040805192835260208301919091528051918290030190f35b604080516020600480358082013583810280860185019096528085526103009536959394602494938501929182918501908490808284375094975050843595505050602083013592600160a060020a0360408201351692506060810135915060808101359060ff60a0820135169060c08101359060e00135611643565b60408051918252519081900360200190f35b34801561031e57600080fd5b50604080516020600480358082013583810280860185019096528085526103009536959394602494938501929182918501908490808284375094975050843595505050602083013592600160a060020a03604082013581169350606082013516915060800135611662565b34801561039557600080fd5b5061039e6116a6565b604080519115158252519081900360200190f35b3480156103be57600080fd5b506101eb6116c7565b60408051602060048035808201358381028086018501909652808552610300953695939460249493850192918291850190849080828437505060408051602060608901358a01803582810280850184018652818552999c8b359c848d01359c96870135600160a060020a03169b919a5098506080909501965092945081019282918501908490808284375094975050508335600160a060020a0316945050506020909101359050611865565b604080516020600480358082013583810280860185019096528085526103009536959394602494938501929182918501908490808284375094975050843595505050602083013592600160a060020a036040820135169250606001359050611875565b3480156104e257600080fd5b5061030061188f565b3480156104f757600080fd5b506101eb600160a060020a0360043581169060243516604435611895565b34801561052157600080fd5b5061052a61198b565b60408051600160a060020a039092168252519081900360200190f35b604080516020600480358082013583810280860185019096528085526103009536959394602494938501929182918501908490808284375094975050843595505050602083013592604081013592506060810135915060808101359060a08101359060ff60c0820135169060e081013590610100013561199a565b3480156105cd57600080fd5b5061026a6119bc565b604080516020600480358082013583810280860185019096528085526103009536959394602494938501929182918501908490808284375094975050843595505050602083013592600160a060020a0360408201351692506060810135915060ff6080820135169060a08101359060c001356119e1565b34801561065957600080fd5b506101eb6119ff565b34801561066e57600080fd5b5061052a611a87565b34801561068357600080fd5b5061039e600160a060020a0360043516611a96565b3480156106a457600080fd5b5061039e600435611aab565b3480156106bc57600080fd5b5061052a611ac0565b6040805160206004803580820135838102808601850190965280855261030095369593946024949385019291829185019084908082843750506040805160a088013589018035602081810284810182018652828552999c8b359c828d01359c968701359b60608801359b5060808801359a50919850965060c0909501949281019282918501908490808284375094975050508335600160a060020a0316945050506020909101359050611acf565b34801561077f57600080fd5b50610300611ae1565b34801561079457600080fd5b5061026a611ae6565b604080516020600480358082013583810280860185019096528085526103009536959394602494938501929182918501908490808284375094975050843595505050602083013592600160a060020a03604082013581169350606082013516915060800135611b03565b34801561081357600080fd5b5060408051602060048035808201358381028086018501909652808552610300953695939460249493850192918291850190849080828437509497505084359550505060208301359260400135600160a060020a03169150611c729050565b34801561087e57600080fd5b506101eb611c8c565b604080516020600480358082013583810280860185019096528085526103009536959394602494938501929182918501908490808284375094975050843595505050602083013592604081013592506060810135915060800135611cd4565b3480156108f257600080fd5b506040805160206004803580820135838102808601850190965280855261030095369593946024949385019291829185019084908082843750949750508435955050506020909201359150611cf29050565b60408051602060048035808201358381028086018501909652808552610300953695939460249493850192918291850190849080828437509497505084359550505060208301359260400135600160a060020a03169150611d0a9050565b6040805160206004803580820135838102808601850190965280855261030095369593946024949385019291829185019084908082843750949750508435955050506020830135926040810135925060608101359150608081013590600160a060020a0360a0820135169060c00135611d1b565b6040805160206004803580820135838102808601850190965280855261030095369593946024949385019291829185019084908082843750506040805160a088013589018035602081810284810182018652828552999c8b359c828d01359c968701359b60608801359b5060808801359a50919850965060c09095019492810192829185019084908082843750949750611ea99650505050505050565b348015610abf57600080fd5b5061052a611ebc565b348015610ad457600080fd5b50604080516020600480358082013583810280860185019096528085526103009536959394602494938501929182918501908490808284375094975050843595505050602083013592600160a060020a036040820135169250606001359050611ecb565b348015610b4457600080fd5b506101eb600160a060020a0360043516611edb565b6040805160206004803580820135838102808601850190965280855261030095369593946024949385019291829185019084908082843750949750508435955050506020909201359150611f3c9050565b348015610bb657600080fd5b506101eb600435611f4c565b600054600160a060020a03163314610bd957600080fd5b6003805491151574010000000000000000000000000000000000000000027fffffffffffffffffffffff00ffffffffffffffffffffffffffffffffffffffff909216919091179055565b600054600160a060020a03163314610c3a57600080fd5b81600160a060020a0381161515610c5057600080fd5b82600160a060020a038116301415610c6757600080fd5b5050600160a060020a0391909116600090815260056020526040902080547fffffffffffffffffffffffffffffffffffffffffffffffffffffffffffffff0016911515919091179055565b6000806000806000806000806000806000806000610cef7f42616e636f72466f726d756c6100000000000000000000000000000000000000611f78565b94508d9a5060028f51118015610d0a57508e51600290066001145b1515610d1557600080fd5b600293505b8e5184101561162e578e60028503815181101515610d3457fe5b9060200190602002015192508e60018503815181101515610d5157fe5b9060200190602002015191508e84815181101515610d6b57fe5b90602001906020020151905081600160a060020a031681600160a060020a03161415611185576003841080610dcc57508e60038503815181101515610dac57fe5b90602001906020020151600160a060020a031682600160a060020a031614155b15610ee25781600160a060020a03166318160ddd6040518163ffffffff167c0100000000000000000000000000000000000000000000000000000000028152600401602060405180830381600087803b158015610e2857600080fd5b505af1158015610e3c573d6000803e3d6000fd5b505050506040513d6020811015610e5257600080fd5b5051604080517f8da5cb5b0000000000000000000000000000000000000000000000000000000081529051919a50600160a060020a03841691638da5cb5b916004808201926020929091908290030181600087803b158015610eb357600080fd5b505af1158015610ec7573d6000803e3d6000fd5b505050506040513d6020811015610edd57600080fd5b505195505b85600160a060020a031663d8959512846040518263ffffffff167c01000000000000000000000000000000000000000000000000000000000281526004018082600160a060020a0316600160a060020a03168152602001915050602060405180830381600087803b158015610f5657600080fd5b505af1158015610f6a573d6000803e3d6000fd5b505050506040513d6020811015610f8057600080fd5b5051604080517f0e53aae9000000000000000000000000000000000000000000000000000000008152600160a060020a0386811660048301529151929a5090881691630e53aae99160248082019260a0929091908290030181600087803b158015610fea57600080fd5b505af1158015610ffe573d6000803e3d6000fd5b505050506040513d60a081101561101457600080fd5b50602090810151604080517f29a00e7c000000000000000000000000000000000000000000000000000000008152600481018d9052602481018c905263ffffffff83166044820152606481018f90529051919950600160a060020a038816926329a00e7c926084808401938290030181600087803b15801561109557600080fd5b505af11580156110a9573d6000803e3d6000fd5b505050506040513d60208110156110bf57600080fd5b5051604080517f579cd3ca0000000000000000000000000000000000000000000000000000000081529051919c5061117591620f42409161116991600160a060020a038b169163579cd3ca9160048083019260209291908290030181600087803b15801561112c57600080fd5b505af1158015611140573d6000803e3d6000fd5b505050506040513d602081101561115657600080fd5b50518e9063ffffffff9081169061201016565b9063ffffffff61204916565b9a8b90039a9950978a0197611623565b81600160a060020a031683600160a060020a0316141561154b5760038410806111da57508e600385038151811015156111ba57fe5b90602001906020020151600160a060020a031682600160a060020a031614155b156112f05781600160a060020a03166318160ddd6040518163ffffffff167c0100000000000000000000000000000000000000000000000000000000028152600401602060405180830381600087803b15801561123657600080fd5b505af115801561124a573d6000803e3d6000fd5b505050506040513d602081101561126057600080fd5b5051604080517f8da5cb5b0000000000000000000000000000000000000000000000000000000081529051919a50600160a060020a03841691638da5cb5b916004808201926020929091908290030181600087803b1580156112c157600080fd5b505af11580156112d5573d6000803e3d6000fd5b505050506040513d60208110156112eb57600080fd5b505195505b85600160a060020a031663d8959512826040518263ffffffff167c01000000000000000000000000000000000000000000000000000000000281526004018082600160a060020a0316600160a060020a03168152602001915050602060405180830381600087803b15801561136457600080fd5b505af1158015611378573d6000803e3d6000fd5b505050506040513d602081101561138e57600080fd5b5051604080517f0e53aae9000000000000000000000000000000000000000000000000000000008152600160a060020a0384811660048301529151929a5090881691630e53aae99160248082019260a0929091908290030181600087803b1580156113f857600080fd5b505af115801561140c573d6000803e3d6000fd5b505050506040513d60a081101561142257600080fd5b50602090810151604080517f49f9b0f7000000000000000000000000000000000000000000000000000000008152600481018d9052602481018c905263ffffffff83166044820152606481018f90529051919950600160a060020a038816926349f9b0f7926084808401938290030181600087803b1580156114a357600080fd5b505af11580156114b7573d6000803e3d6000fd5b505050506040513d60208110156114cd57600080fd5b5051604080517f579cd3ca0000000000000000000000000000000000000000000000000000000081529051919c5061153a91620f42409161116991600160a060020a038b169163579cd3ca9160048083019260209291908290030181600087803b15801561112c57600080fd5b9950898b039a508a89039850611623565b600384108061158657508e6003850381518110151561156657fe5b90602001906020020151600160a060020a031682600160a060020a031614155b156116115781600160a060020a0316638da5cb5b6040518163ffffffff167c0100000000000000000000000000000000000000000000000000000000028152600401602060405180830381600087803b1580156115e257600080fd5b505af11580156115f6573d6000803e3d6000fd5b505050506040513d602081101561160c57600080fd5b505195505b61161d8684838e61206c565b909b5099505b600284019350610d1a565b50989d979c50969a5050505050505050505050565b60006116548a8a8a8a600080611b03565b9a9950505050505050505050565b60008087600081518110151561167457fe5b90602001906020020151905061168c8133308a6121a3565b61169a888888888888611b03565b98975050505050505050565b60035474010000000000000000000000000000000000000000900460ff1681565b60008054600160a060020a03163314806116fc575060035474010000000000000000000000000000000000000000900460ff16155b151561170757600080fd5b6117307f436f6e7472616374526567697374727900000000000000000000000000000000611f78565b600254909150600160a060020a038083169116148015906117595750600160a060020a03811615155b151561176457600080fd5b604080517fbb34534c0000000000000000000000000000000000000000000000000000000081527f436f6e747261637452656769737472790000000000000000000000000000000060048201529051600091600160a060020a0384169163bb34534c9160248082019260209290919082900301818787803b1580156117e857600080fd5b505af11580156117fc573d6000803e3d6000fd5b505050506040513d602081101561181257600080fd5b5051600160a060020a0316141561182857600080fd5b6002805460038054600160a060020a0380841673ffffffffffffffffffffffffffffffffffffffff19928316179092559091169216919091179055565b600061169a888888888787611b03565b6000611885868686338787611b03565b9695505050505050565b60045481565b600054600160a060020a031633146118ac57600080fd5b82600160a060020a03811615156118c257600080fd5b82600160a060020a03811615156118d857600080fd5b83600160a060020a0381163014156118ef57600080fd5b85600160a060020a031663a9059cbb86866040518363ffffffff167c01000000000000000000000000000000000000000000000000000000000281526004018083600160a060020a0316600160a060020a0316815260200182815260200192505050600060405180830381600087803b15801561196b57600080fd5b505af115801561197f573d6000803e3d6000fd5b50505050505050505050565b600354600160a060020a031681565b60006119ad8b8b8b8b8b8b600080611d1b565b9b9a5050505050505050505050565b60085460009081906119d990600160a060020a031682808061206c565b915091509091565b60006119f289898989600080611b03565b9998505050505050505050565b600154600160a060020a03163314611a1657600080fd5b60015460008054604051600160a060020a0393841693909116917f343765429aea5a34b3ff6a3785a98a5abb2597aca87bfbb58632c173d585373a91a3600180546000805473ffffffffffffffffffffffffffffffffffffffff19908116600160a060020a03841617909155169055565b600254600160a060020a031681565b60056020526000908152604090205460ff1681565b60066020526000908152604090205460ff1681565b600054600160a060020a031681565b60006116548a8a8a8a8a8a8989611d1b565b600181565b60075460009081906119d990600160a060020a031682808061206c565b600080600060028951118015611b1b57506015895111155b8015611b2c57508851600290066001145b1515611b3757600080fd5b611b418987612434565b1515611b4c57600080fd5b611b70896000815181101515611b5e57fe5b90602001906020020151896000612711565b611b7d89898988886127d8565b91508860018a5103815181101515611b9157fe5b6020908102909101810151600160a060020a0381166000908152600590925260409091205490915060ff1615611c5a5780600160a060020a031663205c287887846040518363ffffffff167c01000000000000000000000000000000000000000000000000000000000281526004018083600160a060020a0316600160a060020a0316815260200182815260200192505050600060405180830381600087803b158015611c3d57600080fd5b505af1158015611c51573d6000803e3d6000fd5b50505050611c66565b611c66813088856121a3565b50979650505050505050565b6000611c8385858585600080611662565b95945050505050565b600054600160a060020a03163314611ca357600080fd5b6003546002805473ffffffffffffffffffffffffffffffffffffffff1916600160a060020a03909216919091179055565b6000611ce7878787878787600080611d1b565b979650505050505050565b6000611d02848484600080611ecb565b949350505050565b6000611c8385858585600080611b03565b60008060028a51118015611d31575060158a5111155b8015611d4257508951600290066001145b1515611d4d57600080fd5b611d767f424e54546f6b656e000000000000000000000000000000000000000000000000611f78565b600160a060020a03168a60018c5103815181101515611d9157fe5b60209081029091010151600160a060020a031614611dae57600080fd5b611dd28a6000815181101515611dc057fe5b906020019060200201518a6001612711565b611ddf8a8a8a87876127d8565b9050611e0a7f42616e636f725800000000000000000000000000000000000000000000000000611f78565b604080517f427c0374000000000000000000000000000000000000000000000000000000008152600481018a90526024810189905260448101849052606481018890529051600160a060020a03929092169163427c03749160848082019260009290919082900301818387803b158015611e8357600080fd5b505af1158015611e97573d6000803e3d6000fd5b50929c9b505050505050505050505050565b600061169a888888888888600080611d1b565b600154600160a060020a031681565b6000611885868686338787611662565b600054600160a060020a03163314611ef257600080fd5b600054600160a060020a0382811691161415611f0d57600080fd5b6001805473ffffffffffffffffffffffffffffffffffffffff1916600160a060020a0392909216919091179055565b6000611d02848484600080611875565b600054600160a060020a03163314611f6357600080fd5b620f4240811115611f7357600080fd5b600455565b600254604080517fbb34534c000000000000000000000000000000000000000000000000000000008152600481018490529051600092600160a060020a03169163bb34534c91602480830192602092919082900301818787803b158015611fde57600080fd5b505af1158015611ff2573d6000803e3d6000fd5b505050506040513d602081101561200857600080fd5b505192915050565b6000808315156120235760009150612042565b5082820282848281151561203357fe5b041461203e57600080fd5b8091505b5092915050565b60008080831161205857600080fd5b828481151561206357fe5b04949350505050565b600080612077612e6d565b604080517f67657452657475726e28616464726573732c616464726573732c75696e74323581527f36290000000000000000000000000000000000000000000000000000000000006020808301919091528251918290036022018220600160a060020a03808b166024850152891660448401526064808401899052845180850390910181526084909301845290820180517bffffffffffffffffffffffffffffffffffffffffffffffffffffffff167fffffffff000000000000000000000000000000000000000000000000000000007c01000000000000000000000000000000000000000000000000000000009384900490930292909216919091178152815191929184918b5afa80151561218c57600080fd5b505080516020909101519097909650945050505050565b60008085600160a060020a03166370a08231856040518263ffffffff167c01000000000000000000000000000000000000000000000000000000000281526004018082600160a060020a0316600160a060020a03168152602001915050602060405180830381600087803b15801561221a57600080fd5b505af115801561222e573d6000803e3d6000fd5b505050506040513d602081101561224457600080fd5b50519150600160a060020a0385163014156122f25785600160a060020a031663a9059cbb85856040518363ffffffff167c01000000000000000000000000000000000000000000000000000000000281526004018083600160a060020a0316600160a060020a0316815260200182815260200192505050600060405180830381600087803b1580156122d557600080fd5b505af11580156122e9573d6000803e3d6000fd5b5050505061237e565b604080517f23b872dd000000000000000000000000000000000000000000000000000000008152600160a060020a0387811660048301528681166024830152604482018690529151918816916323b872dd9160648082019260009290919082900301818387803b15801561236557600080fd5b505af1158015612379573d6000803e3d6000fd5b505050505b85600160a060020a03166370a08231856040518263ffffffff167c01000000000000000000000000000000000000000000000000000000000281526004018082600160a060020a0316600160a060020a03168152602001915050602060405180830381600087803b1580156123f257600080fd5b505af1158015612406573d6000803e3d6000fd5b505050506040513d602081101561241c57600080fd5b5051905081811161242c57600080fd5b505050505050565b60008060008060006124657f436f6e7472616374466561747572657300000000000000000000000000000000611f78565b9350600192505b865183101561270257868381518110151561248357fe5b90602001906020020151600160a060020a0316638da5cb5b6040518163ffffffff167c0100000000000000000000000000000000000000000000000000000000028152600401602060405180830381600087803b1580156124e357600080fd5b505af11580156124f7573d6000803e3d6000fd5b505050506040513d602081101561250d57600080fd5b5051604080517fa5fbf287000000000000000000000000000000000000000000000000000000008152600160a060020a0380841660048301526001602483015291519294509086169163a5fbf287916044808201926020929091908290030181600087803b15801561257e57600080fd5b505af1158015612592573d6000803e3d6000fd5b505050506040513d60208110156125a857600080fd5b5051156126f75781600160a060020a031663c45d3d926040518163ffffffff167c0100000000000000000000000000000000000000000000000000000000028152600401602060405180830381600087803b15801561260657600080fd5b505af115801561261a573d6000803e3d6000fd5b505050506040513d602081101561263057600080fd5b50519050600160a060020a038116158015906126e9575080600160a060020a0316633af32abf876040518263ffffffff167c01000000000000000000000000000000000000000000000000000000000281526004018082600160a060020a0316600160a060020a03168152602001915050602060405180830381600087803b1580156126bb57600080fd5b505af11580156126cf573d6000803e3d6000fd5b505050506040513d60208110156126e557600080fd5b5051155b156126f75760009450612707565b60028301925061246c565b600194505b5050505092915050565b60003411156127c15734821480156127415750600160a060020a03831660009081526005602052604090205460ff165b151561274c57600080fd5b82600160a060020a031663d0e30db0346040518263ffffffff167c01000000000000000000000000000000000000000000000000000000000281526004016000604051808303818588803b1580156127a357600080fd5b505af11580156127b7573d6000803e3d6000fd5b50505050506127d3565b80156127d3576127d3833330856121a3565b505050565b8451600090819086907fffffffffffffffffffffffffffffffffffffffffffffffffffffffffffffffff0182808080600160a060020a038a16151561282b57881561282257600080fd5b60009350612874565b88600010801561283d57506004548911155b151561284857600080fd5b6128717f424e54546f6b656e000000000000000000000000000000000000000000000000611f78565b93505b600292505b848311612c96578c6001840381518110151561289157fe5b90602001906020020151600160a060020a0316638da5cb5b6040518163ffffffff167c0100000000000000000000000000000000000000000000000000000000028152600401602060405180830381600087803b1580156128f157600080fd5b505af1158015612905573d6000803e3d6000fd5b505050506040513d602081101561291b57600080fd5b50518d519092508d907ffffffffffffffffffffffffffffffffffffffffffffffffffffffffffffffffe850190811061295057fe5b90602001906020020151600160a060020a03168d6001850381518110151561297457fe5b60209081029091010151600160a060020a0316146129b1576129b18d600285038151811015156129a057fe5b906020019060200201518388612ca7565b81600160a060020a0316635e5144eb8e600286038151811015156129d157fe5b906020019060200201518f868151811015156129e957fe5b9060200190602002015189898814612a02576001612a04565b8f5b6040518563ffffffff167c01000000000000000000000000000000000000000000000000000000000281526004018085600160a060020a0316600160a060020a0316815260200184600160a060020a0316600160a060020a03168152602001838152602001828152602001945050505050602060405180830381600087803b158015612a8f57600080fd5b505af1158015612aa3573d6000803e3d6000fd5b505050506040513d6020811015612ab957600080fd5b50518d51909750600160a060020a038516908e9085908110612ad757fe5b90602001906020020151600160a060020a03161415612bdd57612b07620f4240611169898c63ffffffff61201016565b90508c83815181101515612b1757fe5b90602001906020020151600160a060020a031663a9059cbb8b836040518363ffffffff167c01000000000000000000000000000000000000000000000000000000000281526004018083600160a060020a0316600160a060020a0316815260200182815260200192505050602060405180830381600087803b158015612b9c57600080fd5b505af1158015612bb0573d6000803e3d6000fd5b505050506040513d6020811015612bc657600080fd5b50511515612bd357600080fd5b8087039650600093505b8c83815181101515612beb57fe5b90602001906020020151600160a060020a03168d60028503815181101515612c0f57fe5b90602001906020020151600160a060020a03168e60018603815181101515612c3357fe5b6020908102909101810151604080518b81529283018c9052338382015251600160a060020a03909116917f7154b38b5dd31bb3122436a96d4e09aba5b323ae1fd580025fab55074334c095919081900360600190a4869550600283019250612879565b50949b9a5050505050505050505050565b604080517fdd62ed3e000000000000000000000000000000000000000000000000000000008152306004820152600160a060020a038481166024830152915160009286169163dd62ed3e91604480830192602092919082900301818787803b158015612d1257600080fd5b505af1158015612d26573d6000803e3d6000fd5b505050506040513d6020811015612d3c57600080fd5b5051905081811015612e67576000811115612dd257604080517f095ea7b3000000000000000000000000000000000000000000000000000000008152600160a060020a03858116600483015260006024830181905292519087169263095ea7b3926044808201939182900301818387803b158015612db957600080fd5b505af1158015612dcd573d6000803e3d6000fd5b505050505b83600160a060020a031663095ea7b384846040518363ffffffff167c01000000000000000000000000000000000000000000000000000000000281526004018083600160a060020a0316600160a060020a0316815260200182815260200192505050600060405180830381600087803b158015612e4e57600080fd5b505af1158015612e62573d6000803e3d6000fd5b505050505b50505050565b604080518082018252906002908290803883395091929150505600a165627a7a72305820cfe8425d1676231f77737af4376a106657963a6672a5abf60c511243af0532fa0029608060405234801561001057600080fd5b506040516020806100f2833981016040525160005560bf806100336000396000f300608060405260043610603e5763ffffffff7c01000000000000000000000000000000000000000000000000000000006000350416631e1401f881146043575b600080fd5b348015604e57600080fd5b50607773ffffffffffffffffffffffffffffffffffffffff600435811690602435166044356089565b60408051918252519081900360200190f35b60005493925050505600a165627a7a72305820ef0b9eb524ccfb418e01a387b971399cb8ff6121a7113df109501c0ec1c62da90029608060405234801561001057600080fd5b5060405160408061010a83398101604052805160209091015160009190915560015560ca806100406000396000f300608060405260043610603e5763ffffffff7c01000000000000000000000000000000000000000000000000000000006000350416631e1401f881146043575b600080fd5b348015604e57600080fd5b50607773ffffffffffffffffffffffffffffffffffffffff600435811690602435166044356090565b6040805192835260208301919091528051918290030190f35b6000546001549350939150505600a165627a7a723058205a7da5a558c0cfa63d72efe07cf93e448fa51e1f318fa091704e55b4e8fe80010029",
  "source": "pragma solidity 0.4.26;\nimport '../BancorNetwork.sol';\n\ncontract OldBancorConverter {\n    uint256 private amount;\n\n    constructor(uint256 _amount) public {\n        amount = _amount;\n    }\n\n    function getReturn(IERC20Token _fromToken, IERC20Token _toToken, uint256 _amount) external view returns (uint256) {\n        _fromToken;\n        _toToken;\n        _amount;\n        return (amount);\n    }\n}\n\ncontract NewBancorConverter {\n    uint256 private amount;\n    uint256 private fee;\n\n    constructor(uint256 _amount, uint256 _fee) public {\n        amount = _amount;\n        fee = _fee;\n    }\n\n    function getReturn(IERC20Token _fromToken, IERC20Token _toToken, uint256 _amount) external view returns (uint256, uint256) {\n        _fromToken;\n        _toToken;\n        _amount;\n        return (amount, fee);\n    }\n}\n\ncontract TestBancorNetwork is BancorNetwork {\n    OldBancorConverter private oldBancorConverter;\n    NewBancorConverter private newBancorConverter;\n\n    constructor(uint256 _amount, uint256 _fee) public BancorNetwork(IContractRegistry(address(1))) {\n        oldBancorConverter = new OldBancorConverter(_amount);\n        newBancorConverter = new NewBancorConverter(_amount, _fee);\n    }\n\n    function getReturnOld() external view returns (uint256, uint256) {\n        return getReturn(address(oldBancorConverter), IERC20Token(0), IERC20Token(0), uint256(0));\n    }\n\n    function getReturnNew() external view returns (uint256, uint256) {\n        return getReturn(address(newBancorConverter), IERC20Token(0), IERC20Token(0), uint256(0));\n    }\n}\n",
  "sourcePath": "/home/faycal/Desktop/projects/BancorCompoundPool/contracts/contracts/helpers/TestBancorNetwork.sol",
  "compiler": {
    "name": "solc",
    "version": "0.4.26+commit.4563c3fc.Emscripten.clang"
  },
  "schemaVersion": "3.1.0",
  "updatedAt": "2020-04-17T21:34:25.399Z",
  "devdoc": {
    "methods": {
      "acceptOwnership()": {
        "details": "used by a new owner to accept an ownership transfer\r"
      },
      "claimAndConvert(address[],uint256,uint256)": {
        "details": "deprecated, backward compatibility\r"
      },
      "claimAndConvert2(address[],uint256,uint256,address,uint256)": {
        "details": "claims the caller's tokens, converts them to any other token in the bancor network\r by following a predefined conversion path and transfers the result tokens back to the sender\r note that allowance must be set beforehand\r \r",
        "params": {
          "_affiliateAccount": "affiliate account\r",
          "_affiliateFee": "affiliate fee in PPM\r \r",
          "_amount": "amount to convert from (in the initial source token)\r",
          "_minReturn": "if the conversion results in an amount smaller than the minimum return - it is cancelled, must be nonzero\r",
          "_path": "conversion path, see conversion path format above\r"
        },
        "return": "tokens issued in return\r"
      },
      "claimAndConvertFor(address[],uint256,uint256,address)": {
        "details": "deprecated, backward compatibility\r"
      },
      "claimAndConvertFor2(address[],uint256,uint256,address,address,uint256)": {
        "details": "claims the caller's tokens, converts them to any other token in the bancor network\r by following a predefined conversion path and transfers the result tokens to a target account\r note that allowance must be set beforehand\r \r",
        "params": {
          "_affiliateAccount": "affiliate account\r",
          "_affiliateFee": "affiliate fee in PPM\r \r",
          "_amount": "amount to convert from (in the initial source token)\r",
          "_for": "account that will receive the conversion result\r",
          "_minReturn": "if the conversion results in an amount smaller than the minimum return - it is cancelled, must be nonzero\r",
          "_path": "conversion path, see conversion path format above\r"
        },
        "return": "tokens issued in return\r"
      },
      "convert(address[],uint256,uint256)": {
        "details": "deprecated, backward compatibility\r"
      },
      "convert2(address[],uint256,uint256,address,uint256)": {
        "details": "converts the token to any other token in the bancor network by following\r a predefined conversion path and transfers the result tokens back to the sender\r note that the network should already own the source tokens\r \r",
        "params": {
          "_affiliateAccount": "affiliate account\r",
          "_affiliateFee": "affiliate fee in PPM\r \r",
          "_amount": "amount to convert from (in the initial source token)\r",
          "_minReturn": "if the conversion results in an amount smaller than the minimum return - it is cancelled, must be nonzero\r",
          "_path": "conversion path, see conversion path format above\r"
        },
        "return": "tokens issued in return\r"
      },
      "convertFor(address[],uint256,uint256,address)": {
        "details": "deprecated, backward compatibility\r"
      },
      "convertFor2(address[],uint256,uint256,address,address,uint256)": {
        "details": "converts the token to any other token in the bancor network by following\r a predefined conversion path and transfers the result tokens to a target account\r note that the network should already own the source tokens\r \r",
        "params": {
          "_affiliateAccount": "affiliate account\r",
          "_affiliateFee": "affiliate fee in PPM\r \r",
          "_amount": "amount to convert from (in the initial source token)\r",
          "_for": "account that will receive the conversion result\r",
          "_minReturn": "if the conversion results in an amount smaller than the minimum return - it is cancelled, must be nonzero\r",
          "_path": "conversion path, see conversion path format above\r"
        },
        "return": "tokens issued in return\r"
      },
      "convertForPrioritized(address[],uint256,uint256,address,uint256,uint256,uint8,bytes32,bytes32)": {
        "details": "deprecated, backward compatibility\r"
      },
      "convertForPrioritized2(address[],uint256,uint256,address,uint256,uint8,bytes32,bytes32)": {
        "details": "deprecated, backward compatibility\r"
      },
      "convertForPrioritized3(address[],uint256,uint256,address,uint256,uint256,uint8,bytes32,bytes32)": {
        "details": "deprecated, backward compatibility\r"
      },
      "convertForPrioritized4(address[],uint256,uint256,address,uint256[],address,uint256)": {
        "details": "deprecated, backward compatibility\r"
      },
      "getReturnByPath(address[],uint256)": {
        "details": "calculates the expected return of converting a given amount on a given path\r note that there is no support for circular paths\r \r",
        "params": {
          "_amount": "amount of _path[0] tokens received from the user\r \r",
          "_path": "conversion path (see conversion path format above)\r"
        },
        "return": "amount of _path[_path.length - 1] tokens that the user will receive\ramount of _path[_path.length - 1] tokens that the user will pay as fee\r"
      },
      "registerEtherToken(address,bool)": {
        "details": "allows the owner to register/unregister ether tokens\r \r",
        "params": {
          "_register": "true to register, false to unregister\r",
          "_token": "ether token contract address\r"
        }
      },
      "restoreRegistry()": {
        "details": "restores the previous contract-registry\r"
      },
      "restrictRegistryUpdate(bool)": {
        "details": "restricts the permission to update the contract-registry\r \r",
        "params": {
          "_onlyOwnerCanUpdateRegistry": "indicates whether or not permission is restricted to owner only\r"
        }
      },
      "setMaxAffiliateFee(uint256)": {
        "details": "allows the owner to update the maximum affiliate-fee\r \r",
        "params": {
          "_maxAffiliateFee": "maximum affiliate-fee\r"
        }
      },
      "transferOwnership(address)": {
        "details": "allows transferring the contract ownership\r the new owner still needs to accept the transfer\r can only be called by the contract owner\r \r",
        "params": {
          "_newOwner": "new contract owner\r"
        }
      },
      "updateRegistry()": {
        "details": "updates to the new contract-registry\r"
      },
      "withdrawTokens(address,address,uint256)": {
        "details": "withdraws tokens held by the contract and sends them to an account\r can only be called by the owner\r \r",
        "params": {
          "_amount": "amount to withdraw\r",
          "_to": "account to receive the new amount\r",
          "_token": "ERC20 token contract address\r"
        }
      },
      "xConvert(address[],uint256,uint256,bytes32,bytes32,uint256)": {
        "details": "deprecated, backward compatibility\r"
      },
      "xConvert2(address[],uint256,uint256,bytes32,bytes32,uint256,address,uint256)": {
        "details": "converts any other token to BNT in the bancor network\r by following a predefined conversion path and transfers the resulting\r tokens to BancorX.\r note that the network should already have been given allowance of the source token (if not ETH)\r \r",
        "params": {
          "_affiliateAccount": "affiliate account\r",
          "_affiliateFee": "affiliate fee in PPM\r \r",
          "_amount": "amount to convert from (in the initial source token)\r",
          "_conversionId": "pre-determined unique (if non zero) id which refers to this transaction \r",
          "_minReturn": "if the conversion results in an amount smaller than the minimum return - it is cancelled, must be nonzero\r",
          "_path": "conversion path, see conversion path format above\r",
          "_to": "address/account on _toBlockchain to send the BNT to\r",
          "_toBlockchain": "blockchain BNT will be issued on\r"
        },
        "return": "the amount of BNT received from this conversion\r"
      },
      "xConvertPrioritized(address[],uint256,uint256,bytes32,bytes32,uint256,uint256,uint8,bytes32,bytes32)": {
        "details": "deprecated, backward compatibility\r"
      },
      "xConvertPrioritized2(address[],uint256,uint256,bytes32,bytes32,uint256,uint256[])": {
        "details": "deprecated, backward compatibility\r"
      },
      "xConvertPrioritized3(address[],uint256,uint256,bytes32,bytes32,uint256,uint256[],address,uint256)": {
        "details": "deprecated, backward compatibility\r"
      }
    }
  },
  "userdoc": {
    "methods": {}
  }
}