{
  "contractName": "TokenHolder",
  "abi": [
    {
      "constant": false,
      "inputs": [],
      "name": "acceptOwnership",
      "outputs": [],
      "payable": false,
      "stateMutability": "nonpayable",
      "type": "function"
    },
    {
      "constant": true,
      "inputs": [],
      "name": "owner",
      "outputs": [
        {
          "name": "",
          "type": "address"
        }
      ],
      "payable": false,
      "stateMutability": "view",
      "type": "function"
    },
    {
      "constant": true,
      "inputs": [],
      "name": "newOwner",
      "outputs": [
        {
          "name": "",
          "type": "address"
        }
      ],
      "payable": false,
      "stateMutability": "view",
      "type": "function"
    },
    {
      "constant": false,
      "inputs": [
        {
          "name": "_newOwner",
          "type": "address"
        }
      ],
      "name": "transferOwnership",
      "outputs": [],
      "payable": false,
      "stateMutability": "nonpayable",
      "type": "function"
    },
    {
      "inputs": [],
      "payable": false,
      "stateMutability": "nonpayable",
      "type": "constructor"
    },
    {
      "anonymous": false,
      "inputs": [
        {
          "indexed": true,
          "name": "_prevOwner",
          "type": "address"
        },
        {
          "indexed": true,
          "name": "_newOwner",
          "type": "address"
        }
      ],
      "name": "OwnerUpdate",
      "type": "event"
    },
    {
      "constant": false,
      "inputs": [
        {
          "name": "_token",
          "type": "address"
        },
        {
          "name": "_to",
          "type": "address"
        },
        {
          "name": "_amount",
          "type": "uint256"
        }
      ],
      "name": "withdrawTokens",
      "outputs": [],
      "payable": false,
      "stateMutability": "nonpayable",
      "type": "function"
    }
  ],
  "bytecode": "0x608060405234801561001057600080fd5b5060008054600160a060020a03191633179055610442806100326000396000f30060806040526004361061006c5763ffffffff7c01000000000000000000000000000000000000000000000000000000006000350416635e35359e811461007157806379ba5097146100aa5780638da5cb5b146100bf578063d4ee1d90146100fd578063f2fde38b14610112575b600080fd5b34801561007d57600080fd5b506100a873ffffffffffffffffffffffffffffffffffffffff60043581169060243516604435610140565b005b3480156100b657600080fd5b506100a8610291565b3480156100cb57600080fd5b506100d461034b565b6040805173ffffffffffffffffffffffffffffffffffffffff9092168252519081900360200190f35b34801561010957600080fd5b506100d4610367565b34801561011e57600080fd5b506100a873ffffffffffffffffffffffffffffffffffffffff60043516610383565b60005473ffffffffffffffffffffffffffffffffffffffff16331461016457600080fd5b8273ffffffffffffffffffffffffffffffffffffffff8116151561018757600080fd5b8273ffffffffffffffffffffffffffffffffffffffff811615156101aa57600080fd5b8373ffffffffffffffffffffffffffffffffffffffff81163014156101ce57600080fd5b8573ffffffffffffffffffffffffffffffffffffffff1663a9059cbb86866040518363ffffffff167c0100000000000000000000000000000000000000000000000000000000028152600401808373ffffffffffffffffffffffffffffffffffffffff1673ffffffffffffffffffffffffffffffffffffffff16815260200182815260200192505050600060405180830381600087803b15801561027157600080fd5b505af1158015610285573d6000803e3d6000fd5b50505050505050505050565b60015473ffffffffffffffffffffffffffffffffffffffff1633146102b557600080fd5b6001546000805460405173ffffffffffffffffffffffffffffffffffffffff93841693909116917f343765429aea5a34b3ff6a3785a98a5abb2597aca87bfbb58632c173d585373a91a360018054600080547fffffffffffffffffffffffff000000000000000000000000000000000000000090811673ffffffffffffffffffffffffffffffffffffffff841617909155169055565b60005473ffffffffffffffffffffffffffffffffffffffff1681565b60015473ffffffffffffffffffffffffffffffffffffffff1681565b60005473ffffffffffffffffffffffffffffffffffffffff1633146103a757600080fd5b60005473ffffffffffffffffffffffffffffffffffffffff828116911614156103cf57600080fd5b600180547fffffffffffffffffffffffff00000000000000000000000000000000000000001673ffffffffffffffffffffffffffffffffffffffff929092169190911790555600a165627a7a72305820ed7caa88e0124ccea1540e2961ab199959a348c3442e6b3351bfa459d24c3e1c0029",
  "source": "pragma solidity 0.4.26;\r\nimport './Owned.sol';\r\nimport './Utils.sol';\r\nimport './interfaces/ITokenHolder.sol';\r\nimport '../token/interfaces/INonStandardERC20.sol';\r\nimport '../token/interfaces/IERC20Token.sol';\r\n\r\n/**\r\n  * @dev We consider every contract to be a 'token holder' since it's currently not possible\r\n  * for a contract to deny receiving tokens.\r\n  * \r\n  * The TokenHolder's contract sole purpose is to provide a safety mechanism that allows\r\n  * the owner to send tokens that were sent to the contract by mistake back to their sender.\r\n  * \r\n  * Note that we use the non standard ERC-20 interface which has no return value for transfer\r\n  * in order to support both non standard as well as standard token contracts.\r\n  * see https://github.com/ethereum/solidity/issues/4116\r\n*/\r\ncontract TokenHolder is ITokenHolder, Owned, Utils {\r\n    /**\r\n      * @dev initializes a new TokenHolder instance\r\n    */\r\n    constructor() public {\r\n    }\r\n\r\n    /**\r\n      * @dev withdraws tokens held by the contract and sends them to an account\r\n      * can only be called by the owner\r\n      * \r\n      * @param _token   ERC20 token contract address\r\n      * @param _to      account to receive the new amount\r\n      * @param _amount  amount to withdraw\r\n    */\r\n    function withdrawTokens(IERC20Token _token, address _to, uint256 _amount)\r\n        public\r\n        ownerOnly\r\n        validAddress(_token)\r\n        validAddress(_to)\r\n        notThis(_to)\r\n    {\r\n        INonStandardERC20(_token).transfer(_to, _amount);\r\n    }\r\n}\r\n",
  "sourcePath": "/home/faycal/Desktop/projects/BancorCompoundPool/contracts/contracts/utility/TokenHolder.sol",
  "compiler": {
    "name": "solc",
    "version": "0.4.26+commit.4563c3fc.Emscripten.clang"
  },
  "schemaVersion": "3.1.0",
  "updatedAt": "2020-04-17T21:34:25.441Z",
  "devdoc": {
    "methods": {
      "acceptOwnership()": {
        "details": "used by a new owner to accept an ownership transfer\r"
      },
      "transferOwnership(address)": {
        "details": "allows transferring the contract ownership\r the new owner still needs to accept the transfer\r can only be called by the contract owner\r \r",
        "params": {
          "_newOwner": "new contract owner\r"
        }
      },
      "withdrawTokens(address,address,uint256)": {
        "details": "withdraws tokens held by the contract and sends them to an account\r can only be called by the owner\r \r",
        "params": {
          "_amount": "amount to withdraw\r",
          "_to": "account to receive the new amount\r",
          "_token": "ERC20 token contract address\r"
        }
      }
    }
  },
  "userdoc": {
    "methods": {}
  }
}