{
  "contractName": "Whitelist",
  "abi": [
    {
      "constant": false,
      "inputs": [],
      "name": "acceptOwnership",
      "outputs": [],
      "payable": false,
      "stateMutability": "nonpayable",
      "type": "function"
    },
    {
      "constant": true,
      "inputs": [],
      "name": "owner",
      "outputs": [
        {
          "name": "",
          "type": "address"
        }
      ],
      "payable": false,
      "stateMutability": "view",
      "type": "function"
    },
    {
      "constant": true,
      "inputs": [],
      "name": "newOwner",
      "outputs": [
        {
          "name": "",
          "type": "address"
        }
      ],
      "payable": false,
      "stateMutability": "view",
      "type": "function"
    },
    {
      "constant": false,
      "inputs": [
        {
          "name": "_newOwner",
          "type": "address"
        }
      ],
      "name": "transferOwnership",
      "outputs": [],
      "payable": false,
      "stateMutability": "nonpayable",
      "type": "function"
    },
    {
      "inputs": [],
      "payable": false,
      "stateMutability": "nonpayable",
      "type": "constructor"
    },
    {
      "anonymous": false,
      "inputs": [
        {
          "indexed": false,
          "name": "_address",
          "type": "address"
        }
      ],
      "name": "AddressAddition",
      "type": "event"
    },
    {
      "anonymous": false,
      "inputs": [
        {
          "indexed": false,
          "name": "_address",
          "type": "address"
        }
      ],
      "name": "AddressRemoval",
      "type": "event"
    },
    {
      "anonymous": false,
      "inputs": [
        {
          "indexed": true,
          "name": "_prevOwner",
          "type": "address"
        },
        {
          "indexed": true,
          "name": "_newOwner",
          "type": "address"
        }
      ],
      "name": "OwnerUpdate",
      "type": "event"
    },
    {
      "constant": true,
      "inputs": [
        {
          "name": "_address",
          "type": "address"
        }
      ],
      "name": "isWhitelisted",
      "outputs": [
        {
          "name": "",
          "type": "bool"
        }
      ],
      "payable": false,
      "stateMutability": "view",
      "type": "function"
    },
    {
      "constant": false,
      "inputs": [
        {
          "name": "_address",
          "type": "address"
        }
      ],
      "name": "addAddress",
      "outputs": [],
      "payable": false,
      "stateMutability": "nonpayable",
      "type": "function"
    },
    {
      "constant": false,
      "inputs": [
        {
          "name": "_addresses",
          "type": "address[]"
        }
      ],
      "name": "addAddresses",
      "outputs": [],
      "payable": false,
      "stateMutability": "nonpayable",
      "type": "function"
    },
    {
      "constant": false,
      "inputs": [
        {
          "name": "_address",
          "type": "address"
        }
      ],
      "name": "removeAddress",
      "outputs": [],
      "payable": false,
      "stateMutability": "nonpayable",
      "type": "function"
    },
    {
      "constant": false,
      "inputs": [
        {
          "name": "_addresses",
          "type": "address[]"
        }
      ],
      "name": "removeAddresses",
      "outputs": [],
      "payable": false,
      "stateMutability": "nonpayable",
      "type": "function"
    }
  ],
  "bytecode": "0x608060405234801561001057600080fd5b5060008054600160a060020a03191633179055610666806100326000396000f3006080604052600436106100985763ffffffff7c01000000000000000000000000000000000000000000000000000000006000350416633628731c811461009d57806338eada1c146100f45780633af32abf146101225780634ba79dfe1461016457806379ba5097146101925780638da5cb5b146101a7578063a84eb999146101e5578063d4ee1d901461023a578063f2fde38b1461024f575b600080fd5b3480156100a957600080fd5b50604080516020600480358082013583810280860185019096528085526100f29536959394602494938501929182918501908490808284375094975061027d9650505050505050565b005b34801561010057600080fd5b506100f273ffffffffffffffffffffffffffffffffffffffff600435166102b5565b34801561012e57600080fd5b5061015073ffffffffffffffffffffffffffffffffffffffff60043516610398565b604080519115158252519081900360200190f35b34801561017057600080fd5b506100f273ffffffffffffffffffffffffffffffffffffffff600435166103c3565b34801561019e57600080fd5b506100f2610481565b3480156101b357600080fd5b506101bc61053b565b6040805173ffffffffffffffffffffffffffffffffffffffff9092168252519081900360200190f35b3480156101f157600080fd5b50604080516020600480358082013583810280860185019096528085526100f2953695939460249493850192918291850190849080828437509497506105579650505050505050565b34801561024657600080fd5b506101bc61058b565b34801561025b57600080fd5b506100f273ffffffffffffffffffffffffffffffffffffffff600435166105a7565b60005b81518110156102b1576102a9828281518110151561029a57fe5b906020019060200201516102b5565b600101610280565b5050565b60005473ffffffffffffffffffffffffffffffffffffffff1633146102d957600080fd5b8073ffffffffffffffffffffffffffffffffffffffff811615156102fc57600080fd5b73ffffffffffffffffffffffffffffffffffffffff821660009081526002602052604090205460ff161561032f576102b1565b73ffffffffffffffffffffffffffffffffffffffff8216600081815260026020908152604091829020805460ff19166001179055815192835290517f2c51f80053e9ee7518567e43b2f8e8b48f50cf10daede6d11893df9ad49e4a8a9281900390910190a15050565b73ffffffffffffffffffffffffffffffffffffffff1660009081526002602052604090205460ff1690565b60005473ffffffffffffffffffffffffffffffffffffffff1633146103e757600080fd5b73ffffffffffffffffffffffffffffffffffffffff811660009081526002602052604090205460ff16151561041b5761047e565b73ffffffffffffffffffffffffffffffffffffffff8116600081815260026020908152604091829020805460ff19169055815192835290517f7ec2df28665f8610f9b1d2f74faae35dbc6bd58684a1194a6dfc31584953f03b9281900390910190a15b50565b60015473ffffffffffffffffffffffffffffffffffffffff1633146104a557600080fd5b6001546000805460405173ffffffffffffffffffffffffffffffffffffffff93841693909116917f343765429aea5a34b3ff6a3785a98a5abb2597aca87bfbb58632c173d585373a91a360018054600080547fffffffffffffffffffffffff000000000000000000000000000000000000000090811673ffffffffffffffffffffffffffffffffffffffff841617909155169055565b60005473ffffffffffffffffffffffffffffffffffffffff1681565b60005b81518110156102b157610583828281518110151561057457fe5b906020019060200201516103c3565b60010161055a565b60015473ffffffffffffffffffffffffffffffffffffffff1681565b60005473ffffffffffffffffffffffffffffffffffffffff1633146105cb57600080fd5b60005473ffffffffffffffffffffffffffffffffffffffff828116911614156105f357600080fd5b600180547fffffffffffffffffffffffff00000000000000000000000000000000000000001673ffffffffffffffffffffffffffffffffffffffff929092169190911790555600a165627a7a72305820373577d3ad46d708b2113807e1a808f11676a1c09f56e7f79f76fd0bb13768980029",
  "source": "pragma solidity 0.4.26;\r\nimport './Owned.sol';\r\nimport './Utils.sol';\r\nimport './interfaces/IWhitelist.sol';\r\n\r\n/**\r\n  * @dev The contract manages a list of whitelisted addresses\r\n*/\r\ncontract Whitelist is IWhitelist, Owned, Utils {\r\n    mapping (address => bool) private whitelist;\r\n\r\n    /**\r\n      * @dev triggered when an address is added to the whitelist\r\n      * \r\n      * @param _address address that's added from the whitelist\r\n    */\r\n    event AddressAddition(address _address);\r\n\r\n    /**\r\n      * @dev triggered when an address is removed from the whitelist\r\n      * \r\n      * @param _address address that's removed from the whitelist\r\n    */\r\n    event AddressRemoval(address _address);\r\n\r\n    /**\r\n      * @dev initializes a new Whitelist instance\r\n    */\r\n    constructor() public {\r\n    }\r\n\r\n    /**\r\n      * @dev returns true if a given address is whitelisted, false if not\r\n      * \r\n      * @param _address address to check\r\n      * \r\n      * @return true if the address is whitelisted, false if not\r\n    */\r\n    function isWhitelisted(address _address) public view returns (bool) {\r\n        return whitelist[_address];\r\n    }\r\n\r\n    /**\r\n      * @dev adds a given address to the whitelist\r\n      * \r\n      * @param _address address to add\r\n    */\r\n    function addAddress(address _address)\r\n        ownerOnly\r\n        validAddress(_address)\r\n        public \r\n    {\r\n        if (whitelist[_address]) // checks if the address is already whitelisted\r\n            return;\r\n\r\n        whitelist[_address] = true;\r\n        emit AddressAddition(_address);\r\n    }\r\n\r\n    /**\r\n      * @dev adds a list of addresses to the whitelist\r\n      * \r\n      * @param _addresses addresses to add\r\n    */\r\n    function addAddresses(address[] _addresses) public {\r\n        for (uint256 i = 0; i < _addresses.length; i++) {\r\n            addAddress(_addresses[i]);\r\n        }\r\n    }\r\n\r\n    /**\r\n      * @dev removes a given address from the whitelist\r\n      * \r\n      * @param _address address to remove\r\n    */\r\n    function removeAddress(address _address) ownerOnly public {\r\n        if (!whitelist[_address]) // checks if the address is actually whitelisted\r\n            return;\r\n\r\n        whitelist[_address] = false;\r\n        emit AddressRemoval(_address);\r\n    }\r\n\r\n    /**\r\n      * @dev removes a list of addresses from the whitelist\r\n      * \r\n      * @param _addresses addresses to remove\r\n    */\r\n    function removeAddresses(address[] _addresses) public {\r\n        for (uint256 i = 0; i < _addresses.length; i++) {\r\n            removeAddress(_addresses[i]);\r\n        }\r\n    }\r\n}\r\n",
  "sourcePath": "/home/faycal/Desktop/projects/BancorCompoundPool/bancorContracts/solidity/contracts/utility/Whitelist.sol",
  "compiler": {
    "name": "solc",
    "version": "0.4.26+commit.4563c3fc.Emscripten.clang"
  },
  "schemaVersion": "3.0.22",
  "updatedAt": "2020-04-03T06:39:09.904Z",
  "devdoc": {
    "methods": {
      "acceptOwnership()": {
        "details": "used by a new owner to accept an ownership transfer\r"
      },
      "addAddress(address)": {
        "details": "adds a given address to the whitelist\r \r",
        "params": {
          "_address": "address to add\r"
        }
      },
      "addAddresses(address[])": {
        "details": "adds a list of addresses to the whitelist\r \r",
        "params": {
          "_addresses": "addresses to add\r"
        }
      },
      "isWhitelisted(address)": {
        "details": "returns true if a given address is whitelisted, false if not\r \r",
        "params": {
          "_address": "address to check\r \r"
        },
        "return": "true if the address is whitelisted, false if not\r"
      },
      "removeAddress(address)": {
        "details": "removes a given address from the whitelist\r \r",
        "params": {
          "_address": "address to remove\r"
        }
      },
      "removeAddresses(address[])": {
        "details": "removes a list of addresses from the whitelist\r \r",
        "params": {
          "_addresses": "addresses to remove\r"
        }
      },
      "transferOwnership(address)": {
        "details": "allows transferring the contract ownership\r the new owner still needs to accept the transfer\r can only be called by the contract owner\r \r",
        "params": {
          "_newOwner": "new contract owner\r"
        }
      }
    }
  },
  "userdoc": {
    "methods": {}
  }
}