{
  "contractName": "XTransferRerouter",
  "abi": [
    {
      "constant": false,
      "inputs": [],
      "name": "acceptOwnership",
      "outputs": [],
      "payable": false,
      "stateMutability": "nonpayable",
      "type": "function"
    },
    {
      "constant": true,
      "inputs": [],
      "name": "owner",
      "outputs": [
        {
          "name": "",
          "type": "address"
        }
      ],
      "payable": false,
      "stateMutability": "view",
      "type": "function"
    },
    {
      "constant": true,
      "inputs": [],
      "name": "newOwner",
      "outputs": [
        {
          "name": "",
          "type": "address"
        }
      ],
      "payable": false,
      "stateMutability": "view",
      "type": "function"
    },
    {
      "constant": true,
      "inputs": [],
      "name": "reroutingEnabled",
      "outputs": [
        {
          "name": "",
          "type": "bool"
        }
      ],
      "payable": false,
      "stateMutability": "view",
      "type": "function"
    },
    {
      "constant": false,
      "inputs": [
        {
          "name": "_newOwner",
          "type": "address"
        }
      ],
      "name": "transferOwnership",
      "outputs": [],
      "payable": false,
      "stateMutability": "nonpayable",
      "type": "function"
    },
    {
      "inputs": [
        {
          "name": "_reroutingEnabled",
          "type": "bool"
        }
      ],
      "payable": false,
      "stateMutability": "nonpayable",
      "type": "constructor"
    },
    {
      "anonymous": false,
      "inputs": [
        {
          "indexed": true,
          "name": "_txId",
          "type": "uint256"
        },
        {
          "indexed": false,
          "name": "_toBlockchain",
          "type": "bytes32"
        },
        {
          "indexed": false,
          "name": "_to",
          "type": "bytes32"
        }
      ],
      "name": "TxReroute",
      "type": "event"
    },
    {
      "anonymous": false,
      "inputs": [
        {
          "indexed": true,
          "name": "_prevOwner",
          "type": "address"
        },
        {
          "indexed": true,
          "name": "_newOwner",
          "type": "address"
        }
      ],
      "name": "OwnerUpdate",
      "type": "event"
    },
    {
      "constant": false,
      "inputs": [
        {
          "name": "_enable",
          "type": "bool"
        }
      ],
      "name": "enableRerouting",
      "outputs": [],
      "payable": false,
      "stateMutability": "nonpayable",
      "type": "function"
    },
    {
      "constant": false,
      "inputs": [
        {
          "name": "_txId",
          "type": "uint256"
        },
        {
          "name": "_blockchain",
          "type": "bytes32"
        },
        {
          "name": "_to",
          "type": "bytes32"
        }
      ],
      "name": "rerouteTx",
      "outputs": [],
      "payable": false,
      "stateMutability": "nonpayable",
      "type": "function"
    }
  ],
  "bytecode": "0x608060405234801561001057600080fd5b5060405160208061049b833981016040525160008054600160a060020a0319163317905560018054911515740100000000000000000000000000000000000000000260a060020a60ff0219909216919091179055610428806100736000396000f3006080604052600436106100825763ffffffff7c010000000000000000000000000000000000000000000000000000000060003504166379ba509781146100875780638da5cb5b1461009e578063a3ebe71c146100dc578063d4ee1d90146100f6578063e3db16f71461010b578063edd63c3514610129578063f2fde38b14610152575b600080fd5b34801561009357600080fd5b5061009c610180565b005b3480156100aa57600080fd5b506100b361023a565b6040805173ffffffffffffffffffffffffffffffffffffffff9092168252519081900360200190f35b3480156100e857600080fd5b5061009c6004351515610256565b34801561010257600080fd5b506100b36102c4565b34801561011757600080fd5b5061009c6004356024356044356102e0565b34801561013557600080fd5b5061013e610348565b604080519115158252519081900360200190f35b34801561015e57600080fd5b5061009c73ffffffffffffffffffffffffffffffffffffffff60043516610369565b60015473ffffffffffffffffffffffffffffffffffffffff1633146101a457600080fd5b6001546000805460405173ffffffffffffffffffffffffffffffffffffffff93841693909116917f343765429aea5a34b3ff6a3785a98a5abb2597aca87bfbb58632c173d585373a91a360018054600080547fffffffffffffffffffffffff000000000000000000000000000000000000000090811673ffffffffffffffffffffffffffffffffffffffff841617909155169055565b60005473ffffffffffffffffffffffffffffffffffffffff1681565b60005473ffffffffffffffffffffffffffffffffffffffff16331461027a57600080fd5b6001805491151574010000000000000000000000000000000000000000027fffffffffffffffffffffff00ffffffffffffffffffffffffffffffffffffffff909216919091179055565b60015473ffffffffffffffffffffffffffffffffffffffff1681565b60015474010000000000000000000000000000000000000000900460ff16151561030957600080fd5b6040805183815260208101839052815185927fb5c80f971fb729e469ffa874c60425659ce82cb4adcfba9731af35ef87b6e619928290030190a2505050565b60015474010000000000000000000000000000000000000000900460ff1681565b60005473ffffffffffffffffffffffffffffffffffffffff16331461038d57600080fd5b60005473ffffffffffffffffffffffffffffffffffffffff828116911614156103b557600080fd5b600180547fffffffffffffffffffffffff00000000000000000000000000000000000000001673ffffffffffffffffffffffffffffffffffffffff929092169190911790555600a165627a7a72305820f95ecdf7b0d0b32f78df719998288b9be00a0423db4be1e4966b948b17669b680029",
  "source": "pragma solidity 0.4.26;\r\n\r\nimport \"../utility/Owned.sol\";\r\n\r\ncontract XTransferRerouter is Owned {\r\n    bool public reroutingEnabled;\r\n\r\n    // triggered when a rerouteTx is called\r\n    event TxReroute(\r\n        uint256 indexed _txId,\r\n        bytes32 _toBlockchain,\r\n        bytes32 _to\r\n    );\r\n\r\n    /**\r\n      * @dev initializes a new XTransferRerouter instance\r\n      * \r\n      * @param _reroutingEnabled    intializes transactions routing to enabled/disabled   \r\n     */\r\n    constructor(bool _reroutingEnabled) public {\r\n        reroutingEnabled = _reroutingEnabled;\r\n    }\r\n    /**\r\n      * @dev allows the owner to disable/enable rerouting\r\n      * \r\n      * @param _enable     true to enable, false to disable\r\n     */\r\n    function enableRerouting(bool _enable) public ownerOnly {\r\n        reroutingEnabled = _enable;\r\n    }\r\n\r\n    // allows execution only when rerouting enabled\r\n    modifier whenReroutingEnabled {\r\n        require(reroutingEnabled);\r\n        _;\r\n    }\r\n\r\n    /**\r\n      * @dev    allows a user to reroute a transaction to a new blockchain/target address\r\n      * \r\n      * @param _txId        the original transaction id\r\n      * @param _blockchain  the new blockchain name\r\n      * @param _to          the new target address/account\r\n     */\r\n    function rerouteTx(\r\n        uint256 _txId,\r\n        bytes32 _blockchain,\r\n        bytes32 _to\r\n    )\r\n        public\r\n        whenReroutingEnabled \r\n    {\r\n        emit TxReroute(_txId, _blockchain, _to);\r\n    }\r\n\r\n}",
  "sourcePath": "/home/faycal/Desktop/projects/BancorCompoundPool/contracts/contracts/bancorx/XTransferRerouter.sol",
  "compiler": {
    "name": "solc",
    "version": "0.4.26+commit.4563c3fc.Emscripten.clang"
  },
  "schemaVersion": "3.1.0",
  "updatedAt": "2020-04-17T21:34:25.166Z",
  "devdoc": {
    "methods": {
      "acceptOwnership()": {
        "details": "used by a new owner to accept an ownership transfer\r"
      },
      "enableRerouting(bool)": {
        "details": "allows the owner to disable/enable rerouting\r \r",
        "params": {
          "_enable": "true to enable, false to disable\r"
        }
      },
      "rerouteTx(uint256,bytes32,bytes32)": {
        "details": "allows a user to reroute a transaction to a new blockchain/target address\r \r",
        "params": {
          "_blockchain": "the new blockchain name\r",
          "_to": "the new target address/account\r",
          "_txId": "the original transaction id\r"
        }
      },
      "transferOwnership(address)": {
        "details": "allows transferring the contract ownership\r the new owner still needs to accept the transfer\r can only be called by the contract owner\r \r",
        "params": {
          "_newOwner": "new contract owner\r"
        }
      }
    }
  },
  "userdoc": {
    "methods": {}
  }
}